{
  "contractName": "Artist",
  "abi": [
    {
      "constant": true,
      "inputs": [],
      "name": "artist",
      "outputs": [
        {
          "name": "",
          "type": "address"
        }
      ],
      "payable": false,
      "stateMutability": "view",
      "type": "function"
    },
    {
      "constant": false,
      "inputs": [],
      "name": "renounceOwnership",
      "outputs": [],
      "payable": false,
      "stateMutability": "nonpayable",
      "type": "function"
    },
    {
      "constant": true,
      "inputs": [],
      "name": "owner",
      "outputs": [
        {
          "name": "",
          "type": "address"
        }
      ],
      "payable": false,
      "stateMutability": "view",
      "type": "function"
    },
    {
      "constant": true,
      "inputs": [],
      "name": "isOwner",
      "outputs": [
        {
          "name": "",
          "type": "bool"
        }
      ],
      "payable": false,
      "stateMutability": "view",
      "type": "function"
    },
    {
      "constant": true,
      "inputs": [
        {
          "name": "",
          "type": "uint256"
        }
      ],
      "name": "works",
      "outputs": [
        {
          "name": "",
          "type": "bool"
        }
      ],
      "payable": false,
      "stateMutability": "view",
      "type": "function"
    },
    {
      "constant": false,
      "inputs": [
        {
          "name": "newOwner",
          "type": "address"
        }
      ],
      "name": "transferOwnership",
      "outputs": [],
      "payable": false,
      "stateMutability": "nonpayable",
      "type": "function"
    },
    {
      "inputs": [
        {
          "name": "_folia",
          "type": "address"
        },
        {
          "name": "_artist",
          "type": "address"
        },
        {
          "name": "_works",
          "type": "uint256[]"
        }
      ],
      "payable": false,
      "stateMutability": "nonpayable",
      "type": "constructor"
    },
    {
      "anonymous": false,
      "inputs": [
        {
          "indexed": true,
          "name": "previousOwner",
          "type": "address"
        },
        {
          "indexed": true,
          "name": "newOwner",
          "type": "address"
        }
      ],
      "name": "OwnershipTransferred",
      "type": "event"
    },
    {
      "constant": false,
      "inputs": [
        {
          "name": "recipient",
          "type": "address"
        },
        {
          "name": "tokenId",
          "type": "uint256"
        }
      ],
      "name": "mint",
      "outputs": [],
      "payable": false,
      "stateMutability": "nonpayable",
      "type": "function"
    }
  ],
  "bytecode": "0x608060405234801561001057600080fd5b506040516109dd3803806109dd8339810180604052606081101561003357600080fd5b810190808051906020019092919080519060200190929190805164010000000081111561005f57600080fd5b8281019050602081018481111561007557600080fd5b815185602082028301116401000000008211171561009257600080fd5b5050929190505050336000806101000a81548173ffffffffffffffffffffffffffffffffffffffff021916908373ffffffffffffffffffffffffffffffffffffffff1602179055506000809054906101000a900473ffffffffffffffffffffffffffffffffffffffff1673ffffffffffffffffffffffffffffffffffffffff16600073ffffffffffffffffffffffffffffffffffffffff167f8be0079c531659141344cd1fd0a4f28419497f9722a3daafe3b4186f6b6457e060405160405180910390a382600360006101000a81548173ffffffffffffffffffffffffffffffffffffffff021916908373ffffffffffffffffffffffffffffffffffffffff16021790555081600260006101000a81548173ffffffffffffffffffffffffffffffffffffffff021916908373ffffffffffffffffffffffffffffffffffffffff16021790555060008090505b815181101561023657600180600084848151811015156101fa57fe5b90602001906020020151815260200190815260200160002060006101000a81548160ff02191690831515021790555080806001019150506101de565b50505050610794806102496000396000f3fe608060405260043610610083576000357c0100000000000000000000000000000000000000000000000000000000900463ffffffff16806340c10f191461008857806343bc1612146100e3578063715018a61461013a5780638da5cb5b146101515780638f32d59b146101a8578063c66e1dd5146101d7578063f2fde38b1461022a575b600080fd5b34801561009457600080fd5b506100e1600480360360408110156100ab57600080fd5b81019080803573ffffffffffffffffffffffffffffffffffffffff1690602001909291908035906020019092919050505061027b565b005b3480156100ef57600080fd5b506100f86104b7565b604051808273ffffffffffffffffffffffffffffffffffffffff1673ffffffffffffffffffffffffffffffffffffffff16815260200191505060405180910390f35b34801561014657600080fd5b5061014f6104dd565b005b34801561015d57600080fd5b506101666105af565b604051808273ffffffffffffffffffffffffffffffffffffffff1673ffffffffffffffffffffffffffffffffffffffff16815260200191505060405180910390f35b3480156101b457600080fd5b506101bd6105d8565b604051808215151515815260200191505060405180910390f35b3480156101e357600080fd5b50610210600480360360208110156101fa57600080fd5b810190808035906020019092919050505061062f565b604051808215151515815260200191505060405180910390f35b34801561023657600080fd5b506102796004803603602081101561024d57600080fd5b81019080803573ffffffffffffffffffffffffffffffffffffffff16906020019092919050505061064f565b005b600260009054906101000a900473ffffffffffffffffffffffffffffffffffffffff1673ffffffffffffffffffffffffffffffffffffffff163373ffffffffffffffffffffffffffffffffffffffff16141515610340576040517f08c379a000000000000000000000000000000000000000000000000000000000815260040180806020018281038252600a8152602001807f4e6f74204172746973740000000000000000000000000000000000000000000081525060200191505060405180910390fd5b6001600082815260200190815260200160002060009054906101000a900460ff161515156103d6576040517f08c379a000000000000000000000000000000000000000000000000000000000815260040180806020018281038252601b8152602001807f4172746973742063616e2774206d696e74207468617420776f726b000000000081525060200191505060405180910390fd5b600360009054906101000a900473ffffffffffffffffffffffffffffffffffffffff1673ffffffffffffffffffffffffffffffffffffffff166340c10f1983836040518363ffffffff167c0100000000000000000000000000000000000000000000000000000000028152600401808373ffffffffffffffffffffffffffffffffffffffff1673ffffffffffffffffffffffffffffffffffffffff16815260200182815260200192505050600060405180830381600087803b15801561049b57600080fd5b505af11580156104af573d6000803e3d6000fd5b505050505050565b600260009054906101000a900473ffffffffffffffffffffffffffffffffffffffff1681565b6104e56105d8565b15156104f057600080fd5b600073ffffffffffffffffffffffffffffffffffffffff166000809054906101000a900473ffffffffffffffffffffffffffffffffffffffff1673ffffffffffffffffffffffffffffffffffffffff167f8be0079c531659141344cd1fd0a4f28419497f9722a3daafe3b4186f6b6457e060405160405180910390a360008060006101000a81548173ffffffffffffffffffffffffffffffffffffffff021916908373ffffffffffffffffffffffffffffffffffffffff160217905550565b60008060009054906101000a900473ffffffffffffffffffffffffffffffffffffffff16905090565b60008060009054906101000a900473ffffffffffffffffffffffffffffffffffffffff1673ffffffffffffffffffffffffffffffffffffffff163373ffffffffffffffffffffffffffffffffffffffff1614905090565b60016020528060005260406000206000915054906101000a900460ff1681565b6106576105d8565b151561066257600080fd5b61066b8161066e565b50565b600073ffffffffffffffffffffffffffffffffffffffff168173ffffffffffffffffffffffffffffffffffffffff16141515156106aa57600080fd5b8073ffffffffffffffffffffffffffffffffffffffff166000809054906101000a900473ffffffffffffffffffffffffffffffffffffffff1673ffffffffffffffffffffffffffffffffffffffff167f8be0079c531659141344cd1fd0a4f28419497f9722a3daafe3b4186f6b6457e060405160405180910390a3806000806101000a81548173ffffffffffffffffffffffffffffffffffffffff021916908373ffffffffffffffffffffffffffffffffffffffff1602179055505056fea165627a7a723058207f01043248a91d91335f3d85bea103f2ee4196a7899888f74a8d68853414b7e60029",
  "source": "pragma solidity ^0.5.0;\n\nimport \"./Folia.sol\";\n\ncontract Artist is Ownable {\n    mapping(uint256 => bool) public works;\n    address public artist;\n    Folia folia;\n    constructor(Folia _folia, address _artist, uint256[] memory _works) public {\n      folia = _folia;\n      artist = _artist;\n      for (uint i = 0; i < _works.length; i++) {\n        works[_works[i]] = true;\n      }\n    }\n\n    modifier onlyArtist() {\n      require(msg.sender == artist, \"Not Artist\");\n      _;\n    }\n\n    function mint(address recipient, uint256 tokenId) public onlyArtist {\n      require(!works[tokenId], \"Artist can't mint that work\");\n      folia.mint(recipient, tokenId);\n    }\n}",
  "sourcePath": "/Users/billy/GitHub/folia-app/folia-contracts/contracts/Artist.sol",
  "compiler": {
    "name": "solc",
    "version": "0.5.0+commit.1d4f565a.Emscripten.clang"
  },
  "schemaVersion": "3.0.5",
  "updatedAt": "2021-03-13T17:55:46.075Z",
  "devdoc": {
    "methods": {
      "isOwner()": {
        "return": "true if `msg.sender` is the owner of the contract."
      },
      "owner()": {
        "return": "the address of the owner."
      },
      "renounceOwnership()": {
        "details": "Allows the current owner to relinquish control of the contract."
      },
      "transferOwnership(address)": {
        "details": "Allows the current owner to transfer control of the contract to a newOwner.",
        "params": {
          "newOwner": "The address to transfer ownership to."
        }
      }
    }
  },
  "userdoc": {
    "methods": {
      "renounceOwnership()": {
        "notice": "Renouncing to ownership will leave the contract without an owner. It will not be possible to call the functions with the `onlyOwner` modifier anymore."
      }
    }
  }
}