{
  "contractName": "CryptoPunksMarket",
  "abi": [
    {
      "constant": true,
      "inputs": [],
      "name": "name",
      "outputs": [
        {
          "name": "",
          "type": "string"
        }
      ],
      "payable": false,
      "stateMutability": "view",
      "type": "function"
    },
    {
      "constant": true,
      "inputs": [
        {
          "name": "",
          "type": "uint256"
        }
      ],
      "name": "punksOfferedForSale",
      "outputs": [
        {
          "name": "isForSale",
          "type": "bool"
        },
        {
          "name": "punkIndex",
          "type": "uint256"
        },
        {
          "name": "seller",
          "type": "address"
        },
        {
          "name": "minValue",
          "type": "uint256"
        },
        {
          "name": "onlySellTo",
          "type": "address"
        }
      ],
      "payable": false,
      "stateMutability": "view",
      "type": "function"
    },
    {
      "constant": true,
      "inputs": [],
      "name": "totalSupply",
      "outputs": [
        {
          "name": "",
          "type": "uint256"
        }
      ],
      "payable": false,
      "stateMutability": "view",
      "type": "function"
    },
    {
      "constant": true,
      "inputs": [],
      "name": "decimals",
      "outputs": [
        {
          "name": "",
          "type": "uint8"
        }
      ],
      "payable": false,
      "stateMutability": "view",
      "type": "function"
    },
    {
      "constant": true,
      "inputs": [],
      "name": "imageHash",
      "outputs": [
        {
          "name": "",
          "type": "string"
        }
      ],
      "payable": false,
      "stateMutability": "view",
      "type": "function"
    },
    {
      "constant": true,
      "inputs": [],
      "name": "nextPunkIndexToAssign",
      "outputs": [
        {
          "name": "",
          "type": "uint256"
        }
      ],
      "payable": false,
      "stateMutability": "view",
      "type": "function"
    },
    {
      "constant": true,
      "inputs": [
        {
          "name": "",
          "type": "uint256"
        }
      ],
      "name": "punkIndexToAddress",
      "outputs": [
        {
          "name": "",
          "type": "address"
        }
      ],
      "payable": false,
      "stateMutability": "view",
      "type": "function"
    },
    {
      "constant": true,
      "inputs": [],
      "name": "standard",
      "outputs": [
        {
          "name": "",
          "type": "string"
        }
      ],
      "payable": false,
      "stateMutability": "view",
      "type": "function"
    },
    {
      "constant": true,
      "inputs": [
        {
          "name": "",
          "type": "uint256"
        }
      ],
      "name": "punkBids",
      "outputs": [
        {
          "name": "hasBid",
          "type": "bool"
        },
        {
          "name": "punkIndex",
          "type": "uint256"
        },
        {
          "name": "bidder",
          "type": "address"
        },
        {
          "name": "value",
          "type": "uint256"
        }
      ],
      "payable": false,
      "stateMutability": "view",
      "type": "function"
    },
    {
      "constant": true,
      "inputs": [
        {
          "name": "",
          "type": "address"
        }
      ],
      "name": "balanceOf",
      "outputs": [
        {
          "name": "",
          "type": "uint256"
        }
      ],
      "payable": false,
      "stateMutability": "view",
      "type": "function"
    },
    {
      "constant": true,
      "inputs": [],
      "name": "allPunksAssigned",
      "outputs": [
        {
          "name": "",
          "type": "bool"
        }
      ],
      "payable": false,
      "stateMutability": "view",
      "type": "function"
    },
    {
      "constant": true,
      "inputs": [],
      "name": "symbol",
      "outputs": [
        {
          "name": "",
          "type": "string"
        }
      ],
      "payable": false,
      "stateMutability": "view",
      "type": "function"
    },
    {
      "constant": true,
      "inputs": [],
      "name": "punksRemainingToAssign",
      "outputs": [
        {
          "name": "",
          "type": "uint256"
        }
      ],
      "payable": false,
      "stateMutability": "view",
      "type": "function"
    },
    {
      "constant": true,
      "inputs": [
        {
          "name": "",
          "type": "address"
        }
      ],
      "name": "pendingWithdrawals",
      "outputs": [
        {
          "name": "",
          "type": "uint256"
        }
      ],
      "payable": false,
      "stateMutability": "view",
      "type": "function"
    },
    {
      "inputs": [],
      "payable": false,
      "stateMutability": "nonpayable",
      "type": "constructor"
    },
    {
      "anonymous": false,
      "inputs": [
        {
          "indexed": true,
          "name": "to",
          "type": "address"
        },
        {
          "indexed": false,
          "name": "punkIndex",
          "type": "uint256"
        }
      ],
      "name": "Assign",
      "type": "event"
    },
    {
      "anonymous": false,
      "inputs": [
        {
          "indexed": true,
          "name": "from",
          "type": "address"
        },
        {
          "indexed": true,
          "name": "to",
          "type": "address"
        },
        {
          "indexed": false,
          "name": "value",
          "type": "uint256"
        }
      ],
      "name": "Transfer",
      "type": "event"
    },
    {
      "anonymous": false,
      "inputs": [
        {
          "indexed": true,
          "name": "from",
          "type": "address"
        },
        {
          "indexed": true,
          "name": "to",
          "type": "address"
        },
        {
          "indexed": false,
          "name": "punkIndex",
          "type": "uint256"
        }
      ],
      "name": "PunkTransfer",
      "type": "event"
    },
    {
      "anonymous": false,
      "inputs": [
        {
          "indexed": true,
          "name": "punkIndex",
          "type": "uint256"
        },
        {
          "indexed": false,
          "name": "minValue",
          "type": "uint256"
        },
        {
          "indexed": true,
          "name": "toAddress",
          "type": "address"
        }
      ],
      "name": "PunkOffered",
      "type": "event"
    },
    {
      "anonymous": false,
      "inputs": [
        {
          "indexed": true,
          "name": "punkIndex",
          "type": "uint256"
        },
        {
          "indexed": false,
          "name": "value",
          "type": "uint256"
        },
        {
          "indexed": true,
          "name": "fromAddress",
          "type": "address"
        }
      ],
      "name": "PunkBidEntered",
      "type": "event"
    },
    {
      "anonymous": false,
      "inputs": [
        {
          "indexed": true,
          "name": "punkIndex",
          "type": "uint256"
        },
        {
          "indexed": false,
          "name": "value",
          "type": "uint256"
        },
        {
          "indexed": true,
          "name": "fromAddress",
          "type": "address"
        }
      ],
      "name": "PunkBidWithdrawn",
      "type": "event"
    },
    {
      "anonymous": false,
      "inputs": [
        {
          "indexed": true,
          "name": "punkIndex",
          "type": "uint256"
        },
        {
          "indexed": false,
          "name": "value",
          "type": "uint256"
        },
        {
          "indexed": true,
          "name": "fromAddress",
          "type": "address"
        },
        {
          "indexed": true,
          "name": "toAddress",
          "type": "address"
        }
      ],
      "name": "PunkBought",
      "type": "event"
    },
    {
      "anonymous": false,
      "inputs": [
        {
          "indexed": true,
          "name": "punkIndex",
          "type": "uint256"
        }
      ],
      "name": "PunkNoLongerForSale",
      "type": "event"
    },
    {
      "constant": false,
      "inputs": [
        {
          "name": "to",
          "type": "address"
        },
        {
          "name": "punkIndex",
          "type": "uint256"
        }
      ],
      "name": "setInitialOwner",
      "outputs": [],
      "payable": false,
      "stateMutability": "nonpayable",
      "type": "function"
    },
    {
      "constant": false,
      "inputs": [
        {
          "name": "addresses",
          "type": "address[]"
        },
        {
          "name": "indices",
          "type": "uint256[]"
        }
      ],
      "name": "setInitialOwners",
      "outputs": [],
      "payable": false,
      "stateMutability": "nonpayable",
      "type": "function"
    },
    {
      "constant": false,
      "inputs": [],
      "name": "allInitialOwnersAssigned",
      "outputs": [],
      "payable": false,
      "stateMutability": "nonpayable",
      "type": "function"
    },
    {
      "constant": false,
      "inputs": [
        {
          "name": "punkIndex",
          "type": "uint256"
        }
      ],
      "name": "getPunk",
      "outputs": [],
      "payable": false,
      "stateMutability": "nonpayable",
      "type": "function"
    },
    {
      "constant": false,
      "inputs": [
        {
          "name": "to",
          "type": "address"
        },
        {
          "name": "punkIndex",
          "type": "uint256"
        }
      ],
      "name": "transferPunk",
      "outputs": [],
      "payable": false,
      "stateMutability": "nonpayable",
      "type": "function"
    },
    {
      "constant": false,
      "inputs": [
        {
          "name": "punkIndex",
          "type": "uint256"
        }
      ],
      "name": "punkNoLongerForSale",
      "outputs": [],
      "payable": false,
      "stateMutability": "nonpayable",
      "type": "function"
    },
    {
      "constant": false,
      "inputs": [
        {
          "name": "punkIndex",
          "type": "uint256"
        },
        {
          "name": "minSalePriceInWei",
          "type": "uint256"
        }
      ],
      "name": "offerPunkForSale",
      "outputs": [],
      "payable": false,
      "stateMutability": "nonpayable",
      "type": "function"
    },
    {
      "constant": false,
      "inputs": [
        {
          "name": "punkIndex",
          "type": "uint256"
        },
        {
          "name": "minSalePriceInWei",
          "type": "uint256"
        },
        {
          "name": "toAddress",
          "type": "address"
        }
      ],
      "name": "offerPunkForSaleToAddress",
      "outputs": [],
      "payable": false,
      "stateMutability": "nonpayable",
      "type": "function"
    },
    {
      "constant": false,
      "inputs": [
        {
          "name": "punkIndex",
          "type": "uint256"
        }
      ],
      "name": "buyPunk",
      "outputs": [],
      "payable": true,
      "stateMutability": "payable",
      "type": "function"
    },
    {
      "constant": false,
      "inputs": [],
      "name": "withdraw",
      "outputs": [],
      "payable": false,
      "stateMutability": "nonpayable",
      "type": "function"
    },
    {
      "constant": false,
      "inputs": [
        {
          "name": "punkIndex",
          "type": "uint256"
        }
      ],
      "name": "enterBidForPunk",
      "outputs": [],
      "payable": true,
      "stateMutability": "payable",
      "type": "function"
    },
    {
      "constant": false,
      "inputs": [
        {
          "name": "punkIndex",
          "type": "uint256"
        },
        {
          "name": "minPrice",
          "type": "uint256"
        }
      ],
      "name": "acceptBidForPunk",
      "outputs": [],
      "payable": false,
      "stateMutability": "nonpayable",
      "type": "function"
    },
    {
      "constant": false,
      "inputs": [
        {
          "name": "punkIndex",
          "type": "uint256"
        }
      ],
      "name": "withdrawBidForPunk",
      "outputs": [],
      "payable": false,
      "stateMutability": "nonpayable",
      "type": "function"
    }
  ],
  "bytecode": "0x60e0604090815260808190527f616333396166343739333131396565343662626666333531643863623662356660a09081527f323364613630323232313236616464343236386532363131393961323932316260c05262000064916000919062000189565b5060408051808201909152600b8082527f43727970746f50756e6b730000000000000000000000000000000000000000006020909201918252620000ab9160029162000189565b50600060078190556008805460ff19169055600955348015620000cd57600080fd5b5060018054600160a060020a03191633179055612710600681905560095560408051808201909152600b8082527f43525950544f50554e4b530000000000000000000000000000000000000000006020909201918252620001319160039162000189565b506040805180820190915260028082527fcfbe0000000000000000000000000000000000000000000000000000000000006020909201918252620001789160049162000189565b506005805460ff191690556200022e565b828054600181600116156101000203166002900490600052602060002090601f016020900481019282601f10620001cc57805160ff1916838001178555620001fc565b82800160010185558215620001fc579182015b82811115620001fc578251825591602001919060010190620001df565b506200020a9291506200020e565b5090565b6200022b91905b808211156200020a576000815560010162000215565b90565b611d7e806200023e6000396000f3fe60806040526004361061015e5763ffffffff7c010000000000000000000000000000000000000000000000000000000060003504166306fdde038114610163578063088f11f3146101ed578063091dbfd21461025d57806318160ddd1461027c57806323165b75146102a3578063313ce567146102d357806339c5dde6146102fe5780633ccfd60b1461043257806351605d801461044757806352f29a251461045c57806358178168146104715780635a3b7e42146104c45780636e743fa9146104d957806370a08231146105405780637ecedac9146105805780638126c38a146105955780638264fe98146105be5780638b72a2ec146105db57806395d89b4114610621578063979bc63814610636578063a75a904914610660578063bf31196f146106a6578063c0d6ce63146106f2578063c44193c314610707578063c81d1d5b14610737578063f3f4370314610761578063f6eeff1e146107a1575b600080fd5b34801561016f57600080fd5b506101786107cb565b6040805160208082528351818301528351919283929083019185019080838360005b838110156101b257818101518382015260200161019a565b50505050905090810190601f1680156101df5780820380516001836020036101000a031916815260200191505b509250505060405180910390f35b3480156101f957600080fd5b506102176004803603602081101561021057600080fd5b5035610877565b604080519515158652602086019490945273ffffffffffffffffffffffffffffffffffffffff928316858501526060850191909152166080830152519081900360a00190f35b61027a6004803603602081101561027357600080fd5b50356108c2565b005b34801561028857600080fd5b50610291610a54565b60408051918252519081900360200190f35b3480156102af57600080fd5b5061027a600480360360408110156102c657600080fd5b5080359060200135610a5a565b3480156102df57600080fd5b506102e8610e3a565b6040805160ff9092168252519081900360200190f35b34801561030a57600080fd5b5061027a6004803603604081101561032157600080fd5b81019060208101813564010000000081111561033c57600080fd5b82018360208201111561034e57600080fd5b8035906020019184602083028401116401000000008311171561037057600080fd5b91908080602002602001604051908101604052809392919081815260200183836020028082843760009201919091525092959493602081019350359150506401000000008111156103c057600080fd5b8201836020820111156103d257600080fd5b803590602001918460208302840111640100000000831117156103f457600080fd5b919080806020026020016040519081016040528093929190818152602001838360200280828437600092019190915250929550610e43945050505050565b34801561043e57600080fd5b5061027a610e96565b34801561045357600080fd5b50610178610edb565b34801561046857600080fd5b50610291610f54565b34801561047d57600080fd5b5061049b6004803603602081101561049457600080fd5b5035610f5a565b6040805173ffffffffffffffffffffffffffffffffffffffff9092168252519081900360200190f35b3480156104d057600080fd5b50610178610f82565b3480156104e557600080fd5b50610503600480360360208110156104fc57600080fd5b5035610ff8565b604080519415158552602085019390935273ffffffffffffffffffffffffffffffffffffffff909116838301526060830152519081900360800190f35b34801561054c57600080fd5b506102916004803603602081101561056357600080fd5b503573ffffffffffffffffffffffffffffffffffffffff1661103c565b34801561058c57600080fd5b5061027a61104e565b3480156105a157600080fd5b506105aa61107b565b604080519115158252519081900360200190f35b61027a600480360360208110156105d457600080fd5b5035611084565b3480156105e757600080fd5b5061027a600480360360408110156105fe57600080fd5b5073ffffffffffffffffffffffffffffffffffffffff8135169060200135611348565b34801561062d57600080fd5b506101786115bd565b34801561064257600080fd5b5061027a6004803603602081101561065957600080fd5b5035611636565b34801561066c57600080fd5b5061027a6004803603604081101561068357600080fd5b5073ffffffffffffffffffffffffffffffffffffffff81351690602001356117b0565b3480156106b257600080fd5b5061027a600480360360608110156106c957600080fd5b508035906020810135906040013573ffffffffffffffffffffffffffffffffffffffff16611927565b3480156106fe57600080fd5b50610291611a36565b34801561071357600080fd5b5061027a6004803603604081101561072a57600080fd5b5080359060200135611a3c565b34801561074357600080fd5b5061027a6004803603602081101561075a57600080fd5b5035611b47565b34801561076d57600080fd5b506102916004803603602081101561078457600080fd5b503573ffffffffffffffffffffffffffffffffffffffff16611bf2565b3480156107ad57600080fd5b5061027a600480360360208110156107c457600080fd5b5035611c04565b6003805460408051602060026001851615610100027fffffffffffffffffffffffffffffffffffffffffffffffffffffffffffffffff0190941693909304601f8101849004840282018401909252818152929183018282801561086f5780601f106108445761010080835404028352916020019161086f565b820191906000526020600020905b81548152906001019060200180831161085257829003601f168201915b505050505081565b600c602052600090815260409020805460018201546002830154600384015460049094015460ff90931693919273ffffffffffffffffffffffffffffffffffffffff91821692911685565b6108ca611cfd565b506000818152600d602090815260408083208151608081018352815460ff1615158152600182015493810193909352600281015473ffffffffffffffffffffffffffffffffffffffff169183019190915260030154606082018190529091101561096257606081015160408083015173ffffffffffffffffffffffffffffffffffffffff166000908152600e60205220805490910190555b604080516080810182526001808252602080830186815233848601818152346060870181815260008b8152600d8752899020975188547fffffffffffffffffffffffffffffffffffffffffffffffffffffffffffffff0016901515178855935195870195909555516002860180547fffffffffffffffffffffffff00000000000000000000000000000000000000001673ffffffffffffffffffffffffffffffffffffffff909216919091179055905160039094019390935583519182529251919285927f5b859394fabae0c1ba88baffe67e751ab5248d2e879028b8c8d6897b0519f56a9281900390910190a35050565b60065481565b33610a63611cfd565b506000838152600d602090815260408083208151608081018352815460ff161515815260018083015482860152600283015473ffffffffffffffffffffffffffffffffffffffff90811683860181815260039095015460608501528a8852600a875285882080547fffffffffffffffffffffffff0000000000000000000000000000000000000000169091179055878116808852600b875285882080547fffffffffffffffffffffffffffffffffffffffffffffffffffffffffffffffff01905584518216885296859020805483019055925184519182529351919593909216937fddf252ad1be2c89b69c2b068fc378daa952ba7f163c4a11628f55a4df523b3ef928290030190a360a060405190810160405280600015158152602001858152602001826040015173ffffffffffffffffffffffffffffffffffffffff16815260200160008152602001600073ffffffffffffffffffffffffffffffffffffffff16815250600c600086815260200190815260200160002060008201518160000160006101000a81548160ff0219169083151502179055506020820151816001015560408201518160020160006101000a81548173ffffffffffffffffffffffffffffffffffffffff021916908373ffffffffffffffffffffffffffffffffffffffff1602179055506060820151816003015560808201518160040160006101000a81548173ffffffffffffffffffffffffffffffffffffffff021916908373ffffffffffffffffffffffffffffffffffffffff160217905550905050600081606001519050608060405190810160405280600015158152602001868152602001600073ffffffffffffffffffffffffffffffffffffffff1681526020016000815250600d600087815260200190815260200160002060008201518160000160006101000a81548160ff0219169083151502179055506020820151816001015560408201518160020160006101000a81548173ffffffffffffffffffffffffffffffffffffffff021916908373ffffffffffffffffffffffffffffffffffffffff1602179055506060820151816003015590505080600e60008573ffffffffffffffffffffffffffffffffffffffff1673ffffffffffffffffffffffffffffffffffffffff16815260200190815260200160002060008282540192505081905550816040015173ffffffffffffffffffffffffffffffffffffffff168373ffffffffffffffffffffffffffffffffffffffff16867f58e5d5a525e3b40bc15abaa38b5882678db1ee68befd2f60bafe3a7fd06db9e385606001516040518082815260200191505060405180910390a45050505050565b60055460ff1681565b815160005b81811015610e9057610e888482815181101515610e6157fe5b906020019060200201518483815181101515610e7957fe5b906020019060200201516117b0565b600101610e48565b50505050565b336000818152600e6020526040808220805490839055905190929183156108fc02918491818181858888f19350505050158015610ed7573d6000803e3d6000fd5b5050565b6000805460408051602060026001851615610100027fffffffffffffffffffffffffffffffffffffffffffffffffffffffffffffffff0190941693909304601f8101849004840282018401909252818152929183018282801561086f5780601f106108445761010080835404028352916020019161086f565b60075481565b600a6020526000908152604090205473ffffffffffffffffffffffffffffffffffffffff1681565b600280546040805160206001841615610100027fffffffffffffffffffffffffffffffffffffffffffffffffffffffffffffffff01909316849004601f8101849004840282018401909252818152929183018282801561086f5780601f106108445761010080835404028352916020019161086f565b600d60205260009081526040902080546001820154600283015460039093015460ff90921692909173ffffffffffffffffffffffffffffffffffffffff9091169084565b600b6020526000908152604090205481565b600880547fffffffffffffffffffffffffffffffffffffffffffffffffffffffffffffff00166001179055565b60085460ff1681565b61108c611d24565b506000818152600c60209081526040808320815160a081018352815460ff161515815260018083015482860152600283015473ffffffffffffffffffffffffffffffffffffffff90811683860181905260038501546060850152600490940154166080830152868652600a855283862080547fffffffffffffffffffffffff00000000000000000000000000000000000000001633908117909155838752600b865284872080547fffffffffffffffffffffffffffffffffffffffffffffffffffffffffffffffff019055808752958490208054820190558351908152925190949193919284927fddf252ad1be2c89b69c2b068fc378daa952ba7f163c4a11628f55a4df523b3ef92918290030190a36111a583611c04565b73ffffffffffffffffffffffffffffffffffffffff81166000818152600e60209081526040918290208054349081019091558251908152915133939287927f58e5d5a525e3b40bc15abaa38b5882678db1ee68befd2f60bafe3a7fd06db9e392918290030190a4611214611cfd565b506000838152600d60209081526040918290208251608081018452815460ff1615158152600182015492810192909252600281015473ffffffffffffffffffffffffffffffffffffffff1692820183905260030154606082015290331415610e9057606090810151336000908152600e6020908152604080832080549094019093558251608081018452828152808201888152818501848152958201848152988452600d90925292909120915182547fffffffffffffffffffffffffffffffffffffffffffffffffffffffffffffff001690151517825551600182015590516002820180547fffffffffffffffffffffffff00000000000000000000000000000000000000001673ffffffffffffffffffffffffffffffffffffffff90921691909117905592516003909301929092555050565b6000818152600c602052604090205460ff16156113685761136881611c04565b6000818152600a6020908152604080832080547fffffffffffffffffffffffff00000000000000000000000000000000000000001673ffffffffffffffffffffffffffffffffffffffff871690811790915533808552600b845282852080547fffffffffffffffffffffffffffffffffffffffffffffffffffffffffffffffff0190558185529382902080546001908101909155825190815291519093927fddf252ad1be2c89b69c2b068fc378daa952ba7f163c4a11628f55a4df523b3ef928290030190a360408051828152905173ffffffffffffffffffffffffffffffffffffffff84169133917f05af636b70da6819000c49f85b21fa82081c632069bb626f30932034099107d89181900360200190a3611483611cfd565b506000818152600d60209081526040918290208251608081018452815460ff1615158152600182015492810192909252600281015473ffffffffffffffffffffffffffffffffffffffff9081169383018490526003909101546060830152909190841614156115b85760608181015173ffffffffffffffffffffffffffffffffffffffff8581166000908152600e6020908152604080832080549095019094558351608081018552828152808201888152818601848152968201848152898552600d90935294909220915182547fffffffffffffffffffffffffffffffffffffffffffffffffffffffffffffff00169015151782559251600182015592516002840180547fffffffffffffffffffffffff00000000000000000000000000000000000000001691909216179055516003909101555b505050565b6004805460408051602060026001851615610100027fffffffffffffffffffffffffffffffffffffffffffffffffffffffffffffffff0190941693909304601f8101849004840282018401909252818152929183018282801561086f5780601f106108445761010080835404028352916020019161086f565b61163e611cfd565b506000818152600d60209081526040918290208251608081018452815460ff1615158152600182015481840152600282015473ffffffffffffffffffffffffffffffffffffffff168185015260039091015460608201819052835190815292519092339285927f6f30e1ee4d81dcc7a8a478577f65d2ed2edb120565960ac45fe7c50551c879329281900390910190a36060818101516040805160808101825260008082526020808301888152838501838152968401838152898452600d909252848320935184547fffffffffffffffffffffffffffffffffffffffffffffffffffffffffffffff001690151517845551600184015594516002830180547fffffffffffffffffffffffff00000000000000000000000000000000000000001673ffffffffffffffffffffffffffffffffffffffff909216919091179055935160039091015551909133916108fc84150291849190818181858888f19350505050158015610e90573d6000803e3d6000fd5b6000818152600a602052604090205473ffffffffffffffffffffffffffffffffffffffff838116911614610ed7576000818152600a602052604090205473ffffffffffffffffffffffffffffffffffffffff1615611864576000818152600a602090815260408083205473ffffffffffffffffffffffffffffffffffffffff168352600b909152902080547fffffffffffffffffffffffffffffffffffffffffffffffffffffffffffffffff01905561188d565b600980547fffffffffffffffffffffffffffffffffffffffffffffffffffffffffffffffff0190555b6000818152600a6020908152604080832080547fffffffffffffffffffffffff00000000000000000000000000000000000000001673ffffffffffffffffffffffffffffffffffffffff8716908117909155808452600b83529281902080546001019055805184815290517f8a0e37b73a0d9c82e205d4d1a3ff3d0b57ce5f4d7bccf6bac03336dc101cb7ba929181900390910190a25050565b6040805160a08101825260018082526020808301878152338486019081526060850188815273ffffffffffffffffffffffffffffffffffffffff8881166080880181815260008d8152600c88528a9020985189547fffffffffffffffffffffffffffffffffffffffffffffffffffffffffffffff001690151517895594519688019690965591516002870180547fffffffffffffffffffffffff00000000000000000000000000000000000000009081169285169290921790559051600387015591516004909501805490921694169390931790925582518581529251909286927f3c7b682d5da98001a9b8cbda6c647d2c63d698a4184fd1d55e2ce7b66f5d21eb92918290030190a3505050565b60095481565b6040805160a0810182526001808252602080830186815233848601908152606085018781526000608087018181528a8252600c8652888220975188547fffffffffffffffffffffffffffffffffffffffffffffffffffffffffffffff001690151517885593519587019590955590516002860180547fffffffffffffffffffffffff000000000000000000000000000000000000000090811673ffffffffffffffffffffffffffffffffffffffff9384161790915591516003870155915160049095018054909116949091169390931790925582518481529251909285927f3c7b682d5da98001a9b8cbda6c647d2c63d698a4184fd1d55e2ce7b66f5d21eb92918290030190a35050565b6000818152600a6020908152604080832080547fffffffffffffffffffffffff00000000000000000000000000000000000000001633908117909155808452600b83529281902080546001019055600980547fffffffffffffffffffffffffffffffffffffffffffffffffffffffffffffffff019055805184815290517f8a0e37b73a0d9c82e205d4d1a3ff3d0b57ce5f4d7bccf6bac03336dc101cb7ba929181900390910190a250565b600e6020526000908152604090205481565b6040805160a08101825260008082526020808301858152338486019081526060850184815260808601858152888652600c909452868520955186547fffffffffffffffffffffffffffffffffffffffffffffffffffffffffffffff001690151517865591516001860155516002850180547fffffffffffffffffffffffff000000000000000000000000000000000000000090811673ffffffffffffffffffffffffffffffffffffffff93841617909155915160038601559151600490940180549091169390911692909217909155905182917fb0e0a660b4e50f26f0b7ce75c24655fc76cc66e3334a54ff410277229fa10bd491a250565b60408051608081018252600080825260208201819052918101829052606081019190915290565b6040805160a0810182526000808252602082018190529181018290526060810182905260808101919091529056fea165627a7a72305820d8a6d79f9a0d1dfebc5dd3e1a01a4098dd00012d379df1cff833ab4ce5efae2c0029",
  "source": "pragma solidity ^0.5.0;\n\ncontract CryptoPunksMarket {\n\n    // You can use this hash to verify the image file containing all the punks\n    string public imageHash = \"ac39af4793119ee46bbff351d8cb6b5f23da60222126add4268e261199a2921b\";\n\n    address owner;\n\n    string public standard = 'CryptoPunks';\n    string public name;\n    string public symbol;\n    uint8 public decimals;\n    uint256 public totalSupply;\n\n    uint public nextPunkIndexToAssign = 0;\n\n    bool public allPunksAssigned = false;\n    uint public punksRemainingToAssign = 0;\n\n    //mapping (address => uint) public addressToPunkIndex;\n    mapping (uint => address) public punkIndexToAddress;\n\n    /* This creates an array with all balances */\n    mapping (address => uint256) public balanceOf;\n\n    struct Offer {\n        bool isForSale;\n        uint punkIndex;\n        address seller;\n        uint minValue;          // in ether\n        address onlySellTo;     // specify to sell only to a specific person\n    }\n\n    struct Bid {\n        bool hasBid;\n        uint punkIndex;\n        address bidder;\n        uint value;\n    }\n\n    // A record of punks that are offered for sale at a specific minimum value, and perhaps to a specific person\n    mapping (uint => Offer) public punksOfferedForSale;\n\n    // A record of the highest punk bid\n    mapping (uint => Bid) public punkBids;\n\n    mapping (address => uint) public pendingWithdrawals;\n\n    event Assign(address indexed to, uint256 punkIndex);\n    event Transfer(address indexed from, address indexed to, uint256 value);\n    event PunkTransfer(address indexed from, address indexed to, uint256 punkIndex);\n    event PunkOffered(uint indexed punkIndex, uint minValue, address indexed toAddress);\n    event PunkBidEntered(uint indexed punkIndex, uint value, address indexed fromAddress);\n    event PunkBidWithdrawn(uint indexed punkIndex, uint value, address indexed fromAddress);\n    event PunkBought(uint indexed punkIndex, uint value, address indexed fromAddress, address indexed toAddress);\n    event PunkNoLongerForSale(uint indexed punkIndex);\n\n    /* Initializes contract with initial supply tokens to the creator of the contract */\n    constructor() public {\n        //        balanceOf[msg.sender] = initialSupply;              // Give the creator all initial tokens\n        owner = msg.sender;\n        totalSupply = 10000;                        // Update total supply\n        punksRemainingToAssign = totalSupply;\n        name = \"CRYPTOPUNKS\";                                   // Set the name for display purposes\n        symbol = \"\";                               // Set the symbol for display purposes\n        decimals = 0;                                       // Amount of decimals for display purposes\n    }\n\n    function setInitialOwner(address to, uint punkIndex) public {\n        // if (msg.sender != owner) throw;\n        // if (allPunksAssigned) throw;\n        // if (punkIndex >= 10000) throw;\n        if (punkIndexToAddress[punkIndex] != to) {\n            if (punkIndexToAddress[punkIndex] != address(0x0)) {\n                balanceOf[punkIndexToAddress[punkIndex]]--;\n            } else {\n                punksRemainingToAssign--;\n            }\n            punkIndexToAddress[punkIndex] = to;\n            balanceOf[to]++;\n            emit Assign(to, punkIndex);\n        }\n    }\n\n    function setInitialOwners(address[] memory addresses, uint[] memory indices) public {\n        // if (msg.sender != owner) throw;\n        uint n = addresses.length;\n        for (uint i = 0; i < n; i++) {\n            setInitialOwner(addresses[i], indices[i]);\n        }\n    }\n\n    function allInitialOwnersAssigned() public {\n        // if (msg.sender != owner) throw;\n        allPunksAssigned = true;\n    }\n\n    function getPunk(uint punkIndex) public {\n        // if (!allPunksAssigned) throw;\n        // if (punksRemainingToAssign == 0) throw;\n        // if (punkIndexToAddress[punkIndex] != 0x0) throw;\n        // if (punkIndex >= 10000) throw;\n        punkIndexToAddress[punkIndex] = msg.sender;\n        balanceOf[msg.sender]++;\n        punksRemainingToAssign--;\n        emit Assign(msg.sender, punkIndex);\n    }\n\n    // Transfer ownership of a punk to another user without requiring payment\n    function transferPunk(address to, uint punkIndex) public {\n        // if (!allPunksAssigned) throw;\n        // if (punkIndexToAddress[punkIndex] != msg.sender) throw;\n        // if (punkIndex >= 10000) throw;\n        if (punksOfferedForSale[punkIndex].isForSale) {\n            punkNoLongerForSale(punkIndex);\n        }\n        punkIndexToAddress[punkIndex] = to;\n        balanceOf[msg.sender]--;\n        balanceOf[to]++;\n        emit Transfer(msg.sender, to, 1);\n        emit PunkTransfer(msg.sender, to, punkIndex);\n        // Check for the case where there is a bid from the new owner and refund it.\n        // Any other bid can stay in place.\n        Bid memory bid = punkBids[punkIndex];\n        if (bid.bidder == to) {\n            // Kill bid and refund value\n            pendingWithdrawals[to] += bid.value;\n            punkBids[punkIndex] = Bid(false, punkIndex, address(0x0), 0);\n        }\n    }\n\n    function punkNoLongerForSale(uint punkIndex) public {\n        // if (!allPunksAssigned) throw;\n        // if (punkIndexToAddress[punkIndex] != msg.sender) throw;\n        // if (punkIndex >= 10000) throw;\n        punksOfferedForSale[punkIndex] = Offer(false, punkIndex, msg.sender, 0, address(0x0));\n        emit PunkNoLongerForSale(punkIndex);\n    }\n\n    function offerPunkForSale(uint punkIndex, uint minSalePriceInWei) public {\n        // if (!allPunksAssigned) throw;\n        // if (punkIndexToAddress[punkIndex] != msg.sender) throw;\n        // if (punkIndex >= 10000) throw;\n        punksOfferedForSale[punkIndex] = Offer(true, punkIndex, msg.sender, minSalePriceInWei, address(0x0));\n        emit PunkOffered(punkIndex, minSalePriceInWei, address(0x0));\n    }\n\n    function offerPunkForSaleToAddress(uint punkIndex, uint minSalePriceInWei, address toAddress) public {\n        // if (!allPunksAssigned) throw;\n        // if (punkIndexToAddress[punkIndex] != msg.sender) throw;\n        // if (punkIndex >= 10000) throw;\n        punksOfferedForSale[punkIndex] = Offer(true, punkIndex, msg.sender, minSalePriceInWei, toAddress);\n        emit PunkOffered(punkIndex, minSalePriceInWei, toAddress);\n    }\n\n    function buyPunk(uint punkIndex) payable public {\n        // if (!allPunksAssigned) throw;\n        Offer memory offer = punksOfferedForSale[punkIndex];\n        // if (punkIndex >= 10000) throw;\n        // if (!offer.isForSale) throw;                // punk not actually for sale\n        // if (offer.onlySellTo != 0x0 && offer.onlySellTo != msg.sender) throw;  // punk not supposed to be sold to this user\n        // if (msg.value < offer.minValue) throw;      // Didn't send enough ETH\n        // if (offer.seller != punkIndexToAddress[punkIndex]) throw; // Seller no longer owner of punk\n\n        address seller = offer.seller;\n\n        punkIndexToAddress[punkIndex] = msg.sender;\n        balanceOf[seller]--;\n        balanceOf[msg.sender]++;\n        emit Transfer(seller, msg.sender, 1);\n\n        punkNoLongerForSale(punkIndex);\n        pendingWithdrawals[seller] += msg.value;\n        emit PunkBought(punkIndex, msg.value, seller, msg.sender);\n\n        // Check for the case where there is a bid from the new owner and refund it.\n        // Any other bid can stay in place.\n        Bid memory bid = punkBids[punkIndex];\n        if (bid.bidder == msg.sender) {\n            // Kill bid and refund value\n            pendingWithdrawals[msg.sender] += bid.value;\n            punkBids[punkIndex] = Bid(false, punkIndex, address(0x0), 0);\n        }\n    }\n\n    function withdraw() public {\n        // if (!allPunksAssigned) throw;\n        uint amount = pendingWithdrawals[msg.sender];\n        // Remember to zero the pending refund before\n        // sending to prevent re-entrancy attacks\n        pendingWithdrawals[msg.sender] = 0;\n        msg.sender.transfer(amount);\n    }\n\n    function enterBidForPunk(uint punkIndex) payable public {\n        // if (punkIndex >= 10000) throw;\n        // if (!allPunksAssigned) throw;                \n        // if (punkIndexToAddress[punkIndex] == 0x0) throw;\n        // if (punkIndexToAddress[punkIndex] == msg.sender) throw;\n        // if (msg.value == 0) throw;\n        Bid memory existing = punkBids[punkIndex];\n        // if (msg.value <= existing.value) throw;\n        if (existing.value > 0) {\n            // Refund the failing bid\n            pendingWithdrawals[existing.bidder] += existing.value;\n        }\n        punkBids[punkIndex] = Bid(true, punkIndex, msg.sender, msg.value);\n        emit PunkBidEntered(punkIndex, msg.value, msg.sender);\n    }\n\n    function acceptBidForPunk(uint punkIndex, uint minPrice) public {\n        // if (punkIndex >= 10000) throw;\n        // if (!allPunksAssigned) throw;                \n        // if (punkIndexToAddress[punkIndex] != msg.sender) throw;\n        address seller = msg.sender;\n        Bid memory bid = punkBids[punkIndex];\n        // if (bid.value == 0) throw;\n        // if (bid.value < minPrice) throw;\n\n        punkIndexToAddress[punkIndex] = bid.bidder;\n        balanceOf[seller]--;\n        balanceOf[bid.bidder]++;\n        emit Transfer(seller, bid.bidder, 1);\n\n        punksOfferedForSale[punkIndex] = Offer(false, punkIndex, bid.bidder, 0, address(0x0));\n        uint amount = bid.value;\n        punkBids[punkIndex] = Bid(false, punkIndex, address(0x0), 0);\n        pendingWithdrawals[seller] += amount;\n        emit PunkBought(punkIndex, bid.value, seller, bid.bidder);\n    }\n\n    function withdrawBidForPunk(uint punkIndex) public {\n        // if (punkIndex >= 10000) throw;\n        // if (!allPunksAssigned) throw;                \n        // if (punkIndexToAddress[punkIndex] == 0x0) throw;\n        // if (punkIndexToAddress[punkIndex] == msg.sender) throw;\n        Bid memory bid = punkBids[punkIndex];\n        // if (bid.bidder != msg.sender) throw;\n        emit PunkBidWithdrawn(punkIndex, bid.value, msg.sender);\n        uint amount = bid.value;\n        punkBids[punkIndex] = Bid(false, punkIndex, address(0x0), 0);\n        // Refund the bid money\n        msg.sender.transfer(amount);\n    }\n\n}",
  "sourcePath": "/Users/billy/GitHub/folia-app/folia-contracts/contracts/CryptoPunksMarket.sol",
  "compiler": {
    "name": "solc",
    "version": "0.5.0+commit.1d4f565a.Emscripten.clang"
  },
  "schemaVersion": "3.4.3",
  "updatedAt": "2022-04-26T20:50:32.093Z",
  "networkType": "ethereum",
  "devdoc": {
    "methods": {}
  },
  "userdoc": {
    "methods": {}
  }
}