{
  "contractName": "DotComSeanceController",
  "abi": [
    {
      "constant": true,
      "inputs": [],
      "name": "dotComSeance",
      "outputs": [
        {
          "name": "",
          "type": "address"
        }
      ],
      "payable": false,
      "stateMutability": "view",
      "type": "function"
    },
    {
      "constant": true,
      "inputs": [],
      "name": "adminWallet",
      "outputs": [
        {
          "name": "",
          "type": "address"
        }
      ],
      "payable": false,
      "stateMutability": "view",
      "type": "function"
    },
    {
      "constant": true,
      "inputs": [],
      "name": "latestWorkId",
      "outputs": [
        {
          "name": "",
          "type": "uint256"
        }
      ],
      "payable": false,
      "stateMutability": "view",
      "type": "function"
    },
    {
      "constant": true,
      "inputs": [],
      "name": "paused",
      "outputs": [
        {
          "name": "",
          "type": "bool"
        }
      ],
      "payable": false,
      "stateMutability": "view",
      "type": "function"
    },
    {
      "constant": false,
      "inputs": [],
      "name": "renounceOwnership",
      "outputs": [],
      "payable": false,
      "stateMutability": "nonpayable",
      "type": "function"
    },
    {
      "constant": true,
      "inputs": [],
      "name": "owner",
      "outputs": [
        {
          "name": "",
          "type": "address"
        }
      ],
      "payable": false,
      "stateMutability": "view",
      "type": "function"
    },
    {
      "constant": true,
      "inputs": [],
      "name": "isOwner",
      "outputs": [
        {
          "name": "",
          "type": "bool"
        }
      ],
      "payable": false,
      "stateMutability": "view",
      "type": "function"
    },
    {
      "constant": true,
      "inputs": [
        {
          "name": "",
          "type": "uint256"
        }
      ],
      "name": "_works",
      "outputs": [
        {
          "name": "exists",
          "type": "bool"
        },
        {
          "name": "paused",
          "type": "bool"
        },
        {
          "name": "saleType",
          "type": "uint8"
        },
        {
          "name": "editions",
          "type": "uint256"
        },
        {
          "name": "printed",
          "type": "uint256"
        },
        {
          "name": "price",
          "type": "uint256"
        },
        {
          "name": "artist",
          "type": "address"
        }
      ],
      "payable": false,
      "stateMutability": "view",
      "type": "function"
    },
    {
      "constant": true,
      "inputs": [],
      "name": "adminSplit",
      "outputs": [
        {
          "name": "",
          "type": "uint256"
        }
      ],
      "payable": false,
      "stateMutability": "view",
      "type": "function"
    },
    {
      "constant": false,
      "inputs": [
        {
          "name": "newOwner",
          "type": "address"
        }
      ],
      "name": "transferOwnership",
      "outputs": [],
      "payable": false,
      "stateMutability": "nonpayable",
      "type": "function"
    },
    {
      "inputs": [
        {
          "name": "_dotComSeance",
          "type": "address"
        },
        {
          "name": "_adminWallet",
          "type": "address"
        }
      ],
      "payable": false,
      "stateMutability": "nonpayable",
      "type": "constructor"
    },
    {
      "anonymous": false,
      "inputs": [
        {
          "indexed": false,
          "name": "workId",
          "type": "uint256"
        },
        {
          "indexed": false,
          "name": "artist",
          "type": "address"
        },
        {
          "indexed": false,
          "name": "editions",
          "type": "uint256"
        },
        {
          "indexed": false,
          "name": "price",
          "type": "uint256"
        },
        {
          "indexed": false,
          "name": "_paused",
          "type": "bool"
        }
      ],
      "name": "newWork",
      "type": "event"
    },
    {
      "anonymous": false,
      "inputs": [
        {
          "indexed": false,
          "name": "workId",
          "type": "uint256"
        },
        {
          "indexed": false,
          "name": "artist",
          "type": "address"
        },
        {
          "indexed": false,
          "name": "editions",
          "type": "uint256"
        },
        {
          "indexed": false,
          "name": "price",
          "type": "uint256"
        },
        {
          "indexed": false,
          "name": "_paused",
          "type": "bool"
        }
      ],
      "name": "updatedWork",
      "type": "event"
    },
    {
      "anonymous": false,
      "inputs": [
        {
          "indexed": false,
          "name": "workId",
          "type": "uint256"
        },
        {
          "indexed": false,
          "name": "editionId",
          "type": "uint256"
        },
        {
          "indexed": false,
          "name": "tokenId",
          "type": "uint256"
        },
        {
          "indexed": false,
          "name": "recipient",
          "type": "address"
        },
        {
          "indexed": false,
          "name": "paid",
          "type": "uint256"
        },
        {
          "indexed": false,
          "name": "artistReceived",
          "type": "uint256"
        },
        {
          "indexed": false,
          "name": "adminReceived",
          "type": "uint256"
        }
      ],
      "name": "editionBought",
      "type": "event"
    },
    {
      "anonymous": false,
      "inputs": [
        {
          "indexed": true,
          "name": "previousOwner",
          "type": "address"
        },
        {
          "indexed": true,
          "name": "newOwner",
          "type": "address"
        }
      ],
      "name": "OwnershipTransferred",
      "type": "event"
    },
    {
      "constant": false,
      "inputs": [
        {
          "name": "artist",
          "type": "address"
        },
        {
          "name": "editions",
          "type": "uint256"
        },
        {
          "name": "price",
          "type": "uint256"
        },
        {
          "name": "_paused",
          "type": "bool"
        },
        {
          "name": "saleType",
          "type": "uint8"
        }
      ],
      "name": "addArtwork",
      "outputs": [],
      "payable": false,
      "stateMutability": "nonpayable",
      "type": "function"
    },
    {
      "constant": false,
      "inputs": [
        {
          "name": "workId",
          "type": "uint256"
        },
        {
          "name": "_paused",
          "type": "bool"
        }
      ],
      "name": "updateArtworkPaused",
      "outputs": [],
      "payable": false,
      "stateMutability": "nonpayable",
      "type": "function"
    },
    {
      "constant": false,
      "inputs": [
        {
          "name": "workId",
          "type": "uint256"
        },
        {
          "name": "_editions",
          "type": "uint256"
        }
      ],
      "name": "updateArtworkEditions",
      "outputs": [],
      "payable": false,
      "stateMutability": "nonpayable",
      "type": "function"
    },
    {
      "constant": false,
      "inputs": [
        {
          "name": "workId",
          "type": "uint256"
        },
        {
          "name": "_price",
          "type": "uint256"
        }
      ],
      "name": "updateArtworkPrice",
      "outputs": [],
      "payable": false,
      "stateMutability": "nonpayable",
      "type": "function"
    },
    {
      "constant": false,
      "inputs": [
        {
          "name": "workId",
          "type": "uint256"
        },
        {
          "name": "_artist",
          "type": "address"
        }
      ],
      "name": "updateArtworkArtist",
      "outputs": [],
      "payable": false,
      "stateMutability": "nonpayable",
      "type": "function"
    },
    {
      "constant": false,
      "inputs": [
        {
          "name": "recipient",
          "type": "address"
        },
        {
          "name": "workId",
          "type": "uint256"
        },
        {
          "name": "editionId",
          "type": "uint256"
        }
      ],
      "name": "buyByID",
      "outputs": [
        {
          "name": "",
          "type": "bool"
        }
      ],
      "payable": true,
      "stateMutability": "payable",
      "type": "function"
    },
    {
      "constant": false,
      "inputs": [
        {
          "name": "recipient",
          "type": "address"
        },
        {
          "name": "workId",
          "type": "uint256"
        }
      ],
      "name": "buy",
      "outputs": [
        {
          "name": "",
          "type": "bool"
        }
      ],
      "payable": true,
      "stateMutability": "payable",
      "type": "function"
    },
    {
      "constant": false,
      "inputs": [
        {
          "name": "_adminSplit",
          "type": "uint256"
        }
      ],
      "name": "updateAdminSplit",
      "outputs": [],
      "payable": false,
      "stateMutability": "nonpayable",
      "type": "function"
    },
    {
      "constant": false,
      "inputs": [
        {
          "name": "_adminWallet",
          "type": "address"
        }
      ],
      "name": "updateAdminWallet",
      "outputs": [],
      "payable": false,
      "stateMutability": "nonpayable",
      "type": "function"
    },
    {
      "constant": false,
      "inputs": [
        {
          "name": "_paused",
          "type": "bool"
        }
      ],
      "name": "updatePaused",
      "outputs": [],
      "payable": false,
      "stateMutability": "nonpayable",
      "type": "function"
    }
  ],
  "bytecode": "0x60806040526000600255601460055534801561001a57600080fd5b50604051604080611e498339810180604052604081101561003a57600080fd5b50805160209091015160008054600160a060020a0319163317808255604051600160a060020a039190911691907f8be0079c531659141344cd1fd0a4f28419497f9722a3daafe3b4186f6b6457e0908290a36001805560048054600160a060020a03938416600160a060020a03199182161790915560068054929093169116179055611d7e806100cb6000396000f3fe6080604052600436106101115763ffffffff7c010000000000000000000000000000000000000000000000000000000060003504166301dd4c36811461011657806308cdc2a8146101485780631eb24b2a1461017457806336b19cd7146101b25780634c8f911e146101c75780634cd31e73146101ee5780635001257e146102185780635c975abb146102485780635eec087014610271578063715018a6146102b15780637d5899d4146102c657806382fb600b146103235780638da5cb5b146103625780638f32d59b14610377578063aa5d977d1461038c578063c138b100146103d2578063cce7ec131461047a578063d2b855fc146104b3578063d792440b146104e5578063f2fde38b146104fa575b600080fd5b34801561012257600080fd5b506101466004803603604081101561013957600080fd5b508035906020013561053a565b005b34801561015457600080fd5b506101466004803603602081101561016b57600080fd5b503515156106c4565b34801561018057600080fd5b50610189610721565b6040805173ffffffffffffffffffffffffffffffffffffffff9092168252519081900360200190f35b3480156101be57600080fd5b5061018961073d565b3480156101d357600080fd5b506101dc610759565b60408051918252519081900360200190f35b3480156101fa57600080fd5b506101466004803603602081101561021157600080fd5b503561075f565b34801561022457600080fd5b506101466004803603604081101561023b57600080fd5b50803590602001356107e7565b34801561025457600080fd5b5061025d6108ff565b604080519115158252519081900360200190f35b34801561027d57600080fd5b506101466004803603602081101561029457600080fd5b503573ffffffffffffffffffffffffffffffffffffffff16610920565b3480156102bd57600080fd5b5061014661097a565b3480156102d257600080fd5b50610146600480360360a08110156102e957600080fd5b50803573ffffffffffffffffffffffffffffffffffffffff169060208101359060408101359060608101351515906080013560ff166109fc565b61025d6004803603606081101561033957600080fd5b5073ffffffffffffffffffffffffffffffffffffffff8135169060208101359060400135610c64565b34801561036e57600080fd5b506101896112a9565b34801561038357600080fd5b5061025d6112c5565b34801561039857600080fd5b50610146600480360360408110156103af57600080fd5b508035906020013573ffffffffffffffffffffffffffffffffffffffff166112e3565b3480156103de57600080fd5b506103fc600480360360208110156103f557600080fd5b5035611426565b604080518815158152871515602082015290810186600181111561041c57fe5b60ff1681526020018581526020018481526020018381526020018273ffffffffffffffffffffffffffffffffffffffff1673ffffffffffffffffffffffffffffffffffffffff16815260200197505050505050505060405180910390f35b61025d6004803603604081101561049057600080fd5b5073ffffffffffffffffffffffffffffffffffffffff8135169060200135611481565b3480156104bf57600080fd5b50610146600480360360408110156104d657600080fd5b50803590602001351515611ab8565b3480156104f157600080fd5b506101dc611bff565b34801561050657600080fd5b506101466004803603602081101561051d57600080fd5b503573ffffffffffffffffffffffffffffffffffffffff16611c05565b6105426112c5565b151561054d57600080fd5b6000828152600360205260409020805460ff1615156105cd57604080517f08c379a000000000000000000000000000000000000000000000000000000000815260206004820152601360248201527f574f524b5f444f45535f4e4f545f455849535400000000000000000000000000604482015290519081900360640190fd5b6002810154821161063f57604080517f08c379a000000000000000000000000000000000000000000000000000000000815260206004820152601560248201527f574f524b5f455843454544535f45444954494f4e530000000000000000000000604482015290519081900360640190fd5b600181018290556004810154600382015482546040805187815273ffffffffffffffffffffffffffffffffffffffff9094166020850152838101869052606084019290925260ff6101009091041615156080830152517f92544cd0b5fea6142ab048e0ea4e8b55f04fb3c2528b3c918875ed2a7a1a9e479181900360a00190a1505050565b6106cc6112c5565b15156106d757600080fd5b6006805491151574010000000000000000000000000000000000000000027fffffffffffffffffffffff00ffffffffffffffffffffffffffffffffffffffff909216919091179055565b60045473ffffffffffffffffffffffffffffffffffffffff1681565b60065473ffffffffffffffffffffffffffffffffffffffff1681565b60025481565b6107676112c5565b151561077257600080fd5b60648111156107e257604080517f08c379a000000000000000000000000000000000000000000000000000000000815260206004820152601560248201527f53504c49545f4d5553545f42455f4c54455f3130300000000000000000000000604482015290519081900360640190fd5b600555565b6107ef6112c5565b15156107fa57600080fd5b6000828152600360205260409020805460ff16151561087a57604080517f08c379a000000000000000000000000000000000000000000000000000000000815260206004820152601360248201527f574f524b5f444f45535f4e4f545f455849535400000000000000000000000000604482015290519081900360640190fd5b600381018290556004810154600182015482546040805187815273ffffffffffffffffffffffffffffffffffffffff9094166020850152838101929092526060830185905260ff6101009091041615156080830152517f92544cd0b5fea6142ab048e0ea4e8b55f04fb3c2528b3c918875ed2a7a1a9e479181900360a00190a1505050565b60065474010000000000000000000000000000000000000000900460ff1681565b6109286112c5565b151561093357600080fd5b600680547fffffffffffffffffffffffff00000000000000000000000000000000000000001673ffffffffffffffffffffffffffffffffffffffff92909216919091179055565b6109826112c5565b151561098d57600080fd5b6000805460405173ffffffffffffffffffffffffffffffffffffffff909116907f8be0079c531659141344cd1fd0a4f28419497f9722a3daafe3b4186f6b6457e0908390a3600080547fffffffffffffffffffffffff0000000000000000000000000000000000000000169055565b610a046112c5565b1515610a0f57600080fd5b60648410610a7e57604080517f08c379a000000000000000000000000000000000000000000000000000000000815260206004820152601560248201527f4d41585f45444954494f4e535f45584345454445440000000000000000000000604482015290519081900360640190fd5b60e0604051908101604052806001151581526020018315158152602001826001811115610aa757fe5b81526020808201879052600060408084018290526060840188905273ffffffffffffffffffffffffffffffffffffffff8a1660809094019390935260025481526003825282902083518154928501511515610100027fffffffffffffffffffffffffffffffffffffffffffffffffffffffffffff00ff9115157fffffffffffffffffffffffffffffffffffffffffffffffffffffffffffffff0090941693909317169190911780825591830151909182907fffffffffffffffffffffffffffffffffffffffffffffffffffffffffff00ffff1662010000836001811115610b8a57fe5b021790555060608281015160018381019190915560808085015160028086019190915560a080870151600387015560c090960151600490950180547fffffffffffffffffffffffff00000000000000000000000000000000000000001673ffffffffffffffffffffffffffffffffffffffff96871617905580549092019182905560408051928352938a1660208301528184018990529181018790528515159181019190915290517fb930315bb0fbb02e6a5098eda387a015f9b831da0666fd6943731c891a049965929181900390910190a15050505050565b60065460009074010000000000000000000000000000000000000000900460ff1615610cf157604080517f08c379a000000000000000000000000000000000000000000000000000000000815260206004820152601260248201527f4d757374206e6f74206265207061757365640000000000000000000000000000604482015290519081900360640190fd5b6001805481019081905560008481526003602052604090208054610100900460ff1615610d7f57604080517f08c379a000000000000000000000000000000000000000000000000000000000815260206004820152601560248201527f574f524b5f4e4f545f5945545f464f525f53414c450000000000000000000000604482015290519081900360640190fd5b6001815462010000900460ff166001811115610d9757fe5b14610e0357604080517f08c379a000000000000000000000000000000000000000000000000000000000815260206004820152600f60248201527f57524f4e475f53414c455f545950450000000000000000000000000000000000604482015290519081900360640190fd5b805460ff161515610e7557604080517f08c379a000000000000000000000000000000000000000000000000000000000815260206004820152601360248201527f574f524b5f444f45535f4e4f545f455849535400000000000000000000000000604482015290519081900360640190fd5b83816001015410158015610e895750600084115b1515610ef657604080517f08c379a000000000000000000000000000000000000000000000000000000000815260206004820152601960248201527f4f5554534944455f52414e47455f4f465f45444954494f4e5300000000000000604482015290519081900360640190fd5b6000610f1985610f0d88606463ffffffff611c2416565b9063ffffffff611c5816565b60038301549091503414610f8e57604080517f08c379a000000000000000000000000000000000000000000000000000000000815260206004820152601260248201527f4449445f4e4f545f53454e445f50524943450000000000000000000000000000604482015290519081900360640190fd5b600282018054600101905560048054604080517f40c10f1900000000000000000000000000000000000000000000000000000000815273ffffffffffffffffffffffffffffffffffffffff8b81169482019490945260248101859052905192909116916340c10f199160448082019260009290919082900301818387803b15801561101857600080fd5b505af115801561102c573d6000803e3d6000fd5b505050506000611058606461104c60055434611c2490919063ffffffff16565b9063ffffffff611c6a16565b9050600061106c348363ffffffff611c8e16565b60065460405191925060009173ffffffffffffffffffffffffffffffffffffffff9091169084908381818185875af1925050503d80600081146110cb576040519150601f19603f3d011682016040523d82523d6000602084013e6110d0565b606091505b5050905080151561114257604080517f08c379a000000000000000000000000000000000000000000000000000000000815260206004820152601760248201527f61646d696e206661696c656420746f2072656365697665000000000000000000604482015290519081900360640190fd5b600485015460405173ffffffffffffffffffffffffffffffffffffffff909116908390600081818185875af1925050503d806000811461119e576040519150601f19603f3d011682016040523d82523d6000602084013e6111a3565b606091505b509091505080151561121657604080517f08c379a000000000000000000000000000000000000000000000000000000000815260206004820152601860248201527f617274697374206661696c656420746f20726563656976650000000000000000604482015290519081900360640190fd5b6003850154604080518b8152602081018b905280820187905273ffffffffffffffffffffffffffffffffffffffff8d166060820152608081019290925260a0820184905260c08201859052517f98d41ea2d99604d19bd920bfa2fde9f14a004bb5f3bbacf3706fc23dd386f4999181900360e00190a15050505050600154811415156112a157600080fd5b509392505050565b60005473ffffffffffffffffffffffffffffffffffffffff1690565b60005473ffffffffffffffffffffffffffffffffffffffff16331490565b6112eb6112c5565b15156112f657600080fd5b6000828152600360205260409020805460ff16151561137657604080517f08c379a000000000000000000000000000000000000000000000000000000000815260206004820152601360248201527f574f524b5f444f45535f4e4f545f455849535400000000000000000000000000604482015290519081900360640190fd5b6004810180547fffffffffffffffffffffffff00000000000000000000000000000000000000001673ffffffffffffffffffffffffffffffffffffffff848116919091179182905560018301546003840154845460408051898152959094166020860152848401929092526060840152610100900460ff1615156080830152517f92544cd0b5fea6142ab048e0ea4e8b55f04fb3c2528b3c918875ed2a7a1a9e479160a0908290030190a1505050565b60036020819052600091825260409091208054600182015460028301549383015460049093015460ff8084169561010085048216956201000090950490911693909173ffffffffffffffffffffffffffffffffffffffff1687565b60065460009074010000000000000000000000000000000000000000900460ff161561150e57604080517f08c379a000000000000000000000000000000000000000000000000000000000815260206004820152601260248201527f4d757374206e6f74206265207061757365640000000000000000000000000000604482015290519081900360640190fd5b6001805481019081905560008381526003602052604090208054610100900460ff161561159c57604080517f08c379a000000000000000000000000000000000000000000000000000000000815260206004820152601560248201527f574f524b5f4e4f545f5945545f464f525f53414c450000000000000000000000604482015290519081900360640190fd5b6000815462010000900460ff1660018111156115b457fe5b1461162057604080517f08c379a000000000000000000000000000000000000000000000000000000000815260206004820152600f60248201527f57524f4e475f53414c455f545950450000000000000000000000000000000000604482015290519081900360640190fd5b805460ff16151561169257604080517f08c379a000000000000000000000000000000000000000000000000000000000815260206004820152601360248201527f574f524b5f444f45535f4e4f545f455849535400000000000000000000000000604482015290519081900360640190fd5b600281015460018201541161170857604080517f08c379a000000000000000000000000000000000000000000000000000000000815260206004820152601160248201527f45444954494f4e535f4558434545444544000000000000000000000000000000604482015290519081900360640190fd5b6003810154341461177a57604080517f08c379a000000000000000000000000000000000000000000000000000000000815260206004820152601260248201527f4449445f4e4f545f53454e445f50524943450000000000000000000000000000604482015290519081900360640190fd5b600281015460009061179390600163ffffffff611c5816565b60028301819055905060006117b382610f0d88606463ffffffff611c2416565b60048054604080517f40c10f1900000000000000000000000000000000000000000000000000000000815273ffffffffffffffffffffffffffffffffffffffff8c8116948201949094526024810185905290519394509116916340c10f199160448082019260009290919082900301818387803b15801561183357600080fd5b505af1158015611847573d6000803e3d6000fd5b505050506000611867606461104c60055434611c2490919063ffffffff16565b9050600061187b348363ffffffff611c8e16565b60065460405191925060009173ffffffffffffffffffffffffffffffffffffffff9091169084908381818185875af1925050503d80600081146118da576040519150601f19603f3d011682016040523d82523d6000602084013e6118df565b606091505b5050905080151561195157604080517f08c379a000000000000000000000000000000000000000000000000000000000815260206004820152601760248201527f61646d696e206661696c656420746f2072656365697665000000000000000000604482015290519081900360640190fd5b600486015460405173ffffffffffffffffffffffffffffffffffffffff909116908390600081818185875af1925050503d80600081146119ad576040519150601f19603f3d011682016040523d82523d6000602084013e6119b2565b606091505b5090915050801515611a2557604080517f08c379a000000000000000000000000000000000000000000000000000000000815260206004820152601860248201527f617274697374206661696c656420746f20726563656976650000000000000000604482015290519081900360640190fd5b6003860154604080518b81526020810188905280820187905273ffffffffffffffffffffffffffffffffffffffff8d166060820152608081019290925260a0820184905260c08201859052517f98d41ea2d99604d19bd920bfa2fde9f14a004bb5f3bbacf3706fc23dd386f4999181900360e00190a150505050505060015481141515611ab157600080fd5b5092915050565b611ac06112c5565b1515611acb57600080fd5b6000828152600360205260409020805460ff161515611b4b57604080517f08c379a000000000000000000000000000000000000000000000000000000000815260206004820152601360248201527f574f524b5f444f45535f4e4f545f455849535400000000000000000000000000604482015290519081900360640190fd5b80548215156101009081027fffffffffffffffffffffffffffffffffffffffffffffffffffffffffffff00ff909216919091178083556004830154600184015460038501546040805189815273ffffffffffffffffffffffffffffffffffffffff90941660208501528381019290925260608301529290910460ff161515608082015290517f92544cd0b5fea6142ab048e0ea4e8b55f04fb3c2528b3c918875ed2a7a1a9e479181900360a00190a1505050565b60055481565b611c0d6112c5565b1515611c1857600080fd5b611c2181611ca3565b50565b6000821515611c3557506000611c52565b828202828482811515611c4457fe5b0414611c4f57600080fd5b90505b92915050565b600082820183811015611c4f57600080fd5b6000808211611c7857600080fd5b60008284811515611c8557fe5b04949350505050565b600082821115611c9d57600080fd5b50900390565b73ffffffffffffffffffffffffffffffffffffffff81161515611cc557600080fd5b6000805460405173ffffffffffffffffffffffffffffffffffffffff808516939216917f8be0079c531659141344cd1fd0a4f28419497f9722a3daafe3b4186f6b6457e091a3600080547fffffffffffffffffffffffff00000000000000000000000000000000000000001673ffffffffffffffffffffffffffffffffffffffff9290921691909117905556fea165627a7a723058207b1eb578530fdc7b49e3bf809200ecc3014d0fbb0d51d92eba0186cbe07244a40029",
  "source": "pragma solidity ^0.5.0;\n/**\n * The FoliaControllerV2 is an upgradeable endpoint for controlling Folia.sol\n */\n\nimport \"./DotComSeance.sol\";\nimport \"./SafeMath.sol\";\nimport \"./Ownable.sol\";\nimport \"./ReentrancyGuard.sol\";\n\ncontract DotComSeanceController is Ownable, ReentrancyGuard {\n\n    event newWork(uint256 workId, address payable artist, uint256 editions, uint256 price, bool _paused);\n    event updatedWork(uint256 workId, address payable artist, uint256 editions, uint256 price, bool _paused);\n    event editionBought(uint256 workId, uint256 editionId, uint256 tokenId, address recipient, uint256 paid, uint256 artistReceived, uint256 adminReceived);\n\n    using SafeMath for uint256;\n\n    enum SaleType {noID, ID}\n\n    uint256 constant MAX_EDITIONS = 100;\n    uint256 public latestWorkId = 0;\n\n\n    mapping (uint256 => Work) public _works;\n    struct Work {\n        bool exists;\n        bool paused;\n        SaleType saleType;\n        uint256 editions;\n        uint256 printed;\n        uint256 price;\n        address payable artist;\n    }\n\n    DotComSeance public dotComSeance;\n\n    uint256 public adminSplit = 20;\n    address payable public adminWallet;\n    bool public paused;\n\n    modifier notPaused() {\n        require(!paused, \"Must not be paused\");\n        _;\n    }\n\n    constructor(\n        DotComSeance _dotComSeance,\n        address payable _adminWallet\n    ) public {\n        dotComSeance = _dotComSeance;\n        adminWallet = _adminWallet;\n    }\n\n    function addArtwork(address payable artist, uint256 editions, uint256 price, bool _paused, SaleType saleType) public onlyOwner {\n        require(editions < MAX_EDITIONS, \"MAX_EDITIONS_EXCEEDED\");\n\n\n        _works[latestWorkId] = Work({\n          exists: true,\n          paused: _paused,\n          saleType: saleType,\n          editions: editions,\n          printed: 0,\n          price: price,\n          artist: artist\n        });\n\n        latestWorkId += 1;\n\n        emit newWork(latestWorkId, artist, editions, price, _paused);\n    }\n\n    function updateArtworkPaused(uint256 workId, bool _paused) public onlyOwner {\n        Work storage work = _works[workId];\n        require(work.exists, \"WORK_DOES_NOT_EXIST\");\n        work.paused = _paused;\n        emit updatedWork(workId, work.artist, work.editions, work.price, work.paused);\n    }\n\n    function updateArtworkEditions(uint256 workId, uint256 _editions) public onlyOwner {\n        Work storage work = _works[workId];\n        require(work.exists, \"WORK_DOES_NOT_EXIST\");\n        require(work.printed < _editions, \"WORK_EXCEEDS_EDITIONS\");\n        work.editions = _editions;\n        emit updatedWork(workId, work.artist, work.editions, work.price, work.paused);\n    }\n\n    function updateArtworkPrice(uint256 workId, uint256 _price) public onlyOwner {\n        Work storage work = _works[workId];\n        require(work.exists, \"WORK_DOES_NOT_EXIST\");\n        work.price = _price;\n        emit updatedWork(workId, work.artist, work.editions, work.price, work.paused);\n    }\n\n    function updateArtworkArtist(uint256 workId, address payable _artist) public onlyOwner {\n        Work storage work = _works[workId];\n        require(work.exists, \"WORK_DOES_NOT_EXIST\");\n        work.artist = _artist;\n        emit updatedWork(workId, work.artist, work.editions, work.price, work.paused);\n    }\n\n    function buyByID(address recipient, uint256 workId, uint256 editionId) public payable notPaused nonReentrant returns(bool) {\n        Work storage work = _works[workId];\n        require(!work.paused, \"WORK_NOT_YET_FOR_SALE\");\n        require(work.saleType == SaleType.ID, \"WRONG_SALE_TYPE\");\n        require(work.exists, \"WORK_DOES_NOT_EXIST\");\n\n        require(work.editions >= editionId && editionId > 0, \"OUTSIDE_RANGE_OF_EDITIONS\");\n        uint256 tokenId = workId.mul(MAX_EDITIONS).add(editionId);\n\n        require(msg.value == work.price, \"DID_NOT_SEND_PRICE\");\n\n        work.printed += 1;\n        dotComSeance.mint(recipient, tokenId);\n        \n        uint256 adminReceives = msg.value.mul(adminSplit).div(100);\n        uint256 artistReceives = msg.value.sub(adminReceives);\n\n        (bool success, ) = adminWallet.call.value(adminReceives)(\"\");\n        require(success, \"admin failed to receive\");\n\n        (success, ) = work.artist.call.value(artistReceives)(\"\");\n        require(success, \"artist failed to receive\");\n\n        emit editionBought(workId, editionId, tokenId, recipient,  work.price, artistReceives, adminReceives);\n    }\n\n    function buy(address recipient, uint256 workId) public payable notPaused nonReentrant returns (bool) {\n        Work storage work = _works[workId];\n        require(!work.paused, \"WORK_NOT_YET_FOR_SALE\");\n        require(work.saleType == SaleType.noID, \"WRONG_SALE_TYPE\");\n        require(work.exists, \"WORK_DOES_NOT_EXIST\");\n        require(work.editions > work.printed, \"EDITIONS_EXCEEDED\");\n        require(msg.value == work.price, \"DID_NOT_SEND_PRICE\");\n\n        uint256 editionId = work.printed.add(1);\n        work.printed = editionId;\n        \n        uint256 tokenId = workId.mul(MAX_EDITIONS).add(editionId);\n\n        dotComSeance.mint(recipient, tokenId);\n        \n        uint256 adminReceives = msg.value.mul(adminSplit).div(100);\n        uint256 artistReceives = msg.value.sub(adminReceives);\n\n        (bool success, ) = adminWallet.call.value(adminReceives)(\"\");\n        require(success, \"admin failed to receive\");\n        \n        (success, ) = work.artist.call.value(artistReceives)(\"\");\n        require(success, \"artist failed to receive\");\n\n        emit editionBought(workId, editionId, tokenId, recipient,  work.price, artistReceives, adminReceives);\n    }\n\n    function updateAdminSplit(uint256 _adminSplit) public onlyOwner {\n        require(_adminSplit <= 100, \"SPLIT_MUST_BE_LTE_100\");\n        adminSplit = _adminSplit;\n    }\n\n    function updateAdminWallet(address payable _adminWallet) public onlyOwner {\n        adminWallet = _adminWallet;\n    }\n\n    function updatePaused(bool _paused) public onlyOwner {\n        paused = _paused;\n    }\n\n}\n",
  "sourcePath": "/Users/billy/GitHub/folia-app/folia-contracts/contracts/DotComSeanceController.sol",
  "compiler": {
    "name": "solc",
    "version": "0.5.0+commit.1d4f565a.Emscripten.clang"
  },
  "schemaVersion": "3.4.3",
  "updatedAt": "2022-02-13T19:53:57.747Z",
  "devdoc": {
    "methods": {
      "isOwner()": {
        "return": "true if `msg.sender` is the owner of the contract."
      },
      "owner()": {
        "return": "the address of the owner."
      },
      "renounceOwnership()": {
        "details": "Allows the current owner to relinquish control of the contract."
      },
      "transferOwnership(address)": {
        "details": "Allows the current owner to transfer control of the contract to a newOwner.",
        "params": {
          "newOwner": "The address to transfer ownership to."
        }
      }
    }
  },
  "userdoc": {
    "methods": {
      "renounceOwnership()": {
        "notice": "Renouncing to ownership will leave the contract without an owner. It will not be possible to call the functions with the `onlyOwner` modifier anymore."
      }
    }
  }
}