{
  "contractName": "ERC2981ContractWideRoyalties",
  "abi": [
    {
      "constant": true,
      "inputs": [
        {
          "name": "interfaceId",
          "type": "bytes4"
        }
      ],
      "name": "supportsInterface",
      "outputs": [
        {
          "name": "",
          "type": "bool"
        }
      ],
      "payable": false,
      "stateMutability": "view",
      "type": "function"
    },
    {
      "constant": true,
      "inputs": [
        {
          "name": "",
          "type": "uint256"
        },
        {
          "name": "value",
          "type": "uint256"
        }
      ],
      "name": "royaltyInfo",
      "outputs": [
        {
          "name": "receiver",
          "type": "address"
        },
        {
          "name": "royaltyAmount",
          "type": "uint256"
        }
      ],
      "payable": false,
      "stateMutability": "view",
      "type": "function"
    }
  ],
  "bytecode": "0x60806040526100367f01ffc9a70000000000000000000000000000000000000000000000000000000064010000000061006d810204565b6100687f2a55205a0000000000000000000000000000000000000000000000000000000064010000000061006d810204565b6100d9565b7fffffffff00000000000000000000000000000000000000000000000000000000808216141561009c57600080fd5b7fffffffff00000000000000000000000000000000000000000000000000000000166000908152602081905260409020805460ff19166001179055565b6101f6806100e86000396000f3fe60806040526004361061004b5763ffffffff7c010000000000000000000000000000000000000000000000000000000060003504166301ffc9a781146100505780632a55205a146100b0575b600080fd5b34801561005c57600080fd5b5061009c6004803603602081101561007357600080fd5b50357fffffffff0000000000000000000000000000000000000000000000000000000016610110565b604080519115158252519081900360200190f35b3480156100bc57600080fd5b506100e0600480360360408110156100d357600080fd5b5080359060200135610147565b6040805173ffffffffffffffffffffffffffffffffffffffff909316835260208301919091528051918290030190f35b7fffffffff000000000000000000000000000000000000000000000000000000001660009081526020819052604090205460ff1690565b6000806101526101b3565b506040805180820190915260015473ffffffffffffffffffffffffffffffffffffffff81168083527401000000000000000000000000000000000000000090910462ffffff1660208301819052909350612710908502049150509250929050565b60408051808201909152600080825260208201529056fea165627a7a723058209ec3fb76856161a87bae7b48293df879dd97d881c82bfc07bfa4dd04d0454f8e0029",
  "source": "// SPDX-License-Identifier: MIT\npragma solidity ^0.5.0;\n\nimport './ERC165.sol';\nimport './ERC2981Base.sol';\n\n/// @dev This is a contract used to add ERC2981 support to ERC721 and 1155\n/// @dev This implementation has the same royalties for each and every tokens\ncontract ERC2981ContractWideRoyalties is ERC2981Base {\n    RoyaltyInfo private _royalties;\n\n    /// @dev Sets token royalties\n    /// @param recipient recipient of the royalties\n    /// @param value percentage (using 2 decimals - 10000 = 100, 0 = 0)\n    function _setRoyalties(address recipient, uint256 value) internal {\n        require(value <= 10000, 'ERC2981Royalties: Too high');\n        _royalties = RoyaltyInfo(recipient, uint24(value));\n    }\n\n    function royaltyInfo(uint256, uint256 value)\n        external\n        view\n        returns (address receiver, uint256 royaltyAmount)\n    {\n        RoyaltyInfo memory royalties = _royalties;\n        receiver = royalties.recipient;\n        royaltyAmount = (value * royalties.amount) / 10000;\n    }\n}",
  "sourcePath": "/Users/billy/GitHub/folia-app/folia-contracts/contracts/ERC2981ContractWideRoyalties.sol",
  "compiler": {
    "name": "solc",
    "version": "0.5.0+commit.1d4f565a.Emscripten.clang"
  },
  "schemaVersion": "3.4.3",
  "updatedAt": "2022-09-07T13:02:25.575Z",
  "devdoc": {
    "details": "This is a contract used to add ERC2981 support to ERC721 and 1155This implementation has the same royalties for each and every tokens",
    "methods": {
      "supportsInterface(bytes4)": {
        "details": "implement supportsInterface(bytes4) using a lookup table"
      }
    }
  },
  "userdoc": {
    "methods": {}
  }
}