{
  "contractName": "ExodusAuction",
  "abi": [
    {
      "constant": true,
      "inputs": [],
      "name": "minBid",
      "outputs": [
        {
          "name": "",
          "type": "uint256"
        }
      ],
      "payable": false,
      "stateMutability": "view",
      "type": "function"
    },
    {
      "constant": true,
      "inputs": [
        {
          "name": "",
          "type": "uint256"
        }
      ],
      "name": "auctions",
      "outputs": [
        {
          "name": "exists",
          "type": "bool"
        },
        {
          "name": "paused",
          "type": "bool"
        },
        {
          "name": "amount",
          "type": "uint256"
        },
        {
          "name": "tokenId",
          "type": "uint256"
        },
        {
          "name": "duration",
          "type": "uint256"
        },
        {
          "name": "firstBidTime",
          "type": "uint256"
        },
        {
          "name": "reservePrice",
          "type": "uint256"
        },
        {
          "name": "adminSplit",
          "type": "uint256"
        },
        {
          "name": "creator",
          "type": "address"
        },
        {
          "name": "proceedsRecipient",
          "type": "address"
        },
        {
          "name": "bidder",
          "type": "address"
        }
      ],
      "payable": false,
      "stateMutability": "view",
      "type": "function"
    },
    {
      "constant": true,
      "inputs": [],
      "name": "nftAddress",
      "outputs": [
        {
          "name": "",
          "type": "address"
        }
      ],
      "payable": false,
      "stateMutability": "view",
      "type": "function"
    },
    {
      "constant": true,
      "inputs": [],
      "name": "globalPaused",
      "outputs": [
        {
          "name": "",
          "type": "bool"
        }
      ],
      "payable": false,
      "stateMutability": "view",
      "type": "function"
    },
    {
      "constant": false,
      "inputs": [],
      "name": "renounceOwnership",
      "outputs": [],
      "payable": false,
      "stateMutability": "nonpayable",
      "type": "function"
    },
    {
      "constant": true,
      "inputs": [],
      "name": "owner",
      "outputs": [
        {
          "name": "",
          "type": "address"
        }
      ],
      "payable": false,
      "stateMutability": "view",
      "type": "function"
    },
    {
      "constant": true,
      "inputs": [],
      "name": "isOwner",
      "outputs": [
        {
          "name": "",
          "type": "bool"
        }
      ],
      "payable": false,
      "stateMutability": "view",
      "type": "function"
    },
    {
      "constant": true,
      "inputs": [
        {
          "name": "",
          "type": "uint256"
        }
      ],
      "name": "tokenIds",
      "outputs": [
        {
          "name": "",
          "type": "uint256"
        }
      ],
      "payable": false,
      "stateMutability": "view",
      "type": "function"
    },
    {
      "constant": true,
      "inputs": [],
      "name": "timeBuffer",
      "outputs": [
        {
          "name": "",
          "type": "uint256"
        }
      ],
      "payable": false,
      "stateMutability": "view",
      "type": "function"
    },
    {
      "constant": false,
      "inputs": [
        {
          "name": "newOwner",
          "type": "address"
        }
      ],
      "name": "transferOwnership",
      "outputs": [],
      "payable": false,
      "stateMutability": "nonpayable",
      "type": "function"
    },
    {
      "constant": true,
      "inputs": [],
      "name": "admin",
      "outputs": [
        {
          "name": "",
          "type": "address"
        }
      ],
      "payable": false,
      "stateMutability": "view",
      "type": "function"
    },
    {
      "inputs": [
        {
          "name": "_nftAddress",
          "type": "address"
        },
        {
          "name": "_admin",
          "type": "address"
        }
      ],
      "payable": false,
      "stateMutability": "nonpayable",
      "type": "constructor"
    },
    {
      "anonymous": false,
      "inputs": [
        {
          "indexed": false,
          "name": "tokenId",
          "type": "uint256"
        },
        {
          "indexed": false,
          "name": "nftAddress",
          "type": "address"
        },
        {
          "indexed": false,
          "name": "duration",
          "type": "uint256"
        },
        {
          "indexed": false,
          "name": "reservePrice",
          "type": "uint256"
        },
        {
          "indexed": false,
          "name": "creator",
          "type": "address"
        }
      ],
      "name": "AuctionCreated",
      "type": "event"
    },
    {
      "anonymous": false,
      "inputs": [
        {
          "indexed": false,
          "name": "tokenId",
          "type": "uint256"
        },
        {
          "indexed": false,
          "name": "nftAddress",
          "type": "address"
        },
        {
          "indexed": false,
          "name": "sender",
          "type": "address"
        },
        {
          "indexed": false,
          "name": "value",
          "type": "uint256"
        },
        {
          "indexed": false,
          "name": "timestamp",
          "type": "uint256"
        },
        {
          "indexed": false,
          "name": "firstBid",
          "type": "bool"
        },
        {
          "indexed": false,
          "name": "extended",
          "type": "bool"
        }
      ],
      "name": "AuctionBid",
      "type": "event"
    },
    {
      "anonymous": false,
      "inputs": [
        {
          "indexed": false,
          "name": "tokenId",
          "type": "uint256"
        },
        {
          "indexed": false,
          "name": "nftAddress",
          "type": "address"
        },
        {
          "indexed": false,
          "name": "creator",
          "type": "address"
        },
        {
          "indexed": false,
          "name": "winner",
          "type": "address"
        },
        {
          "indexed": false,
          "name": "amount",
          "type": "uint256"
        }
      ],
      "name": "AuctionEnded",
      "type": "event"
    },
    {
      "anonymous": false,
      "inputs": [
        {
          "indexed": false,
          "name": "tokenId",
          "type": "uint256"
        },
        {
          "indexed": false,
          "name": "nftAddress",
          "type": "address"
        },
        {
          "indexed": false,
          "name": "creator",
          "type": "address"
        }
      ],
      "name": "AuctionCanceled",
      "type": "event"
    },
    {
      "anonymous": false,
      "inputs": [
        {
          "indexed": false,
          "name": "tokenId",
          "type": "uint256"
        },
        {
          "indexed": false,
          "name": "paused",
          "type": "bool"
        }
      ],
      "name": "UpdateAuction",
      "type": "event"
    },
    {
      "anonymous": false,
      "inputs": [
        {
          "indexed": true,
          "name": "previousOwner",
          "type": "address"
        },
        {
          "indexed": true,
          "name": "newOwner",
          "type": "address"
        }
      ],
      "name": "OwnershipTransferred",
      "type": "event"
    },
    {
      "constant": false,
      "inputs": [
        {
          "name": "_nftAddress",
          "type": "address"
        }
      ],
      "name": "updateNftAddress",
      "outputs": [],
      "payable": false,
      "stateMutability": "nonpayable",
      "type": "function"
    },
    {
      "constant": false,
      "inputs": [
        {
          "name": "_minBid",
          "type": "uint256"
        }
      ],
      "name": "updateMinBid",
      "outputs": [],
      "payable": false,
      "stateMutability": "nonpayable",
      "type": "function"
    },
    {
      "constant": false,
      "inputs": [
        {
          "name": "_timeBuffer",
          "type": "uint256"
        }
      ],
      "name": "updateTimeBuffer",
      "outputs": [],
      "payable": false,
      "stateMutability": "nonpayable",
      "type": "function"
    },
    {
      "constant": false,
      "inputs": [
        {
          "name": "tokenId",
          "type": "uint256"
        },
        {
          "name": "paused",
          "type": "bool"
        }
      ],
      "name": "updateAuction",
      "outputs": [],
      "payable": false,
      "stateMutability": "nonpayable",
      "type": "function"
    },
    {
      "constant": false,
      "inputs": [
        {
          "name": "paused",
          "type": "bool"
        },
        {
          "name": "tokenId",
          "type": "uint256"
        },
        {
          "name": "duration",
          "type": "uint256"
        },
        {
          "name": "firstBidTime",
          "type": "uint256"
        },
        {
          "name": "reservePrice",
          "type": "uint256"
        },
        {
          "name": "adminSplit",
          "type": "uint256"
        },
        {
          "name": "proceedsRecipient",
          "type": "address"
        }
      ],
      "name": "createAuction",
      "outputs": [],
      "payable": false,
      "stateMutability": "nonpayable",
      "type": "function"
    },
    {
      "constant": false,
      "inputs": [
        {
          "name": "tokenId",
          "type": "uint256"
        }
      ],
      "name": "createBid",
      "outputs": [],
      "payable": true,
      "stateMutability": "payable",
      "type": "function"
    },
    {
      "constant": false,
      "inputs": [
        {
          "name": "tokenId",
          "type": "uint256"
        }
      ],
      "name": "endAuction",
      "outputs": [],
      "payable": false,
      "stateMutability": "nonpayable",
      "type": "function"
    },
    {
      "constant": false,
      "inputs": [
        {
          "name": "tokenId",
          "type": "uint256"
        }
      ],
      "name": "cancelAuction",
      "outputs": [],
      "payable": false,
      "stateMutability": "nonpayable",
      "type": "function"
    },
    {
      "constant": false,
      "inputs": [
        {
          "name": "_globalPaused",
          "type": "bool"
        }
      ],
      "name": "updatePaused",
      "outputs": [],
      "payable": false,
      "stateMutability": "nonpayable",
      "type": "function"
    },
    {
      "constant": false,
      "inputs": [
        {
          "name": "_admin",
          "type": "address"
        }
      ],
      "name": "updateAdmin",
      "outputs": [],
      "payable": false,
      "stateMutability": "nonpayable",
      "type": "function"
    }
  ],
  "bytecode": "0x608060405261038460035567016345785d8a00006004553480156200002357600080fd5b50604051604080620027f58339810180604052620000459190810190620001e6565b60008054600160a060020a0319163317808255604051600160a060020a039190911691907f8be0079c531659141344cd1fd0a4f28419497f9722a3daafe3b4186f6b6457e0908290a3600180556040517f01ffc9a7000000000000000000000000000000000000000000000000000000008152600160a060020a038316906301ffc9a790620000f9907f80ac58cd00000000000000000000000000000000000000000000000000000000906004016200028f565b60206040518083038186803b1580156200011257600080fd5b505afa15801562000127573d6000803e3d6000fd5b505050506040513d601f19601f820116820180604052506200014d919081019062000225565b151562000191576040517f08c379a00000000000000000000000000000000000000000000000000000000081526004016200018890620002a5565b60405180910390fd5b60058054600160a060020a03938416600160a060020a03199182161790915560068054929093169116179055620002fa565b6000620001d18251620002e8565b9392505050565b6000620001d18251620002f5565b60008060408385031215620001fa57600080fd5b6000620002088585620001c3565b92505060206200021b85828601620001c3565b9150509250929050565b6000602082840312156200023857600080fd5b6000620002468484620001d8565b949350505050565b6200025981620002b7565b82525050565b601d81527f446f65736e277420737570706f7274204e465420696e74657266616365000000602082015260400190565b602081016200029f82846200024e565b92915050565b602080825281016200029f816200025f565b7fffffffff000000000000000000000000000000000000000000000000000000001690565b600160a060020a031690565b60006200029f82620002dc565b151590565b6124eb806200030a6000396000f3fe60806040526004361061011c5763ffffffff7c010000000000000000000000000000000000000000000000000000000060003504166308cdc2a881146101215780633166fd1d1461014357806331c28e90146101635780633e109a1914610183578063571a26a0146101ae5780635bf8633a146101e557806361a552dc14610207578063659dd2b414610229578063715018a61461023c5780638da5cb5b146102515780638f32d59b1461026657806396b5a7551461027b5780639b8e5d621461029b578063b54940de146102bb578063b9a2de3a146102db578063d58778d6146102fb578063e2f273bd1461031b578063e5eb7ae81461033b578063ec91f2a41461035b578063f2fde38b14610370578063f851a44014610390575b600080fd5b34801561012d57600080fd5b5061014161013c366004611b63565b6103a5565b005b34801561014f57600080fd5b5061014161015e366004611c3b565b6103e9565b34801561016f57600080fd5b5061014161017e366004611c59565b610401565b34801561018f57600080fd5b506101986104e1565b6040516101a59190612308565b60405180910390f35b3480156101ba57600080fd5b506101ce6101c9366004611c3b565b6104e7565b6040516101a59b9a99989796959493929190612136565b3480156101f157600080fd5b506101fa610561565b6040516101a591906120e4565b34801561021357600080fd5b5061021c61057d565b6040516101a59190612128565b610141610237366004611c3b565b610586565b34801561024857600080fd5b50610141610af0565b34801561025d57600080fd5b506101fa610b72565b34801561027257600080fd5b5061021c610b8e565b34801561028757600080fd5b50610141610296366004611c3b565b610bac565b3480156102a757600080fd5b506101416102b6366004611c3b565b610f12565b3480156102c757600080fd5b506101416102d6366004611b9f565b610f2a565b3480156102e757600080fd5b506101416102f6366004611c3b565b6111f5565b34801561030757600080fd5b50610198610316366004611c3b565b61172d565b34801561032757600080fd5b50610141610336366004611b3d565b61174c565b34801561034757600080fd5b50610141610356366004611b3d565b6117a6565b34801561036757600080fd5b506101986118fa565b34801561037c57600080fd5b5061014161038b366004611b3d565b611900565b34801561039c57600080fd5b506101fa61191f565b6103ad610b8e565b15156103b857600080fd5b600280547fffffffffffffffffffffffffffffffffffffffffffffffffffffffffffffff0016911515919091179055565b6103f1610b8e565b15156103fc57600080fd5b600455565b610409610b8e565b151561041457600080fd5b60008281526007602052604090205460ff161515610467576040517f08c379a000000000000000000000000000000000000000000000000000000000815260040161045e90612268565b60405180910390fd5b6000828152600760205260409081902080547fffffffffffffffffffffffffffffffffffffffffffffffffffffffffffff00ff1661010084151502179055517f6c17b6afb000df6548f717a281c368a89912f8a6ec06177486f77916c507a031906104d59084908490612434565b60405180910390a15050565b60045481565b6007602081905260009182526040909120805460018201546002830154600384015460048501546005860154600687015497870154600888015460099098015460ff8089169a6101009099041698969795969495939492939273ffffffffffffffffffffffffffffffffffffffff9283169290811691168b565b60055473ffffffffffffffffffffffffffffffffffffffff1681565b60025460ff1681565b60025460ff16156105c3576040517f08c379a000000000000000000000000000000000000000000000000000000000815260040161045e90612258565b600180548101908190556105d5611a6c565b50600082815260076020818152604092839020835161016081018552815460ff8082161515808452610100928390049091161515948301949094526001830154958201959095526002820154606082015260038201546080820152600482015460a0820152600582015460c0820152600682015460e08201529281015473ffffffffffffffffffffffffffffffffffffffff908116948401949094526008810154841661012084015260090154909216610140820152906106c2576040517f08c379a000000000000000000000000000000000000000000000000000000000815260040161045e90612268565b6020810151156106fe576040517f08c379a000000000000000000000000000000000000000000000000000000000815260040161045e90612278565b60c081015134101561073c576040517f08c379a000000000000000000000000000000000000000000000000000000000815260040161045e906122b8565b60008160a0015111156107875760a0810151421015610787576040517f08c379a000000000000000000000000000000000000000000000000000000000815260040161045e90612248565b60a081015115806107a1575080608001518160a001510142105b15156107d9576040517f08c379a000000000000000000000000000000000000000000000000000000000815260040161045e906122e8565b6040810151600080821561087757348310610820576040517f08c379a000000000000000000000000000000000000000000000000000000000815260040161045e90612238565b600454610833348563ffffffff61193b16565b101561086b576040517f08c379a000000000000000000000000000000000000000000000000000000000815260040161045e906122f8565b5061014083015161089c565b60a084015160019250151561089c576000868152600760205260409020426004909101555b60008681526007602052604081203460018201556009810180547fffffffffffffffffffffffff000000000000000000000000000000000000000016331790556003546080870151600490920154909161090e914291610902919063ffffffff61195516565b9063ffffffff61193b16565b10156109615760035460008881526007602052604090206004015461094b919061093f90429063ffffffff61193b16565b9063ffffffff61195516565b6000888152600760205260409020600301555060015b6005546040517f17aab958f10298d4269017458487925b395b4f89ddd829049ea143fd754cf7a9916109b5918a9173ffffffffffffffffffffffffffffffffffffffff16903390349042908a90899061233e565b60405180910390a1821580156109cb5750600084115b15610ad75760405160009073ffffffffffffffffffffffffffffffffffffffff84169086908381818185875af1925050503d8060008114610a28576040519150601f19603f3d011682016040523d82523d6000602084013e610a2d565b606091505b50509050801515610ad55760065460405173ffffffffffffffffffffffffffffffffffffffff909116908690600081818185875af1925050503d8060008114610a92576040519150601f19603f3d011682016040523d82523d6000602084013e610a97565b606091505b5090915050801515610ad5576040517f08c379a000000000000000000000000000000000000000000000000000000000815260040161045e90612218565b505b505050505060015481141515610aec57600080fd5b5050565b610af8610b8e565b1515610b0357600080fd5b6000805460405173ffffffffffffffffffffffffffffffffffffffff909116907f8be0079c531659141344cd1fd0a4f28419497f9722a3daafe3b4186f6b6457e0908390a3600080547fffffffffffffffffffffffff0000000000000000000000000000000000000000169055565b60005473ffffffffffffffffffffffffffffffffffffffff1690565b60005473ffffffffffffffffffffffffffffffffffffffff16331490565b60018054810190819055610bbe611a6c565b50600082815260076020818152604092839020835161016081018552815460ff8082161515808452610100928390049091161515948301949094526001830154958201959095526002820154606082015260038201546080820152600482015460a0820152600582015460c0820152600682015460e08201529281015473ffffffffffffffffffffffffffffffffffffffff90811694840194909452600881015484166101208401526009015490921661014082015290610cab576040517f08c379a000000000000000000000000000000000000000000000000000000000815260040161045e90612268565b61010081015173ffffffffffffffffffffffffffffffffffffffff16331480610d065750610cd7610b72565b73ffffffffffffffffffffffffffffffffffffffff163373ffffffffffffffffffffffffffffffffffffffff16145b1515610d3e576040517f08c379a000000000000000000000000000000000000000000000000000000000815260040161045e90612228565b604081015115610d7a576040517f08c379a000000000000000000000000000000000000000000000000000000000815260040161045e906121f8565b610100810151600084815260076020819052604080832080547fffffffffffffffffffffffffffffffffffffffffffffffffffffffffffff000016815560018101849055600281018490556003810184905560048082018590556005808301869055600683019590955592810180547fffffffffffffffffffffffff000000000000000000000000000000000000000090811690915560088201805482169055600990910180549091169055915491517f23b872dd00000000000000000000000000000000000000000000000000000000815273ffffffffffffffffffffffffffffffffffffffff909216916323b872dd91610e7c91309186918a910161211a565b600060405180830381600087803b158015610e9657600080fd5b505af1158015610eaa573d6000803e3d6000fd5b50506005546040517f31e46b3372adff8978a18a1c543a6b3a925ee693bdf7a7c54df36f30f87d290e9350610efa9250879173ffffffffffffffffffffffffffffffffffffffff16908590612316565b60405180910390a150506001548114610aec57600080fd5b610f1a610b8e565b1515610f2557600080fd5b600355565b60025460ff1615610f67576040517f08c379a000000000000000000000000000000000000000000000000000000000815260040161045e90612258565b610f6f610b8e565b1515610f7a57600080fd5b6001805481019081905560008781526007602052604090205460ff1615610fcd576040517f08c379a000000000000000000000000000000000000000000000000000000000815260040161045e906121e8565b60648310611007576040517f08c379a000000000000000000000000000000000000000000000000000000000815260040161045e90612288565b60088054600180820183557ff3f7a9fe364faab93b216da50a3214154f22a0a2b415b23a84c8169e8b636ee390910189905560008981526007602081905260409182902080547fffffffffffffffffffffffffffffffffffffffffffffffffffffffffffff00ff166101008e151502177fffffffffffffffffffffffffffffffffffffffffffffffffffffffffffffff00169093178355600383018a905560048084018a905560058085018a9055600685018990559184018054337fffffffffffffffffffffffff0000000000000000000000000000000000000000918216811790925594909501805490941673ffffffffffffffffffffffffffffffffffffffff88811691909117909455905491517f23b872dd00000000000000000000000000000000000000000000000000000000815291909216926323b872dd926111539230918d91016120f2565b600060405180830381600087803b15801561116d57600080fd5b505af1158015611181573d6000803e3d6000fd5b50506005546040517f082e2e78efcea783a9afe8f62b658bcf1e3482f87016915ab4214c446b69f43e93506111d592508a9173ffffffffffffffffffffffffffffffffffffffff16908a90899033906123f2565b60405180910390a160015481146111eb57600080fd5b5050505050505050565b60025460ff1615611232576040517f08c379a000000000000000000000000000000000000000000000000000000000815260040161045e90612258565b60018054810190819055611244611a6c565b50600082815260076020818152604092839020835161016081018552815460ff8082161515808452610100928390049091161515948301949094526001830154958201959095526002820154606082015260038201546080820152600482015460a0820152600582015460c0820152600682015460e08201529281015473ffffffffffffffffffffffffffffffffffffffff90811694840194909452600881015484166101208401526009015490921661014082015290611331576040517f08c379a000000000000000000000000000000000000000000000000000000000815260040161045e90612268565b60208101511561136d576040517f08c379a000000000000000000000000000000000000000000000000000000000815260040161045e90612278565b60a081015115156113aa576040517f08c379a000000000000000000000000000000000000000000000000000000000815260040161045e90612208565b608081015160a0820151014210156113ee576040517f08c379a000000000000000000000000000000000000000000000000000000000815260040161045e906122c8565b61014081015160408083015161010084015160e0850151610120860151600554945193949293919290917f19f5e73c484e5274d91de54225d8a1330339f61b5f27dbe05c47ff361b8dd3c191611462918b9173ffffffffffffffffffffffffffffffffffffffff169087908a908a906123a6565b60405180910390a1600088815260076020819052604080832080547fffffffffffffffffffffffffffffffffffffffffffffffffffffffffffff000016815560018101849055600281018490556003810184905560048082018590556005808301869055600683019590955592810180547fffffffffffffffffffffffff000000000000000000000000000000000000000090811690915560088201805482169055600990910180549091169055915491517f23b872dd00000000000000000000000000000000000000000000000000000000815273ffffffffffffffffffffffffffffffffffffffff909216916323b872dd916115669130918a918e910161211a565b600060405180830381600087803b15801561158057600080fd5b505af1158015611594573d6000803e3d6000fd5b5050505060006115be60646115b2858861196e90919063ffffffff16565b9063ffffffff61199916565b905060006115d2868363ffffffff61193b16565b905060008083111561167b5760065460405173ffffffffffffffffffffffffffffffffffffffff909116908490600081818185875af1925050503d8060008114611638576040519150601f19603f3d011682016040523d82523d6000602084013e61163d565b606091505b509091505080151561167b576040517f08c379a000000000000000000000000000000000000000000000000000000000815260040161045e90612298565b60405173ffffffffffffffffffffffffffffffffffffffff8516908390600081818185875af1925050503d80600081146116d1576040519150601f19603f3d011682016040523d82523d6000602084013e6116d6565b606091505b5090915050801515611714576040517f08c379a000000000000000000000000000000000000000000000000000000000815260040161045e906122a8565b50505050505050505060015481141515610aec57600080fd5b600880548290811061173b57fe5b600091825260209091200154905081565b611754610b8e565b151561175f57600080fd5b600680547fffffffffffffffffffffffff00000000000000000000000000000000000000001673ffffffffffffffffffffffffffffffffffffffff92909216919091179055565b6117ae610b8e565b15156117b957600080fd5b6040517f01ffc9a700000000000000000000000000000000000000000000000000000000815273ffffffffffffffffffffffffffffffffffffffff8216906301ffc9a79061182b907f80ac58cd00000000000000000000000000000000000000000000000000000000906004016121da565b60206040518083038186803b15801561184357600080fd5b505afa158015611857573d6000803e3d6000fd5b505050506040513d601f19601f8201168201806040525061187b9190810190611b81565b15156118b3576040517f08c379a000000000000000000000000000000000000000000000000000000000815260040161045e906122d8565b600580547fffffffffffffffffffffffff00000000000000000000000000000000000000001673ffffffffffffffffffffffffffffffffffffffff92909216919091179055565b60035481565b611908610b8e565b151561191357600080fd5b61191c816119bd565b50565b60065473ffffffffffffffffffffffffffffffffffffffff1681565b60008282111561194a57600080fd5b508082035b92915050565b60008282018381101561196757600080fd5b9392505050565b600082151561197f5750600061194f565b82820282848281151561198e57fe5b041461196757600080fd5b60008082116119a757600080fd5b600082848115156119b457fe5b04949350505050565b73ffffffffffffffffffffffffffffffffffffffff811615156119df57600080fd5b6000805460405173ffffffffffffffffffffffffffffffffffffffff808516939216917f8be0079c531659141344cd1fd0a4f28419497f9722a3daafe3b4186f6b6457e091a3600080547fffffffffffffffffffffffff00000000000000000000000000000000000000001673ffffffffffffffffffffffffffffffffffffffff92909216919091179055565b61016060405190810160405280600015158152602001600015158152602001600081526020016000815260200160008152602001600081526020016000815260200160008152602001600073ffffffffffffffffffffffffffffffffffffffff168152602001600073ffffffffffffffffffffffffffffffffffffffff168152602001600073ffffffffffffffffffffffffffffffffffffffff1681525090565b6000611967823561244f565b6000611967823561245a565b6000611967825161245a565b6000611967823561249d565b600060208284031215611b4f57600080fd5b6000611b5b8484611b0d565b949350505050565b600060208284031215611b7557600080fd5b6000611b5b8484611b19565b600060208284031215611b9357600080fd5b6000611b5b8484611b25565b600080600080600080600060e0888a031215611bba57600080fd5b6000611bc68a8a611b19565b9750506020611bd78a828b01611b31565b9650506040611be88a828b01611b31565b9550506060611bf98a828b01611b31565b9450506080611c0a8a828b01611b31565b93505060a0611c1b8a828b01611b31565b92505060c0611c2c8a828b01611b0d565b91505092959891949750929550565b600060208284031215611c4d57600080fd5b6000611b5b8484611b31565b60008060408385031215611c6c57600080fd5b6000611c788585611b31565b9250506020611c8985828601611b19565b9150509250929050565b611c9c816124a0565b82525050565b611c9c8161244f565b611c9c8161245a565b611c9c8161245f565b601681527f41756374696f6e20616c72656164792065786973747300000000000000000000602082015260400190565b602781527f43616e27742063616e63656c20616e2061756374696f6e206f6e63652069742760208201527f7320626567756e00000000000000000000000000000000000000000000000000604082015260600190565b601481527f41756374696f6e206861736e277420626567756e000000000000000000000000602082015260400190565b603081527f61646d696e2028696e20706c616365206f66206c61737442696464657229206660208201527f61696c656420746f207265636569766500000000000000000000000000000000604082015260600190565b602e81527f43616e206f6e6c792062652063616c6c65642062792061756374696f6e20637260208201527f6561746f72206f72206f776e6572000000000000000000000000000000000000604082015260600190565b601c81527f4d7573742073656e64206d6f7265207468616e206c6173742062696400000000602082015260400190565b601681527f41756374696f6e206861736e2774207374617274656400000000000000000000602082015260400190565b601281527f4d757374206e6f74206265207061757365640000000000000000000000000000602082015260400190565b601581527f41756374696f6e20646f65736e27742065786973740000000000000000000000602082015260400190565b600e81527f41756374696f6e20706175736564000000000000000000000000000000000000602082015260400190565b602281527f50657263656e746167652068617320746f206265206c657373207468616e203160208201527f3030000000000000000000000000000000000000000000000000000000000000604082015260600190565b601781527f61646d696e206661696c656420746f2072656365697665000000000000000000602082015260400190565b601b81527f726563697069656e74206661696c656420746f20726563656976650000000000602082015260400190565b601e81527f4d7573742073656e6420726573657276655072696365206f72206d6f72650000602082015260400190565b601881527f41756374696f6e206861736e277420636f6d706c657465640000000000000000602082015260400190565b601d81527f446f65736e277420737570706f7274204e465420696e74657266616365000000602082015260400190565b600f81527f41756374696f6e20657870697265640000000000000000000000000000000000602082015260400190565b602d81527f4d7573742073656e64206d6f7265207468616e206c617374206269642062792060208201527f6d696e42696420416d6f756e7400000000000000000000000000000000000000604082015260600190565b611c9c8161249d565b6020810161194f8284611ca2565b606081016121008286611c93565b61210d6020830185611ca2565b611b5b60408301846120db565b606081016121008286611ca2565b6020810161194f8284611cab565b6101608101612145828e611cab565b612152602083018d611cab565b61215f604083018c6120db565b61216c606083018b6120db565b612179608083018a6120db565b61218660a08301896120db565b61219360c08301886120db565b6121a060e08301876120db565b6121ae610100830186611ca2565b6121bc610120830185611ca2565b6121ca610140830184611ca2565b9c9b505050505050505050505050565b6020810161194f8284611cb4565b6020808252810161194f81611cbd565b6020808252810161194f81611ced565b6020808252810161194f81611d43565b6020808252810161194f81611d73565b6020808252810161194f81611dc9565b6020808252810161194f81611e1f565b6020808252810161194f81611e4f565b6020808252810161194f81611e7f565b6020808252810161194f81611eaf565b6020808252810161194f81611edf565b6020808252810161194f81611f0f565b6020808252810161194f81611f65565b6020808252810161194f81611f95565b6020808252810161194f81611fc5565b6020808252810161194f81611ff5565b6020808252810161194f81612025565b6020808252810161194f81612055565b6020808252810161194f81612085565b6020810161194f82846120db565b6060810161232482866120db565b6123316020830185611ca2565b611b5b6040830184611ca2565b60e0810161234c828a6120db565b6123596020830189611ca2565b6123666040830188611c93565b61237360608301876120db565b61238060808301866120db565b61238d60a0830185611cab565b61239a60c0830184611cab565b98975050505050505050565b60a081016123b482886120db565b6123c16020830187611ca2565b6123ce6040830186611ca2565b6123db6060830185611ca2565b6123e860808301846120db565b9695505050505050565b60a0810161240082886120db565b61240d6020830187611ca2565b61241a60408301866120db565b61242760608301856120db565b6123e86080830184611c93565b6040810161244282856120db565b6119676020830184611cab565b600061194f82612484565b151590565b7fffffffff000000000000000000000000000000000000000000000000000000001690565b73ffffffffffffffffffffffffffffffffffffffff1690565b90565b600061194f82600061194f8261244f56fea265627a7a72305820bc274d78dd4a0cae26424d680f20628bad548716c1a2ff8713f4baa9baeb96fd6c6578706572696d656e74616cf50037",
  "source": "pragma solidity ^0.5.0;\npragma experimental ABIEncoderV2;\n\nimport \"openzeppelin-solidity/contracts/math/SafeMath.sol\";\nimport \"openzeppelin-solidity/contracts/ownership/Ownable.sol\";\n\nimport \"openzeppelin-solidity/contracts/token/ERC721/IERC721.sol\";\nimport \"openzeppelin-solidity/contracts/introspection/IERC165.sol\";\nimport \"openzeppelin-solidity/contracts/utils/ReentrancyGuard.sol\";\n\ncontract ExodusAuction is Ownable, ReentrancyGuard {\n    using SafeMath for uint256;\n\n    bool public globalPaused;\n\n    uint256 public timeBuffer = 15 * 60; // extend 15 minutes after every bid made in last 15 minutes\n    uint256 public minBid = 1 * 10**17; // 0.1 eth\n\n    bytes4 constant interfaceId = 0x80ac58cd; // 721 interface id\n    address public nftAddress;\n    address payable public admin;\n\n    mapping(uint256 => Auction) public auctions;\n    uint256[] public tokenIds;\n\n    struct Auction {\n        bool exists;\n        bool paused;\n        uint256 amount;\n        uint256 tokenId;\n        uint256 duration;\n        uint256 firstBidTime;\n        uint256 reservePrice;\n        uint256 adminSplit; // percentage of 100\n        address creator;\n        address payable proceedsRecipient;\n        address payable bidder;\n    }\n\n    modifier notPaused() {\n        require(!globalPaused, \"Must not be paused\");\n        _;\n    }\n\n    event AuctionCreated(\n        uint256 tokenId,\n        address nftAddress,\n        uint256 duration,\n        uint256 reservePrice,\n        address creator\n    );\n    event AuctionBid(\n        uint256 tokenId,\n        address nftAddress,\n        address sender,\n        uint256 value,\n        uint256 timestamp,\n        bool firstBid,\n        bool extended\n    );\n    event AuctionEnded(\n        uint256 tokenId,\n        address nftAddress,\n        address creator,\n        address winner,\n        uint256 amount\n    );\n    event AuctionCanceled(\n        uint256 tokenId,\n        address nftAddress,\n        address creator\n    );\n    event UpdateAuction(\n        uint256 tokenId,\n        bool paused\n    );\n\n    constructor(address _nftAddress, address payable _admin) public {\n        require(\n            IERC165(_nftAddress).supportsInterface(interfaceId),\n            \"Doesn't support NFT interface\"\n        );\n        nftAddress = _nftAddress;\n        admin = _admin;\n    }\n\n    function updateNftAddress(address _nftAddress) public onlyOwner {\n        require(\n            IERC165(_nftAddress).supportsInterface(interfaceId),\n            \"Doesn't support NFT interface\"\n        );\n        nftAddress = _nftAddress;\n    }\n\n    function updateMinBid(uint256 _minBid) public onlyOwner {\n        minBid = _minBid;\n    }\n\n    function updateTimeBuffer(uint256 _timeBuffer) public onlyOwner {\n        timeBuffer = _timeBuffer;\n    }\n\n    function updateAuction(uint256 tokenId, bool paused) public onlyOwner {\n        require(auctions[tokenId].exists, \"Auction doesn't exist\");\n        auctions[tokenId].paused = paused;\n        emit UpdateAuction(tokenId, paused);\n    }\n\n    function createAuction(\n        bool paused,\n        uint256 tokenId,\n        uint256 duration,\n        uint256 firstBidTime,\n        uint256 reservePrice,\n        uint256 adminSplit, // percentage\n        address payable proceedsRecipient\n    ) external notPaused onlyOwner nonReentrant {\n        require(!auctions[tokenId].exists, \"Auction already exists\");\n        require(adminSplit < 100, \"Percentage has to be less than 100\");\n        tokenIds.push(tokenId);\n\n        auctions[tokenId].paused = paused;\n        auctions[tokenId].exists = true;\n        auctions[tokenId].duration = duration;\n        auctions[tokenId].firstBidTime = firstBidTime;\n        auctions[tokenId].reservePrice = reservePrice;\n\n        auctions[tokenId].adminSplit = adminSplit;\n        auctions[tokenId].creator = msg.sender;\n        auctions[tokenId].proceedsRecipient = proceedsRecipient;\n\n        IERC721(nftAddress).transferFrom(msg.sender, address(this), tokenId);\n\n        emit AuctionCreated(tokenId, nftAddress, duration, reservePrice, msg.sender);\n    }\n\n    function createBid(uint256 tokenId) external payable notPaused nonReentrant {\n\n        Auction memory auction = auctions[tokenId];\n\n        require(auction.exists, \"Auction doesn't exist\");\n        require(!auction.paused, \"Auction paused\");\n        require(\n            msg.value >= auction.reservePrice,\n            \"Must send reservePrice or more\"\n        );\n\n        if (auction.firstBidTime > 0) {\n            require(\n                auction.firstBidTime <= block.timestamp,\n            \"Auction hasn't started\");\n        }\n\n        require(\n            auction.firstBidTime == 0 ||\n                block.timestamp <\n                auction.firstBidTime + auction.duration,\n            \"Auction expired\"\n        );\n\n        uint256 lastValue = auction.amount;\n\n        bool firstBid;\n        address payable lastBidder;\n\n        // allows for auctions with starting price of 0\n        if (lastValue != 0) {\n            require(msg.value > lastValue, \"Must send more than last bid\");\n            require(\n                msg.value.sub(lastValue) >= minBid,\n                \"Must send more than last bid by minBid Amount\"\n            );\n            lastBidder = auction.bidder;\n        } else {\n            firstBid = true;\n            if (auction.firstBidTime == 0) {\n                auctions[tokenId].firstBidTime = block.timestamp;\n            }\n        }\n\n        auctions[tokenId].amount = msg.value;\n        auctions[tokenId].bidder = msg.sender;\n\n        bool extended;\n        // at this point we know that the timestamp is less than start + duration\n        // we want to know by how much the timestamp is less than start + duration\n        // if the difference is less than the timeBuffer, update duration to time buffer\n        if (\n            ( auctions[tokenId].firstBidTime.add( auction.duration ) ).sub( block.timestamp ) < timeBuffer\n        ) {\n            // take the difference between now and starting point, add timeBuffer and set as duration\n            auctions[tokenId].duration = block.timestamp.sub(auctions[tokenId].firstBidTime).add(timeBuffer);\n            extended = true;\n        }\n\n        emit AuctionBid(\n            tokenId,\n            nftAddress,\n            msg.sender,\n            msg.value,\n            block.timestamp,\n            firstBid,\n            extended\n        );\n        if (!firstBid && lastValue > 0) {\n            // in case the bidder is a contract that doesn't allow receiving\n             (bool success, ) = lastBidder.call.value(lastValue)(\"\");\n            if (!success) {\n                (success, ) = admin.call.value(lastValue)(\"\");\n                require(success, \"admin (in place of lastBidder) failed to receive\");\n            }\n        }\n    }\n\n    function endAuction(uint256 tokenId) external notPaused nonReentrant {\n        \n        Auction memory auction = auctions[tokenId];\n\n        require(auction.exists, \"Auction doesn't exist\");\n        require(!auction.paused, \"Auction paused\");\n        require(\n            uint256(auction.firstBidTime) != 0,\n            \"Auction hasn't begun\"\n        );\n        require(\n            block.timestamp >=\n                auction.firstBidTime + auction.duration,\n            \"Auction hasn't completed\"\n        );\n\n        address winner = auction.bidder;\n        uint256 amount = auction.amount;\n        address creator = auction.creator;\n        uint256 adminSplit = auction.adminSplit;\n        address payable proceedsRecipient = auction.proceedsRecipient;\n\n        emit AuctionEnded(tokenId, nftAddress, creator, winner, amount);\n        delete auctions[tokenId];\n\n        IERC721(nftAddress).transferFrom(address(this), winner, tokenId);\n\n        uint256 adminReceives = amount.mul(adminSplit).div(100);\n        uint256 proceedsAmount = amount.sub(adminReceives);\n        bool success;\n        if (adminReceives > 0) {\n            (success, ) = admin.call.value(adminReceives)(\"\");\n            require(success, \"admin failed to receive\");\n        }\n\n        (success, ) = proceedsRecipient.call.value(proceedsAmount)(\"\");\n        require(success, \"recipient failed to receive\");\n    }\n\n    function cancelAuction(uint256 tokenId) external nonReentrant {\n\n        Auction memory auction = auctions[tokenId];\n\n        require(auction.exists, \"Auction doesn't exist\");\n        require(\n            auction.creator == msg.sender || msg.sender == owner(),\n            \"Can only be called by auction creator or owner\"\n        );\n        require(\n            auction.amount == 0,\n            \"Can't cancel an auction once it's begun\"\n        );\n        address creator = auction.creator;\n        delete auctions[tokenId];\n        IERC721(nftAddress).transferFrom(address(this), creator, tokenId);\n        emit AuctionCanceled(tokenId, nftAddress, creator);\n    }\n\n    function updatePaused(bool _globalPaused) public onlyOwner {\n        globalPaused = _globalPaused;\n    }\n\n    function updateAdmin(address payable _admin) public onlyOwner {\n        admin = _admin;\n    }\n}\n",
  "sourcePath": "/Users/billy/GitHub/folia-app/folia-contracts/contracts/ExodusAuction.sol",
  "compiler": {
    "name": "solc",
    "version": "0.5.0+commit.1d4f565a.Emscripten.clang"
  },
  "schemaVersion": "3.3.2",
  "updatedAt": "2021-06-05T21:18:16.836Z",
  "networkType": "ethereum",
  "devdoc": {
    "methods": {
      "isOwner()": {
        "return": "true if `msg.sender` is the owner of the contract."
      },
      "owner()": {
        "return": "the address of the owner."
      },
      "renounceOwnership()": {
        "details": "Allows the current owner to relinquish control of the contract."
      },
      "transferOwnership(address)": {
        "details": "Allows the current owner to transfer control of the contract to a newOwner.",
        "params": {
          "newOwner": "The address to transfer ownership to."
        }
      }
    }
  },
  "userdoc": {
    "methods": {
      "renounceOwnership()": {
        "notice": "Renouncing to ownership will leave the contract without an owner. It will not be possible to call the functions with the `onlyOwner` modifier anymore."
      }
    }
  }
}