{
  "contractName": "EXODUS2",
  "abi": [
    {
      "constant": true,
      "inputs": [
        {
          "name": "interfaceId",
          "type": "bytes4"
        }
      ],
      "name": "supportsInterface",
      "outputs": [
        {
          "name": "",
          "type": "bool"
        }
      ],
      "payable": false,
      "stateMutability": "view",
      "type": "function"
    },
    {
      "constant": true,
      "inputs": [],
      "name": "name",
      "outputs": [
        {
          "name": "",
          "type": "string"
        }
      ],
      "payable": false,
      "stateMutability": "view",
      "type": "function"
    },
    {
      "constant": true,
      "inputs": [
        {
          "name": "tokenId",
          "type": "uint256"
        }
      ],
      "name": "getApproved",
      "outputs": [
        {
          "name": "",
          "type": "address"
        }
      ],
      "payable": false,
      "stateMutability": "view",
      "type": "function"
    },
    {
      "constant": false,
      "inputs": [
        {
          "name": "to",
          "type": "address"
        },
        {
          "name": "tokenId",
          "type": "uint256"
        }
      ],
      "name": "approve",
      "outputs": [],
      "payable": false,
      "stateMutability": "nonpayable",
      "type": "function"
    },
    {
      "constant": true,
      "inputs": [],
      "name": "totalSupply",
      "outputs": [
        {
          "name": "",
          "type": "uint256"
        }
      ],
      "payable": false,
      "stateMutability": "view",
      "type": "function"
    },
    {
      "constant": false,
      "inputs": [
        {
          "name": "from",
          "type": "address"
        },
        {
          "name": "to",
          "type": "address"
        },
        {
          "name": "tokenId",
          "type": "uint256"
        }
      ],
      "name": "transferFrom",
      "outputs": [],
      "payable": false,
      "stateMutability": "nonpayable",
      "type": "function"
    },
    {
      "constant": true,
      "inputs": [
        {
          "name": "owner",
          "type": "address"
        },
        {
          "name": "index",
          "type": "uint256"
        }
      ],
      "name": "tokenOfOwnerByIndex",
      "outputs": [
        {
          "name": "",
          "type": "uint256"
        }
      ],
      "payable": false,
      "stateMutability": "view",
      "type": "function"
    },
    {
      "constant": false,
      "inputs": [
        {
          "name": "from",
          "type": "address"
        },
        {
          "name": "to",
          "type": "address"
        },
        {
          "name": "tokenId",
          "type": "uint256"
        }
      ],
      "name": "safeTransferFrom",
      "outputs": [],
      "payable": false,
      "stateMutability": "nonpayable",
      "type": "function"
    },
    {
      "constant": true,
      "inputs": [
        {
          "name": "index",
          "type": "uint256"
        }
      ],
      "name": "tokenByIndex",
      "outputs": [
        {
          "name": "",
          "type": "uint256"
        }
      ],
      "payable": false,
      "stateMutability": "view",
      "type": "function"
    },
    {
      "constant": true,
      "inputs": [
        {
          "name": "",
          "type": "uint256"
        }
      ],
      "name": "stanzas",
      "outputs": [
        {
          "name": "",
          "type": "string"
        }
      ],
      "payable": false,
      "stateMutability": "view",
      "type": "function"
    },
    {
      "constant": true,
      "inputs": [
        {
          "name": "tokenId",
          "type": "uint256"
        }
      ],
      "name": "ownerOf",
      "outputs": [
        {
          "name": "",
          "type": "address"
        }
      ],
      "payable": false,
      "stateMutability": "view",
      "type": "function"
    },
    {
      "constant": true,
      "inputs": [
        {
          "name": "owner",
          "type": "address"
        }
      ],
      "name": "balanceOf",
      "outputs": [
        {
          "name": "",
          "type": "uint256"
        }
      ],
      "payable": false,
      "stateMutability": "view",
      "type": "function"
    },
    {
      "constant": true,
      "inputs": [],
      "name": "symbol",
      "outputs": [
        {
          "name": "",
          "type": "string"
        }
      ],
      "payable": false,
      "stateMutability": "view",
      "type": "function"
    },
    {
      "constant": false,
      "inputs": [
        {
          "name": "to",
          "type": "address"
        },
        {
          "name": "approved",
          "type": "bool"
        }
      ],
      "name": "setApprovalForAll",
      "outputs": [],
      "payable": false,
      "stateMutability": "nonpayable",
      "type": "function"
    },
    {
      "constant": false,
      "inputs": [
        {
          "name": "from",
          "type": "address"
        },
        {
          "name": "to",
          "type": "address"
        },
        {
          "name": "tokenId",
          "type": "uint256"
        },
        {
          "name": "_data",
          "type": "bytes"
        }
      ],
      "name": "safeTransferFrom",
      "outputs": [],
      "payable": false,
      "stateMutability": "nonpayable",
      "type": "function"
    },
    {
      "constant": true,
      "inputs": [
        {
          "name": "owner",
          "type": "address"
        },
        {
          "name": "operator",
          "type": "address"
        }
      ],
      "name": "isApprovedForAll",
      "outputs": [
        {
          "name": "",
          "type": "bool"
        }
      ],
      "payable": false,
      "stateMutability": "view",
      "type": "function"
    },
    {
      "inputs": [],
      "payable": false,
      "stateMutability": "nonpayable",
      "type": "constructor"
    },
    {
      "anonymous": false,
      "inputs": [
        {
          "indexed": true,
          "name": "from",
          "type": "address"
        },
        {
          "indexed": true,
          "name": "to",
          "type": "address"
        },
        {
          "indexed": true,
          "name": "tokenId",
          "type": "uint256"
        }
      ],
      "name": "Transfer",
      "type": "event"
    },
    {
      "anonymous": false,
      "inputs": [
        {
          "indexed": true,
          "name": "owner",
          "type": "address"
        },
        {
          "indexed": true,
          "name": "approved",
          "type": "address"
        },
        {
          "indexed": true,
          "name": "tokenId",
          "type": "uint256"
        }
      ],
      "name": "Approval",
      "type": "event"
    },
    {
      "anonymous": false,
      "inputs": [
        {
          "indexed": true,
          "name": "owner",
          "type": "address"
        },
        {
          "indexed": true,
          "name": "operator",
          "type": "address"
        },
        {
          "indexed": false,
          "name": "approved",
          "type": "bool"
        }
      ],
      "name": "ApprovalForAll",
      "type": "event"
    },
    {
      "constant": false,
      "inputs": [
        {
          "name": "pangram",
          "type": "string"
        }
      ],
      "name": "deploy",
      "outputs": [],
      "payable": false,
      "stateMutability": "nonpayable",
      "type": "function"
    },
    {
      "constant": true,
      "inputs": [
        {
          "name": "_tokenId",
          "type": "uint256"
        }
      ],
      "name": "tokenURI",
      "outputs": [
        {
          "name": "_infoUrl",
          "type": "string"
        }
      ],
      "payable": false,
      "stateMutability": "view",
      "type": "function"
    },
    {
      "constant": true,
      "inputs": [
        {
          "name": "x",
          "type": "uint256"
        }
      ],
      "name": "toBytes",
      "outputs": [
        {
          "name": "b",
          "type": "bytes"
        }
      ],
      "payable": false,
      "stateMutability": "pure",
      "type": "function"
    }
  ],
  "bytecode": "0x60806040523480156200001157600080fd5b50604080518082018252600881527f45584f44555320320000000000000000000000000000000000000000000000006020808301919091528251808401909352600283527f583200000000000000000000000000000000000000000000000000000000000090830152908181620000b17f01ffc9a700000000000000000000000000000000000000000000000000000000640100000000620001b0810204565b620000e57f80ac58cd00000000000000000000000000000000000000000000000000000000640100000000620001b0810204565b620001197f780e9d6300000000000000000000000000000000000000000000000000000000640100000000620001b0810204565b81516200012e906009906020850190620003ee565b5080516200014490600a906020840190620003ee565b50620001797f5b5e139f00000000000000000000000000000000000000000000000000000000640100000000620001b0810204565b506001925050505b6014811015620001a957620001a033826401000000006200021d810204565b60010162000181565b5062000493565b7fffffffff000000000000000000000000000000000000000000000000000000008082161415620001e057600080fd5b7fffffffff00000000000000000000000000000000000000000000000000000000166000908152602081905260409020805460ff19166001179055565b6200023782826401000000006200179e6200026482021704565b6200024c828264010000000062000335810204565b620002608164010000000062000373810204565b5050565b600160a060020a03821615156200027a57600080fd5b6200028e81640100000000620003b7810204565b156200029957600080fd5b60008181526001602081815260408084208054600160a060020a031916600160a060020a0388169081179091558452600390915290912054620002ea91640100000000620003d48102620016b61704565b600160a060020a0383166000818152600360205260408082209390935591518392907fddf252ad1be2c89b69c2b068fc378daa952ba7f163c4a11628f55a4df523b3ef908290a45050565b600160a060020a0390911660009081526005602081815260408084208054868652600684529185208290559282526001810183559183529091200155565b600780546000838152600860205260408120829055600182018355919091527fa66cc928b5edb82af9bd49922954155ab7b0942694bea4ce44661d9a8736c6880155565b600090815260016020526040902054600160a060020a0316151590565b600082820183811015620003e757600080fd5b9392505050565b828054600181600116156101000203166002900490600052602060002090601f016020900481019282601f106200043157805160ff191683800117855562000461565b8280016001018555821562000461579182015b828111156200046157825182559160200191906001019062000444565b506200046f92915062000473565b5090565b6200049091905b808211156200046f57600081556001016200047a565b90565b6118bd80620004a36000396000f3fe6080604052600436106101065763ffffffff7c010000000000000000000000000000000000000000000000000000000060003504166301ffc9a7811461010b57806306fdde031461016b578063081812fc146101f5578063095ea7b31461024857806318160ddd1461029057806323b872dd146102b75780632f745c591461030757806342842e0e1461034d5780634f6ccce71461039d5780635fa6941b146103c75780636352211e146103f157806370a082311461041b578063775a8f5e1461045b57806395d89b4114610485578063a22cb4651461049a578063b88d4fde146104e2578063c7602316146105c2578063c87b56dd14610675578063e985e9c51461069f575b600080fd5b34801561011757600080fd5b506101576004803603602081101561012e57600080fd5b50357fffffffff00000000000000000000000000000000000000000000000000000000166106e7565b604080519115158252519081900360200190f35b34801561017757600080fd5b50610180610722565b6040805160208082528351818301528351919283929083019185019080838360005b838110156101ba5781810151838201526020016101a2565b50505050905090810190601f1680156101e75780820380516001836020036101000a031916815260200191505b509250505060405180910390f35b34801561020157600080fd5b5061021f6004803603602081101561021857600080fd5b50356107d7565b6040805173ffffffffffffffffffffffffffffffffffffffff9092168252519081900360200190f35b34801561025457600080fd5b5061028e6004803603604081101561026b57600080fd5b5073ffffffffffffffffffffffffffffffffffffffff8135169060200135610816565b005b34801561029c57600080fd5b506102a56108fe565b60408051918252519081900360200190f35b3480156102c357600080fd5b5061028e600480360360608110156102da57600080fd5b5073ffffffffffffffffffffffffffffffffffffffff813581169160208101359091169060400135610904565b34801561031357600080fd5b506102a56004803603604081101561032a57600080fd5b5073ffffffffffffffffffffffffffffffffffffffff8135169060200135610929565b34801561035957600080fd5b5061028e6004803603606081101561037057600080fd5b5073ffffffffffffffffffffffffffffffffffffffff813581169160208101359091169060400135610983565b3480156103a957600080fd5b506102a5600480360360208110156103c057600080fd5b503561099f565b3480156103d357600080fd5b50610180600480360360208110156103ea57600080fd5b50356109d4565b3480156103fd57600080fd5b5061021f6004803603602081101561041457600080fd5b5035610a99565b34801561042757600080fd5b506102a56004803603602081101561043e57600080fd5b503573ffffffffffffffffffffffffffffffffffffffff16610ad0565b34801561046757600080fd5b506101806004803603602081101561047e57600080fd5b5035610b1d565b34801561049157600080fd5b50610180610b47565b3480156104a657600080fd5b5061028e600480360360408110156104bd57600080fd5b5073ffffffffffffffffffffffffffffffffffffffff81351690602001351515610bc6565b3480156104ee57600080fd5b5061028e6004803603608081101561050557600080fd5b73ffffffffffffffffffffffffffffffffffffffff82358116926020810135909116916040820135919081019060808101606082013564010000000081111561054d57600080fd5b82018360208201111561055f57600080fd5b8035906020019184600183028401116401000000008311171561058157600080fd5b91908080601f016020809104026020016040519081016040528093929190818152602001838380828437600092019190915250929550610c82945050505050565b3480156105ce57600080fd5b5061028e600480360360208110156105e557600080fd5b81019060208101813564010000000081111561060057600080fd5b82018360208201111561061257600080fd5b8035906020019184600183028401116401000000008311171561063457600080fd5b91908080601f016020809104026020016040519081016040528093929190818152602001838380828437600092019190915250929550610caa945050505050565b34801561068157600080fd5b506101806004803603602081101561069857600080fd5b5035610d5f565b3480156106ab57600080fd5b50610157600480360360408110156106c257600080fd5b5073ffffffffffffffffffffffffffffffffffffffff81358116916020013516610df1565b7fffffffff00000000000000000000000000000000000000000000000000000000811660009081526020819052604090205460ff165b919050565b60098054604080516020601f60027fffffffffffffffffffffffffffffffffffffffffffffffffffffffffffffffff6101006001881615020190951694909404938401819004810282018101909252828152606093909290918301828280156107cc5780601f106107a1576101008083540402835291602001916107cc565b820191906000526020600020905b8154815290600101906020018083116107af57829003601f168201915b505050505090505b90565b60006107e282610e2c565b15156107ed57600080fd5b5060009081526002602052604090205473ffffffffffffffffffffffffffffffffffffffff1690565b600061082182610a99565b905073ffffffffffffffffffffffffffffffffffffffff838116908216141561084957600080fd5b3373ffffffffffffffffffffffffffffffffffffffff8216148061087257506108728133610df1565b151561087d57600080fd5b60008281526002602052604080822080547fffffffffffffffffffffffff00000000000000000000000000000000000000001673ffffffffffffffffffffffffffffffffffffffff87811691821790925591518593918516917f8c5be1e5ebec7d5bd14f71427d1e84f3dd0314c0f7b2291e5b200ac8c7c3b92591a4505050565b60075490565b61090e3382610e56565b151561091957600080fd5b610924838383610ee1565b505050565b600061093483610ad0565b821061093f57600080fd5b73ffffffffffffffffffffffffffffffffffffffff8316600090815260056020526040902080548390811061097057fe5b9060005260206000200154905092915050565b6109248383836020604051908101604052806000815250610c82565b60006109a96108fe565b82106109b457600080fd5b60078054839081106109c257fe5b90600052602060002001549050919050565b600c8054829081106109e257fe5b600091825260209182902001805460408051601f60027fffffffffffffffffffffffffffffffffffffffffffffffffffffffffffffffff610100600187161502019094169390930492830185900485028101850190915281815293509091830182828015610a915780601f10610a6657610100808354040283529160200191610a91565b820191906000526020600020905b815481529060010190602001808311610a7457829003601f168201915b505050505081565b60008181526001602052604081205473ffffffffffffffffffffffffffffffffffffffff16801515610aca57600080fd5b92915050565b600073ffffffffffffffffffffffffffffffffffffffff82161515610af457600080fd5b5073ffffffffffffffffffffffffffffffffffffffff1660009081526003602052604090205490565b60408051602080825281830190925260609160208201818038833950505060208101929092525090565b600a8054604080516020601f60027fffffffffffffffffffffffffffffffffffffffffffffffffffffffffffffffff6101006001881615020190951694909404938401819004810282018101909252828152606093909290918301828280156107cc5780601f106107a1576101008083540402835291602001916107cc565b73ffffffffffffffffffffffffffffffffffffffff8216331415610be957600080fd5b33600081815260046020908152604080832073ffffffffffffffffffffffffffffffffffffffff87168085529083529281902080547fffffffffffffffffffffffffffffffffffffffffffffffffffffffffffffff0016861515908117909155815190815290519293927f17307eab39ab6107e8899845ad3d59bd9653f200f220920489ca2b5937696c31929181900390910190a35050565b610c8d848484610904565b610c9984848484610f00565b1515610ca457600080fd5b50505050565b600c54601311610d1b57604080517f08c379a000000000000000000000000000000000000000000000000000000000815260206004820152601160248201527f7374616e7a617320706f70756c61746564000000000000000000000000000000604482015290519081900360640190fd5b600c8054600181018083556000929092528251610924917fdf6966c971051c3d54ec59162606531493a51404a002842f56009d7e5cf4a8c7019060208501906116cf565b6040805160608181018352602882527f68747470733a2f2f65786f6475732d69692e666f6c69612e6170702f76312f6d60208301527f657461646174612f0000000000000000000000000000000000000000000000009282019290925281610dc684611099565b9050610de9610dd48261120e565b610ddd8461120e565b9063ffffffff61123316565b949350505050565b73ffffffffffffffffffffffffffffffffffffffff918216600090815260046020908152604080832093909416825291909152205460ff1690565b60009081526001602052604090205473ffffffffffffffffffffffffffffffffffffffff16151590565b600080610e6283610a99565b90508073ffffffffffffffffffffffffffffffffffffffff168473ffffffffffffffffffffffffffffffffffffffff161480610ed157508373ffffffffffffffffffffffffffffffffffffffff16610eb9846107d7565b73ffffffffffffffffffffffffffffffffffffffff16145b80610de95750610de98185610df1565b610eec8383836112a7565b610ef6838261141c565b6109248282611572565b6000610f218473ffffffffffffffffffffffffffffffffffffffff166115bd565b1515610f2f57506001610de9565b6040517f150b7a02000000000000000000000000000000000000000000000000000000008152336004820181815273ffffffffffffffffffffffffffffffffffffffff888116602485015260448401879052608060648501908152865160848601528651600095928a169463150b7a029490938c938b938b939260a4019060208501908083838e5b83811015610fcf578181015183820152602001610fb7565b50505050905090810190601f168015610ffc5780820380516001836020036101000a031916815260200191505b5095505050505050602060405180830381600087803b15801561101e57600080fd5b505af1158015611032573d6000803e3d6000fd5b505050506040513d602081101561104857600080fd5b50517fffffffff00000000000000000000000000000000000000000000000000000000167f150b7a020000000000000000000000000000000000000000000000000000000014915050949350505050565b60608115156110dc575060408051808201909152600181527f3000000000000000000000000000000000000000000000000000000000000000602082015261071d565b8160005b81156110f457600101600a820491506110e0565b6060816040519080825280601f01601f191660200182016040528015611121576020820181803883390190505b5090507fffffffffffffffffffffffffffffffffffffffffffffffffffffffffffffffff82015b8515611205576030600a87060161115e81610b1d565b8051601f90811061116b57fe5b016020015183517fffffffffffffffffffffffffffffffffffffffffffffffffffffffffffffffff8401937f01000000000000000000000000000000000000000000000000000000000000009283900490920291859181106111c957fe5b9060200101907effffffffffffffffffffffffffffffffffffffffffffffffffffffffffffff1916908160001a905350600a8704965050611148565b50949350505050565b61121661174d565b506040805180820190915281518152602082810190820152919050565b60608082600001518460000151016040519080825280601f01601f19166020018201604052801561126b576020820181803883390190505b509050600060208201905061128981866020015187600001516115c5565b84516020850151855161129f92840191906115c5565b509392505050565b8273ffffffffffffffffffffffffffffffffffffffff166112c782610a99565b73ffffffffffffffffffffffffffffffffffffffff16146112e757600080fd5b73ffffffffffffffffffffffffffffffffffffffff8216151561130957600080fd5b6113128161163f565b73ffffffffffffffffffffffffffffffffffffffff831660009081526003602052604090205461134990600163ffffffff6116a116565b73ffffffffffffffffffffffffffffffffffffffff808516600090815260036020526040808220939093559084168152205461138c90600163ffffffff6116b616565b73ffffffffffffffffffffffffffffffffffffffff8084166000818152600360209081526040808320959095558582526001905283812080547fffffffffffffffffffffffff000000000000000000000000000000000000000016831790559251849391928716917fddf252ad1be2c89b69c2b068fc378daa952ba7f163c4a11628f55a4df523b3ef91a4505050565b73ffffffffffffffffffffffffffffffffffffffff821660009081526005602052604081205461145390600163ffffffff6116a116565b6000838152600660205260409020549091508082146115175773ffffffffffffffffffffffffffffffffffffffff8416600090815260056020526040812080548490811061149d57fe5b9060005260206000200154905080600560008773ffffffffffffffffffffffffffffffffffffffff1673ffffffffffffffffffffffffffffffffffffffff168152602001908152602001600020838154811015156114f757fe5b600091825260208083209091019290925591825260069052604090208190555b73ffffffffffffffffffffffffffffffffffffffff8416600090815260056020526040902080549061156b907fffffffffffffffffffffffffffffffffffffffffffffffffffffffffffffffff8301611764565b5050505050565b73ffffffffffffffffffffffffffffffffffffffff90911660009081526005602081815260408084208054868652600684529185208290559282526001810183559183529091200155565b6000903b1190565b5b602081106116035781518352602092830192909101907fffffffffffffffffffffffffffffffffffffffffffffffffffffffffffffffe0016115c6565b905182516020929092036101000a7fffffffffffffffffffffffffffffffffffffffffffffffffffffffffffffffff0180199091169116179052565b60008181526002602052604090205473ffffffffffffffffffffffffffffffffffffffff161561169e57600081815260026020526040902080547fffffffffffffffffffffffff00000000000000000000000000000000000000001690555b50565b6000828211156116b057600080fd5b50900390565b6000828201838110156116c857600080fd5b9392505050565b828054600181600116156101000203166002900490600052602060002090601f016020900481019282601f1061171057805160ff191683800117855561173d565b8280016001018555821561173d579182015b8281111561173d578251825591602001919060010190611722565b50611749929150611784565b5090565b604080518082019091526000808252602082015290565b815481835581811115610924576000838152602090206109249181019083015b6107d491905b80821115611749576000815560010161178a565b73ffffffffffffffffffffffffffffffffffffffff821615156117c057600080fd5b6117c981610e2c565b156117d357600080fd5b600081815260016020818152604080842080547fffffffffffffffffffffffff00000000000000000000000000000000000000001673ffffffffffffffffffffffffffffffffffffffff88169081179091558452600390915290912054611839916116b6565b73ffffffffffffffffffffffffffffffffffffffff83166000818152600360205260408082209390935591518392907fddf252ad1be2c89b69c2b068fc378daa952ba7f163c4a11628f55a4df523b3ef908290a4505056fea165627a7a723058204dc56cdfb144f689c22393e93357ad564cda72fe3ce195f496cd46ea489767e60029",
  "source": "pragma solidity ^0.5.0;\n\nimport \"openzeppelin-solidity/contracts/token/ERC721/ERC721Full.sol\";\nimport \"./strings.sol\";\n/*\n\n       `-+ooo/:::://+oo` .:+ooo/-       .:oo+-`    `-::://+o+:`     .-ooo+/:::///:.      .:ooo+-`        .:ooo-.   ----:/+s+:`    /ooooooooo/         \n         -MM+        -m     /NM+         `y:    `/s/`       .omh/     +MM-      `-odh/`    oMM-            oM/   +y.      `oM/  `ymMNNNNNNNMMm:       \n         .MM:         /      .dMy`      /o`    /No            `yMm-   :MM`          /NN/   /MM`            /M-  sM`         s-     `       hMMo       \n         .MM:                  sMm.   `s:     sMy               hMN.  :MM`           -MMo  /MM`            /M-  dM+         .`             hMMo       \n         .MM:                   :NN/ /o`     :MM.               .MMh  :MM`            sMM. /MM`            /M-  :NMd+.                     hMMo       \n         .MM+::::::/s/           .dMd/       yMN                 mMM  :MM`            :MM+ /MM`            /M-   `+hNMmy+-       ./ssss.sssmMMo       \n         .MM:`````.:s:            /dMm.      hMN                 dMM  :MM`            -MM/ :MM`            /M-       -/smMNh/   oMMNmmd/dmmdy+.       \n         .MM:                   `s/ :NM+     +MM-                NMy  :MM`            oMN` .MM.            /M`           `+NMd` oMMy                  \n         .MM:                  :s`   .dMy`   `mMh               /MN.  :MM`           .NM/   dM+            sy   .          .NM: oMMy                  \n         .MM:          -.    `o/       sMm-   .dMs             .Nd.   :MM`          :mm:    -NN.          .d`   y-          NN` oMMy                  \n         -MM/         /h    :y`         :NM+    /md:         `+h/     /MM.       .+hh/       .dN+`      `/+`    dN:       `yd-  /MMNdddddddmho`       \n       `-oyyy///////+sy- -:sys:.       .:syys:.   .+o+/:---::/.     `-syys//////+/-            -oyysoo++/`      -+ss/:---/+-     `oyyyyyyyyyo`        \n                                                                                                                                                      \n                                                                                                                                                      \n                                                                                                                                                      \n       `+   :-  oyyyy/      .yyyyy. `syyyy-  oyyyy:      .yyyyy. `syyyy-      -yyyys` .yyyyy.      :yyyyo  -yyyys`      +yyyy+  /yyyyo  :yyyys`       \n       :M   sh .M-..om      +m...ds /N...yh -M-..sd      od...do /N...hy      hy...N/ sd...mo      mo..-M- hs...M:      M/..+M  N+..:M. ds..-M:       \n       :M   sh .M`  +m  :N  +d   hs /N   sh -M`  od  /N  oh   do /m   yy  sh  hs   N/ sh   do  hs  m+  `M- ho   M:  m/  M-  :M  N/  .M. do  `M:       \n       -mdsdNh .M`  +m   +  +d   hs /N   sh -M`  od   /  oh   do /m   yy  .:  hs   N/ sh   do  :.  m+  `M- ho   M:  /   M-  :M  N/  .M. do  `M:       \n            sh .M`  +m  :m  +d   hs /N   sh -M`  od  :m  oh   do /m   yy  oy  hs   N/ sh   do  yo  m+  `M- ho   M:  d:  M-  :M  N/  .M. do  `M:       \n            sh .M`  +m  `.  +d   hs /N   yh -M`  od  `.  od   do /m   yy  `.  hs   N/ sh   do  .`  m+  .M- ho   M:  .`  M-  :M  N/  -M. do  `M:       \n            // `ymmmd+      .dmmmd- .hmmmd: `ymmmd+      -dmmmd- .hmmmd:      :dmmmh. -dmmmd-      +dmmmy` /dmmmh`      smmmms  ommmmy  /dmmmy`       \n                                                                                                                                                      \n\n\nEXODUS 2, David Rudnick [2011-2021]\nPublished in partnership wth Folia (Billy Rennenkamp, Dan Denorch, Everett Williams)\n*/\n\ncontract EXODUS2 is ERC721Full(\"EXODUS 2\", \"X2\") {\n    using strings for *;\n    string[] public stanzas;\n    constructor() public {\n        for (uint256 i = 1; i < 20; i++) {\n            _mint(msg.sender, i);\n        }\n    }\n\n    function deploy(string memory pangram) public {\n        require(stanzas.length < 19, \"stanzas populated\");\n        stanzas.push(pangram);\n    }\n\n    function tokenURI(uint _tokenId) external view returns (string memory _infoUrl) {\n        string memory base = \"https://exodus-ii.folia.app/v1/metadata/\";\n        string memory id = uint2str(_tokenId);\n        return base.toSlice().concat(id.toSlice());\n    }\n    function uint2str(uint i) internal pure returns (string memory) {\n        if (i == 0) return \"0\";\n        uint j = i;\n        uint length;\n        while (j != 0) {\n            length++;\n            j /= 10;\n        }\n        bytes memory bstr = new bytes(length);\n        uint k = length - 1;\n        while (i != 0) {\n            uint _uint = 48 + i % 10;\n            bstr[k--] = toBytes(_uint)[31];\n            i /= 10;\n        }\n        return string(bstr);\n    }\n    function toBytes(uint256 x) public pure returns (bytes memory b) {\n        b = new bytes(32);\n        assembly { mstore(add(b, 32), x) }\n    }\n\n}\n\n/*\n\n        oyyyy/  oyyyy/      .yyyyy. `syyyy-  oyyyy:      .yyyyy. `syyyy-      -yyyys` .yyyyy.      :yyyyo  -yyyys`      +yyyy+  /yyyyo  :yyyys`       \n       .M-..om .M-..om      +m...ds /N...yh -M-..sd      od...do /N...hy      hy...N/ sd...mo      mo..-M- hs...M:      M/..+M  N+..:M. ds..-M:       \n       .M`  +m .M`  +m  :N  +d   hs /N   sh -M`  od  /N  oh   do /m   yy  sh  hs   N/ sh   do  hs  m+  `M- ho   M:  m/  M-  :M  N/  .M. do  `M:       \n       .M`  +m .M`  +m   +  +d   hs /N   sh -M`  od   /  oh   do /m   yy  .:  hs   N/ sh   do  :.  m+  `M- ho   M:  /   M-  :M  N/  .M. do  `M:       \n       .M`  +m .M`  +m  :m  +d   hs /N   sh -M`  od  :m  oh   do /m   yy  oy  hs   N/ sh   do  yo  m+  `M- ho   M:  d:  M-  :M  N/  .M. do  `M:       \n       .M`  +m .M`  +m  `.  +d   hs /N   yh -M`  od  `.  od   do /m   yy  `.  hs   N/ sh   do  .`  m+  .M- ho   M:  .`  M-  :M  N/  -M. do  `M:       \n       `ymmmd+ `ymmmd+      .dmmmd- .hmmmd: `ymmmd+      -dmmmd- .hmmmd:      :dmmmh. -dmmmd-      +dmmmy` /dmmmh`      smmmms  ommmmy  /dmmmy`       \n\n\n                                                                            :d/                  \n                                                                            .d/                 \n                                                                    `.        .N-                \n                                                                    /ymo`      dh                \n                                                                    sMm`    -MN                \n                                                                    mMM.   +NMy `:+yhs+/.      \n                                                            -//:`    yMm  /dMMN/yNMMh/``-:      \n                                                            -/+dNy:  `N+:dMMMN+hyo/-`           \n                                                                :MMMs  +dNMMMN/-//++/:-.         \n                                                                `mMMh +NMMMMmyydMMMNh/:+o        \n                                                    `-+syhhyso/-` `/ds/MMMMMy.```:+/.    `        \n                                                .odNMMMMMMMMMNmy/``-NMMMNo`.-/oyhddhyo:.        \n                                                /mMMMMMMMMMMMMMMNNmhmMMMMo+hmNMMMMMMMMMMNd+.     \n                                                /NMNdyshMMMMMmy/-.-:sNMMMMhs++ydNMMMMMMMMMMMNs.   \n                                                mNs-`  `odho:`       -mMM+`    `-odMMMMmmmNMMMm:  \n                                                M+   `.`              :Mh         `:oo:`..-:odNN. \n                                                m:  -mmd:     `-osso:. mo-ohhhyo/.      ```   :No \n                                                -h- `/hMs    .hMMMMMMNhNmNMMMMMNmNy.   .dmd:   do \n                                                .o++ohy.   `mNdhdmNNNMMMdyhmNm-.:hh   /MMd. `+m` \n                                                    `.`     .m/   `-/dMMMNs-`..    .    /hhssyy.  \n                                                            `      dMMMMMMN:             `..`    \n                                                                    NMNNMMm:.     `:+o+:`         \n                                                                    -:.-yNMy`    +d+-.-+m/        \n                                                                        -hMy   -N`  /s/Nm        \n                                                                    `so+smh+..N`  /dmh:    ``  \n                                                                    +h `+-./yhNd/`    `.:+hMd. \n                                                                    .hshM+    ./shdmmNMMmdyo:` \n                                                                        `\n*/",
  "sourcePath": "/Users/billy/GitHub/folia-app/folia-contracts/contracts/EXODUS2.sol",
  "compiler": {
    "name": "solc",
    "version": "0.5.0+commit.1d4f565a.Emscripten.clang"
  },
  "schemaVersion": "3.3.2",
  "updatedAt": "2021-06-02T22:29:50.953Z",
  "networkType": "ethereum",
  "devdoc": {
    "methods": {
      "approve(address,uint256)": {
        "details": "Approves another address to transfer the given token ID The zero address indicates there is no approved address. There can only be one approved address per token at a given time. Can only be called by the token owner or an approved operator.",
        "params": {
          "to": "address to be approved for the given token ID",
          "tokenId": "uint256 ID of the token to be approved"
        }
      },
      "balanceOf(address)": {
        "details": "Gets the balance of the specified address",
        "params": {
          "owner": "address to query the balance of"
        },
        "return": "uint256 representing the amount owned by the passed address"
      },
      "getApproved(uint256)": {
        "details": "Gets the approved address for a token ID, or zero if no address set Reverts if the token ID does not exist.",
        "params": {
          "tokenId": "uint256 ID of the token to query the approval of"
        },
        "return": "address currently approved for the given token ID"
      },
      "isApprovedForAll(address,address)": {
        "details": "Tells whether an operator is approved by a given owner",
        "params": {
          "operator": "operator address which you want to query the approval of",
          "owner": "owner address which you want to query the approval of"
        },
        "return": "bool whether the given operator is approved by the given owner"
      },
      "name()": {
        "details": "Gets the token name",
        "return": "string representing the token name"
      },
      "ownerOf(uint256)": {
        "details": "Gets the owner of the specified token ID",
        "params": {
          "tokenId": "uint256 ID of the token to query the owner of"
        },
        "return": "owner address currently marked as the owner of the given token ID"
      },
      "safeTransferFrom(address,address,uint256)": {
        "details": "Safely transfers the ownership of a given token ID to another address If the target address is a contract, it must implement `onERC721Received`, which is called upon a safe transfer, and return the magic value `bytes4(keccak256(\"onERC721Received(address,address,uint256,bytes)\"))`; otherwise, the transfer is reverted.     * Requires the msg sender to be the owner, approved, or operator",
        "params": {
          "from": "current owner of the token",
          "to": "address to receive the ownership of the given token ID",
          "tokenId": "uint256 ID of the token to be transferred"
        }
      },
      "safeTransferFrom(address,address,uint256,bytes)": {
        "details": "Safely transfers the ownership of a given token ID to another address If the target address is a contract, it must implement `onERC721Received`, which is called upon a safe transfer, and return the magic value `bytes4(keccak256(\"onERC721Received(address,address,uint256,bytes)\"))`; otherwise, the transfer is reverted. Requires the msg sender to be the owner, approved, or operator",
        "params": {
          "_data": "bytes data to send along with a safe transfer check",
          "from": "current owner of the token",
          "to": "address to receive the ownership of the given token ID",
          "tokenId": "uint256 ID of the token to be transferred"
        }
      },
      "setApprovalForAll(address,bool)": {
        "details": "Sets or unsets the approval of a given operator An operator is allowed to transfer all tokens of the sender on their behalf",
        "params": {
          "approved": "representing the status of the approval to be set",
          "to": "operator address to set the approval"
        }
      },
      "supportsInterface(bytes4)": {
        "details": "implement supportsInterface(bytes4) using a lookup table"
      },
      "symbol()": {
        "details": "Gets the token symbol",
        "return": "string representing the token symbol"
      },
      "tokenByIndex(uint256)": {
        "details": "Gets the token ID at a given index of all the tokens in this contract Reverts if the index is greater or equal to the total number of tokens",
        "params": {
          "index": "uint256 representing the index to be accessed of the tokens list"
        },
        "return": "uint256 token ID at the given index of the tokens list"
      },
      "tokenOfOwnerByIndex(address,uint256)": {
        "details": "Gets the token ID at a given index of the tokens list of the requested owner",
        "params": {
          "index": "uint256 representing the index to be accessed of the requested tokens list",
          "owner": "address owning the tokens list to be accessed"
        },
        "return": "uint256 token ID at the given index of the tokens list owned by the requested address"
      },
      "totalSupply()": {
        "details": "Gets the total amount of tokens stored by the contract",
        "return": "uint256 representing the total amount of tokens"
      },
      "transferFrom(address,address,uint256)": {
        "details": "Transfers the ownership of a given token ID to another address Usage of this method is discouraged, use `safeTransferFrom` whenever possible Requires the msg sender to be the owner, approved, or operator",
        "params": {
          "from": "current owner of the token",
          "to": "address to receive the ownership of the given token ID",
          "tokenId": "uint256 ID of the token to be transferred"
        }
      }
    }
  },
  "userdoc": {
    "methods": {}
  }
}