{
  "contractName": "FoliaController",
  "abi": [
    {
      "constant": true,
      "inputs": [],
      "name": "adminWallet",
      "outputs": [
        {
          "name": "",
          "type": "address"
        }
      ],
      "payable": false,
      "stateMutability": "view",
      "type": "function"
    },
    {
      "constant": true,
      "inputs": [],
      "name": "folia",
      "outputs": [
        {
          "name": "",
          "type": "address"
        }
      ],
      "payable": false,
      "stateMutability": "view",
      "type": "function"
    },
    {
      "constant": true,
      "inputs": [],
      "name": "latestWorkId",
      "outputs": [
        {
          "name": "",
          "type": "uint256"
        }
      ],
      "payable": false,
      "stateMutability": "view",
      "type": "function"
    },
    {
      "constant": true,
      "inputs": [],
      "name": "paused",
      "outputs": [
        {
          "name": "",
          "type": "bool"
        }
      ],
      "payable": false,
      "stateMutability": "view",
      "type": "function"
    },
    {
      "constant": false,
      "inputs": [],
      "name": "renounceOwnership",
      "outputs": [],
      "payable": false,
      "stateMutability": "nonpayable",
      "type": "function"
    },
    {
      "constant": true,
      "inputs": [],
      "name": "owner",
      "outputs": [
        {
          "name": "",
          "type": "address"
        }
      ],
      "payable": false,
      "stateMutability": "view",
      "type": "function"
    },
    {
      "constant": true,
      "inputs": [],
      "name": "isOwner",
      "outputs": [
        {
          "name": "",
          "type": "bool"
        }
      ],
      "payable": false,
      "stateMutability": "view",
      "type": "function"
    },
    {
      "constant": true,
      "inputs": [
        {
          "name": "",
          "type": "uint256"
        }
      ],
      "name": "works",
      "outputs": [
        {
          "name": "exists",
          "type": "bool"
        },
        {
          "name": "paused",
          "type": "bool"
        },
        {
          "name": "editions",
          "type": "uint256"
        },
        {
          "name": "printed",
          "type": "uint256"
        },
        {
          "name": "price",
          "type": "uint256"
        },
        {
          "name": "artist",
          "type": "address"
        }
      ],
      "payable": false,
      "stateMutability": "view",
      "type": "function"
    },
    {
      "constant": true,
      "inputs": [],
      "name": "adminSplit",
      "outputs": [
        {
          "name": "",
          "type": "uint256"
        }
      ],
      "payable": false,
      "stateMutability": "view",
      "type": "function"
    },
    {
      "constant": false,
      "inputs": [
        {
          "name": "newOwner",
          "type": "address"
        }
      ],
      "name": "transferOwnership",
      "outputs": [],
      "payable": false,
      "stateMutability": "nonpayable",
      "type": "function"
    },
    {
      "inputs": [
        {
          "name": "_folia",
          "type": "address"
        },
        {
          "name": "_adminWallet",
          "type": "address"
        }
      ],
      "payable": false,
      "stateMutability": "nonpayable",
      "type": "constructor"
    },
    {
      "anonymous": false,
      "inputs": [
        {
          "indexed": false,
          "name": "workId",
          "type": "uint256"
        },
        {
          "indexed": false,
          "name": "artist",
          "type": "address"
        },
        {
          "indexed": false,
          "name": "editions",
          "type": "uint256"
        },
        {
          "indexed": false,
          "name": "price",
          "type": "uint256"
        },
        {
          "indexed": false,
          "name": "paused",
          "type": "bool"
        }
      ],
      "name": "newWork",
      "type": "event"
    },
    {
      "anonymous": false,
      "inputs": [
        {
          "indexed": false,
          "name": "workId",
          "type": "uint256"
        },
        {
          "indexed": false,
          "name": "artist",
          "type": "address"
        },
        {
          "indexed": false,
          "name": "editions",
          "type": "uint256"
        },
        {
          "indexed": false,
          "name": "price",
          "type": "uint256"
        },
        {
          "indexed": false,
          "name": "paused",
          "type": "bool"
        }
      ],
      "name": "updatedWork",
      "type": "event"
    },
    {
      "anonymous": false,
      "inputs": [
        {
          "indexed": false,
          "name": "workId",
          "type": "uint256"
        },
        {
          "indexed": false,
          "name": "editionId",
          "type": "uint256"
        },
        {
          "indexed": false,
          "name": "tokenId",
          "type": "uint256"
        },
        {
          "indexed": false,
          "name": "recipient",
          "type": "address"
        },
        {
          "indexed": false,
          "name": "paid",
          "type": "uint256"
        },
        {
          "indexed": false,
          "name": "artistReceived",
          "type": "uint256"
        },
        {
          "indexed": false,
          "name": "adminReceived",
          "type": "uint256"
        }
      ],
      "name": "editionBought",
      "type": "event"
    },
    {
      "anonymous": false,
      "inputs": [
        {
          "indexed": true,
          "name": "previousOwner",
          "type": "address"
        },
        {
          "indexed": true,
          "name": "newOwner",
          "type": "address"
        }
      ],
      "name": "OwnershipTransferred",
      "type": "event"
    },
    {
      "constant": false,
      "inputs": [
        {
          "name": "artist",
          "type": "address"
        },
        {
          "name": "editions",
          "type": "uint256"
        },
        {
          "name": "price",
          "type": "uint256"
        },
        {
          "name": "_paused",
          "type": "bool"
        }
      ],
      "name": "addArtwork",
      "outputs": [],
      "payable": false,
      "stateMutability": "nonpayable",
      "type": "function"
    },
    {
      "constant": false,
      "inputs": [
        {
          "name": "workId",
          "type": "uint256"
        },
        {
          "name": "_paused",
          "type": "bool"
        }
      ],
      "name": "updateArtworkPaused",
      "outputs": [],
      "payable": false,
      "stateMutability": "nonpayable",
      "type": "function"
    },
    {
      "constant": false,
      "inputs": [
        {
          "name": "workId",
          "type": "uint256"
        },
        {
          "name": "_editions",
          "type": "uint256"
        }
      ],
      "name": "updateArtworkEditions",
      "outputs": [],
      "payable": false,
      "stateMutability": "nonpayable",
      "type": "function"
    },
    {
      "constant": false,
      "inputs": [
        {
          "name": "workId",
          "type": "uint256"
        },
        {
          "name": "_price",
          "type": "uint256"
        }
      ],
      "name": "updateArtworkPrice",
      "outputs": [],
      "payable": false,
      "stateMutability": "nonpayable",
      "type": "function"
    },
    {
      "constant": false,
      "inputs": [
        {
          "name": "workId",
          "type": "uint256"
        },
        {
          "name": "_artist",
          "type": "address"
        }
      ],
      "name": "updateArtworkArtist",
      "outputs": [],
      "payable": false,
      "stateMutability": "nonpayable",
      "type": "function"
    },
    {
      "constant": false,
      "inputs": [
        {
          "name": "recipient",
          "type": "address"
        },
        {
          "name": "workId",
          "type": "uint256"
        }
      ],
      "name": "buy",
      "outputs": [
        {
          "name": "",
          "type": "bool"
        }
      ],
      "payable": true,
      "stateMutability": "payable",
      "type": "function"
    },
    {
      "constant": false,
      "inputs": [
        {
          "name": "_adminSplit",
          "type": "uint256"
        }
      ],
      "name": "updateAdminSplit",
      "outputs": [],
      "payable": false,
      "stateMutability": "nonpayable",
      "type": "function"
    },
    {
      "constant": false,
      "inputs": [
        {
          "name": "_adminWallet",
          "type": "address"
        }
      ],
      "name": "updateAdminWallet",
      "outputs": [],
      "payable": false,
      "stateMutability": "nonpayable",
      "type": "function"
    },
    {
      "constant": false,
      "inputs": [
        {
          "name": "_paused",
          "type": "bool"
        }
      ],
      "name": "updatePaused",
      "outputs": [],
      "payable": false,
      "stateMutability": "nonpayable",
      "type": "function"
    }
  ],
  "bytecode": "0x6080604052600f60035534801561001557600080fd5b506040516040806115cc8339810180604052604081101561003557600080fd5b50805160209091015160008054600160a060020a0319163317808255604051600160a060020a039190911691907f8be0079c531659141344cd1fd0a4f28419497f9722a3daafe3b4186f6b6457e0908290a360058054600160a060020a03938416600160a060020a0319918216179091556004805492909316911617905561150a806100c26000396000f3fe6080604052600436106101065763ffffffff7c010000000000000000000000000000000000000000000000000000000060003504166301dd4c36811461010b57806308cdc2a81461013d57806336b19cd714610169578063473848f5146101a75780634c8f911e146101bc5780634cd31e73146101e35780635001257e1461020d5780635c975abb1461023d5780635eec087014610266578063715018a6146102a65780638da5cb5b146102bb5780638f32d59b146102d0578063aa5d977d146102e5578063bb0a67321461032b578063c66e1dd51461037f578063cce7ec13146103f4578063d2b855fc1461042d578063d792440b1461045f578063f2fde38b14610474575b600080fd5b34801561011757600080fd5b5061013b6004803603604081101561012e57600080fd5b50803590602001356104b4565b005b34801561014957600080fd5b5061013b6004803603602081101561016057600080fd5b5035151561065e565b34801561017557600080fd5b5061017e6106bb565b6040805173ffffffffffffffffffffffffffffffffffffffff9092168252519081900360200190f35b3480156101b357600080fd5b5061017e6106d7565b3480156101c857600080fd5b506101d16106f3565b60408051918252519081900360200190f35b3480156101ef57600080fd5b5061013b6004803603602081101561020657600080fd5b50356106f9565b34801561021957600080fd5b5061013b6004803603604081101561023057600080fd5b5080359060200135610781565b34801561024957600080fd5b506102526108ab565b604080519115158252519081900360200190f35b34801561027257600080fd5b5061013b6004803603602081101561028957600080fd5b503573ffffffffffffffffffffffffffffffffffffffff166108cc565b3480156102b257600080fd5b5061013b610926565b3480156102c757600080fd5b5061017e6109a8565b3480156102dc57600080fd5b506102526109c4565b3480156102f157600080fd5b5061013b6004803603604081101561030857600080fd5b508035906020013573ffffffffffffffffffffffffffffffffffffffff166109e2565b34801561033757600080fd5b5061013b6004803603608081101561034e57600080fd5b5073ffffffffffffffffffffffffffffffffffffffff81351690602081013590604081013590606001351515610b3a565b34801561038b57600080fd5b506103a9600480360360208110156103a257600080fd5b5035610cf5565b6040805196151587529415156020870152858501939093526060850191909152608084015273ffffffffffffffffffffffffffffffffffffffff1660a0830152519081900360c00190f35b6102526004803603604081101561040a57600080fd5b5073ffffffffffffffffffffffffffffffffffffffff8135169060200135610d44565b34801561043957600080fd5b5061013b6004803603604081101561045057600080fd5b50803590602001351515611231565b34801561046b57600080fd5b506101d161138b565b34801561048057600080fd5b5061013b6004803603602081101561049757600080fd5b503573ffffffffffffffffffffffffffffffffffffffff16611391565b6104bc6109c4565b15156104c757600080fd5b60008281526002602052604090205460ff16151561054657604080517f08c379a000000000000000000000000000000000000000000000000000000000815260206004820152601360248201527f574f524b5f444f45535f4e4f545f455849535400000000000000000000000000604482015290519081900360640190fd5b6000828152600260208190526040909120015481116105c657604080517f08c379a000000000000000000000000000000000000000000000000000000000815260206004820152601560248201527f574f524b5f455843454544535f45444954494f4e530000000000000000000000604482015290519081900360640190fd5b60008281526002602090815260409182902060018101849055600481015460038201549154845187815273ffffffffffffffffffffffffffffffffffffffff90921693820193909352808401859052606081019190915261010090910460ff161515608082015290517f92544cd0b5fea6142ab048e0ea4e8b55f04fb3c2528b3c918875ed2a7a1a9e479160a0908290030190a15050565b6106666109c4565b151561067157600080fd5b6004805491151574010000000000000000000000000000000000000000027fffffffffffffffffffffff00ffffffffffffffffffffffffffffffffffffffff909216919091179055565b60045473ffffffffffffffffffffffffffffffffffffffff1681565b60055473ffffffffffffffffffffffffffffffffffffffff1681565b60015481565b6107016109c4565b151561070c57600080fd5b606481111561077c57604080517f08c379a000000000000000000000000000000000000000000000000000000000815260206004820152601560248201527f53504c49545f4d5553545f42455f4c54455f3130300000000000000000000000604482015290519081900360640190fd5b600355565b6107896109c4565b151561079457600080fd5b60008281526002602052604090205460ff16151561081357604080517f08c379a000000000000000000000000000000000000000000000000000000000815260206004820152601360248201527f574f524b5f444f45535f4e4f545f455849535400000000000000000000000000604482015290519081900360640190fd5b60008281526002602090815260409182902060038101849055600481015460018201549154845187815273ffffffffffffffffffffffffffffffffffffffff90921693820193909352808401919091526060810184905261010090910460ff161515608082015290517f92544cd0b5fea6142ab048e0ea4e8b55f04fb3c2528b3c918875ed2a7a1a9e479160a0908290030190a15050565b60045474010000000000000000000000000000000000000000900460ff1681565b6108d46109c4565b15156108df57600080fd5b600480547fffffffffffffffffffffffff00000000000000000000000000000000000000001673ffffffffffffffffffffffffffffffffffffffff92909216919091179055565b61092e6109c4565b151561093957600080fd5b6000805460405173ffffffffffffffffffffffffffffffffffffffff909116907f8be0079c531659141344cd1fd0a4f28419497f9722a3daafe3b4186f6b6457e0908390a3600080547fffffffffffffffffffffffff0000000000000000000000000000000000000000169055565b60005473ffffffffffffffffffffffffffffffffffffffff1690565b60005473ffffffffffffffffffffffffffffffffffffffff16331490565b6109ea6109c4565b15156109f557600080fd5b60008281526002602052604090205460ff161515610a7457604080517f08c379a000000000000000000000000000000000000000000000000000000000815260206004820152601360248201527f574f524b5f444f45535f4e4f545f455849535400000000000000000000000000604482015290519081900360640190fd5b6000828152600260209081526040918290206004810180547fffffffffffffffffffffffff00000000000000000000000000000000000000001673ffffffffffffffffffffffffffffffffffffffff86811691909117918290556001830154600384015493548651898152939092169483019490945281850193909352606081019190915261010090910460ff161515608082015290517f92544cd0b5fea6142ab048e0ea4e8b55f04fb3c2528b3c918875ed2a7a1a9e479160a0908290030190a15050565b610b426109c4565b1515610b4d57600080fd5b620f42408310610bbe57604080517f08c379a000000000000000000000000000000000000000000000000000000000815260206004820152601560248201527f4d41585f45444954494f4e535f45584345454445440000000000000000000000604482015290519081900360640190fd5b600180548101808255600090815260026020908152604080832080547fffffffffffffffffffffffffffffffffffffffffffffffffffffffffffffff001685179055835483528083208401879055835483528083206003018690558354835280832060040180547fffffffffffffffffffffffff00000000000000000000000000000000000000001673ffffffffffffffffffffffffffffffffffffffff8a16908117909155845484529281902080547fffffffffffffffffffffffffffffffffffffffffffffffffffffffffffff00ff16610100871515908102919091179091559354815190815291820192909252808201869052606081018590526080810192909252517fb930315bb0fbb02e6a5098eda387a015f9b831da0666fd6943731c891a0499659160a0908290030190a150505050565b60026020819052600091825260409091208054600182015492820154600383015460049093015460ff8084169561010090940416939073ffffffffffffffffffffffffffffffffffffffff1686565b60045460009074010000000000000000000000000000000000000000900460ff1615610dd157604080517f08c379a000000000000000000000000000000000000000000000000000000000815260206004820152601260248201527f4d757374206e6f74206265207061757365640000000000000000000000000000604482015290519081900360640190fd5b600082815260026020526040902054610100900460ff1615610e5457604080517f08c379a000000000000000000000000000000000000000000000000000000000815260206004820152601560248201527f574f524b5f4e4f545f5945545f464f525f53414c450000000000000000000000604482015290519081900360640190fd5b60008281526002602052604090205460ff161515610ed357604080517f08c379a000000000000000000000000000000000000000000000000000000000815260206004820152601360248201527f574f524b5f444f45535f4e4f545f455849535400000000000000000000000000604482015290519081900360640190fd5b60008281526002602081905260409091209081015460019091015411610f5a57604080517f08c379a000000000000000000000000000000000000000000000000000000000815260206004820152601160248201527f45444954494f4e535f4558434545444544000000000000000000000000000000604482015290519081900360640190fd5b6000828152600260205260409020600301543414610fd957604080517f08c379a000000000000000000000000000000000000000000000000000000000815260206004820152601260248201527f4449445f4e4f545f53454e445f50524943450000000000000000000000000000604482015290519081900360640190fd5b600082815260026020819052604082200154610ffc90600163ffffffff6113b016565b60008481526002602081905260408220018290559091506110368261102a86620f424063ffffffff6113cb16565b9063ffffffff6113b016565b600554604080517f40c10f1900000000000000000000000000000000000000000000000000000000815273ffffffffffffffffffffffffffffffffffffffff89811660048301526024820185905291519394509116916340c10f199160448082019260009290919082900301818387803b1580156110b357600080fd5b505af11580156110c7573d6000803e3d6000fd5b5050505060006110f360646110e7600354346113cb90919063ffffffff16565b9063ffffffff6113f616565b90506000611107348363ffffffff61141a16565b60045460405191925073ffffffffffffffffffffffffffffffffffffffff169083156108fc029084906000818181858888f1935050505015801561114f573d6000803e3d6000fd5b5060008681526002602052604080822060040154905173ffffffffffffffffffffffffffffffffffffffff9091169183156108fc02918491818181858888f193505050501580156111a4573d6000803e3d6000fd5b5060008681526002602090815260409182902060030154825189815291820187905281830186905273ffffffffffffffffffffffffffffffffffffffff8a166060830152608082015260a0810183905260c0810184905290517f98d41ea2d99604d19bd920bfa2fde9f14a004bb5f3bbacf3706fc23dd386f4999181900360e00190a15050505092915050565b6112396109c4565b151561124457600080fd5b60008281526002602052604090205460ff1615156112c357604080517f08c379a000000000000000000000000000000000000000000000000000000000815260206004820152601360248201527f574f524b5f444f45535f4e4f545f455849535400000000000000000000000000604482015290519081900360640190fd5b60008281526002602090815260409182902080548415156101009081027fffffffffffffffffffffffffffffffffffffffffffffffffffffffffffff00ff9092169190911780835560048301546001840154600390940154865189815273ffffffffffffffffffffffffffffffffffffffff9092169582019590955280860193909352606083019390935290910460ff161515608082015290517f92544cd0b5fea6142ab048e0ea4e8b55f04fb3c2528b3c918875ed2a7a1a9e479181900360a00190a15050565b60035481565b6113996109c4565b15156113a457600080fd5b6113ad8161142f565b50565b6000828201838110156113c257600080fd5b90505b92915050565b60008215156113dc575060006113c5565b8282028284828115156113eb57fe5b04146113c257600080fd5b600080821161140457600080fd5b6000828481151561141157fe5b04949350505050565b60008282111561142957600080fd5b50900390565b73ffffffffffffffffffffffffffffffffffffffff8116151561145157600080fd5b6000805460405173ffffffffffffffffffffffffffffffffffffffff808516939216917f8be0079c531659141344cd1fd0a4f28419497f9722a3daafe3b4186f6b6457e091a3600080547fffffffffffffffffffffffff00000000000000000000000000000000000000001673ffffffffffffffffffffffffffffffffffffffff9290921691909117905556fea165627a7a72305820a562e1decb3cbd0cf6c27a5a9ff572b5a0cc49116e1107f4d7598f340f63b2f80029",
  "source": "pragma solidity ^0.5.0;\n\n/**\n * The FoliaController is an upgradeable endpoint for controlling Folia.sol\n */\n\nimport \"./Folia.sol\";\n\ncontract FoliaController is Ownable {\n\n    event newWork(uint256 workId, address payable artist, uint256 editions, uint256 price, bool paused);\n    event updatedWork(uint256 workId, address payable artist, uint256 editions, uint256 price, bool paused);\n    event editionBought(uint256 workId, uint256 editionId, uint256 tokenId, address recipient, uint256 paid, uint256 artistReceived, uint256 adminReceived);\n\n    using SafeMath for uint256;\n\n    uint256 constant MAX_EDITIONS = 1000000;\n    uint256 public latestWorkId;\n\n    mapping (uint256 => Work) public works;\n    struct Work {\n        bool exists;\n        bool paused;\n        uint256 editions;\n        uint256 printed;\n        uint256 price;\n        address payable artist;\n    }\n\n    uint256 public adminSplit = 15;\n\n    address payable public adminWallet;\n    bool public paused;\n    Folia public folia;\n\n    modifier notPaused() {\n        require(!paused, \"Must not be paused\");\n        _;\n    }\n\n    constructor(\n        Folia _folia,\n        address payable _adminWallet\n    ) public {\n        folia = _folia;\n        adminWallet = _adminWallet;\n    }\n\n    function addArtwork(address payable artist, uint256 editions, uint256 price, bool _paused) public onlyOwner {\n        require(editions < MAX_EDITIONS, \"MAX_EDITIONS_EXCEEDED\");\n\n        latestWorkId += 1;\n\n        works[latestWorkId].exists = true;\n        works[latestWorkId].editions = editions;\n        works[latestWorkId].price = price;\n        works[latestWorkId].artist = artist;\n        works[latestWorkId].paused = _paused;\n        emit newWork(latestWorkId, artist, editions, price, _paused);\n    }\n\n    function updateArtworkPaused(uint256 workId, bool _paused) public onlyOwner {\n        require(works[workId].exists, \"WORK_DOES_NOT_EXIST\");\n        works[workId].paused = _paused;\n        emit updatedWork(workId, works[workId].artist, works[workId].editions, works[workId].price, works[workId].paused);\n    }\n\n    function updateArtworkEditions(uint256 workId, uint256 _editions) public onlyOwner {\n        require(works[workId].exists, \"WORK_DOES_NOT_EXIST\");\n        require(works[workId].printed < _editions, \"WORK_EXCEEDS_EDITIONS\");\n        works[workId].editions = _editions;\n        emit updatedWork(workId, works[workId].artist, works[workId].editions, works[workId].price, works[workId].paused);\n    }\n\n    function updateArtworkPrice(uint256 workId, uint256 _price) public onlyOwner {\n        require(works[workId].exists, \"WORK_DOES_NOT_EXIST\");\n        works[workId].price = _price;\n        emit updatedWork(workId, works[workId].artist, works[workId].editions, works[workId].price, works[workId].paused);\n    }\n\n    function updateArtworkArtist(uint256 workId, address payable _artist) public onlyOwner {\n        require(works[workId].exists, \"WORK_DOES_NOT_EXIST\");\n        works[workId].artist = _artist;\n        emit updatedWork(workId, works[workId].artist, works[workId].editions, works[workId].price, works[workId].paused);\n    }\n\n    function buy(address recipient, uint256 workId) public payable notPaused returns (bool) {\n        require(!works[workId].paused, \"WORK_NOT_YET_FOR_SALE\");\n        require(works[workId].exists, \"WORK_DOES_NOT_EXIST\");\n        require(works[workId].editions > works[workId].printed, \"EDITIONS_EXCEEDED\");\n        require(msg.value == works[workId].price, \"DID_NOT_SEND_PRICE\");\n\n        uint256 editionId = works[workId].printed.add(1);\n        works[workId].printed = editionId;\n        \n        uint256 tokenId = workId.mul(MAX_EDITIONS).add(editionId);\n\n        folia.mint(recipient, tokenId);\n        \n        uint256 adminReceives = msg.value.mul(adminSplit).div(100);\n        uint256 artistReceives = msg.value.sub(adminReceives);\n\n        adminWallet.transfer(adminReceives);\n        works[workId].artist.transfer(artistReceives);\n\n        emit editionBought(workId, editionId, tokenId, recipient,  works[workId].price, artistReceives, adminReceives);\n    }\n\n    function updateAdminSplit(uint256 _adminSplit) public onlyOwner {\n        require(_adminSplit <= 100, \"SPLIT_MUST_BE_LTE_100\");\n        adminSplit = _adminSplit;\n    }\n\n    function updateAdminWallet(address payable _adminWallet) public onlyOwner {\n        adminWallet = _adminWallet;\n    }\n\n    function updatePaused(bool _paused) public onlyOwner {\n        paused = _paused;\n    }\n\n}\n",
  "sourcePath": "/Users/billy/GitHub/folia-app/folia-contracts/contracts/FoliaController.sol",
  "compiler": {
    "name": "solc",
    "version": "0.5.0+commit.1d4f565a.Emscripten.clang"
  },
  "schemaVersion": "3.4.3",
  "updatedAt": "2022-02-13T19:53:57.783Z",
  "devdoc": {
    "methods": {
      "isOwner()": {
        "return": "true if `msg.sender` is the owner of the contract."
      },
      "owner()": {
        "return": "the address of the owner."
      },
      "renounceOwnership()": {
        "details": "Allows the current owner to relinquish control of the contract."
      },
      "transferOwnership(address)": {
        "details": "Allows the current owner to transfer control of the contract to a newOwner.",
        "params": {
          "newOwner": "The address to transfer ownership to."
        }
      }
    }
  },
  "userdoc": {
    "methods": {
      "renounceOwnership()": {
        "notice": "Renouncing to ownership will leave the contract without an owner. It will not be possible to call the functions with the `onlyOwner` modifier anymore."
      }
    }
  }
}