{
  "contractName": "FoliaControllerV2",
  "abi": [
    {
      "constant": true,
      "inputs": [],
      "name": "adminWallet",
      "outputs": [
        {
          "name": "",
          "type": "address"
        }
      ],
      "payable": false,
      "stateMutability": "view",
      "type": "function"
    },
    {
      "constant": true,
      "inputs": [],
      "name": "folia",
      "outputs": [
        {
          "name": "",
          "type": "address"
        }
      ],
      "payable": false,
      "stateMutability": "view",
      "type": "function"
    },
    {
      "constant": true,
      "inputs": [],
      "name": "latestWorkId",
      "outputs": [
        {
          "name": "",
          "type": "uint256"
        }
      ],
      "payable": false,
      "stateMutability": "view",
      "type": "function"
    },
    {
      "constant": true,
      "inputs": [],
      "name": "paused",
      "outputs": [
        {
          "name": "",
          "type": "bool"
        }
      ],
      "payable": false,
      "stateMutability": "view",
      "type": "function"
    },
    {
      "constant": false,
      "inputs": [],
      "name": "renounceOwnership",
      "outputs": [],
      "payable": false,
      "stateMutability": "nonpayable",
      "type": "function"
    },
    {
      "constant": true,
      "inputs": [],
      "name": "owner",
      "outputs": [
        {
          "name": "",
          "type": "address"
        }
      ],
      "payable": false,
      "stateMutability": "view",
      "type": "function"
    },
    {
      "constant": true,
      "inputs": [],
      "name": "foliaController",
      "outputs": [
        {
          "name": "",
          "type": "address"
        }
      ],
      "payable": false,
      "stateMutability": "view",
      "type": "function"
    },
    {
      "constant": true,
      "inputs": [],
      "name": "isOwner",
      "outputs": [
        {
          "name": "",
          "type": "bool"
        }
      ],
      "payable": false,
      "stateMutability": "view",
      "type": "function"
    },
    {
      "constant": true,
      "inputs": [
        {
          "name": "",
          "type": "uint256"
        }
      ],
      "name": "_works",
      "outputs": [
        {
          "name": "exists",
          "type": "bool"
        },
        {
          "name": "paused",
          "type": "bool"
        },
        {
          "name": "saleType",
          "type": "uint8"
        },
        {
          "name": "editions",
          "type": "uint256"
        },
        {
          "name": "printed",
          "type": "uint256"
        },
        {
          "name": "price",
          "type": "uint256"
        },
        {
          "name": "artist",
          "type": "address"
        }
      ],
      "payable": false,
      "stateMutability": "view",
      "type": "function"
    },
    {
      "constant": true,
      "inputs": [],
      "name": "adminSplit",
      "outputs": [
        {
          "name": "",
          "type": "uint256"
        }
      ],
      "payable": false,
      "stateMutability": "view",
      "type": "function"
    },
    {
      "constant": false,
      "inputs": [
        {
          "name": "newOwner",
          "type": "address"
        }
      ],
      "name": "transferOwnership",
      "outputs": [],
      "payable": false,
      "stateMutability": "nonpayable",
      "type": "function"
    },
    {
      "inputs": [
        {
          "name": "_folia",
          "type": "address"
        },
        {
          "name": "_foliaController",
          "type": "address"
        },
        {
          "name": "_adminWallet",
          "type": "address"
        }
      ],
      "payable": false,
      "stateMutability": "nonpayable",
      "type": "constructor"
    },
    {
      "anonymous": false,
      "inputs": [
        {
          "indexed": false,
          "name": "workId",
          "type": "uint256"
        },
        {
          "indexed": false,
          "name": "artist",
          "type": "address"
        },
        {
          "indexed": false,
          "name": "editions",
          "type": "uint256"
        },
        {
          "indexed": false,
          "name": "price",
          "type": "uint256"
        },
        {
          "indexed": false,
          "name": "paused",
          "type": "bool"
        }
      ],
      "name": "newWork",
      "type": "event"
    },
    {
      "anonymous": false,
      "inputs": [
        {
          "indexed": false,
          "name": "workId",
          "type": "uint256"
        },
        {
          "indexed": false,
          "name": "artist",
          "type": "address"
        },
        {
          "indexed": false,
          "name": "editions",
          "type": "uint256"
        },
        {
          "indexed": false,
          "name": "price",
          "type": "uint256"
        },
        {
          "indexed": false,
          "name": "paused",
          "type": "bool"
        }
      ],
      "name": "updatedWork",
      "type": "event"
    },
    {
      "anonymous": false,
      "inputs": [
        {
          "indexed": false,
          "name": "workId",
          "type": "uint256"
        },
        {
          "indexed": false,
          "name": "editionId",
          "type": "uint256"
        },
        {
          "indexed": false,
          "name": "tokenId",
          "type": "uint256"
        },
        {
          "indexed": false,
          "name": "recipient",
          "type": "address"
        },
        {
          "indexed": false,
          "name": "paid",
          "type": "uint256"
        },
        {
          "indexed": false,
          "name": "artistReceived",
          "type": "uint256"
        },
        {
          "indexed": false,
          "name": "adminReceived",
          "type": "uint256"
        }
      ],
      "name": "editionBought",
      "type": "event"
    },
    {
      "anonymous": false,
      "inputs": [
        {
          "indexed": true,
          "name": "previousOwner",
          "type": "address"
        },
        {
          "indexed": true,
          "name": "newOwner",
          "type": "address"
        }
      ],
      "name": "OwnershipTransferred",
      "type": "event"
    },
    {
      "constant": true,
      "inputs": [
        {
          "name": "workId",
          "type": "uint256"
        }
      ],
      "name": "works",
      "outputs": [
        {
          "name": "exists",
          "type": "bool"
        },
        {
          "name": "paused",
          "type": "bool"
        },
        {
          "name": "saleType",
          "type": "uint8"
        },
        {
          "name": "editions",
          "type": "uint256"
        },
        {
          "name": "printed",
          "type": "uint256"
        },
        {
          "name": "price",
          "type": "uint256"
        },
        {
          "name": "artist",
          "type": "address"
        }
      ],
      "payable": false,
      "stateMutability": "view",
      "type": "function"
    },
    {
      "constant": false,
      "inputs": [
        {
          "name": "artist",
          "type": "address"
        },
        {
          "name": "editions",
          "type": "uint256"
        },
        {
          "name": "price",
          "type": "uint256"
        },
        {
          "name": "_paused",
          "type": "bool"
        },
        {
          "name": "saleType",
          "type": "uint8"
        }
      ],
      "name": "addArtwork",
      "outputs": [],
      "payable": false,
      "stateMutability": "nonpayable",
      "type": "function"
    },
    {
      "constant": false,
      "inputs": [
        {
          "name": "workId",
          "type": "uint256"
        },
        {
          "name": "_paused",
          "type": "bool"
        }
      ],
      "name": "updateArtworkPaused",
      "outputs": [],
      "payable": false,
      "stateMutability": "nonpayable",
      "type": "function"
    },
    {
      "constant": false,
      "inputs": [
        {
          "name": "workId",
          "type": "uint256"
        },
        {
          "name": "_editions",
          "type": "uint256"
        }
      ],
      "name": "updateArtworkEditions",
      "outputs": [],
      "payable": false,
      "stateMutability": "nonpayable",
      "type": "function"
    },
    {
      "constant": false,
      "inputs": [
        {
          "name": "workId",
          "type": "uint256"
        },
        {
          "name": "_price",
          "type": "uint256"
        }
      ],
      "name": "updateArtworkPrice",
      "outputs": [],
      "payable": false,
      "stateMutability": "nonpayable",
      "type": "function"
    },
    {
      "constant": false,
      "inputs": [
        {
          "name": "workId",
          "type": "uint256"
        },
        {
          "name": "_artist",
          "type": "address"
        }
      ],
      "name": "updateArtworkArtist",
      "outputs": [],
      "payable": false,
      "stateMutability": "nonpayable",
      "type": "function"
    },
    {
      "constant": false,
      "inputs": [
        {
          "name": "recipient",
          "type": "address"
        },
        {
          "name": "workId",
          "type": "uint256"
        },
        {
          "name": "editionId",
          "type": "uint256"
        }
      ],
      "name": "buyByID",
      "outputs": [
        {
          "name": "",
          "type": "bool"
        }
      ],
      "payable": true,
      "stateMutability": "payable",
      "type": "function"
    },
    {
      "constant": false,
      "inputs": [
        {
          "name": "recipient",
          "type": "address"
        },
        {
          "name": "workId",
          "type": "uint256"
        }
      ],
      "name": "buy",
      "outputs": [
        {
          "name": "",
          "type": "bool"
        }
      ],
      "payable": true,
      "stateMutability": "payable",
      "type": "function"
    },
    {
      "constant": false,
      "inputs": [
        {
          "name": "_adminSplit",
          "type": "uint256"
        }
      ],
      "name": "updateAdminSplit",
      "outputs": [],
      "payable": false,
      "stateMutability": "nonpayable",
      "type": "function"
    },
    {
      "constant": false,
      "inputs": [
        {
          "name": "_adminWallet",
          "type": "address"
        }
      ],
      "name": "updateAdminWallet",
      "outputs": [],
      "payable": false,
      "stateMutability": "nonpayable",
      "type": "function"
    },
    {
      "constant": false,
      "inputs": [
        {
          "name": "_paused",
          "type": "bool"
        }
      ],
      "name": "updatePaused",
      "outputs": [],
      "payable": false,
      "stateMutability": "nonpayable",
      "type": "function"
    }
  ],
  "bytecode": "0x60806040526009600255600f6004553480156200001b57600080fd5b506040516060806200220e83398101806040526200003d9190810190620000f0565b60008054600160a060020a0319163317808255604051600160a060020a039190911691907f8be0079c531659141344cd1fd0a4f28419497f9722a3daafe3b4186f6b6457e0908290a36001805560068054600160a060020a03948516600160a060020a03199182161790915560078054938516938216939093179092556005805491909316911617905562000170565b6000620000db825162000144565b9392505050565b6000620000db825162000163565b6000806000606084860312156200010657600080fd5b6000620001148686620000e2565b93505060206200012786828701620000e2565b92505060406200013a86828701620000cd565b9150509250925092565b6000620001518262000157565b92915050565b600160a060020a031690565b6000620001518262000144565b61208e80620001806000396000f3fe6080604052600436106101275763ffffffff7c010000000000000000000000000000000000000000000000000000000060003504166301dd4c36811461012c57806308cdc2a81461014e57806336b19cd71461016e578063473848f5146101995780634c8f911e146101bb5780634cd31e73146101dd5780635001257e146101fd5780635c975abb1461021d5780635eec08701461023f578063715018a61461025f5780637d5899d41461027457806382fb600b146102945780638da5cb5b146102a75780638e2f139a146102bc5780638f32d59b146102d1578063aa5d977d146102e6578063c138b10014610306578063c66e1dd514610339578063cce7ec1314610359578063d2b855fc1461036c578063d792440b1461038c578063f2fde38b146103a1575b600080fd5b34801561013857600080fd5b5061014c610147366004611b3e565b6103c1565b005b34801561015a57600080fd5b5061014c6101693660046119fd565b6104d9565b34801561017a57600080fd5b50610183610536565b6040516101909190611dd0565b60405180910390f35b3480156101a557600080fd5b506101ae610552565b6040516101909190611e6f565b3480156101c757600080fd5b506101d061056e565b6040516101909190611f3d565b3480156101e957600080fd5b5061014c6101f8366004611aa2565b610574565b34801561020957600080fd5b5061014c610218366004611b3e565b6105c7565b34801561022957600080fd5b5061023261068f565b6040516101909190611df9565b34801561024b57600080fd5b5061014c61025a3660046118db565b6106b0565b34801561026b57600080fd5b5061014c61070a565b34801561028057600080fd5b5061014c61028f366004611901565b61078c565b6102326102a23660046119b0565b6109a9565b3480156102b357600080fd5b50610183610e0c565b3480156102c857600080fd5b506101ae610e28565b3480156102dd57600080fd5b50610232610e44565b3480156102f257600080fd5b5061014c610301366004611ade565b610e62565b34801561031257600080fd5b50610326610321366004611aa2565b610f55565b6040516101909796959493929190611e07565b34801561034557600080fd5b50610326610354366004611aa2565b610fb0565b610232610367366004611976565b6111e5565b34801561037857600080fd5b5061014c610387366004611b0e565b61163a565b34801561039857600080fd5b506101d061172d565b3480156103ad57600080fd5b5061014c6103bc3660046118db565b611733565b6103c9610e44565b15156103d457600080fd5b6000828152600360205260409020805460ff161515610428576040517f08c379a000000000000000000000000000000000000000000000000000000000815260040161041f90611e9d565b60405180910390fd5b60028101548211610465576040517f08c379a000000000000000000000000000000000000000000000000000000000815260040161041f90611ead565b600181018290556004810154600382015482546040517f92544cd0b5fea6142ab048e0ea4e8b55f04fb3c2528b3c918875ed2a7a1a9e47936104cc93889373ffffffffffffffffffffffffffffffffffffffff909216928892610100900460ff1690611f4b565b60405180910390a1505050565b6104e1610e44565b15156104ec57600080fd5b6005805491151574010000000000000000000000000000000000000000027fffffffffffffffffffffff00ffffffffffffffffffffffffffffffffffffffff909216919091179055565b60055473ffffffffffffffffffffffffffffffffffffffff1681565b60065473ffffffffffffffffffffffffffffffffffffffff1681565b60025481565b61057c610e44565b151561058757600080fd5b60648111156105c2576040517f08c379a000000000000000000000000000000000000000000000000000000000815260040161041f90611e8d565b600455565b6105cf610e44565b15156105da57600080fd5b6000828152600360205260409020805460ff161515610625576040517f08c379a000000000000000000000000000000000000000000000000000000000815260040161041f90611e9d565b600381018290556004810154600182015482546040517f92544cd0b5fea6142ab048e0ea4e8b55f04fb3c2528b3c918875ed2a7a1a9e47936104cc93889373ffffffffffffffffffffffffffffffffffffffff909216929091889161010090910460ff1690611f4b565b60055474010000000000000000000000000000000000000000900460ff1681565b6106b8610e44565b15156106c357600080fd5b600580547fffffffffffffffffffffffff00000000000000000000000000000000000000001673ffffffffffffffffffffffffffffffffffffffff92909216919091179055565b610712610e44565b151561071d57600080fd5b6000805460405173ffffffffffffffffffffffffffffffffffffffff909116907f8be0079c531659141344cd1fd0a4f28419497f9722a3daafe3b4186f6b6457e0908390a3600080547fffffffffffffffffffffffff0000000000000000000000000000000000000000169055565b610794610e44565b151561079f57600080fd5b620f424084106107db576040517f08c379a000000000000000000000000000000000000000000000000000000000815260040161041f90611edd565b6002805460019081019091556040805160e08101825282815284151560208201529190820190839081111561080c57fe5b81526020808201879052600060408084018290526060840188905273ffffffffffffffffffffffffffffffffffffffff8a1660809094019390935260025481526003825282902083518154928501511515610100027fffffffffffffffffffffffffffffffffffffffffffffffffffffffffffff00ff9115157fffffffffffffffffffffffffffffffffffffffffffffffffffffffffffffff0090941693909317169190911780825591830151909182907fffffffffffffffffffffffffffffffffffffffffffffffffffffffffff00ffff16620100008360018111156108ef57fe5b021790555060608201516001820155608082015160028083019190915560a0830151600383015560c090920151600490910180547fffffffffffffffffffffffff00000000000000000000000000000000000000001673ffffffffffffffffffffffffffffffffffffffff909216919091179055546040517fb930315bb0fbb02e6a5098eda387a015f9b831da0666fd6943731c891a0499659161099a918890889088908890611f4b565b60405180910390a15050505050565b60055460009074010000000000000000000000000000000000000000900460ff1615610a01576040517f08c379a000000000000000000000000000000000000000000000000000000000815260040161041f90611eed565b6001805481019081905560008481526003602052604090208054610100900460ff1615610a5a576040517f08c379a000000000000000000000000000000000000000000000000000000000815260040161041f90611f1d565b6001815462010000900460ff166001811115610a7257fe5b14610aa9576040517f08c379a000000000000000000000000000000000000000000000000000000000815260040161041f90611ebd565b805460ff161515610ae6576040517f08c379a000000000000000000000000000000000000000000000000000000000815260040161041f90611e9d565b83816001015410158015610afa5750600084115b1515610b32576040517f08c379a000000000000000000000000000000000000000000000000000000000815260040161041f90611ecd565b6000610b5785610b4b88620f424063ffffffff61175216565b9063ffffffff61178616565b60038301549091503414610b97576040517f08c379a000000000000000000000000000000000000000000000000000000000815260040161041f90611e7d565b60028201805460010190556006546040517f40c10f1900000000000000000000000000000000000000000000000000000000815273ffffffffffffffffffffffffffffffffffffffff909116906340c10f1990610bfa908a908590600401611dde565b600060405180830381600087803b158015610c1457600080fd5b505af1158015610c28573d6000803e3d6000fd5b505050506000610c546064610c486004543461175290919063ffffffff16565b9063ffffffff61179816565b90506000610c68348363ffffffff6117bc16565b60055460405191925060009173ffffffffffffffffffffffffffffffffffffffff9091169084908381818185875af1925050503d8060008114610cc7576040519150601f19603f3d011682016040523d82523d6000602084013e610ccc565b606091505b50509050801515610d09576040517f08c379a000000000000000000000000000000000000000000000000000000000815260040161041f90611f0d565b600485015460405173ffffffffffffffffffffffffffffffffffffffff909116908390600081818185875af1925050503d8060008114610d65576040519150601f19603f3d011682016040523d82523d6000602084013e610d6a565b606091505b5090915050801515610da8576040517f08c379a000000000000000000000000000000000000000000000000000000000815260040161041f90611efd565b7f98d41ea2d99604d19bd920bfa2fde9f14a004bb5f3bbacf3706fc23dd386f4998989868d89600301548789604051610de79796959493929190611f97565b60405180910390a1505050505060015481141515610e0457600080fd5b509392505050565b60005473ffffffffffffffffffffffffffffffffffffffff1690565b60075473ffffffffffffffffffffffffffffffffffffffff1681565b60005473ffffffffffffffffffffffffffffffffffffffff16331490565b610e6a610e44565b1515610e7557600080fd5b6000828152600360205260409020805460ff161515610ec0576040517f08c379a000000000000000000000000000000000000000000000000000000000815260040161041f90611e9d565b6004810180547fffffffffffffffffffffffff00000000000000000000000000000000000000001673ffffffffffffffffffffffffffffffffffffffff84811691909117918290556001830154600384015484546040517f92544cd0b5fea6142ab048e0ea4e8b55f04fb3c2528b3c918875ed2a7a1a9e47956104cc958a959116939092909161010090910460ff1690611f4b565b60036020819052600091825260409091208054600182015460028301549383015460049093015460ff8084169561010085048216956201000090950490911693909173ffffffffffffffffffffffffffffffffffffffff1687565b6000806000806000806000600760009054906101000a900473ffffffffffffffffffffffffffffffffffffffff1673ffffffffffffffffffffffffffffffffffffffff16634c8f911e6040518163ffffffff167c010000000000000000000000000000000000000000000000000000000002815260040160206040518083038186803b15801561103f57600080fd5b505afa158015611053573d6000803e3d6000fd5b505050506040513d601f19601f820116820180604052506110779190810190611ac0565b8811156110e15750505060008581526003602081905260409091208054600182015460028301549383015460049093015460ff8084169950610100840481169850620100009093049092169550935073ffffffffffffffffffffffffffffffffffffffff166111da565b600080600080600080600760009054906101000a900473ffffffffffffffffffffffffffffffffffffffff1673ffffffffffffffffffffffffffffffffffffffff1663c66e1dd58f6040518263ffffffff167c01000000000000000000000000000000000000000000000000000000000281526004016111619190611f3d565b60c06040518083038186803b15801561117957600080fd5b505afa15801561118d573d6000803e3d6000fd5b505050506040513d601f19601f820116820180604052506111b19190810190611a1b565b95509550955095509550955085856000868686869c509c509c509c509c509c509c505050505050505b919395979092949650565b60055460009074010000000000000000000000000000000000000000900460ff161561123d576040517f08c379a000000000000000000000000000000000000000000000000000000000815260040161041f90611eed565b6001805481019081905560008381526003602052604090208054610100900460ff1615611296576040517f08c379a000000000000000000000000000000000000000000000000000000000815260040161041f90611f1d565b6000815462010000900460ff1660018111156112ae57fe5b146112e5576040517f08c379a000000000000000000000000000000000000000000000000000000000815260040161041f90611ebd565b805460ff161515611322576040517f08c379a000000000000000000000000000000000000000000000000000000000815260040161041f90611e9d565b6002810154600182015411611363576040517f08c379a000000000000000000000000000000000000000000000000000000000815260040161041f90611f2d565b600381015434146113a0576040517f08c379a000000000000000000000000000000000000000000000000000000000815260040161041f90611e7d565b60028101546000906113b990600163ffffffff61178616565b60028301819055905060006113db82610b4b88620f424063ffffffff61175216565b6006546040517f40c10f1900000000000000000000000000000000000000000000000000000000815291925073ffffffffffffffffffffffffffffffffffffffff16906340c10f1990611434908a908590600401611dde565b600060405180830381600087803b15801561144e57600080fd5b505af1158015611462573d6000803e3d6000fd5b5050505060006114826064610c486004543461175290919063ffffffff16565b90506000611496348363ffffffff6117bc16565b60055460405191925060009173ffffffffffffffffffffffffffffffffffffffff9091169084908381818185875af1925050503d80600081146114f5576040519150601f19603f3d011682016040523d82523d6000602084013e6114fa565b606091505b50509050801515611537576040517f08c379a000000000000000000000000000000000000000000000000000000000815260040161041f90611f0d565b600486015460405173ffffffffffffffffffffffffffffffffffffffff909116908390600081818185875af1925050503d8060008114611593576040519150601f19603f3d011682016040523d82523d6000602084013e611598565b606091505b50909150508015156115d6576040517f08c379a000000000000000000000000000000000000000000000000000000000815260040161041f90611efd565b7f98d41ea2d99604d19bd920bfa2fde9f14a004bb5f3bbacf3706fc23dd386f4998986868d8a6003015487896040516116159796959493929190611f97565b60405180910390a15050505050506001548114151561163357600080fd5b5092915050565b611642610e44565b151561164d57600080fd5b6000828152600360205260409020805460ff161515611698576040517f08c379a000000000000000000000000000000000000000000000000000000000815260040161041f90611e9d565b80548215156101009081027fffffffffffffffffffffffffffffffffffffffffffffffffffffffffffff00ff909216919091178083556004830154600184015460038501546040517f92544cd0b5fea6142ab048e0ea4e8b55f04fb3c2528b3c918875ed2a7a1a9e47956104cc958a9573ffffffffffffffffffffffffffffffffffffffff1694939291900460ff1690611f4b565b60045481565b61173b610e44565b151561174657600080fd5b61174f816117d1565b50565b600082151561176357506000611780565b82820282848281151561177257fe5b041461177d57600080fd5b90505b92915050565b60008282018381101561177d57600080fd5b60008082116117a657600080fd5b600082848115156117b357fe5b04949350505050565b6000828211156117cb57600080fd5b50900390565b73ffffffffffffffffffffffffffffffffffffffff811615156117f357600080fd5b6000805460405173ffffffffffffffffffffffffffffffffffffffff808516939216917f8be0079c531659141344cd1fd0a4f28419497f9722a3daafe3b4186f6b6457e091a3600080547fffffffffffffffffffffffff00000000000000000000000000000000000000001673ffffffffffffffffffffffffffffffffffffffff92909216919091179055565b600061188c8235611ff3565b9392505050565b600061188c8251611ff3565b600061188c8235611ffe565b600061188c8251611ffe565b600061188c823561202f565b600061188c823561202c565b600061188c825161202c565b6000602082840312156118ed57600080fd5b60006118f98484611880565b949350505050565b600080600080600060a0868803121561191957600080fd5b60006119258888611880565b9550506020611936888289016118c3565b9450506040611947888289016118c3565b93505060606119588882890161189f565b9250506080611969888289016118b7565b9150509295509295909350565b6000806040838503121561198957600080fd5b60006119958585611880565b92505060206119a6858286016118c3565b9150509250929050565b6000806000606084860312156119c557600080fd5b60006119d18686611880565b93505060206119e2868287016118c3565b92505060406119f3868287016118c3565b9150509250925092565b600060208284031215611a0f57600080fd5b60006118f9848461189f565b60008060008060008060c08789031215611a3457600080fd5b6000611a4089896118ab565b9650506020611a5189828a016118ab565b9550506040611a6289828a016118cf565b9450506060611a7389828a016118cf565b9350506080611a8489828a016118cf565b92505060a0611a9589828a01611893565b9150509295509295509295565b600060208284031215611ab457600080fd5b60006118f984846118c3565b600060208284031215611ad257600080fd5b60006118f984846118cf565b60008060408385031215611af157600080fd5b6000611afd85856118c3565b92505060206119a685828601611880565b60008060408385031215611b2157600080fd5b6000611b2d85856118c3565b92505060206119a68582860161189f565b60008060408385031215611b5157600080fd5b600061199585856118c3565b611b6681611ff3565b82525050565b611b6681611ffe565b611b668161203e565b611b6681612049565b601281527f4449445f4e4f545f53454e445f50524943450000000000000000000000000000602082015260400190565b601581527f53504c49545f4d5553545f42455f4c54455f3130300000000000000000000000602082015260400190565b601381527f574f524b5f444f45535f4e4f545f455849535400000000000000000000000000602082015260400190565b601581527f574f524b5f455843454544535f45444954494f4e530000000000000000000000602082015260400190565b600f81527f57524f4e475f53414c455f545950450000000000000000000000000000000000602082015260400190565b601981527f4f5554534944455f52414e47455f4f465f45444954494f4e5300000000000000602082015260400190565b601581527f4d41585f45444954494f4e535f45584345454445440000000000000000000000602082015260400190565b601281527f4d757374206e6f74206265207061757365640000000000000000000000000000602082015260400190565b601881527f617274697374206661696c656420746f20726563656976650000000000000000602082015260400190565b601781527f61646d696e206661696c656420746f2072656365697665000000000000000000602082015260400190565b601581527f574f524b5f4e4f545f5945545f464f525f53414c450000000000000000000000602082015260400190565b601181527f45444954494f4e535f4558434545444544000000000000000000000000000000602082015260400190565b611b668161202c565b602081016117808284611b5d565b60408101611dec8285611b5d565b61188c6020830184611dc7565b602081016117808284611b6c565b60e08101611e15828a611b6c565b611e226020830189611b6c565b611e2f6040830188611b7e565b611e3c6060830187611dc7565b611e496080830186611dc7565b611e5660a0830185611dc7565b611e6360c0830184611b5d565b98975050505050505050565b602081016117808284611b75565b6020808252810161178081611b87565b6020808252810161178081611bb7565b6020808252810161178081611be7565b6020808252810161178081611c17565b6020808252810161178081611c47565b6020808252810161178081611c77565b6020808252810161178081611ca7565b6020808252810161178081611cd7565b6020808252810161178081611d07565b6020808252810161178081611d37565b6020808252810161178081611d67565b6020808252810161178081611d97565b602081016117808284611dc7565b60a08101611f598288611dc7565b611f666020830187611b5d565b611f736040830186611dc7565b611f806060830185611dc7565b611f8d6080830184611b6c565b9695505050505050565b60e08101611fa5828a611dc7565b611fb26020830189611dc7565b611fbf6040830188611dc7565b611fcc6060830187611b5d565b611fd96080830186611dc7565b611fe660a0830185611dc7565b611e6360c0830184611dc7565b600061178082612013565b151590565b60006002821061200f57fe5b5090565b73ffffffffffffffffffffffffffffffffffffffff1690565b90565b60006002821061200f57600080fd5b600061178082611ff3565b60006117808261200356fea265627a7a7230582062705ca116fd5d11107b24bd311cd67b8f01fb4719b5e58468a7892f0a9e5a746c6578706572696d656e74616cf50037",
  "source": "pragma solidity ^0.5.0;\npragma experimental ABIEncoderV2;\n/**\n * The FoliaControllerV2 is an upgradeable endpoint for controlling Folia.sol\n */\n\nimport \"./Folia.sol\";\nimport \"./FoliaController.sol\";\nimport \"openzeppelin-solidity/contracts/math/SafeMath.sol\";\nimport \"openzeppelin-solidity/contracts/ownership/Ownable.sol\";\nimport \"openzeppelin-solidity/contracts/utils/ReentrancyGuard.sol\";\n\ncontract FoliaControllerV2 is Ownable, ReentrancyGuard {\n\n    event newWork(uint256 workId, address payable artist, uint256 editions, uint256 price, bool paused);\n    event updatedWork(uint256 workId, address payable artist, uint256 editions, uint256 price, bool paused);\n    event editionBought(uint256 workId, uint256 editionId, uint256 tokenId, address recipient, uint256 paid, uint256 artistReceived, uint256 adminReceived);\n\n    using SafeMath for uint256;\n\n    enum SaleType {noID, ID}\n\n    uint256 constant MAX_EDITIONS = 1000000;\n    uint256 public latestWorkId = 9;\n\n    mapping (uint256 => Work) public _works;\n    struct Work {\n        bool exists;\n        bool paused;\n        SaleType saleType;\n        uint256 editions;\n        uint256 printed;\n        uint256 price;\n        address payable artist;\n    }\n\n    uint256 public adminSplit = 15;\n\n    address payable public adminWallet;\n    bool public paused;\n    Folia public folia;\n    FoliaController public foliaController;\n\n    modifier notPaused() {\n        require(!paused, \"Must not be paused\");\n        _;\n    }\n\n    constructor(\n        Folia _folia,\n        FoliaController _foliaController,\n        address payable _adminWallet\n    ) public {\n        folia = _folia;\n        foliaController = _foliaController;\n        adminWallet = _adminWallet;\n    }\n\n    function works(uint256 workId) public view returns (bool exists, bool paused, SaleType saleType, uint256 editions, uint256 printed, uint256 price, address payable artist) {\n      if (workId > foliaController.latestWorkId()) {\n        return (_works[workId].exists, _works[workId].paused, _works[workId].saleType, _works[workId].editions, _works[workId].printed, _works[workId].price, _works[workId].artist);\n      } else {\n        (bool _exists, bool _paused, uint256 _editions, uint256 _printed, uint256 _price, address payable _artist) = foliaController.works(workId);\n        return (_exists, _paused, SaleType.noID, _editions, _printed, _price, _artist);\n      }\n    }\n\n    function addArtwork(address payable artist, uint256 editions, uint256 price, bool _paused, SaleType saleType) public onlyOwner {\n        require(editions < MAX_EDITIONS, \"MAX_EDITIONS_EXCEEDED\");\n\n        latestWorkId += 1;\n\n        _works[latestWorkId] = Work({\n          exists: true,\n          paused: _paused,\n          saleType: saleType,\n          editions: editions,\n          printed: 0,\n          price: price,\n          artist: artist\n        });\n\n        emit newWork(latestWorkId, artist, editions, price, _paused);\n    }\n\n    function updateArtworkPaused(uint256 workId, bool _paused) public onlyOwner {\n        Work storage work = _works[workId];\n        require(work.exists, \"WORK_DOES_NOT_EXIST\");\n        work.paused = _paused;\n        emit updatedWork(workId, work.artist, work.editions, work.price, work.paused);\n    }\n\n    function updateArtworkEditions(uint256 workId, uint256 _editions) public onlyOwner {\n        Work storage work = _works[workId];\n        require(work.exists, \"WORK_DOES_NOT_EXIST\");\n        require(work.printed < _editions, \"WORK_EXCEEDS_EDITIONS\");\n        work.editions = _editions;\n        emit updatedWork(workId, work.artist, work.editions, work.price, work.paused);\n    }\n\n    function updateArtworkPrice(uint256 workId, uint256 _price) public onlyOwner {\n        Work storage work = _works[workId];\n        require(work.exists, \"WORK_DOES_NOT_EXIST\");\n        work.price = _price;\n        emit updatedWork(workId, work.artist, work.editions, work.price, work.paused);\n    }\n\n    function updateArtworkArtist(uint256 workId, address payable _artist) public onlyOwner {\n        Work storage work = _works[workId];\n        require(work.exists, \"WORK_DOES_NOT_EXIST\");\n        work.artist = _artist;\n        emit updatedWork(workId, work.artist, work.editions, work.price, work.paused);\n    }\n\n    function buyByID(address recipient, uint256 workId, uint256 editionId) public payable notPaused nonReentrant returns(bool) {\n        Work storage work = _works[workId];\n        require(!work.paused, \"WORK_NOT_YET_FOR_SALE\");\n        require(work.saleType == SaleType.ID, \"WRONG_SALE_TYPE\");\n        require(work.exists, \"WORK_DOES_NOT_EXIST\");\n\n        require(work.editions >= editionId && editionId > 0, \"OUTSIDE_RANGE_OF_EDITIONS\");\n        uint256 tokenId = workId.mul(MAX_EDITIONS).add(editionId);\n\n        require(msg.value == work.price, \"DID_NOT_SEND_PRICE\");\n\n        work.printed += 1;\n        folia.mint(recipient, tokenId);\n        \n        uint256 adminReceives = msg.value.mul(adminSplit).div(100);\n        uint256 artistReceives = msg.value.sub(adminReceives);\n\n        (bool success, ) = adminWallet.call.value(adminReceives)(\"\");\n        require(success, \"admin failed to receive\");\n\n        (success, ) = work.artist.call.value(artistReceives)(\"\");\n        require(success, \"artist failed to receive\");\n\n        emit editionBought(workId, editionId, tokenId, recipient,  work.price, artistReceives, adminReceives);\n    }\n\n    function buy(address recipient, uint256 workId) public payable notPaused nonReentrant returns (bool) {\n        Work storage work = _works[workId];\n        require(!work.paused, \"WORK_NOT_YET_FOR_SALE\");\n        require(work.saleType == SaleType.noID, \"WRONG_SALE_TYPE\");\n        require(work.exists, \"WORK_DOES_NOT_EXIST\");\n        require(work.editions > work.printed, \"EDITIONS_EXCEEDED\");\n        require(msg.value == work.price, \"DID_NOT_SEND_PRICE\");\n\n        uint256 editionId = work.printed.add(1);\n        work.printed = editionId;\n        \n        uint256 tokenId = workId.mul(MAX_EDITIONS).add(editionId);\n\n        folia.mint(recipient, tokenId);\n        \n        uint256 adminReceives = msg.value.mul(adminSplit).div(100);\n        uint256 artistReceives = msg.value.sub(adminReceives);\n\n        (bool success, ) = adminWallet.call.value(adminReceives)(\"\");\n        require(success, \"admin failed to receive\");\n        \n        (success, ) = work.artist.call.value(artistReceives)(\"\");\n        require(success, \"artist failed to receive\");\n\n        emit editionBought(workId, editionId, tokenId, recipient,  work.price, artistReceives, adminReceives);\n    }\n\n    function updateAdminSplit(uint256 _adminSplit) public onlyOwner {\n        require(_adminSplit <= 100, \"SPLIT_MUST_BE_LTE_100\");\n        adminSplit = _adminSplit;\n    }\n\n    function updateAdminWallet(address payable _adminWallet) public onlyOwner {\n        adminWallet = _adminWallet;\n    }\n\n    function updatePaused(bool _paused) public onlyOwner {\n        paused = _paused;\n    }\n\n}\n",
  "sourcePath": "/Users/billy/GitHub/folia-app/folia-contracts/contracts/FoliaControllerV2.sol",
  "compiler": {
    "name": "solc",
    "version": "0.5.0+commit.1d4f565a.Emscripten.clang"
  },
  "schemaVersion": "3.3.2",
  "updatedAt": "2021-05-30T20:54:47.154Z",
  "devdoc": {
    "methods": {
      "isOwner()": {
        "return": "true if `msg.sender` is the owner of the contract."
      },
      "owner()": {
        "return": "the address of the owner."
      },
      "renounceOwnership()": {
        "details": "Allows the current owner to relinquish control of the contract."
      },
      "transferOwnership(address)": {
        "details": "Allows the current owner to transfer control of the contract to a newOwner.",
        "params": {
          "newOwner": "The address to transfer ownership to."
        }
      }
    }
  },
  "userdoc": {
    "methods": {
      "renounceOwnership()": {
        "notice": "Renouncing to ownership will leave the contract without an owner. It will not be possible to call the functions with the `onlyOwner` modifier anymore."
      }
    }
  }
}