{
  "contractName": "FoliaController",
  "abi": [
    {
      "constant": true,
      "inputs": [],
      "name": "adminWallet",
      "outputs": [
        {
          "name": "",
          "type": "address"
        }
      ],
      "payable": false,
      "stateMutability": "view",
      "type": "function",
      "signature": "0x36b19cd7"
    },
    {
      "constant": true,
      "inputs": [],
      "name": "folia",
      "outputs": [
        {
          "name": "",
          "type": "address"
        }
      ],
      "payable": false,
      "stateMutability": "view",
      "type": "function",
      "signature": "0x473848f5"
    },
    {
      "constant": true,
      "inputs": [],
      "name": "latestWorkId",
      "outputs": [
        {
          "name": "",
          "type": "uint256"
        }
      ],
      "payable": false,
      "stateMutability": "view",
      "type": "function",
      "signature": "0x4c8f911e"
    },
    {
      "constant": true,
      "inputs": [],
      "name": "paused",
      "outputs": [
        {
          "name": "",
          "type": "bool"
        }
      ],
      "payable": false,
      "stateMutability": "view",
      "type": "function",
      "signature": "0x5c975abb"
    },
    {
      "constant": false,
      "inputs": [],
      "name": "renounceOwnership",
      "outputs": [],
      "payable": false,
      "stateMutability": "nonpayable",
      "type": "function",
      "signature": "0x715018a6"
    },
    {
      "constant": true,
      "inputs": [],
      "name": "owner",
      "outputs": [
        {
          "name": "",
          "type": "address"
        }
      ],
      "payable": false,
      "stateMutability": "view",
      "type": "function",
      "signature": "0x8da5cb5b"
    },
    {
      "constant": true,
      "inputs": [],
      "name": "isOwner",
      "outputs": [
        {
          "name": "",
          "type": "bool"
        }
      ],
      "payable": false,
      "stateMutability": "view",
      "type": "function",
      "signature": "0x8f32d59b"
    },
    {
      "constant": true,
      "inputs": [
        {
          "name": "",
          "type": "uint256"
        }
      ],
      "name": "works",
      "outputs": [
        {
          "name": "exists",
          "type": "bool"
        },
        {
          "name": "paused",
          "type": "bool"
        },
        {
          "name": "editions",
          "type": "uint256"
        },
        {
          "name": "printed",
          "type": "uint256"
        },
        {
          "name": "price",
          "type": "uint256"
        },
        {
          "name": "artist",
          "type": "address"
        }
      ],
      "payable": false,
      "stateMutability": "view",
      "type": "function",
      "signature": "0xc66e1dd5"
    },
    {
      "constant": false,
      "inputs": [
        {
          "name": "newOwner",
          "type": "address"
        }
      ],
      "name": "transferOwnership",
      "outputs": [],
      "payable": false,
      "stateMutability": "nonpayable",
      "type": "function",
      "signature": "0xf2fde38b"
    },
    {
      "inputs": [
        {
          "name": "_folia",
          "type": "address"
        },
        {
          "name": "_adminWallet",
          "type": "address"
        }
      ],
      "payable": false,
      "stateMutability": "nonpayable",
      "type": "constructor",
      "signature": "constructor"
    },
    {
      "anonymous": false,
      "inputs": [
        {
          "indexed": false,
          "name": "workId",
          "type": "uint256"
        },
        {
          "indexed": false,
          "name": "artist",
          "type": "address"
        },
        {
          "indexed": false,
          "name": "editions",
          "type": "uint256"
        },
        {
          "indexed": false,
          "name": "price",
          "type": "uint256"
        },
        {
          "indexed": false,
          "name": "paused",
          "type": "bool"
        }
      ],
      "name": "newWork",
      "type": "event",
      "signature": "0xb930315bb0fbb02e6a5098eda387a015f9b831da0666fd6943731c891a049965"
    },
    {
      "anonymous": false,
      "inputs": [
        {
          "indexed": false,
          "name": "workId",
          "type": "uint256"
        },
        {
          "indexed": false,
          "name": "artist",
          "type": "address"
        },
        {
          "indexed": false,
          "name": "editions",
          "type": "uint256"
        },
        {
          "indexed": false,
          "name": "price",
          "type": "uint256"
        },
        {
          "indexed": false,
          "name": "paused",
          "type": "bool"
        }
      ],
      "name": "updatedWork",
      "type": "event",
      "signature": "0x92544cd0b5fea6142ab048e0ea4e8b55f04fb3c2528b3c918875ed2a7a1a9e47"
    },
    {
      "anonymous": false,
      "inputs": [
        {
          "indexed": false,
          "name": "workId",
          "type": "uint256"
        },
        {
          "indexed": false,
          "name": "editionId",
          "type": "uint256"
        },
        {
          "indexed": false,
          "name": "tokenId",
          "type": "uint256"
        },
        {
          "indexed": false,
          "name": "recipient",
          "type": "address"
        },
        {
          "indexed": false,
          "name": "paid",
          "type": "uint256"
        },
        {
          "indexed": false,
          "name": "artistReceived",
          "type": "uint256"
        },
        {
          "indexed": false,
          "name": "adminReceived",
          "type": "uint256"
        }
      ],
      "name": "editionBought",
      "type": "event",
      "signature": "0x98d41ea2d99604d19bd920bfa2fde9f14a004bb5f3bbacf3706fc23dd386f499"
    },
    {
      "anonymous": false,
      "inputs": [
        {
          "indexed": true,
          "name": "previousOwner",
          "type": "address"
        },
        {
          "indexed": true,
          "name": "newOwner",
          "type": "address"
        }
      ],
      "name": "OwnershipTransferred",
      "type": "event",
      "signature": "0x8be0079c531659141344cd1fd0a4f28419497f9722a3daafe3b4186f6b6457e0"
    },
    {
      "constant": false,
      "inputs": [
        {
          "name": "artist",
          "type": "address"
        },
        {
          "name": "editions",
          "type": "uint256"
        },
        {
          "name": "price",
          "type": "uint256"
        },
        {
          "name": "_paused",
          "type": "bool"
        }
      ],
      "name": "addArtwork",
      "outputs": [],
      "payable": false,
      "stateMutability": "nonpayable",
      "type": "function",
      "signature": "0xbb0a6732"
    },
    {
      "constant": false,
      "inputs": [
        {
          "name": "workId",
          "type": "uint256"
        },
        {
          "name": "_paused",
          "type": "bool"
        }
      ],
      "name": "updateArtworkPaused",
      "outputs": [],
      "payable": false,
      "stateMutability": "nonpayable",
      "type": "function",
      "signature": "0xd2b855fc"
    },
    {
      "constant": false,
      "inputs": [
        {
          "name": "workId",
          "type": "uint256"
        },
        {
          "name": "_editions",
          "type": "uint256"
        }
      ],
      "name": "updateArtworkEditions",
      "outputs": [],
      "payable": false,
      "stateMutability": "nonpayable",
      "type": "function",
      "signature": "0x01dd4c36"
    },
    {
      "constant": false,
      "inputs": [
        {
          "name": "workId",
          "type": "uint256"
        },
        {
          "name": "_price",
          "type": "uint256"
        }
      ],
      "name": "updateArtworkPrice",
      "outputs": [],
      "payable": false,
      "stateMutability": "nonpayable",
      "type": "function",
      "signature": "0x5001257e"
    },
    {
      "constant": false,
      "inputs": [
        {
          "name": "workId",
          "type": "uint256"
        },
        {
          "name": "_artist",
          "type": "address"
        }
      ],
      "name": "updateArtworkArtist",
      "outputs": [],
      "payable": false,
      "stateMutability": "nonpayable",
      "type": "function",
      "signature": "0xaa5d977d"
    },
    {
      "constant": false,
      "inputs": [
        {
          "name": "recipient",
          "type": "address"
        },
        {
          "name": "workId",
          "type": "uint256"
        }
      ],
      "name": "buy",
      "outputs": [
        {
          "name": "",
          "type": "bool"
        }
      ],
      "payable": true,
      "stateMutability": "payable",
      "type": "function",
      "signature": "0xcce7ec13"
    },
    {
      "constant": false,
      "inputs": [
        {
          "name": "_adminSplit",
          "type": "uint256"
        }
      ],
      "name": "updateAdminSplit",
      "outputs": [],
      "payable": false,
      "stateMutability": "nonpayable",
      "type": "function",
      "signature": "0x4cd31e73"
    },
    {
      "constant": false,
      "inputs": [
        {
          "name": "_adminWallet",
          "type": "address"
        }
      ],
      "name": "updateAdminWallet",
      "outputs": [],
      "payable": false,
      "stateMutability": "nonpayable",
      "type": "function",
      "signature": "0x5eec0870"
    },
    {
      "constant": false,
      "inputs": [
        {
          "name": "_paused",
          "type": "bool"
        }
      ],
      "name": "updatePaused",
      "outputs": [],
      "payable": false,
      "stateMutability": "nonpayable",
      "type": "function",
      "signature": "0x08cdc2a8"
    }
  ],
  "bytecode": "0x6080604052601460035534801561001557600080fd5b50604051604080611da88339810180604052604081101561003557600080fd5b810190808051906020019092919080519060200190929190505050336000806101000a81548173ffffffffffffffffffffffffffffffffffffffff021916908373ffffffffffffffffffffffffffffffffffffffff1602179055506000809054906101000a900473ffffffffffffffffffffffffffffffffffffffff1673ffffffffffffffffffffffffffffffffffffffff16600073ffffffffffffffffffffffffffffffffffffffff167f8be0079c531659141344cd1fd0a4f28419497f9722a3daafe3b4186f6b6457e060405160405180910390a381600560006101000a81548173ffffffffffffffffffffffffffffffffffffffff021916908373ffffffffffffffffffffffffffffffffffffffff16021790555080600460006101000a81548173ffffffffffffffffffffffffffffffffffffffff021916908373ffffffffffffffffffffffffffffffffffffffff1602179055505050611c098061019f6000396000f3fe6080604052600436106100fc576000357c0100000000000000000000000000000000000000000000000000000000900463ffffffff16806301dd4c361461010157806308cdc2a81461014657806336b19cd714610183578063473848f5146101da5780634c8f911e146102315780634cd31e731461025c5780635001257e146102975780635c975abb146102dc5780635eec08701461030b578063715018a61461035c5780638da5cb5b146103735780638f32d59b146103ca578063aa5d977d146103f9578063bb0a673214610454578063c66e1dd5146104c5578063cce7ec131461056b578063d2b855fc146105d1578063f2fde38b14610618575b600080fd5b34801561010d57600080fd5b506101446004803603604081101561012457600080fd5b810190808035906020019092919080359060200190929190505050610669565b005b34801561015257600080fd5b506101816004803603602081101561016957600080fd5b810190808035151590602001909291905050506108cc565b005b34801561018f57600080fd5b506101986108fc565b604051808273ffffffffffffffffffffffffffffffffffffffff1673ffffffffffffffffffffffffffffffffffffffff16815260200191505060405180910390f35b3480156101e657600080fd5b506101ef610922565b604051808273ffffffffffffffffffffffffffffffffffffffff1673ffffffffffffffffffffffffffffffffffffffff16815260200191505060405180910390f35b34801561023d57600080fd5b50610246610948565b6040518082815260200191505060405180910390f35b34801561026857600080fd5b506102956004803603602081101561027f57600080fd5b810190808035906020019092919050505061094e565b005b3480156102a357600080fd5b506102da600480360360408110156102ba57600080fd5b8101908080359060200190929190803590602001909291905050506109e4565b005b3480156102e857600080fd5b506102f1610bba565b604051808215151515815260200191505060405180910390f35b34801561031757600080fd5b5061035a6004803603602081101561032e57600080fd5b81019080803573ffffffffffffffffffffffffffffffffffffffff169060200190929190505050610bcd565b005b34801561036857600080fd5b50610371610c24565b005b34801561037f57600080fd5b50610388610cf6565b604051808273ffffffffffffffffffffffffffffffffffffffff1673ffffffffffffffffffffffffffffffffffffffff16815260200191505060405180910390f35b3480156103d657600080fd5b506103df610d1f565b604051808215151515815260200191505060405180910390f35b34801561040557600080fd5b506104526004803603604081101561041c57600080fd5b8101908080359060200190929190803573ffffffffffffffffffffffffffffffffffffffff169060200190929190505050610d76565b005b34801561046057600080fd5b506104c36004803603608081101561047757600080fd5b81019080803573ffffffffffffffffffffffffffffffffffffffff1690602001909291908035906020019092919080359060200190929190803515159060200190929190505050610f86565b005b3480156104d157600080fd5b506104fe600480360360208110156104e857600080fd5b81019080803590602001909291905050506111a4565b6040518087151515158152602001861515151581526020018581526020018481526020018381526020018273ffffffffffffffffffffffffffffffffffffffff1673ffffffffffffffffffffffffffffffffffffffff168152602001965050505050505060405180910390f35b6105b76004803603604081101561058157600080fd5b81019080803573ffffffffffffffffffffffffffffffffffffffff1690602001909291908035906020019092919050505061121a565b604051808215151515815260200191505060405180910390f35b3480156105dd57600080fd5b50610616600480360360408110156105f457600080fd5b8101908080359060200190929190803515159060200190929190505050611830565b005b34801561062457600080fd5b506106676004803603602081101561063b57600080fd5b81019080803573ffffffffffffffffffffffffffffffffffffffff169060200190929190505050611a19565b005b610671610d1f565b151561067c57600080fd5b6002600083815260200190815260200160002060000160009054906101000a900460ff161515610714576040517f08c379a00000000000000000000000000000000000000000000000000000000081526004018080602001828103825260138152602001807f574f524b5f444f45535f4e4f545f45584953540000000000000000000000000081525060200191505060405180910390fd5b8060026000848152602001908152602001600020600201541015156107a1576040517f08c379a00000000000000000000000000000000000000000000000000000000081526004018080602001828103825260158152602001807f574f524b5f455843454544535f45444954494f4e53000000000000000000000081525060200191505060405180910390fd5b8060026000848152602001908152602001600020600101819055507f92544cd0b5fea6142ab048e0ea4e8b55f04fb3c2528b3c918875ed2a7a1a9e47826002600085815260200190815260200160002060040160009054906101000a900473ffffffffffffffffffffffffffffffffffffffff16600260008681526020019081526020016000206001015460026000878152602001908152602001600020600301546002600088815260200190815260200160002060000160019054906101000a900460ff16604051808681526020018573ffffffffffffffffffffffffffffffffffffffff1673ffffffffffffffffffffffffffffffffffffffff168152602001848152602001838152602001821515151581526020019550505050505060405180910390a15050565b6108d4610d1f565b15156108df57600080fd5b80600460146101000a81548160ff02191690831515021790555050565b600460009054906101000a900473ffffffffffffffffffffffffffffffffffffffff1681565b600560009054906101000a900473ffffffffffffffffffffffffffffffffffffffff1681565b60015481565b610956610d1f565b151561096157600080fd5b606481111515156109da576040517f08c379a00000000000000000000000000000000000000000000000000000000081526004018080602001828103825260158152602001807f53504c49545f4d5553545f42455f4c54455f313030000000000000000000000081525060200191505060405180910390fd5b8060038190555050565b6109ec610d1f565b15156109f757600080fd5b6002600083815260200190815260200160002060000160009054906101000a900460ff161515610a8f576040517f08c379a00000000000000000000000000000000000000000000000000000000081526004018080602001828103825260138152602001807f574f524b5f444f45535f4e4f545f45584953540000000000000000000000000081525060200191505060405180910390fd5b8060026000848152602001908152602001600020600301819055507f92544cd0b5fea6142ab048e0ea4e8b55f04fb3c2528b3c918875ed2a7a1a9e47826002600085815260200190815260200160002060040160009054906101000a900473ffffffffffffffffffffffffffffffffffffffff16600260008681526020019081526020016000206001015460026000878152602001908152602001600020600301546002600088815260200190815260200160002060000160019054906101000a900460ff16604051808681526020018573ffffffffffffffffffffffffffffffffffffffff1673ffffffffffffffffffffffffffffffffffffffff168152602001848152602001838152602001821515151581526020019550505050505060405180910390a15050565b600460149054906101000a900460ff1681565b610bd5610d1f565b1515610be057600080fd5b80600460006101000a81548173ffffffffffffffffffffffffffffffffffffffff021916908373ffffffffffffffffffffffffffffffffffffffff16021790555050565b610c2c610d1f565b1515610c3757600080fd5b600073ffffffffffffffffffffffffffffffffffffffff166000809054906101000a900473ffffffffffffffffffffffffffffffffffffffff1673ffffffffffffffffffffffffffffffffffffffff167f8be0079c531659141344cd1fd0a4f28419497f9722a3daafe3b4186f6b6457e060405160405180910390a360008060006101000a81548173ffffffffffffffffffffffffffffffffffffffff021916908373ffffffffffffffffffffffffffffffffffffffff160217905550565b60008060009054906101000a900473ffffffffffffffffffffffffffffffffffffffff16905090565b60008060009054906101000a900473ffffffffffffffffffffffffffffffffffffffff1673ffffffffffffffffffffffffffffffffffffffff163373ffffffffffffffffffffffffffffffffffffffff1614905090565b610d7e610d1f565b1515610d8957600080fd5b6002600083815260200190815260200160002060000160009054906101000a900460ff161515610e21576040517f08c379a00000000000000000000000000000000000000000000000000000000081526004018080602001828103825260138152602001807f574f524b5f444f45535f4e4f545f45584953540000000000000000000000000081525060200191505060405180910390fd5b806002600084815260200190815260200160002060040160006101000a81548173ffffffffffffffffffffffffffffffffffffffff021916908373ffffffffffffffffffffffffffffffffffffffff1602179055507f92544cd0b5fea6142ab048e0ea4e8b55f04fb3c2528b3c918875ed2a7a1a9e47826002600085815260200190815260200160002060040160009054906101000a900473ffffffffffffffffffffffffffffffffffffffff16600260008681526020019081526020016000206001015460026000878152602001908152602001600020600301546002600088815260200190815260200160002060000160019054906101000a900460ff16604051808681526020018573ffffffffffffffffffffffffffffffffffffffff1673ffffffffffffffffffffffffffffffffffffffff168152602001848152602001838152602001821515151581526020019550505050505060405180910390a15050565b610f8e610d1f565b1515610f9957600080fd5b620f424083101515611013576040517f08c379a00000000000000000000000000000000000000000000000000000000081526004018080602001828103825260158152602001807f4d41585f45444954494f4e535f4558434545444544000000000000000000000081525060200191505060405180910390fd5b60018060008282540192505081905550600160026000600154815260200190815260200160002060000160006101000a81548160ff021916908315150217905550826002600060015481526020019081526020016000206001018190555081600260006001548152602001908152602001600020600301819055508360026000600154815260200190815260200160002060040160006101000a81548173ffffffffffffffffffffffffffffffffffffffff021916908373ffffffffffffffffffffffffffffffffffffffff1602179055508060026000600154815260200190815260200160002060000160016101000a81548160ff0219169083151502179055507fb930315bb0fbb02e6a5098eda387a015f9b831da0666fd6943731c891a04996560015485858585604051808681526020018573ffffffffffffffffffffffffffffffffffffffff1673ffffffffffffffffffffffffffffffffffffffff168152602001848152602001838152602001821515151581526020019550505050505060405180910390a150505050565b60026020528060005260406000206000915090508060000160009054906101000a900460ff16908060000160019054906101000a900460ff16908060010154908060020154908060030154908060040160009054906101000a900473ffffffffffffffffffffffffffffffffffffffff16905086565b6000600460149054906101000a900460ff161515156112a1576040517f08c379a00000000000000000000000000000000000000000000000000000000081526004018080602001828103825260128152602001807f4d757374206e6f7420626520706175736564000000000000000000000000000081525060200191505060405180910390fd5b6002600083815260200190815260200160002060000160019054906101000a900460ff1615151561133a576040517f08c379a00000000000000000000000000000000000000000000000000000000081526004018080602001828103825260158152602001807f574f524b5f4e4f545f5945545f464f525f53414c45000000000000000000000081525060200191505060405180910390fd5b6002600083815260200190815260200160002060000160009054906101000a900460ff1615156113d2576040517f08c379a00000000000000000000000000000000000000000000000000000000081526004018080602001828103825260138152602001807f574f524b5f444f45535f4e4f545f45584953540000000000000000000000000081525060200191505060405180910390fd5b60026000838152602001908152602001600020600201546002600084815260200190815260200160002060010154111515611475576040517f08c379a00000000000000000000000000000000000000000000000000000000081526004018080602001828103825260118152602001807f45444954494f4e535f455843454544454400000000000000000000000000000081525060200191505060405180910390fd5b600260008381526020019081526020016000206003015434141515611502576040517f08c379a00000000000000000000000000000000000000000000000000000000081526004018080602001828103825260128152602001807f4449445f4e4f545f53454e445f5052494345000000000000000000000000000081525060200191505060405180910390fd5b600061152e60016002600086815260200190815260200160002060020154611a3890919063ffffffff16565b9050806002600085815260200190815260200160002060020181905550600061157582611567620f424087611a5990919063ffffffff16565b611a3890919063ffffffff16565b9050600560009054906101000a900473ffffffffffffffffffffffffffffffffffffffff1673ffffffffffffffffffffffffffffffffffffffff166340c10f1986836040518363ffffffff167c0100000000000000000000000000000000000000000000000000000000028152600401808373ffffffffffffffffffffffffffffffffffffffff1673ffffffffffffffffffffffffffffffffffffffff16815260200182815260200192505050600060405180830381600087803b15801561163c57600080fd5b505af1158015611650573d6000803e3d6000fd5b50505050600061167e606461167060035434611a5990919063ffffffff16565b611a9790919063ffffffff16565b905060006116958234611ac190919063ffffffff16565b9050600460009054906101000a900473ffffffffffffffffffffffffffffffffffffffff1673ffffffffffffffffffffffffffffffffffffffff166108fc839081150290604051600060405180830381858888f193505050501580156116ff573d6000803e3d6000fd5b506002600087815260200190815260200160002060040160009054906101000a900473ffffffffffffffffffffffffffffffffffffffff1673ffffffffffffffffffffffffffffffffffffffff166108fc829081150290604051600060405180830381858888f1935050505015801561177c573d6000803e3d6000fd5b507f98d41ea2d99604d19bd920bfa2fde9f14a004bb5f3bbacf3706fc23dd386f4998685858a600260008c8152602001908152602001600020600301548688604051808881526020018781526020018681526020018573ffffffffffffffffffffffffffffffffffffffff1673ffffffffffffffffffffffffffffffffffffffff16815260200184815260200183815260200182815260200197505050505050505060405180910390a15050505092915050565b611838610d1f565b151561184357600080fd5b6002600083815260200190815260200160002060000160009054906101000a900460ff1615156118db576040517f08c379a00000000000000000000000000000000000000000000000000000000081526004018080602001828103825260138152602001807f574f524b5f444f45535f4e4f545f45584953540000000000000000000000000081525060200191505060405180910390fd5b806002600084815260200190815260200160002060000160016101000a81548160ff0219169083151502179055507f92544cd0b5fea6142ab048e0ea4e8b55f04fb3c2528b3c918875ed2a7a1a9e47826002600085815260200190815260200160002060040160009054906101000a900473ffffffffffffffffffffffffffffffffffffffff16600260008681526020019081526020016000206001015460026000878152602001908152602001600020600301546002600088815260200190815260200160002060000160019054906101000a900460ff16604051808681526020018573ffffffffffffffffffffffffffffffffffffffff1673ffffffffffffffffffffffffffffffffffffffff168152602001848152602001838152602001821515151581526020019550505050505060405180910390a15050565b611a21610d1f565b1515611a2c57600080fd5b611a3581611ae3565b50565b6000808284019050838110151515611a4f57600080fd5b8091505092915050565b600080831415611a6c5760009050611a91565b60008284029050828482811515611a7f57fe5b04141515611a8c57600080fd5b809150505b92915050565b60008082111515611aa757600080fd5b60008284811515611ab457fe5b0490508091505092915050565b6000828211151515611ad257600080fd5b600082840390508091505092915050565b600073ffffffffffffffffffffffffffffffffffffffff168173ffffffffffffffffffffffffffffffffffffffff1614151515611b1f57600080fd5b8073ffffffffffffffffffffffffffffffffffffffff166000809054906101000a900473ffffffffffffffffffffffffffffffffffffffff1673ffffffffffffffffffffffffffffffffffffffff167f8be0079c531659141344cd1fd0a4f28419497f9722a3daafe3b4186f6b6457e060405160405180910390a3806000806101000a81548173ffffffffffffffffffffffffffffffffffffffff021916908373ffffffffffffffffffffffffffffffffffffffff1602179055505056fea165627a7a723058200ee8a4dc900d0696881ade5665eeb761c18cbf2d0aa12856deb8467ccadd8df80029",
  "source": "pragma solidity ^0.5.0;\n\n/**\n * The FoliaController is an upgradeable endpoint for controlling Folia.sol\n */\n\nimport \"./Folia.sol\";\nimport \"openzeppelin-solidity/contracts/math/SafeMath.sol\";\nimport \"openzeppelin-solidity/contracts/ownership/Ownable.sol\";\n\ncontract FoliaController is Ownable {\n\n    event newWork(uint256 workId, address payable artist, uint256 editions, uint256 price, bool paused);\n    event updatedWork(uint256 workId, address payable artist, uint256 editions, uint256 price, bool paused);\n    event editionBought(uint256 workId, uint256 editionId, uint256 tokenId, address recipient, uint256 paid, uint256 artistReceived, uint256 adminReceived);\n\n    using SafeMath for uint256;\n\n    uint256 constant MAX_EDITIONS = 1000000;\n    uint256 public latestWorkId;\n\n    mapping (uint256 => Work) public works;\n    struct Work {\n        bool exists;\n        bool paused;\n        uint256 editions;\n        uint256 printed;\n        uint256 price;\n        address payable artist;\n    }\n\n    uint256 adminSplit = 20;\n\n    address payable public adminWallet;\n    bool public paused;\n    Folia public folia;\n\n    modifier notPaused() {\n        require(!paused, \"Must not be paused\");\n        _;\n    }\n\n    constructor(\n        Folia _folia,\n        address payable _adminWallet\n    ) public {\n        folia = _folia;\n        adminWallet = _adminWallet;\n    }\n\n    function addArtwork(address payable artist, uint256 editions, uint256 price, bool _paused) public onlyOwner {\n        require(editions < MAX_EDITIONS, \"MAX_EDITIONS_EXCEEDED\");\n\n        latestWorkId += 1;\n\n        works[latestWorkId].exists = true;\n        works[latestWorkId].editions = editions;\n        works[latestWorkId].price = price;\n        works[latestWorkId].artist = artist;\n        works[latestWorkId].paused = _paused;\n        emit newWork(latestWorkId, artist, editions, price, _paused);\n    }\n\n    function updateArtworkPaused(uint256 workId, bool _paused) public onlyOwner {\n        require(works[workId].exists, \"WORK_DOES_NOT_EXIST\");\n        works[workId].paused = _paused;\n        emit updatedWork(workId, works[workId].artist, works[workId].editions, works[workId].price, works[workId].paused);\n    }\n\n    function updateArtworkEditions(uint256 workId, uint256 _editions) public onlyOwner {\n        require(works[workId].exists, \"WORK_DOES_NOT_EXIST\");\n        require(works[workId].printed < _editions, \"WORK_EXCEEDS_EDITIONS\");\n        works[workId].editions = _editions;\n        emit updatedWork(workId, works[workId].artist, works[workId].editions, works[workId].price, works[workId].paused);\n    }\n\n    function updateArtworkPrice(uint256 workId, uint256 _price) public onlyOwner {\n        require(works[workId].exists, \"WORK_DOES_NOT_EXIST\");\n        works[workId].price = _price;\n        emit updatedWork(workId, works[workId].artist, works[workId].editions, works[workId].price, works[workId].paused);\n    }\n\n    function updateArtworkArtist(uint256 workId, address payable _artist) public onlyOwner {\n        require(works[workId].exists, \"WORK_DOES_NOT_EXIST\");\n        works[workId].artist = _artist;\n        emit updatedWork(workId, works[workId].artist, works[workId].editions, works[workId].price, works[workId].paused);\n    }\n\n    function buy(address recipient, uint256 workId) public payable notPaused returns (bool) {\n        require(!works[workId].paused, \"WORK_NOT_YET_FOR_SALE\");\n        require(works[workId].exists, \"WORK_DOES_NOT_EXIST\");\n        require(works[workId].editions > works[workId].printed, \"EDITIONS_EXCEEDED\");\n        require(msg.value == works[workId].price, \"DID_NOT_SEND_PRICE\");\n\n        uint256 editionId = works[workId].printed.add(1);\n        works[workId].printed = editionId;\n        \n        uint256 tokenId = workId.mul(MAX_EDITIONS).add(editionId);\n\n        folia.mint(recipient, tokenId);\n        \n        uint256 adminReceives = msg.value.mul(adminSplit).div(100);\n        uint256 artistReceives = msg.value.sub(adminReceives);\n\n        adminWallet.transfer(adminReceives);\n        works[workId].artist.transfer(artistReceives);\n\n        emit editionBought(workId, editionId, tokenId, recipient,  works[workId].price, artistReceives, adminReceives);\n    }\n\n    function updateAdminSplit(uint256 _adminSplit) public onlyOwner {\n        require(_adminSplit <= 100, \"SPLIT_MUST_BE_LTE_100\");\n        adminSplit = _adminSplit;\n    }\n\n    function updateAdminWallet(address payable _adminWallet) public onlyOwner {\n        adminWallet = _adminWallet;\n    }\n\n    function updatePaused(bool _paused) public onlyOwner {\n        paused = _paused;\n    }\n\n}\n",
  "sourcePath": "/Users/billy/GitHub/folia-app/folia-contracts/contracts/FoliaController.sol",
  "compiler": {
    "name": "solc",
    "version": "0.5.0+commit.1d4f565a.Emscripten.clang"
  },
  "schemaVersion": "3.0.5",
  "updatedAt": "2021-01-03T21:59:11.383Z",
  "devdoc": {
    "methods": {
      "isOwner()": {
        "return": "true if `msg.sender` is the owner of the contract."
      },
      "owner()": {
        "return": "the address of the owner."
      },
      "renounceOwnership()": {
        "details": "Allows the current owner to relinquish control of the contract."
      },
      "transferOwnership(address)": {
        "details": "Allows the current owner to transfer control of the contract to a newOwner.",
        "params": {
          "newOwner": "The address to transfer ownership to."
        }
      }
    }
  },
  "userdoc": {
    "methods": {
      "renounceOwnership()": {
        "notice": "Renouncing to ownership will leave the contract without an owner. It will not be possible to call the functions with the `onlyOwner` modifier anymore."
      }
    }
  }
}