{
  "contractName": "IMediaModified",
  "abi": [
    {
      "constant": true,
      "inputs": [],
      "name": "marketContract",
      "outputs": [
        {
          "name": "",
          "type": "address"
        }
      ],
      "payable": false,
      "stateMutability": "view",
      "type": "function"
    },
    {
      "constant": true,
      "inputs": [
        {
          "name": "",
          "type": "uint256"
        }
      ],
      "name": "tokenCreators",
      "outputs": [
        {
          "name": "",
          "type": "address"
        }
      ],
      "payable": false,
      "stateMutability": "view",
      "type": "function"
    }
  ],
  "bytecode": "0x608060405234801561001057600080fd5b506101ef806100206000396000f3fe60806040526004361061004c576000357c0100000000000000000000000000000000000000000000000000000000900463ffffffff168063a1794bcd14610051578063e0fd045f1461007c575b600080fd5b34801561005d57600080fd5b506100666100b9565b604051610073919061015e565b60405180910390f35b34801561008857600080fd5b506100a3600480360361009e9190810190610126565b6100df565b6040516100b0919061015e565b60405180910390f35b600160009054906101000a900473ffffffffffffffffffffffffffffffffffffffff1681565b60006020528060005260406000206000915054906101000a900473ffffffffffffffffffffffffffffffffffffffff1681565b600061011e82356101ab565b905092915050565b60006020828403121561013857600080fd5b600061014684828501610112565b91505092915050565b61015881610179565b82525050565b6000602082019050610173600083018461014f565b92915050565b60006101848261018b565b9050919050565b600073ffffffffffffffffffffffffffffffffffffffff82169050919050565b600081905091905056fea265627a7a7230582037c51eb306d9ba73799504974e3ae85bbad6c693b69ffef738cf7279da1f26576c6578706572696d656e74616cf50037",
  "source": "pragma solidity 0.5.0;\npragma experimental ABIEncoderV2;\n\nimport \"openzeppelin-solidity/contracts/math/SafeMath.sol\";\nimport \"openzeppelin-solidity/contracts/ownership/Ownable.sol\";\n\nimport \"openzeppelin-solidity/contracts/token/ERC721/IERC721.sol\";\nimport \"openzeppelin-solidity/contracts/introspection/IERC165.sol\";\nimport \"openzeppelin-solidity/contracts/utils/ReentrancyGuard.sol\";\n\ncontract IMediaModified {\n    mapping(uint256 => address) public tokenCreators;\n    address public marketContract;\n}\n\ncontract ReserveAuction is Ownable, ReentrancyGuard {\n    using SafeMath for uint256;\n\n    bool public paused;\n\n    uint256 public timeBuffer = 15 * 60; // extend 15 minutes after every bid made in last 15 minutes\n    uint256 public minBid = 1 * 10**17; // 0.1 eth\n\n    bytes4 constant interfaceId = 0x80ac58cd; // 721 interface id\n    address public nftAddress;\n\n    mapping(uint256 => Auction) public auctions;\n    uint256[] public tokenIds;\n\n    struct Auction {\n        bool exists;\n        uint256 amount;\n        uint256 tokenId;\n        uint256 duration;\n        uint256 firstBidTime;\n        uint256 reservePrice;\n        address payable creator;\n        address payable bidder;\n    }\n\n    modifier notPaused() {\n        require(!paused, \"Must not be paused\");\n        _;\n    }\n\n    event AuctionCreated(\n        uint256 tokenId,\n        address nftAddress,\n        uint256 duration,\n        uint256 reservePrice,\n        address creator\n    );\n    event AuctionBid(\n        uint256 tokenId,\n        address nftAddress,\n        address sender,\n        uint256 value,\n        uint256 timestamp,\n        bool firstBid,\n        bool extended\n    );\n    event AuctionEnded(\n        uint256 tokenId,\n        address nftAddress,\n        address creator,\n        address winner,\n        uint256 amount\n    );\n    event AuctionCanceled(\n        uint256 tokenId,\n        address nftAddress,\n        address creator\n    );\n\n    constructor(address _nftAddress) public {\n        require(\n            IERC165(_nftAddress).supportsInterface(interfaceId),\n            \"Doesn't support NFT interface\"\n        );\n        nftAddress = _nftAddress;\n    }\n\n    function updateNftAddress(address _nftAddress) public onlyOwner {\n        require(\n            IERC165(_nftAddress).supportsInterface(interfaceId),\n            \"Doesn't support NFT interface\"\n        );\n        nftAddress = _nftAddress;\n    }\n\n    function updateMinBid(uint256 _minBid) public onlyOwner {\n        minBid = _minBid;\n    }\n\n    function updateTimeBuffer(uint256 _timeBuffer) public onlyOwner {\n        timeBuffer = _timeBuffer;\n    }\n\n    function createAuction(\n        uint256 tokenId,\n        uint256 duration,\n        uint256 reservePrice,\n        address payable creator\n    ) external notPaused {\n        require(!auctions[tokenId].exists, \"Auction already exists\");\n\n        tokenIds.push(tokenId);\n\n        auctions[tokenId].exists = true;\n        auctions[tokenId].duration = duration;\n        auctions[tokenId].reservePrice = reservePrice;\n        auctions[tokenId].creator = creator;\n\n        IERC721(nftAddress).transferFrom(creator, address(this), tokenId);\n\n        emit AuctionCreated(tokenId, nftAddress, duration, reservePrice, creator);\n    }\n\n    function createBid(uint256 tokenId) external payable notPaused {\n        require(auctions[tokenId].exists, \"Auction doesn't exist\");\n        require(\n            msg.value >= auctions[tokenId].reservePrice,\n            \"Must send reservePrice or more\"\n        );\n        require(\n            auctions[tokenId].firstBidTime == 0 ||\n                block.timestamp <\n                auctions[tokenId].firstBidTime + auctions[tokenId].duration,\n            \"Auction expired\"\n        );\n\n        uint256 lastValue = auctions[tokenId].amount;\n\n        bool firstBid;\n        address payable lastBidder;\n\n        // allows for auctions with starting price of 0\n        if (lastValue != 0) {\n            require(msg.value > lastValue, \"Must send more than last bid\");\n            require(\n                msg.value.sub(lastValue) >= minBid,\n                \"Must send more than last bid by minBid Amount\"\n            );\n            lastBidder = auctions[tokenId].bidder;\n        } else {\n            firstBid = true;\n            auctions[tokenId].firstBidTime = block.timestamp;\n        }\n\n        auctions[tokenId].amount = msg.value;\n        auctions[tokenId].bidder = msg.sender;\n\n        bool extended;\n        // at this point we know that the timestamp is less than start + duration\n        // we want to know by how much the timestamp is less than start + duration\n        // if the difference is less than the timeBuffer, increase the duration by the timeBuffer\n        if (\n            (auctions[tokenId].firstBidTime.add(auctions[tokenId].duration))\n                .sub(block.timestamp) < timeBuffer\n        ) {\n            auctions[tokenId].duration += timeBuffer;\n            extended = true;\n        }\n\n        if (!firstBid) {\n            lastBidder.transfer(lastValue);\n        }\n\n        emit AuctionBid(\n            tokenId,\n            nftAddress,\n            msg.sender,\n            msg.value,\n            block.timestamp,\n            firstBid,\n            extended\n        );\n    }\n\n    function endAuction(uint256 tokenId) external notPaused {\n        require(auctions[tokenId].exists, \"Auction doesn't exist\");\n        require(\n            uint256(auctions[tokenId].firstBidTime) != 0,\n            \"Auction hasn't begun\"\n        );\n        require(\n            block.timestamp >=\n                auctions[tokenId].firstBidTime + auctions[tokenId].duration,\n            \"Auction hasn't completed\"\n        );\n\n        address winner = auctions[tokenId].bidder;\n        uint256 amount = auctions[tokenId].amount;\n        address payable creator = auctions[tokenId].creator;\n\n        emit AuctionEnded(tokenId, nftAddress, creator, winner, amount);\n        delete auctions[tokenId];\n\n        IERC721(nftAddress).transferFrom(address(this), winner, tokenId);\n        creator.transfer(amount);\n    }\n\n    function cancelAuction(uint256 tokenId) external {\n        require(auctions[tokenId].exists, \"Auction doesn't exist\");\n        require(\n            auctions[tokenId].creator == msg.sender || msg.sender == owner(),\n            \"Can only be called by auction creator or owner\"\n        );\n        require(\n            uint256(auctions[tokenId].firstBidTime) == 0,\n            \"Can't cancel an auction once it's begun\"\n        );\n        address creator = auctions[tokenId].creator;\n        IERC721(nftAddress).transferFrom(address(this), creator, tokenId);\n        emit AuctionCanceled(tokenId, nftAddress, creator);\n        delete auctions[tokenId];\n    }\n\n    function updatePaused(bool _paused) public onlyOwner {\n        paused = _paused;\n    }\n}\n",
  "sourcePath": "/Users/billy/GitHub/folia-app/folia-contracts/contracts/ReserveAuction.sol",
  "compiler": {
    "name": "solc",
    "version": "0.5.0+commit.1d4f565a.Emscripten.clang"
  },
  "schemaVersion": "3.0.5",
  "updatedAt": "2021-03-14T16:16:51.154Z",
  "devdoc": {
    "methods": {}
  },
  "userdoc": {
    "methods": {}
  }
}