{
  "contractName": "LTDController",
  "abi": [
    {
      "constant": true,
      "inputs": [],
      "name": "lightestToDarkest",
      "outputs": [
        {
          "name": "",
          "type": "address"
        }
      ],
      "payable": false,
      "stateMutability": "view",
      "type": "function"
    },
    {
      "constant": true,
      "inputs": [],
      "name": "adminWallet",
      "outputs": [
        {
          "name": "",
          "type": "address"
        }
      ],
      "payable": false,
      "stateMutability": "view",
      "type": "function"
    },
    {
      "constant": true,
      "inputs": [],
      "name": "paused",
      "outputs": [
        {
          "name": "",
          "type": "bool"
        }
      ],
      "payable": false,
      "stateMutability": "view",
      "type": "function"
    },
    {
      "constant": false,
      "inputs": [],
      "name": "renounceOwnership",
      "outputs": [],
      "payable": false,
      "stateMutability": "nonpayable",
      "type": "function"
    },
    {
      "constant": true,
      "inputs": [
        {
          "name": "",
          "type": "address"
        }
      ],
      "name": "editionsLeft",
      "outputs": [
        {
          "name": "",
          "type": "uint256"
        }
      ],
      "payable": false,
      "stateMutability": "view",
      "type": "function"
    },
    {
      "constant": true,
      "inputs": [],
      "name": "owner",
      "outputs": [
        {
          "name": "",
          "type": "address"
        }
      ],
      "payable": false,
      "stateMutability": "view",
      "type": "function"
    },
    {
      "constant": true,
      "inputs": [],
      "name": "isOwner",
      "outputs": [
        {
          "name": "",
          "type": "bool"
        }
      ],
      "payable": false,
      "stateMutability": "view",
      "type": "function"
    },
    {
      "constant": true,
      "inputs": [],
      "name": "price",
      "outputs": [
        {
          "name": "",
          "type": "uint256"
        }
      ],
      "payable": false,
      "stateMutability": "view",
      "type": "function"
    },
    {
      "constant": true,
      "inputs": [],
      "name": "artistWallet",
      "outputs": [
        {
          "name": "",
          "type": "address"
        }
      ],
      "payable": false,
      "stateMutability": "view",
      "type": "function"
    },
    {
      "constant": true,
      "inputs": [],
      "name": "totalMax",
      "outputs": [
        {
          "name": "",
          "type": "uint256"
        }
      ],
      "payable": false,
      "stateMutability": "view",
      "type": "function"
    },
    {
      "constant": true,
      "inputs": [],
      "name": "adminSplit",
      "outputs": [
        {
          "name": "",
          "type": "uint256"
        }
      ],
      "payable": false,
      "stateMutability": "view",
      "type": "function"
    },
    {
      "constant": false,
      "inputs": [
        {
          "name": "newOwner",
          "type": "address"
        }
      ],
      "name": "transferOwnership",
      "outputs": [],
      "payable": false,
      "stateMutability": "nonpayable",
      "type": "function"
    },
    {
      "inputs": [
        {
          "name": "_lightestToDarkest",
          "type": "address"
        },
        {
          "name": "_adminWallet",
          "type": "address"
        }
      ],
      "payable": false,
      "stateMutability": "nonpayable",
      "type": "constructor"
    },
    {
      "anonymous": false,
      "inputs": [
        {
          "indexed": false,
          "name": "contractAddress",
          "type": "address"
        },
        {
          "indexed": false,
          "name": "maxEditions",
          "type": "uint256"
        }
      ],
      "name": "newContract",
      "type": "event"
    },
    {
      "anonymous": false,
      "inputs": [
        {
          "indexed": false,
          "name": "contractAddress",
          "type": "address"
        }
      ],
      "name": "deletedContract",
      "type": "event"
    },
    {
      "anonymous": false,
      "inputs": [
        {
          "indexed": false,
          "name": "contractAddress",
          "type": "address"
        },
        {
          "indexed": false,
          "name": "tokenId",
          "type": "uint256"
        },
        {
          "indexed": false,
          "name": "newTokenId",
          "type": "uint256"
        }
      ],
      "name": "editionBought",
      "type": "event"
    },
    {
      "anonymous": false,
      "inputs": [
        {
          "indexed": true,
          "name": "previousOwner",
          "type": "address"
        },
        {
          "indexed": true,
          "name": "newOwner",
          "type": "address"
        }
      ],
      "name": "OwnershipTransferred",
      "type": "event"
    },
    {
      "constant": false,
      "inputs": [
        {
          "name": "contractAddress",
          "type": "address"
        },
        {
          "name": "maxEditions",
          "type": "uint256"
        }
      ],
      "name": "addContract",
      "outputs": [],
      "payable": false,
      "stateMutability": "nonpayable",
      "type": "function"
    },
    {
      "constant": false,
      "inputs": [
        {
          "name": "contractAddress",
          "type": "address"
        }
      ],
      "name": "removeContract",
      "outputs": [],
      "payable": false,
      "stateMutability": "nonpayable",
      "type": "function"
    },
    {
      "constant": false,
      "inputs": [
        {
          "name": "_price",
          "type": "uint256"
        }
      ],
      "name": "updateArtworkPrice",
      "outputs": [],
      "payable": false,
      "stateMutability": "nonpayable",
      "type": "function"
    },
    {
      "constant": false,
      "inputs": [
        {
          "name": "_artistWallet",
          "type": "address"
        }
      ],
      "name": "updateArtistWallet",
      "outputs": [],
      "payable": false,
      "stateMutability": "nonpayable",
      "type": "function"
    },
    {
      "constant": false,
      "inputs": [
        {
          "name": "_totalMax",
          "type": "uint256"
        }
      ],
      "name": "updateTotalMax",
      "outputs": [],
      "payable": false,
      "stateMutability": "nonpayable",
      "type": "function"
    },
    {
      "constant": false,
      "inputs": [
        {
          "name": "recipient",
          "type": "address"
        },
        {
          "name": "contractAddress",
          "type": "address"
        },
        {
          "name": "tokenId",
          "type": "uint256"
        }
      ],
      "name": "buy",
      "outputs": [
        {
          "name": "",
          "type": "bool"
        }
      ],
      "payable": true,
      "stateMutability": "payable",
      "type": "function"
    },
    {
      "constant": false,
      "inputs": [
        {
          "name": "_adminSplit",
          "type": "uint256"
        }
      ],
      "name": "updateAdminSplit",
      "outputs": [],
      "payable": false,
      "stateMutability": "nonpayable",
      "type": "function"
    },
    {
      "constant": false,
      "inputs": [
        {
          "name": "_adminWallet",
          "type": "address"
        }
      ],
      "name": "updateAdminWallet",
      "outputs": [],
      "payable": false,
      "stateMutability": "nonpayable",
      "type": "function"
    },
    {
      "constant": false,
      "inputs": [
        {
          "name": "_paused",
          "type": "bool"
        }
      ],
      "name": "updatePaused",
      "outputs": [],
      "payable": false,
      "stateMutability": "nonpayable",
      "type": "function"
    }
  ],
  "bytecode": "0x608060405267011c37937e080000600255610378600355601460065534801561002757600080fd5b506040516040806112858339810180604052604081101561004757600080fd5b50805160209091015160008054600160a060020a0319163317808255604051600160a060020a039190911691907f8be0079c531659141344cd1fd0a4f28419497f9722a3daafe3b4186f6b6457e0908290a36001805560058054600160a060020a03938416600160a060020a031991821617909155600780549290931691161790556111ad806100d86000396000f3fe60806040526004361061011c5763ffffffff7c010000000000000000000000000000000000000000000000000000000060003504166308cdc2a88114610121578063153e66e61461014f5780631a96123f146101a657806336b19cd7146101e45780634cd31e73146101f95780635c975abb146102235780635eec087014610238578063715018a61461027857806371eca1151461028d578063858c4d39146102b75780638da5cb5b146103095780638f32d59b1461031e57806396af667f14610333578063a035b1fe1461035d578063a3342fba14610372578063a37f85a114610387578063b5522e891461039c578063c375c2ef146103e2578063d792440b14610422578063df01e4bf14610437578063f2fde38b14610477575b600080fd5b34801561012d57600080fd5b5061014d6004803603602081101561014457600080fd5b503515156104b7565b005b6101926004803603606081101561016557600080fd5b5073ffffffffffffffffffffffffffffffffffffffff813581169160208101359091169060400135610514565b604080519115158252519081900360200190f35b3480156101b257600080fd5b506101bb610b74565b6040805173ffffffffffffffffffffffffffffffffffffffff9092168252519081900360200190f35b3480156101f057600080fd5b506101bb610b90565b34801561020557600080fd5b5061014d6004803603602081101561021c57600080fd5b5035610bac565b34801561022f57600080fd5b50610192610c34565b34801561024457600080fd5b5061014d6004803603602081101561025b57600080fd5b503573ffffffffffffffffffffffffffffffffffffffff16610c55565b34801561028457600080fd5b5061014d610caf565b34801561029957600080fd5b5061014d600480360360208110156102b057600080fd5b5035610d31565b3480156102c357600080fd5b506102f7600480360360208110156102da57600080fd5b503573ffffffffffffffffffffffffffffffffffffffff16610d49565b60408051918252519081900360200190f35b34801561031557600080fd5b506101bb610d5b565b34801561032a57600080fd5b50610192610d77565b34801561033f57600080fd5b5061014d6004803603602081101561035657600080fd5b5035610d95565b34801561036957600080fd5b506102f7610dad565b34801561037e57600080fd5b506101bb610db3565b34801561039357600080fd5b506102f7610dcf565b3480156103a857600080fd5b5061014d600480360360408110156103bf57600080fd5b5073ffffffffffffffffffffffffffffffffffffffff8135169060200135610dd5565b3480156103ee57600080fd5b5061014d6004803603602081101561040557600080fd5b503573ffffffffffffffffffffffffffffffffffffffff16610f73565b34801561042e57600080fd5b506102f7610fe6565b34801561044357600080fd5b5061014d6004803603602081101561045a57600080fd5b503573ffffffffffffffffffffffffffffffffffffffff16610fec565b34801561048357600080fd5b5061014d6004803603602081101561049a57600080fd5b503573ffffffffffffffffffffffffffffffffffffffff16611046565b6104bf610d77565b15156104ca57600080fd5b6008805491151574010000000000000000000000000000000000000000027fffffffffffffffffffffff00ffffffffffffffffffffffffffffffffffffffff909216919091179055565b60085460009074010000000000000000000000000000000000000000900460ff16156105a157604080517f08c379a000000000000000000000000000000000000000000000000000000000815260206004820152601260248201527f4d757374206e6f74206265207061757365640000000000000000000000000000604482015290519081900360640190fd5b6001805481019081905573ffffffffffffffffffffffffffffffffffffffff8416600090815260046020526040902054151561066457604080517f08c379a000000000000000000000000000000000000000000000000000000000815260206004820152602260248201527f57726f6e6720436f6e7472616374206f72204e6f2045646974696f6e73204c6560448201527f6674000000000000000000000000000000000000000000000000000000000000606482015290519081900360840190fd5b73ffffffffffffffffffffffffffffffffffffffff8416600090815260046020526040902080547fffffffffffffffffffffffffffffffffffffffffffffffffffffffffffffffff019055600254341461071f57604080517f08c379a000000000000000000000000000000000000000000000000000000000815260206004820152601060248201527f57726f6e67207072696365207061696400000000000000000000000000000000604482015290519081900360640190fd5b3373ffffffffffffffffffffffffffffffffffffffff168473ffffffffffffffffffffffffffffffffffffffff16636352211e856040518263ffffffff167c01000000000000000000000000000000000000000000000000000000000281526004018082815260200191505060206040518083038186803b1580156107a357600080fd5b505afa1580156107b7573d6000803e3d6000fd5b505050506040513d60208110156107cd57600080fd5b505173ffffffffffffffffffffffffffffffffffffffff161461085157604080517f08c379a000000000000000000000000000000000000000000000000000000000815260206004820181905260248201527f43616e2774206d696e74206120746f6b656e20796f7520646f6e2774206f776e604482015290519081900360640190fd5b6040805173ffffffffffffffffffffffffffffffffffffffff8681166c010000000000000000000000000260208084019190915260348084018890528451808503909101815260548401808652815191909201206005547f40c10f190000000000000000000000000000000000000000000000000000000090925289831660588501526078840181905293519116916340c10f1991609880830192600092919082900301818387803b15801561090657600080fd5b505af115801561091a573d6000803e3d6000fd5b505050506000610946606461093a6006543461106590919063ffffffff16565b9063ffffffff61109916565b9050600061095a348363ffffffff6110bd16565b60075460405191925060009173ffffffffffffffffffffffffffffffffffffffff9091169084908381818185875af1925050503d80600081146109b9576040519150601f19603f3d011682016040523d82523d6000602084013e6109be565b606091505b50509050801515610a3057604080517f08c379a000000000000000000000000000000000000000000000000000000000815260206004820152601760248201527f61646d696e206661696c656420746f2072656365697665000000000000000000604482015290519081900360640190fd5b60085460405173ffffffffffffffffffffffffffffffffffffffff909116908390600081818185875af1925050503d8060008114610a8a576040519150601f19603f3d011682016040523d82523d6000602084013e610a8f565b606091505b5090915050801515610b0257604080517f08c379a000000000000000000000000000000000000000000000000000000000815260206004820152601860248201527f617274697374206661696c656420746f20726563656976650000000000000000604482015290519081900360640190fd5b6040805173ffffffffffffffffffffffffffffffffffffffff8a1681526020810189905280820186905290517f2088abfb2df177e9561e5ed597c9e58ac0598bf4f7fbd1425fc25735abc875e09181900360600190a15050505060015481141515610b6c57600080fd5b509392505050565b60055473ffffffffffffffffffffffffffffffffffffffff1681565b60075473ffffffffffffffffffffffffffffffffffffffff1681565b610bb4610d77565b1515610bbf57600080fd5b6064811115610c2f57604080517f08c379a000000000000000000000000000000000000000000000000000000000815260206004820152601560248201527f53504c49545f4d5553545f42455f4c54455f3130300000000000000000000000604482015290519081900360640190fd5b600655565b60085474010000000000000000000000000000000000000000900460ff1681565b610c5d610d77565b1515610c6857600080fd5b600780547fffffffffffffffffffffffff00000000000000000000000000000000000000001673ffffffffffffffffffffffffffffffffffffffff92909216919091179055565b610cb7610d77565b1515610cc257600080fd5b6000805460405173ffffffffffffffffffffffffffffffffffffffff909116907f8be0079c531659141344cd1fd0a4f28419497f9722a3daafe3b4186f6b6457e0908390a3600080547fffffffffffffffffffffffff0000000000000000000000000000000000000000169055565b610d39610d77565b1515610d4457600080fd5b600355565b60046020526000908152604090205481565b60005473ffffffffffffffffffffffffffffffffffffffff1690565b60005473ffffffffffffffffffffffffffffffffffffffff16331490565b610d9d610d77565b1515610da857600080fd5b600255565b60025481565b60085473ffffffffffffffffffffffffffffffffffffffff1681565b60035481565b610ddd610d77565b1515610de857600080fd5b604080517f01ffc9a70000000000000000000000000000000000000000000000000000000081527f80ac58cd000000000000000000000000000000000000000000000000000000006004820152905173ffffffffffffffffffffffffffffffffffffffff8416916301ffc9a7916024808301926020929190829003018186803b158015610e7457600080fd5b505afa158015610e88573d6000803e3d6000fd5b505050506040513d6020811015610e9e57600080fd5b50511515610f0d57604080517f08c379a000000000000000000000000000000000000000000000000000000000815260206004820152600d60248201527f4e6f7420616e2045524337323100000000000000000000000000000000000000604482015290519081900360640190fd5b73ffffffffffffffffffffffffffffffffffffffff82166000818152600460209081526040918290208490558151928352820183905280517f2a6b1772d62b07159b37d7476f8bf8feb6d050835041de1782339f7dab30c27a9281900390910190a15050565b610f7b610d77565b1515610f8657600080fd5b73ffffffffffffffffffffffffffffffffffffffff8116600081815260046020908152604080832092909255815192835290517fd3840f2b66d1e3a61ffdc026ab468057800950090c80d328846619783e386d7c9281900390910190a150565b60065481565b610ff4610d77565b1515610fff57600080fd5b600880547fffffffffffffffffffffffff00000000000000000000000000000000000000001673ffffffffffffffffffffffffffffffffffffffff92909216919091179055565b61104e610d77565b151561105957600080fd5b611062816110d2565b50565b600082151561107657506000611093565b82820282848281151561108557fe5b041461109057600080fd5b90505b92915050565b60008082116110a757600080fd5b600082848115156110b457fe5b04949350505050565b6000828211156110cc57600080fd5b50900390565b73ffffffffffffffffffffffffffffffffffffffff811615156110f457600080fd5b6000805460405173ffffffffffffffffffffffffffffffffffffffff808516939216917f8be0079c531659141344cd1fd0a4f28419497f9722a3daafe3b4186f6b6457e091a3600080547fffffffffffffffffffffffff00000000000000000000000000000000000000001673ffffffffffffffffffffffffffffffffffffffff9290921691909117905556fea165627a7a723058200bcd14f9bdff32af0c1521085789f6e9fa9ab23f431f3b8649b0cd967f1979930029",
  "source": "pragma solidity ^0.5.0;\n/**\n * The FoliaControllerV2 is an upgradeable endpoint for controlling Folia.sol\n */\n\nimport \"./LTD.sol\";\nimport \"./SafeMath.sol\";\nimport \"./Ownable.sol\";\nimport \"./ReentrancyGuard.sol\";\nimport \"./IERC721.sol\";\nimport \"./IERC165.sol\";\n\ncontract LTDController is Ownable, ReentrancyGuard {\n\n    using SafeMath for uint256;\n\n    event newContract(address contractAddress, uint256 maxEditions);\n    event deletedContract(address contractAddress);\n    event editionBought(address contractAddress, uint256 tokenId, uint256 newTokenId);\n    uint256 public price = 8 * (10**16); // 0.08 Eth\n    uint256 public totalMax = 888;\n    mapping(address => uint256) public editionsLeft;\n\n    LTD public lightestToDarkest;\n\n    uint256 public adminSplit = 20;\n    address payable public adminWallet;\n    address payable public artistWallet;\n    bool public paused;\n\n    modifier notPaused() {\n        require(!paused, \"Must not be paused\");\n        _;\n    }\n\n    constructor(\n        LTD _lightestToDarkest,\n        address payable _adminWallet\n    ) public {\n        lightestToDarkest = _lightestToDarkest;\n        adminWallet = _adminWallet;\n    }\n\n    // can be re-used as an \"updateContractEditionSize\"\n    function addContract(address contractAddress, uint256 maxEditions) public onlyOwner {\n      require(IERC165(contractAddress).supportsInterface(0x80ac58cd), \"Not an ERC721\");\n      editionsLeft[contractAddress] = maxEditions;\n      emit newContract(contractAddress, maxEditions);\n    }\n    \n    function removeContract(address contractAddress) public onlyOwner {\n      delete editionsLeft[contractAddress];\n      emit deletedContract(contractAddress);\n    }\n\n    function updateArtworkPrice(uint256 _price) public onlyOwner {\n      price = _price;\n    }\n\n    function updateArtistWallet(address payable _artistWallet) public onlyOwner {\n      artistWallet = _artistWallet;\n    }\n\n    function updateTotalMax(uint256 _totalMax) public onlyOwner {\n      totalMax = _totalMax;\n    }\n\n    function buy(address recipient, address contractAddress, uint256 tokenId) public payable notPaused nonReentrant returns(bool) {\n        require(editionsLeft[contractAddress] != 0, \"Wrong Contract or No Editions Left\");\n        editionsLeft[contractAddress] -= 1;\n\n        require(msg.value == price, \"Wrong price paid\");\n        require(IERC721(contractAddress).ownerOf(tokenId) == msg.sender, \"Can't mint a token you don't own\");\n\n        uint256 newTokenId = uint256(keccak256(abi.encodePacked(contractAddress, tokenId)));\n        lightestToDarkest.mint(recipient, newTokenId);\n\n        uint256 adminReceives = msg.value.mul(adminSplit).div(100);\n        uint256 artistReceives = msg.value.sub(adminReceives);\n\n        (bool success, ) = adminWallet.call.value(adminReceives)(\"\");\n        require(success, \"admin failed to receive\");\n\n        (success, ) = artistWallet.call.value(artistReceives)(\"\");\n        require(success, \"artist failed to receive\");\n\n        emit editionBought(contractAddress, tokenId, newTokenId);\n    }\n\n    function updateAdminSplit(uint256 _adminSplit) public onlyOwner {\n        require(_adminSplit <= 100, \"SPLIT_MUST_BE_LTE_100\");\n        adminSplit = _adminSplit;\n    }\n\n    function updateAdminWallet(address payable _adminWallet) public onlyOwner {\n        adminWallet = _adminWallet;\n    }\n\n    function updatePaused(bool _paused) public onlyOwner {\n        paused = _paused;\n    }\n}\n",
  "sourcePath": "/Users/billy/GitHub/folia-app/folia-contracts/contracts/LTDController.sol",
  "compiler": {
    "name": "solc",
    "version": "0.5.0+commit.1d4f565a.Emscripten.clang"
  },
  "schemaVersion": "3.4.3",
  "updatedAt": "2022-02-13T20:00:08.696Z",
  "networkType": "ethereum",
  "devdoc": {
    "methods": {
      "isOwner()": {
        "return": "true if `msg.sender` is the owner of the contract."
      },
      "owner()": {
        "return": "the address of the owner."
      },
      "renounceOwnership()": {
        "details": "Allows the current owner to relinquish control of the contract."
      },
      "transferOwnership(address)": {
        "details": "Allows the current owner to transfer control of the contract to a newOwner.",
        "params": {
          "newOwner": "The address to transfer ownership to."
        }
      }
    }
  },
  "userdoc": {
    "methods": {
      "renounceOwnership()": {
        "notice": "Renouncing to ownership will leave the contract without an owner. It will not be possible to call the functions with the `onlyOwner` modifier anymore."
      }
    }
  }
}