{
  "contractName": "LuxController",
  "abi": [
    {
      "constant": true,
      "inputs": [],
      "name": "lux",
      "outputs": [
        {
          "name": "",
          "type": "address"
        }
      ],
      "payable": false,
      "stateMutability": "view",
      "type": "function"
    },
    {
      "constant": true,
      "inputs": [],
      "name": "adminWallet",
      "outputs": [
        {
          "name": "",
          "type": "address"
        }
      ],
      "payable": false,
      "stateMutability": "view",
      "type": "function"
    },
    {
      "constant": true,
      "inputs": [],
      "name": "luxERC20",
      "outputs": [
        {
          "name": "",
          "type": "address"
        }
      ],
      "payable": false,
      "stateMutability": "view",
      "type": "function"
    },
    {
      "constant": true,
      "inputs": [],
      "name": "paused",
      "outputs": [
        {
          "name": "",
          "type": "bool"
        }
      ],
      "payable": false,
      "stateMutability": "view",
      "type": "function"
    },
    {
      "constant": false,
      "inputs": [],
      "name": "renounceOwnership",
      "outputs": [],
      "payable": false,
      "stateMutability": "nonpayable",
      "type": "function"
    },
    {
      "constant": true,
      "inputs": [],
      "name": "owner",
      "outputs": [
        {
          "name": "",
          "type": "address"
        }
      ],
      "payable": false,
      "stateMutability": "view",
      "type": "function"
    },
    {
      "constant": true,
      "inputs": [],
      "name": "isOwner",
      "outputs": [
        {
          "name": "",
          "type": "bool"
        }
      ],
      "payable": false,
      "stateMutability": "view",
      "type": "function"
    },
    {
      "constant": true,
      "inputs": [],
      "name": "artistWallet",
      "outputs": [
        {
          "name": "",
          "type": "address"
        }
      ],
      "payable": false,
      "stateMutability": "view",
      "type": "function"
    },
    {
      "constant": true,
      "inputs": [],
      "name": "adminSplit",
      "outputs": [
        {
          "name": "",
          "type": "uint256"
        }
      ],
      "payable": false,
      "stateMutability": "view",
      "type": "function"
    },
    {
      "constant": true,
      "inputs": [
        {
          "name": "",
          "type": "uint256"
        }
      ],
      "name": "claimed",
      "outputs": [
        {
          "name": "",
          "type": "bool"
        }
      ],
      "payable": false,
      "stateMutability": "view",
      "type": "function"
    },
    {
      "constant": true,
      "inputs": [
        {
          "name": "",
          "type": "uint256"
        }
      ],
      "name": "tokenIntervals",
      "outputs": [
        {
          "name": "",
          "type": "uint256"
        }
      ],
      "payable": false,
      "stateMutability": "view",
      "type": "function"
    },
    {
      "constant": true,
      "inputs": [
        {
          "name": "",
          "type": "uint256"
        }
      ],
      "name": "tokenPriceIntervals",
      "outputs": [
        {
          "name": "",
          "type": "uint256"
        }
      ],
      "payable": false,
      "stateMutability": "view",
      "type": "function"
    },
    {
      "constant": false,
      "inputs": [
        {
          "name": "newOwner",
          "type": "address"
        }
      ],
      "name": "transferOwnership",
      "outputs": [],
      "payable": false,
      "stateMutability": "nonpayable",
      "type": "function"
    },
    {
      "inputs": [
        {
          "name": "_lux",
          "type": "address"
        },
        {
          "name": "_luxERC20",
          "type": "address"
        },
        {
          "name": "_adminWallet",
          "type": "address"
        }
      ],
      "payable": false,
      "stateMutability": "nonpayable",
      "type": "constructor"
    },
    {
      "anonymous": false,
      "inputs": [
        {
          "indexed": true,
          "name": "previousOwner",
          "type": "address"
        },
        {
          "indexed": true,
          "name": "newOwner",
          "type": "address"
        }
      ],
      "name": "OwnershipTransferred",
      "type": "event"
    },
    {
      "constant": false,
      "inputs": [
        {
          "name": "interval",
          "type": "uint256"
        }
      ],
      "name": "claim",
      "outputs": [],
      "payable": true,
      "stateMutability": "payable",
      "type": "function"
    },
    {
      "constant": false,
      "inputs": [
        {
          "name": "_artistWallet",
          "type": "address"
        }
      ],
      "name": "updateArtistWallet",
      "outputs": [],
      "payable": false,
      "stateMutability": "nonpayable",
      "type": "function"
    },
    {
      "constant": false,
      "inputs": [
        {
          "name": "_adminSplit",
          "type": "uint256"
        }
      ],
      "name": "updateAdminSplit",
      "outputs": [],
      "payable": false,
      "stateMutability": "nonpayable",
      "type": "function"
    },
    {
      "constant": false,
      "inputs": [
        {
          "name": "_adminWallet",
          "type": "address"
        }
      ],
      "name": "updateAdminWallet",
      "outputs": [],
      "payable": false,
      "stateMutability": "nonpayable",
      "type": "function"
    },
    {
      "constant": false,
      "inputs": [
        {
          "name": "_paused",
          "type": "bool"
        }
      ],
      "name": "updatePaused",
      "outputs": [],
      "payable": false,
      "stateMutability": "nonpayable",
      "type": "function"
    }
  ],
  "bytecode": "0x601460045561012060405262015180608090815262093a8060a05262278d0060c052624f1a0060e0526276a7006101005261003e90600790600561016e565b506040805160a08101825268058788cb94b1d8000081526803f514193abb8400006020820152680246ddf979766800009181019190915267a688906bd8b000006060820152671bc16d674ec80000608082015261009f9060089060056101b9565b503480156100ac57600080fd5b50604051606080610e4f833981018060405260608110156100cc57600080fd5b508051602082015160409283015160008054600160a060020a03191633178082559451939492939192600160a060020a0316917f8be0079c531659141344cd1fd0a4f28419497f9722a3daafe3b4186f6b6457e0908290a36001805560028054600160a060020a03948516600160a060020a03199182161790915560038054938516938216939093179092556005805491909316911617905542600a5561021c565b8280548282559060005260206000209081019282156101a9579160200282015b828111156101a957825182559160200191906001019061018e565b506101b59291506101ff565b5090565b8280548282559060005260206000209081019282156101a9579160200282015b828111156101a957825182906001604860020a03169055916020019190600101906101d9565b61021991905b808211156101b55760008155600101610205565b90565b610c248061022b6000396000f3fe6080604052600436106100fb5763ffffffff7c01000000000000000000000000000000000000000000000000000000006000350416630741ed67811461010057806308cdc2a81461013e57806336b19cd71461016c578063379607f5146101815780634cd31e731461019e5780635709e4c8146101c85780635c975abb146101dd5780635eec087014610206578063715018a6146102465780638da5cb5b1461025b5780638f32d59b14610270578063a3342fba14610285578063d792440b1461029a578063dbe7e3bd146102c1578063df01e4bf146102eb578063f0c6a6c81461032b578063f1cfeb0e14610355578063f2fde38b1461037f575b600080fd5b34801561010c57600080fd5b506101156103bf565b6040805173ffffffffffffffffffffffffffffffffffffffff9092168252519081900360200190f35b34801561014a57600080fd5b5061016a6004803603602081101561016157600080fd5b503515156103db565b005b34801561017857600080fd5b50610115610438565b61016a6004803603602081101561019757600080fd5b5035610454565b3480156101aa57600080fd5b5061016a600480360360208110156101c157600080fd5b50356107e3565b3480156101d457600080fd5b5061011561086b565b3480156101e957600080fd5b506101f2610887565b604080519115158252519081900360200190f35b34801561021257600080fd5b5061016a6004803603602081101561022957600080fd5b503573ffffffffffffffffffffffffffffffffffffffff166108a8565b34801561025257600080fd5b5061016a610902565b34801561026757600080fd5b50610115610984565b34801561027c57600080fd5b506101f26109a0565b34801561029157600080fd5b506101156109be565b3480156102a657600080fd5b506102af6109da565b60408051918252519081900360200190f35b3480156102cd57600080fd5b506101f2600480360360208110156102e457600080fd5b50356109e0565b3480156102f757600080fd5b5061016a6004803603602081101561030e57600080fd5b503573ffffffffffffffffffffffffffffffffffffffff16610a12565b34801561033757600080fd5b506102af6004803603602081101561034e57600080fd5b5035610a6c565b34801561036157600080fd5b506102af6004803603602081101561037857600080fd5b5035610a8b565b34801561038b57600080fd5b5061016a600480360360208110156103a257600080fd5b503573ffffffffffffffffffffffffffffffffffffffff16610a99565b60025473ffffffffffffffffffffffffffffffffffffffff1681565b6103e36109a0565b15156103ee57600080fd5b6006805491151574010000000000000000000000000000000000000000027fffffffffffffffffffffff00ffffffffffffffffffffffffffffffffffffffff909216919091179055565b60055473ffffffffffffffffffffffffffffffffffffffff1681565b60085481106104c457604080517f08c379a000000000000000000000000000000000000000000000000000000000815260206004820152601b60248201527f6e6f20746f6b656e2077697468207468617420696e74657276616c0000000000604482015290519081900360640190fd5b600a5442906000906104dd90839063ffffffff610ab816565b9050600061050d6007858154811015156104f357fe5b906000526020600020015483610ad290919063ffffffff16565b905080151561051a575060015b600061054860088681548110151561052e57fe5b906000526020600020015483610af390919063ffffffff16565b9050348111156105b957604080517f08c379a000000000000000000000000000000000000000000000000000000000815260206004820152601960248201527f6469646e277420696e636c75646520656e6f7567682065746800000000000000604482015290519081900360640190fd5b60098054869081106105c757fe5b60009182526020918290209181049091015460ff601f9092166101000a9004161561065357604080517f08c379a000000000000000000000000000000000000000000000000000000000815260206004820152600f60248201527f616c726561647920636c61696d65640000000000000000000000000000000000604482015290519081900360640190fd5b600160098681548110151561066457fe5b60009182526020808320908204018054931515601f9092166101000a91820260ff9092021990931617909155600254604080517f40c10f1900000000000000000000000000000000000000000000000000000000815233600482015260248101899052905173ffffffffffffffffffffffffffffffffffffffff909216926340c10f199260448084019382900301818387803b15801561070357600080fd5b505af1158015610717573d6000803e3d6000fd5b505050506000610747603c61073b603c61073b601889610af390919063ffffffff16565b9063ffffffff610b2516565b600354604080517f40c10f1900000000000000000000000000000000000000000000000000000000815233600482015260248101849052905192935073ffffffffffffffffffffffffffffffffffffffff909116916340c10f199160448082019260009290919082900301818387803b1580156107c357600080fd5b505af11580156107d7573d6000803e3d6000fd5b50505050505050505050565b6107eb6109a0565b15156107f657600080fd5b606481111561086657604080517f08c379a000000000000000000000000000000000000000000000000000000000815260206004820152601560248201527f53504c49545f4d5553545f42455f4c54455f3130300000000000000000000000604482015290519081900360640190fd5b600455565b60035473ffffffffffffffffffffffffffffffffffffffff1681565b60065474010000000000000000000000000000000000000000900460ff1681565b6108b06109a0565b15156108bb57600080fd5b600580547fffffffffffffffffffffffff00000000000000000000000000000000000000001673ffffffffffffffffffffffffffffffffffffffff92909216919091179055565b61090a6109a0565b151561091557600080fd5b6000805460405173ffffffffffffffffffffffffffffffffffffffff909116907f8be0079c531659141344cd1fd0a4f28419497f9722a3daafe3b4186f6b6457e0908390a3600080547fffffffffffffffffffffffff0000000000000000000000000000000000000000169055565b60005473ffffffffffffffffffffffffffffffffffffffff1690565b60005473ffffffffffffffffffffffffffffffffffffffff16331490565b60065473ffffffffffffffffffffffffffffffffffffffff1681565b60045481565b60098054829081106109ee57fe5b9060005260206000209060209182820401919006915054906101000a900460ff1681565b610a1a6109a0565b1515610a2557600080fd5b600680547fffffffffffffffffffffffff00000000000000000000000000000000000000001673ffffffffffffffffffffffffffffffffffffffff92909216919091179055565b6007805482908110610a7a57fe5b600091825260209091200154905081565b6008805482908110610a7a57fe5b610aa16109a0565b1515610aac57600080fd5b610ab581610b49565b50565b600082821115610ac757600080fd5b508082035b92915050565b6000811515610ae057600080fd5b8183811515610aeb57fe5b069392505050565b6000821515610b0457506000610acc565b828202828482811515610b1357fe5b0414610b1e57600080fd5b9392505050565b6000808211610b3357600080fd5b60008284811515610b4057fe5b04949350505050565b73ffffffffffffffffffffffffffffffffffffffff81161515610b6b57600080fd5b6000805460405173ffffffffffffffffffffffffffffffffffffffff808516939216917f8be0079c531659141344cd1fd0a4f28419497f9722a3daafe3b4186f6b6457e091a3600080547fffffffffffffffffffffffff00000000000000000000000000000000000000001673ffffffffffffffffffffffffffffffffffffffff9290921691909117905556fea165627a7a72305820bcfebcd994882102832c2d0cc1c69d9d8fe7001967b8d62c8701c40940653acc0029",
  "source": "pragma solidity ^0.5.0;\n/**\n * The Controller is an upgradeable endpoint for controlling Folia.sol\n */\n\nimport \"./Lux.sol\";\nimport \"./LuxERC20.sol\";\nimport \"./Ownable.sol\";\nimport \"./SafeMath.sol\";\nimport \"./ReentrancyGuard.sol\";\nimport \"./IERC721.sol\";\nimport \"./IERC165.sol\";\n\ncontract LuxController is Ownable, ReentrancyGuard {\n\n    using SafeMath for uint256;\n    Lux public lux;\n    LuxERC20 public luxERC20;\n\n    uint256 public adminSplit = 20;\n    address payable public adminWallet;\n    address payable public artistWallet;\n    bool public paused;\n\n    uint256 constant DAY = 24 * 60 * 60;\n    uint256 constant WEEK = 7 * DAY;\n    uint256 constant MONTH = 30 * DAY;\n\n    uint256[] public tokenIntervals = [\n      DAY, // every 24 hours\n      WEEK, // every 7 days\n      MONTH, // every 1 month\n      2 * MONTH, // every 2 months\n      3 * MONTH // every 3 months\n    ];\n\n    uint256[] public tokenPriceIntervals = [\n      102_000_000_000_000_000_000, // minimum 102 Eth\n      73_000_000_000_000_000_000, // minimum 73 Eth\n      42_000_000_000_000_000_000, // minimum 42 Eth\n      12_000_000_000_000_000_000, // minimum 12 Eth\n      2_000_000_000_000_000_000 // minimum 2 Eth\n    ];\n\n    bool[] public claimed;\n\n    uint256 contractStart;\n\n    modifier notPaused() {\n        require(!paused, \"Must not be paused\");\n        _;\n    }\n\n    constructor(\n        Lux _lux,\n        LuxERC20 _luxERC20,\n        address payable _adminWallet\n    ) public {\n        lux = _lux;\n        luxERC20 = _luxERC20;\n        adminWallet = _adminWallet;\n        contractStart = now;\n    }\n\n    function claim(uint256 interval) public payable {\n      require(interval < tokenPriceIntervals.length, \"no token with that interval\");\n      uint256 currentTime = now;\n      uint256 diff = currentTime.sub(contractStart);\n      uint256 modulo = diff.mod(tokenIntervals[interval]);\n      if (modulo == 0) {\n        modulo = 1;\n      }\n      uint256 price = modulo.mul(tokenPriceIntervals[interval]);\n      require(msg.value >= price, \"didn't include enough eth\");\n      require(claimed[interval] == false, \"already claimed\");\n      claimed[interval] = true;\n      lux.mint(msg.sender, interval);\n      uint256 diffInHours = diff.mul(10^18).div(60).div(60); // add 18 decimals then convert seconds / 60 = minutes / 60 = hours\n      luxERC20.mint(msg.sender, diffInHours);\n    }\n\n    function updateArtistWallet(address payable _artistWallet) public onlyOwner {\n      artistWallet = _artistWallet;\n    }\n\n    function updateAdminSplit(uint256 _adminSplit) public onlyOwner {\n        require(_adminSplit <= 100, \"SPLIT_MUST_BE_LTE_100\");\n        adminSplit = _adminSplit;\n    }\n\n    function updateAdminWallet(address payable _adminWallet) public onlyOwner {\n        adminWallet = _adminWallet;\n    }\n\n    function updatePaused(bool _paused) public onlyOwner {\n        paused = _paused;\n    }\n}\n",
  "sourcePath": "/Users/billy/GitHub/folia-app/folia-contracts/contracts/LuxController.sol",
  "compiler": {
    "name": "solc",
    "version": "0.5.0+commit.1d4f565a.Emscripten.clang"
  },
  "schemaVersion": "3.4.3",
  "updatedAt": "2022-09-06T17:31:02.783Z",
  "devdoc": {
    "methods": {
      "isOwner()": {
        "return": "true if `msg.sender` is the owner of the contract."
      },
      "owner()": {
        "return": "the address of the owner."
      },
      "renounceOwnership()": {
        "details": "Allows the current owner to relinquish control of the contract."
      },
      "transferOwnership(address)": {
        "details": "Allows the current owner to transfer control of the contract to a newOwner.",
        "params": {
          "newOwner": "The address to transfer ownership to."
        }
      }
    }
  },
  "userdoc": {
    "methods": {
      "renounceOwnership()": {
        "notice": "Renouncing to ownership will leave the contract without an owner. It will not be possible to call the functions with the `onlyOwner` modifier anymore."
      }
    }
  }
}