{
  "contractName": "LuxChildERC20",
  "abi": [
    {
      "constant": false,
      "inputs": [
        {
          "name": "_to",
          "type": "address"
        },
        {
          "name": "_amount",
          "type": "uint256"
        },
        {
          "name": "_token",
          "type": "address"
        }
      ],
      "name": "moveToken",
      "outputs": [
        {
          "name": "",
          "type": "bool"
        }
      ],
      "payable": false,
      "stateMutability": "nonpayable",
      "type": "function"
    },
    {
      "constant": false,
      "inputs": [
        {
          "name": "_controller",
          "type": "address"
        }
      ],
      "name": "updateController",
      "outputs": [],
      "payable": false,
      "stateMutability": "nonpayable",
      "type": "function"
    },
    {
      "constant": true,
      "inputs": [],
      "name": "name",
      "outputs": [
        {
          "name": "",
          "type": "string"
        }
      ],
      "payable": false,
      "stateMutability": "view",
      "type": "function"
    },
    {
      "constant": false,
      "inputs": [
        {
          "name": "spender",
          "type": "address"
        },
        {
          "name": "value",
          "type": "uint256"
        }
      ],
      "name": "approve",
      "outputs": [
        {
          "name": "",
          "type": "bool"
        }
      ],
      "payable": false,
      "stateMutability": "nonpayable",
      "type": "function"
    },
    {
      "constant": false,
      "inputs": [
        {
          "name": "_admin",
          "type": "address"
        }
      ],
      "name": "removeAdmin",
      "outputs": [],
      "payable": false,
      "stateMutability": "nonpayable",
      "type": "function"
    },
    {
      "constant": true,
      "inputs": [],
      "name": "totalSupply",
      "outputs": [
        {
          "name": "",
          "type": "uint256"
        }
      ],
      "payable": false,
      "stateMutability": "view",
      "type": "function"
    },
    {
      "constant": false,
      "inputs": [
        {
          "name": "_to",
          "type": "address"
        },
        {
          "name": "_amount",
          "type": "uint256"
        }
      ],
      "name": "moveEth",
      "outputs": [],
      "payable": false,
      "stateMutability": "nonpayable",
      "type": "function"
    },
    {
      "constant": false,
      "inputs": [
        {
          "name": "from",
          "type": "address"
        },
        {
          "name": "to",
          "type": "address"
        },
        {
          "name": "value",
          "type": "uint256"
        }
      ],
      "name": "transferFrom",
      "outputs": [
        {
          "name": "",
          "type": "bool"
        }
      ],
      "payable": false,
      "stateMutability": "nonpayable",
      "type": "function"
    },
    {
      "constant": true,
      "inputs": [],
      "name": "decimals",
      "outputs": [
        {
          "name": "",
          "type": "uint8"
        }
      ],
      "payable": false,
      "stateMutability": "view",
      "type": "function"
    },
    {
      "constant": false,
      "inputs": [
        {
          "name": "spender",
          "type": "address"
        },
        {
          "name": "addedValue",
          "type": "uint256"
        }
      ],
      "name": "increaseAllowance",
      "outputs": [
        {
          "name": "",
          "type": "bool"
        }
      ],
      "payable": false,
      "stateMutability": "nonpayable",
      "type": "function"
    },
    {
      "constant": false,
      "inputs": [
        {
          "name": "account",
          "type": "address"
        },
        {
          "name": "value",
          "type": "uint256"
        }
      ],
      "name": "mint",
      "outputs": [],
      "payable": false,
      "stateMutability": "nonpayable",
      "type": "function"
    },
    {
      "constant": true,
      "inputs": [],
      "name": "childChainManagerProxy",
      "outputs": [
        {
          "name": "",
          "type": "address"
        }
      ],
      "payable": false,
      "stateMutability": "view",
      "type": "function"
    },
    {
      "constant": false,
      "inputs": [
        {
          "name": "_admin",
          "type": "address"
        }
      ],
      "name": "addAdmin",
      "outputs": [],
      "payable": false,
      "stateMutability": "nonpayable",
      "type": "function"
    },
    {
      "constant": true,
      "inputs": [
        {
          "name": "owner",
          "type": "address"
        }
      ],
      "name": "balanceOf",
      "outputs": [
        {
          "name": "",
          "type": "uint256"
        }
      ],
      "payable": false,
      "stateMutability": "view",
      "type": "function"
    },
    {
      "constant": false,
      "inputs": [],
      "name": "renounceOwnership",
      "outputs": [],
      "payable": false,
      "stateMutability": "nonpayable",
      "type": "function"
    },
    {
      "constant": true,
      "inputs": [],
      "name": "owner",
      "outputs": [
        {
          "name": "",
          "type": "address"
        }
      ],
      "payable": false,
      "stateMutability": "view",
      "type": "function"
    },
    {
      "constant": true,
      "inputs": [],
      "name": "isOwner",
      "outputs": [
        {
          "name": "",
          "type": "bool"
        }
      ],
      "payable": false,
      "stateMutability": "view",
      "type": "function"
    },
    {
      "constant": true,
      "inputs": [],
      "name": "symbol",
      "outputs": [
        {
          "name": "",
          "type": "string"
        }
      ],
      "payable": false,
      "stateMutability": "view",
      "type": "function"
    },
    {
      "constant": false,
      "inputs": [
        {
          "name": "account",
          "type": "address"
        },
        {
          "name": "value",
          "type": "uint256"
        }
      ],
      "name": "burn",
      "outputs": [],
      "payable": false,
      "stateMutability": "nonpayable",
      "type": "function"
    },
    {
      "constant": false,
      "inputs": [
        {
          "name": "spender",
          "type": "address"
        },
        {
          "name": "subtractedValue",
          "type": "uint256"
        }
      ],
      "name": "decreaseAllowance",
      "outputs": [
        {
          "name": "",
          "type": "bool"
        }
      ],
      "payable": false,
      "stateMutability": "nonpayable",
      "type": "function"
    },
    {
      "constant": false,
      "inputs": [
        {
          "name": "to",
          "type": "address"
        },
        {
          "name": "value",
          "type": "uint256"
        }
      ],
      "name": "transfer",
      "outputs": [
        {
          "name": "",
          "type": "bool"
        }
      ],
      "payable": false,
      "stateMutability": "nonpayable",
      "type": "function"
    },
    {
      "constant": false,
      "inputs": [
        {
          "name": "from",
          "type": "address"
        },
        {
          "name": "to",
          "type": "address"
        },
        {
          "name": "value",
          "type": "uint256"
        }
      ],
      "name": "adminTransfer",
      "outputs": [],
      "payable": false,
      "stateMutability": "nonpayable",
      "type": "function"
    },
    {
      "constant": true,
      "inputs": [
        {
          "name": "owner",
          "type": "address"
        },
        {
          "name": "spender",
          "type": "address"
        }
      ],
      "name": "allowance",
      "outputs": [
        {
          "name": "",
          "type": "uint256"
        }
      ],
      "payable": false,
      "stateMutability": "view",
      "type": "function"
    },
    {
      "constant": false,
      "inputs": [
        {
          "name": "newOwner",
          "type": "address"
        }
      ],
      "name": "transferOwnership",
      "outputs": [],
      "payable": false,
      "stateMutability": "nonpayable",
      "type": "function"
    },
    {
      "constant": true,
      "inputs": [],
      "name": "controller",
      "outputs": [
        {
          "name": "",
          "type": "address"
        }
      ],
      "payable": false,
      "stateMutability": "view",
      "type": "function"
    },
    {
      "inputs": [
        {
          "name": "_childChainManagerProxy",
          "type": "address"
        }
      ],
      "payable": false,
      "stateMutability": "nonpayable",
      "type": "constructor"
    },
    {
      "anonymous": false,
      "inputs": [
        {
          "indexed": true,
          "name": "previousOwner",
          "type": "address"
        },
        {
          "indexed": true,
          "name": "newOwner",
          "type": "address"
        }
      ],
      "name": "OwnershipTransferred",
      "type": "event"
    },
    {
      "anonymous": false,
      "inputs": [
        {
          "indexed": true,
          "name": "from",
          "type": "address"
        },
        {
          "indexed": true,
          "name": "to",
          "type": "address"
        },
        {
          "indexed": false,
          "name": "value",
          "type": "uint256"
        }
      ],
      "name": "Transfer",
      "type": "event"
    },
    {
      "anonymous": false,
      "inputs": [
        {
          "indexed": true,
          "name": "owner",
          "type": "address"
        },
        {
          "indexed": true,
          "name": "spender",
          "type": "address"
        },
        {
          "indexed": false,
          "name": "value",
          "type": "uint256"
        }
      ],
      "name": "Approval",
      "type": "event"
    },
    {
      "constant": false,
      "inputs": [
        {
          "name": "newChildChainManagerProxy",
          "type": "address"
        }
      ],
      "name": "updateChildChainManager",
      "outputs": [],
      "payable": false,
      "stateMutability": "nonpayable",
      "type": "function"
    },
    {
      "constant": false,
      "inputs": [
        {
          "name": "user",
          "type": "address"
        },
        {
          "name": "depositData",
          "type": "bytes"
        }
      ],
      "name": "deposit",
      "outputs": [],
      "payable": false,
      "stateMutability": "nonpayable",
      "type": "function"
    },
    {
      "constant": false,
      "inputs": [
        {
          "name": "amount",
          "type": "uint256"
        }
      ],
      "name": "withdraw",
      "outputs": [],
      "payable": false,
      "stateMutability": "nonpayable",
      "type": "function"
    }
  ],
  "bytecode": "0x60806040523480156200001157600080fd5b5060405160208062002107833981018060405260208110156200003357600080fd5b505160408051808201825260038082527f4c75780000000000000000000000000000000000000000000000000000000000602083810191825284518086019095528285527f4c55580000000000000000000000000000000000000000000000000000000000908501528251929392601292620000b192909162000219565b508151620000c790600490602085019062000219565b506005805460ff191660ff929092169190911761010060a860020a0319166101003381029190911791829055604051600160a060020a0391909204169250600091507f8be0079c531659141344cd1fd0a4f28419497f9722a3daafe3b4186f6b6457e0908290a36200014960063364010000000062001bfd6200018682021704565b6007805460ff8082166001011660ff1990911617905560088054600160a060020a03909216600160a060020a0319909216919091179055620002be565b600160a060020a03811615156200019c57600080fd5b620001b18282640100000000620001e1810204565b15620001bc57600080fd5b600160a060020a0316600090815260209190915260409020805460ff19166001179055565b6000600160a060020a0382161515620001f957600080fd5b50600160a060020a03166000908152602091909152604090205460ff1690565b828054600181600116156101000203166002900490600052602060002090601f016020900481019282601f106200025c57805160ff19168380011785556200028c565b828001600101855582156200028c579182015b828111156200028c5782518255916020019190600101906200026f565b506200029a9291506200029e565b5090565b620002bb91905b808211156200029a5760008155600101620002a5565b90565b611e3980620002ce6000396000f3fe6080604052600436106101695763ffffffff7c0100000000000000000000000000000000000000000000000000000000600035041663048e62ca811461016e57806306cb5b66146101d257806306fdde0314610214578063095ea7b31461029e5780631785f53c146102e457806318160ddd146103245780631cc1472d1461034b57806323b872dd146103915780632e1a7d4d146103e1578063313ce5671461040b578063395093511461043657806340c10f191461047c578063445a6797146104c257806362f629e714610502578063704802751461054057806370a0823114610580578063715018a6146105c05780638da5cb5b146105d55780638f32d59b146105ea57806395d89b41146105ff5780639dc29fac14610614578063a457c2d71461065a578063a9059cbb146106a0578063cf2c52cb146106e6578063da72c1e814610780578063dd62ed3e146107d0578063f2fde38b14610818578063f77c479114610858575b600080fd5b34801561017a57600080fd5b506101be6004803603606081101561019157600080fd5b5073ffffffffffffffffffffffffffffffffffffffff81358116916020810135916040909101351661086d565b604080519115158252519081900360200190f35b3480156101de57600080fd5b50610212600480360360208110156101f557600080fd5b503573ffffffffffffffffffffffffffffffffffffffff16610ab5565b005b34801561022057600080fd5b50610229610bcc565b6040805160208082528351818301528351919283929083019185019080838360005b8381101561026357818101518382015260200161024b565b50505050905090810190601f1680156102905780820380516001836020036101000a031916815260200191505b509250505060405180910390f35b3480156102aa57600080fd5b506101be600480360360408110156102c157600080fd5b5073ffffffffffffffffffffffffffffffffffffffff8135169060200135610c80565b3480156102f057600080fd5b506102126004803603602081101561030757600080fd5b503573ffffffffffffffffffffffffffffffffffffffff16610d18565b34801561033057600080fd5b50610339610e09565b60408051918252519081900360200190f35b34801561035757600080fd5b506102126004803603604081101561036e57600080fd5b5073ffffffffffffffffffffffffffffffffffffffff8135169060200135610e0f565b34801561039d57600080fd5b506101be600480360360608110156103b457600080fd5b5073ffffffffffffffffffffffffffffffffffffffff813581169160208101359091169060400135610f30565b3480156103ed57600080fd5b506102126004803603602081101561040457600080fd5b5035611020565b34801561041757600080fd5b506104206110a1565b6040805160ff9092168252519081900360200190f35b34801561044257600080fd5b506101be6004803603604081101561045957600080fd5b5073ffffffffffffffffffffffffffffffffffffffff81351690602001356110aa565b34801561048857600080fd5b506102126004803603604081101561049f57600080fd5b5073ffffffffffffffffffffffffffffffffffffffff8135169060200135611181565b3480156104ce57600080fd5b50610212600480360360208110156104e557600080fd5b503573ffffffffffffffffffffffffffffffffffffffff1661125a565b34801561050e57600080fd5b5061051761135e565b6040805173ffffffffffffffffffffffffffffffffffffffff9092168252519081900360200190f35b34801561054c57600080fd5b506102126004803603602081101561056357600080fd5b503573ffffffffffffffffffffffffffffffffffffffff1661137a565b34801561058c57600080fd5b50610339600480360360208110156105a357600080fd5b503573ffffffffffffffffffffffffffffffffffffffff166113d5565b3480156105cc57600080fd5b506102126113fd565b3480156105e157600080fd5b50610517611484565b3480156105f657600080fd5b506101be6114a5565b34801561060b57600080fd5b506102296114c8565b34801561062057600080fd5b506102126004803603604081101561063757600080fd5b5073ffffffffffffffffffffffffffffffffffffffff8135169060200135611547565b34801561066657600080fd5b506101be6004803603604081101561067d57600080fd5b5073ffffffffffffffffffffffffffffffffffffffff813516906020013561161c565b3480156106ac57600080fd5b506101be600480360360408110156106c357600080fd5b5073ffffffffffffffffffffffffffffffffffffffff8135169060200135611681565b3480156106f257600080fd5b506102126004803603604081101561070957600080fd5b73ffffffffffffffffffffffffffffffffffffffff823516919081019060408101602082013564010000000081111561074157600080fd5b82018360208201111561075357600080fd5b8035906020019184600183028401116401000000008311171561077557600080fd5b509092509050611697565b34801561078c57600080fd5b50610212600480360360608110156107a357600080fd5b5073ffffffffffffffffffffffffffffffffffffffff8135811691602081013590911690604001356117e5565b3480156107dc57600080fd5b50610339600480360360408110156107f357600080fd5b5073ffffffffffffffffffffffffffffffffffffffff813581169160200135166119b1565b34801561082457600080fd5b506102126004803603602081101561083b57600080fd5b503573ffffffffffffffffffffffffffffffffffffffff166119e9565b34801561086457600080fd5b50610517611a08565b600061088060063363ffffffff611a2916565b806108a75750600754610100900473ffffffffffffffffffffffffffffffffffffffff1633145b151561093a57604080517f08c379a000000000000000000000000000000000000000000000000000000000815260206004820152602660248201527f444f45535f4e4f545f484156455f41444d494e5f4f525f434f4e54524f4c4c4560448201527f525f524f4c450000000000000000000000000000000000000000000000000000606482015290519081900360840190fd5b604080517f70a08231000000000000000000000000000000000000000000000000000000008152306004820152905173ffffffffffffffffffffffffffffffffffffffff8416916370a08231916024808301926020929190829003018186803b1580156109a657600080fd5b505afa1580156109ba573d6000803e3d6000fd5b505050506040513d60208110156109d057600080fd5b50518311156109de57600080fd5b8173ffffffffffffffffffffffffffffffffffffffff1663a9059cbb85856040518363ffffffff167c0100000000000000000000000000000000000000000000000000000000028152600401808373ffffffffffffffffffffffffffffffffffffffff1673ffffffffffffffffffffffffffffffffffffffff16815260200182815260200192505050602060405180830381600087803b158015610a8157600080fd5b505af1158015610a95573d6000803e3d6000fd5b505050506040513d6020811015610aab57600080fd5b5051949350505050565b610ac660063363ffffffff611a2916565b80610aed5750600754610100900473ffffffffffffffffffffffffffffffffffffffff1633145b1515610b8057604080517f08c379a000000000000000000000000000000000000000000000000000000000815260206004820152602660248201527f444f45535f4e4f545f484156455f41444d494e5f4f525f434f4e54524f4c4c4560448201527f525f524f4c450000000000000000000000000000000000000000000000000000606482015290519081900360840190fd5b6007805473ffffffffffffffffffffffffffffffffffffffff909216610100027fffffffffffffffffffffff0000000000000000000000000000000000000000ff909216919091179055565b60038054604080516020601f60027fffffffffffffffffffffffffffffffffffffffffffffffffffffffffffffffff610100600188161502019095169490940493840181900481028201810190925282815260609390929091830182828015610c765780601f10610c4b57610100808354040283529160200191610c76565b820191906000526020600020905b815481529060010190602001808311610c5957829003601f168201915b5050505050905090565b600073ffffffffffffffffffffffffffffffffffffffff83161515610ca457600080fd5b33600081815260016020908152604080832073ffffffffffffffffffffffffffffffffffffffff881680855290835292819020869055805186815290519293927f8c5be1e5ebec7d5bd14f71427d1e84f3dd0314c0f7b2291e5b200ac8c7c3b925929181900390910190a350600192915050565b610d206114a5565b1515610d2b57600080fd5b600754600160ff90911611610da157604080517f08c379a000000000000000000000000000000000000000000000000000000000815260206004820152601660248201527f43414e545f52454d4f56455f4c4153545f41444d494e00000000000000000000604482015290519081900360640190fd5b610db260068263ffffffff611a7a16565b50600780547fffffffffffffffffffffffffffffffffffffffffffffffffffffffffffffff00811660ff9182167fffffffffffffffffffffffffffffffffffffffffffffffffffffffffffffffff01909116179055565b60025490565b610e2060063363ffffffff611a2916565b80610e475750600754610100900473ffffffffffffffffffffffffffffffffffffffff1633145b1515610eda57604080517f08c379a000000000000000000000000000000000000000000000000000000000815260206004820152602660248201527f444f45535f4e4f545f484156455f41444d494e5f4f525f434f4e54524f4c4c4560448201527f525f524f4c450000000000000000000000000000000000000000000000000000606482015290519081900360840190fd5b3031811115610ee857600080fd5b60405173ffffffffffffffffffffffffffffffffffffffff83169082156108fc029083906000818181858888f19350505050158015610f2b573d6000803e3d6000fd5b505050565b73ffffffffffffffffffffffffffffffffffffffff83166000908152600160209081526040808320338452909152812054610f71908363ffffffff611afe16565b73ffffffffffffffffffffffffffffffffffffffff85166000908152600160209081526040808320338452909152902055610fad8484846118b0565b73ffffffffffffffffffffffffffffffffffffffff84166000818152600160209081526040808320338085529083529281902054815190815290519293927f8c5be1e5ebec7d5bd14f71427d1e84f3dd0314c0f7b2291e5b200ac8c7c3b925929181900390910190a35060019392505050565b33600090815260208190526040902054611040908263ffffffff611afe16565b33600090815260208190526040902055600254611063908263ffffffff611afe16565b60025560408051828152905160009133917fddf252ad1be2c89b69c2b068fc378daa952ba7f163c4a11628f55a4df523b3ef9181900360200190a350565b60055460ff1690565b600073ffffffffffffffffffffffffffffffffffffffff831615156110ce57600080fd5b33600090815260016020908152604080832073ffffffffffffffffffffffffffffffffffffffff8716845290915290205461110f908363ffffffff611b1316565b33600081815260016020908152604080832073ffffffffffffffffffffffffffffffffffffffff89168085529083529281902085905580519485525191937f8c5be1e5ebec7d5bd14f71427d1e84f3dd0314c0f7b2291e5b200ac8c7c3b925929081900390910190a350600192915050565b61119260063363ffffffff611a2916565b806111b95750600754610100900473ffffffffffffffffffffffffffffffffffffffff1633145b151561124c57604080517f08c379a000000000000000000000000000000000000000000000000000000000815260206004820152602660248201527f444f45535f4e4f545f484156455f41444d494e5f4f525f434f4e54524f4c4c4560448201527f525f524f4c450000000000000000000000000000000000000000000000000000606482015290519081900360840190fd5b6112568282611b2c565b5050565b6112626114a5565b151561126d57600080fd5b73ffffffffffffffffffffffffffffffffffffffff8116151561131757604080517f08c379a000000000000000000000000000000000000000000000000000000000815260206004820152602260248201527f426164204368696c64436861696e4d616e6167657250726f787920616464726560448201527f7373000000000000000000000000000000000000000000000000000000000000606482015290519081900360840190fd5b600880547fffffffffffffffffffffffff00000000000000000000000000000000000000001673ffffffffffffffffffffffffffffffffffffffff92909216919091179055565b60085473ffffffffffffffffffffffffffffffffffffffff1681565b6113826114a5565b151561138d57600080fd5b61139e60068263ffffffff611bfd16565b506007805460ff808216600101167fffffffffffffffffffffffffffffffffffffffffffffffffffffffffffffff00909116179055565b73ffffffffffffffffffffffffffffffffffffffff1660009081526020819052604090205490565b6114056114a5565b151561141057600080fd5b600554604051600091610100900473ffffffffffffffffffffffffffffffffffffffff16907f8be0079c531659141344cd1fd0a4f28419497f9722a3daafe3b4186f6b6457e0908390a3600580547fffffffffffffffffffffff0000000000000000000000000000000000000000ff169055565b600554610100900473ffffffffffffffffffffffffffffffffffffffff1690565b600554610100900473ffffffffffffffffffffffffffffffffffffffff16331490565b60048054604080516020601f60027fffffffffffffffffffffffffffffffffffffffffffffffffffffffffffffffff610100600188161502019095169490940493840181900481028201810190925282815260609390929091830182828015610c765780601f10610c4b57610100808354040283529160200191610c76565b61155860063363ffffffff611a2916565b8061157f5750600754610100900473ffffffffffffffffffffffffffffffffffffffff1633145b151561161257604080517f08c379a000000000000000000000000000000000000000000000000000000000815260206004820152602660248201527f444f45535f4e4f545f484156455f41444d494e5f4f525f434f4e54524f4c4c4560448201527f525f524f4c450000000000000000000000000000000000000000000000000000606482015290519081900360840190fd5b6112568282611c83565b600073ffffffffffffffffffffffffffffffffffffffff8316151561164057600080fd5b33600090815260016020908152604080832073ffffffffffffffffffffffffffffffffffffffff8716845290915290205461110f908363ffffffff611afe16565b600061168e3384846118b0565b50600192915050565b60085473ffffffffffffffffffffffffffffffffffffffff16331461171d57604080517f08c379a000000000000000000000000000000000000000000000000000000000815260206004820152601d60248201527f596f75277265206e6f7420616c6c6f77656420746f206465706f736974000000604482015290519081900360640190fd5b60008282602081101561172f57600080fd5b5060025490359150611747908263ffffffff611b1316565b60025573ffffffffffffffffffffffffffffffffffffffff8416600090815260208190526040902054611780908263ffffffff611b1316565b73ffffffffffffffffffffffffffffffffffffffff85166000818152602081815260408083209490945583518581529351929391927fddf252ad1be2c89b69c2b068fc378daa952ba7f163c4a11628f55a4df523b3ef9281900390910190a350505050565b6117f660063363ffffffff611a2916565b8061181d5750600754610100900473ffffffffffffffffffffffffffffffffffffffff1633145b15156118b057604080517f08c379a000000000000000000000000000000000000000000000000000000000815260206004820152602660248201527f444f45535f4e4f545f484156455f41444d494e5f4f525f434f4e54524f4c4c4560448201527f525f524f4c450000000000000000000000000000000000000000000000000000606482015290519081900360840190fd5b73ffffffffffffffffffffffffffffffffffffffff821615156118d257600080fd5b73ffffffffffffffffffffffffffffffffffffffff8316600090815260208190526040902054611908908263ffffffff611afe16565b73ffffffffffffffffffffffffffffffffffffffff808516600090815260208190526040808220939093559084168152205461194a908263ffffffff611b1316565b73ffffffffffffffffffffffffffffffffffffffff8084166000818152602081815260409182902094909455805185815290519193928716927fddf252ad1be2c89b69c2b068fc378daa952ba7f163c4a11628f55a4df523b3ef92918290030190a3505050565b73ffffffffffffffffffffffffffffffffffffffff918216600090815260016020908152604080832093909416825291909152205490565b6119f16114a5565b15156119fc57600080fd5b611a0581611d53565b50565b600754610100900473ffffffffffffffffffffffffffffffffffffffff1681565b600073ffffffffffffffffffffffffffffffffffffffff82161515611a4d57600080fd5b5073ffffffffffffffffffffffffffffffffffffffff166000908152602091909152604090205460ff1690565b73ffffffffffffffffffffffffffffffffffffffff81161515611a9c57600080fd5b611aa68282611a29565b1515611ab157600080fd5b73ffffffffffffffffffffffffffffffffffffffff1660009081526020919091526040902080547fffffffffffffffffffffffffffffffffffffffffffffffffffffffffffffff00169055565b600082821115611b0d57600080fd5b50900390565b600082820183811015611b2557600080fd5b9392505050565b73ffffffffffffffffffffffffffffffffffffffff82161515611b4e57600080fd5b600254611b61908263ffffffff611b1316565b60025573ffffffffffffffffffffffffffffffffffffffff8216600090815260208190526040902054611b9a908263ffffffff611b1316565b73ffffffffffffffffffffffffffffffffffffffff83166000818152602081815260408083209490945583518581529351929391927fddf252ad1be2c89b69c2b068fc378daa952ba7f163c4a11628f55a4df523b3ef9281900390910190a35050565b73ffffffffffffffffffffffffffffffffffffffff81161515611c1f57600080fd5b611c298282611a29565b15611c3357600080fd5b73ffffffffffffffffffffffffffffffffffffffff1660009081526020919091526040902080547fffffffffffffffffffffffffffffffffffffffffffffffffffffffffffffff00166001179055565b73ffffffffffffffffffffffffffffffffffffffff82161515611ca557600080fd5b600254611cb8908263ffffffff611afe16565b60025573ffffffffffffffffffffffffffffffffffffffff8216600090815260208190526040902054611cf1908263ffffffff611afe16565b73ffffffffffffffffffffffffffffffffffffffff8316600081815260208181526040808320949094558351858152935191937fddf252ad1be2c89b69c2b068fc378daa952ba7f163c4a11628f55a4df523b3ef929081900390910190a35050565b73ffffffffffffffffffffffffffffffffffffffff81161515611d7557600080fd5b60055460405173ffffffffffffffffffffffffffffffffffffffff80841692610100900416907f8be0079c531659141344cd1fd0a4f28419497f9722a3daafe3b4186f6b6457e090600090a36005805473ffffffffffffffffffffffffffffffffffffffff909216610100027fffffffffffffffffffffff0000000000000000000000000000000000000000ff90921691909117905556fea165627a7a723058205e421a34305f70da992d94ef804dafcf16896cd710f6ae4bd0effe171f87bd3b0029",
  "source": "pragma solidity ^0.5.0;\n\nimport \"./LuxERC20.sol\";\n\n/*        \nBy David Rudnick\nProduced by Folia.app\n*/\n\ncontract LuxChildERC20 is LuxERC20 {\n  address public childChainManagerProxy;\n  constructor(address _childChainManagerProxy) public {\n    childChainManagerProxy = _childChainManagerProxy;\n  }\n\n    // being proxified smart contract, most probably childChainManagerProxy contract's address\n    // is not going to change ever, but still, lets keep it \n    function updateChildChainManager(address newChildChainManagerProxy) external onlyOwner {\n        require(newChildChainManagerProxy != address(0), \"Bad ChildChainManagerProxy address\");\n\n        childChainManagerProxy = newChildChainManagerProxy;\n    }\n\n    function deposit(address user, bytes calldata depositData) external {\n        require(msg.sender == childChainManagerProxy, \"You're not allowed to deposit\");\n\n        uint256 amount = abi.decode(depositData, (uint256));\n\n        // `amount` token getting minted here & equal amount got locked in RootChainManager\n        _totalSupply = _totalSupply.add(amount);\n        _balances[user] = _balances[user].add(amount);\n        \n        emit Transfer(address(0), user, amount);\n    }\n\n    function withdraw(uint256 amount) external {\n        _balances[msg.sender] = _balances[msg.sender].sub(amount);\n        _totalSupply = _totalSupply.sub(amount);\n        \n        emit Transfer(msg.sender, address(0), amount);\n    }\n}",
  "sourcePath": "/Users/billy/GitHub/folia-app/folia-contracts/contracts/LuxChildERC20.sol",
  "compiler": {
    "name": "solc",
    "version": "0.5.0+commit.1d4f565a.Emscripten.clang"
  },
  "schemaVersion": "3.4.3",
  "updatedAt": "2022-09-06T17:06:34.975Z",
  "devdoc": {
    "methods": {
      "allowance(address,address)": {
        "details": "Function to check the amount of tokens that an owner allowed to a spender.",
        "params": {
          "owner": "address The address which owns the funds.",
          "spender": "address The address which will spend the funds."
        },
        "return": "A uint256 specifying the amount of tokens still available for the spender."
      },
      "approve(address,uint256)": {
        "details": "Approve the passed address to spend the specified amount of tokens on behalf of msg.sender. Beware that changing an allowance with this method brings the risk that someone may use both the old and the new allowance by unfortunate transaction ordering. One possible solution to mitigate this race condition is to first reduce the spender's allowance to 0 and set the desired value afterwards: https://github.com/ethereum/EIPs/issues/20#issuecomment-263524729",
        "params": {
          "spender": "The address which will spend the funds.",
          "value": "The amount of tokens to be spent."
        }
      },
      "balanceOf(address)": {
        "details": "Gets the balance of the specified address.",
        "params": {
          "owner": "The address to query the balance of."
        },
        "return": "An uint256 representing the amount owned by the passed address."
      },
      "decimals()": {
        "return": "the number of decimals of the token."
      },
      "decreaseAllowance(address,uint256)": {
        "details": "Decrease the amount of tokens that an owner allowed to a spender. approve should be called when allowed_[_spender] == 0. To decrement allowed value is better to use this function to avoid 2 calls (and wait until the first transaction is mined) From MonolithDAO Token.sol Emits an Approval event.",
        "params": {
          "spender": "The address which will spend the funds.",
          "subtractedValue": "The amount of tokens to decrease the allowance by."
        }
      },
      "increaseAllowance(address,uint256)": {
        "details": "Increase the amount of tokens that an owner allowed to a spender. approve should be called when allowed_[_spender] == 0. To increment allowed value is better to use this function to avoid 2 calls (and wait until the first transaction is mined) From MonolithDAO Token.sol Emits an Approval event.",
        "params": {
          "addedValue": "The amount of tokens to increase the allowance by.",
          "spender": "The address which will spend the funds."
        }
      },
      "isOwner()": {
        "return": "true if `msg.sender` is the owner of the contract."
      },
      "moveEth(address,uint256)": {
        "details": "Moves Eth to a certain address for use in the FoliaController",
        "params": {
          "_amount": "The amount of Eth to be transferred.",
          "_to": "The address to receive the Eth."
        }
      },
      "moveToken(address,uint256,address)": {
        "details": "Moves Token to a certain address for use in the FoliaController",
        "params": {
          "_amount": "The amount of Token to be transferred.",
          "_to": "The address to receive the Token.",
          "_token": "The address of the Token to be transferred."
        }
      },
      "name()": {
        "return": "the name of the token."
      },
      "owner()": {
        "return": "the address of the owner."
      },
      "renounceOwnership()": {
        "details": "Allows the current owner to relinquish control of the contract."
      },
      "symbol()": {
        "return": "the symbol of the token."
      },
      "totalSupply()": {
        "details": "Total number of tokens in existence"
      },
      "transfer(address,uint256)": {
        "details": "Transfer token for a specified address",
        "params": {
          "to": "The address to transfer to.",
          "value": "The amount to be transferred."
        }
      },
      "transferFrom(address,address,uint256)": {
        "details": "Transfer tokens from one address to another. Note that while this function emits an Approval event, this is not required as per the specification, and other compliant implementations may not emit the event.",
        "params": {
          "from": "address The address which you want to send tokens from",
          "to": "address The address which you want to transfer to",
          "value": "uint256 the amount of tokens to be transferred"
        }
      },
      "transferOwnership(address)": {
        "details": "Allows the current owner to transfer control of the contract to a newOwner.",
        "params": {
          "newOwner": "The address to transfer ownership to."
        }
      }
    }
  },
  "userdoc": {
    "methods": {
      "renounceOwnership()": {
        "notice": "Renouncing to ownership will leave the contract without an owner. It will not be possible to call the functions with the `onlyOwner` modifier anymore."
      }
    }
  }
}