{
  "contractName": "LuxERC20",
  "abi": [
    {
      "constant": true,
      "inputs": [],
      "name": "name",
      "outputs": [
        {
          "name": "",
          "type": "string"
        }
      ],
      "payable": false,
      "stateMutability": "view",
      "type": "function"
    },
    {
      "constant": false,
      "inputs": [
        {
          "name": "spender",
          "type": "address"
        },
        {
          "name": "value",
          "type": "uint256"
        }
      ],
      "name": "approve",
      "outputs": [
        {
          "name": "",
          "type": "bool"
        }
      ],
      "payable": false,
      "stateMutability": "nonpayable",
      "type": "function"
    },
    {
      "constant": true,
      "inputs": [],
      "name": "totalSupply",
      "outputs": [
        {
          "name": "",
          "type": "uint256"
        }
      ],
      "payable": false,
      "stateMutability": "view",
      "type": "function"
    },
    {
      "constant": false,
      "inputs": [
        {
          "name": "from",
          "type": "address"
        },
        {
          "name": "to",
          "type": "address"
        },
        {
          "name": "value",
          "type": "uint256"
        }
      ],
      "name": "transferFrom",
      "outputs": [
        {
          "name": "",
          "type": "bool"
        }
      ],
      "payable": false,
      "stateMutability": "nonpayable",
      "type": "function"
    },
    {
      "constant": true,
      "inputs": [],
      "name": "decimals",
      "outputs": [
        {
          "name": "",
          "type": "uint8"
        }
      ],
      "payable": false,
      "stateMutability": "view",
      "type": "function"
    },
    {
      "constant": false,
      "inputs": [
        {
          "name": "spender",
          "type": "address"
        },
        {
          "name": "addedValue",
          "type": "uint256"
        }
      ],
      "name": "increaseAllowance",
      "outputs": [
        {
          "name": "",
          "type": "bool"
        }
      ],
      "payable": false,
      "stateMutability": "nonpayable",
      "type": "function"
    },
    {
      "constant": true,
      "inputs": [
        {
          "name": "owner",
          "type": "address"
        }
      ],
      "name": "balanceOf",
      "outputs": [
        {
          "name": "",
          "type": "uint256"
        }
      ],
      "payable": false,
      "stateMutability": "view",
      "type": "function"
    },
    {
      "constant": false,
      "inputs": [],
      "name": "renounceOwnership",
      "outputs": [],
      "payable": false,
      "stateMutability": "nonpayable",
      "type": "function"
    },
    {
      "constant": true,
      "inputs": [],
      "name": "owner",
      "outputs": [
        {
          "name": "",
          "type": "address"
        }
      ],
      "payable": false,
      "stateMutability": "view",
      "type": "function"
    },
    {
      "constant": true,
      "inputs": [],
      "name": "isOwner",
      "outputs": [
        {
          "name": "",
          "type": "bool"
        }
      ],
      "payable": false,
      "stateMutability": "view",
      "type": "function"
    },
    {
      "constant": true,
      "inputs": [],
      "name": "symbol",
      "outputs": [
        {
          "name": "",
          "type": "string"
        }
      ],
      "payable": false,
      "stateMutability": "view",
      "type": "function"
    },
    {
      "constant": false,
      "inputs": [
        {
          "name": "spender",
          "type": "address"
        },
        {
          "name": "subtractedValue",
          "type": "uint256"
        }
      ],
      "name": "decreaseAllowance",
      "outputs": [
        {
          "name": "",
          "type": "bool"
        }
      ],
      "payable": false,
      "stateMutability": "nonpayable",
      "type": "function"
    },
    {
      "constant": false,
      "inputs": [
        {
          "name": "to",
          "type": "address"
        },
        {
          "name": "value",
          "type": "uint256"
        }
      ],
      "name": "transfer",
      "outputs": [
        {
          "name": "",
          "type": "bool"
        }
      ],
      "payable": false,
      "stateMutability": "nonpayable",
      "type": "function"
    },
    {
      "constant": true,
      "inputs": [
        {
          "name": "owner",
          "type": "address"
        },
        {
          "name": "spender",
          "type": "address"
        }
      ],
      "name": "allowance",
      "outputs": [
        {
          "name": "",
          "type": "uint256"
        }
      ],
      "payable": false,
      "stateMutability": "view",
      "type": "function"
    },
    {
      "constant": false,
      "inputs": [
        {
          "name": "newOwner",
          "type": "address"
        }
      ],
      "name": "transferOwnership",
      "outputs": [],
      "payable": false,
      "stateMutability": "nonpayable",
      "type": "function"
    },
    {
      "constant": true,
      "inputs": [],
      "name": "controller",
      "outputs": [
        {
          "name": "",
          "type": "address"
        }
      ],
      "payable": false,
      "stateMutability": "view",
      "type": "function"
    },
    {
      "inputs": [],
      "payable": false,
      "stateMutability": "nonpayable",
      "type": "constructor"
    },
    {
      "anonymous": false,
      "inputs": [
        {
          "indexed": true,
          "name": "previousOwner",
          "type": "address"
        },
        {
          "indexed": true,
          "name": "newOwner",
          "type": "address"
        }
      ],
      "name": "OwnershipTransferred",
      "type": "event"
    },
    {
      "anonymous": false,
      "inputs": [
        {
          "indexed": true,
          "name": "from",
          "type": "address"
        },
        {
          "indexed": true,
          "name": "to",
          "type": "address"
        },
        {
          "indexed": false,
          "name": "value",
          "type": "uint256"
        }
      ],
      "name": "Transfer",
      "type": "event"
    },
    {
      "anonymous": false,
      "inputs": [
        {
          "indexed": true,
          "name": "owner",
          "type": "address"
        },
        {
          "indexed": true,
          "name": "spender",
          "type": "address"
        },
        {
          "indexed": false,
          "name": "value",
          "type": "uint256"
        }
      ],
      "name": "Approval",
      "type": "event"
    },
    {
      "constant": false,
      "inputs": [
        {
          "name": "_controller",
          "type": "address"
        }
      ],
      "name": "updateController",
      "outputs": [],
      "payable": false,
      "stateMutability": "nonpayable",
      "type": "function"
    },
    {
      "constant": false,
      "inputs": [
        {
          "name": "account",
          "type": "address"
        },
        {
          "name": "value",
          "type": "uint256"
        }
      ],
      "name": "mint",
      "outputs": [],
      "payable": false,
      "stateMutability": "nonpayable",
      "type": "function"
    },
    {
      "constant": false,
      "inputs": [
        {
          "name": "account",
          "type": "address"
        },
        {
          "name": "value",
          "type": "uint256"
        }
      ],
      "name": "burn",
      "outputs": [],
      "payable": false,
      "stateMutability": "nonpayable",
      "type": "function"
    },
    {
      "constant": false,
      "inputs": [
        {
          "name": "from",
          "type": "address"
        },
        {
          "name": "to",
          "type": "address"
        },
        {
          "name": "value",
          "type": "uint256"
        }
      ],
      "name": "adminTransfer",
      "outputs": [],
      "payable": false,
      "stateMutability": "nonpayable",
      "type": "function"
    },
    {
      "constant": false,
      "inputs": [
        {
          "name": "_admin",
          "type": "address"
        }
      ],
      "name": "addAdmin",
      "outputs": [],
      "payable": false,
      "stateMutability": "nonpayable",
      "type": "function"
    },
    {
      "constant": false,
      "inputs": [
        {
          "name": "_admin",
          "type": "address"
        }
      ],
      "name": "removeAdmin",
      "outputs": [],
      "payable": false,
      "stateMutability": "nonpayable",
      "type": "function"
    },
    {
      "constant": false,
      "inputs": [
        {
          "name": "_to",
          "type": "address"
        },
        {
          "name": "_amount",
          "type": "uint256"
        }
      ],
      "name": "moveEth",
      "outputs": [],
      "payable": false,
      "stateMutability": "nonpayable",
      "type": "function"
    },
    {
      "constant": false,
      "inputs": [
        {
          "name": "_to",
          "type": "address"
        },
        {
          "name": "_amount",
          "type": "uint256"
        },
        {
          "name": "_token",
          "type": "address"
        }
      ],
      "name": "moveToken",
      "outputs": [
        {
          "name": "",
          "type": "bool"
        }
      ],
      "payable": false,
      "stateMutability": "nonpayable",
      "type": "function"
    }
  ],
  "bytecode": "0x60806040523480156200001157600080fd5b5060408051808201825260038082527f4c75780000000000000000000000000000000000000000000000000000000000602080840191825284518086019095528285527f4c555800000000000000000000000000000000000000000000000000000000009085015282519293926012926200008e929091620001d5565b508151620000a4906004906020850190620001d5565b506005805460ff191660ff929092169190911761010060a860020a0319166101003381029190911791829055604051600160a060020a0391909204169250600091507f8be0079c531659141344cd1fd0a4f28419497f9722a3daafe3b4186f6b6457e0908290a362000126600633640100000000620017c96200014282021704565b6007805460ff8082166001011660ff199091161790556200027a565b600160a060020a03811615156200015857600080fd5b6200016d82826401000000006200019d810204565b156200017857600080fd5b600160a060020a0316600090815260209190915260409020805460ff19166001179055565b6000600160a060020a0382161515620001b557600080fd5b50600160a060020a03166000908152602091909152604090205460ff1690565b828054600181600116156101000203166002900490600052602060002090601f016020900481019282601f106200021857805160ff191683800117855562000248565b8280016001018555821562000248579182015b82811115620002485782518255916020019190600101906200022b565b50620002569291506200025a565b5090565b6200027791905b8082111562000256576000815560010162000261565b90565b611a05806200028a6000396000f3fe60806040526004361061013d5763ffffffff7c0100000000000000000000000000000000000000000000000000000000600035041663048e62ca811461014257806306cb5b66146101a657806306fdde03146101e8578063095ea7b3146102725780631785f53c146102b857806318160ddd146102f85780631cc1472d1461031f57806323b872dd14610365578063313ce567146103b557806339509351146103e057806340c10f1914610426578063704802751461046c57806370a08231146104ac578063715018a6146104ec5780638da5cb5b146105015780638f32d59b1461053f57806395d89b41146105545780639dc29fac14610569578063a457c2d7146105af578063a9059cbb146105f5578063da72c1e81461063b578063dd62ed3e1461068b578063f2fde38b146106d3578063f77c479114610713575b600080fd5b34801561014e57600080fd5b506101926004803603606081101561016557600080fd5b5073ffffffffffffffffffffffffffffffffffffffff813581169160208101359160409091013516610728565b604080519115158252519081900360200190f35b3480156101b257600080fd5b506101e6600480360360208110156101c957600080fd5b503573ffffffffffffffffffffffffffffffffffffffff16610970565b005b3480156101f457600080fd5b506101fd610a87565b6040805160208082528351818301528351919283929083019185019080838360005b8381101561023757818101518382015260200161021f565b50505050905090810190601f1680156102645780820380516001836020036101000a031916815260200191505b509250505060405180910390f35b34801561027e57600080fd5b506101926004803603604081101561029557600080fd5b5073ffffffffffffffffffffffffffffffffffffffff8135169060200135610b3b565b3480156102c457600080fd5b506101e6600480360360208110156102db57600080fd5b503573ffffffffffffffffffffffffffffffffffffffff16610bd3565b34801561030457600080fd5b5061030d610cc4565b60408051918252519081900360200190f35b34801561032b57600080fd5b506101e66004803603604081101561034257600080fd5b5073ffffffffffffffffffffffffffffffffffffffff8135169060200135610cca565b34801561037157600080fd5b506101926004803603606081101561038857600080fd5b5073ffffffffffffffffffffffffffffffffffffffff813581169160208101359091169060400135610deb565b3480156103c157600080fd5b506103ca610edb565b6040805160ff9092168252519081900360200190f35b3480156103ec57600080fd5b506101926004803603604081101561040357600080fd5b5073ffffffffffffffffffffffffffffffffffffffff8135169060200135610ee4565b34801561043257600080fd5b506101e66004803603604081101561044957600080fd5b5073ffffffffffffffffffffffffffffffffffffffff8135169060200135610fbb565b34801561047857600080fd5b506101e66004803603602081101561048f57600080fd5b503573ffffffffffffffffffffffffffffffffffffffff16611094565b3480156104b857600080fd5b5061030d600480360360208110156104cf57600080fd5b503573ffffffffffffffffffffffffffffffffffffffff166110ef565b3480156104f857600080fd5b506101e6611117565b34801561050d57600080fd5b5061051661119e565b6040805173ffffffffffffffffffffffffffffffffffffffff9092168252519081900360200190f35b34801561054b57600080fd5b506101926111bf565b34801561056057600080fd5b506101fd6111e2565b34801561057557600080fd5b506101e66004803603604081101561058c57600080fd5b5073ffffffffffffffffffffffffffffffffffffffff8135169060200135611261565b3480156105bb57600080fd5b50610192600480360360408110156105d257600080fd5b5073ffffffffffffffffffffffffffffffffffffffff8135169060200135611336565b34801561060157600080fd5b506101926004803603604081101561061857600080fd5b5073ffffffffffffffffffffffffffffffffffffffff813516906020013561139b565b34801561064757600080fd5b506101e66004803603606081101561065e57600080fd5b5073ffffffffffffffffffffffffffffffffffffffff8135811691602081013590911690604001356113b1565b34801561069757600080fd5b5061030d600480360360408110156106ae57600080fd5b5073ffffffffffffffffffffffffffffffffffffffff8135811691602001351661157d565b3480156106df57600080fd5b506101e6600480360360208110156106f657600080fd5b503573ffffffffffffffffffffffffffffffffffffffff166115b5565b34801561071f57600080fd5b506105166115d4565b600061073b60063363ffffffff6115f516565b806107625750600754610100900473ffffffffffffffffffffffffffffffffffffffff1633145b15156107f557604080517f08c379a000000000000000000000000000000000000000000000000000000000815260206004820152602660248201527f444f45535f4e4f545f484156455f41444d494e5f4f525f434f4e54524f4c4c4560448201527f525f524f4c450000000000000000000000000000000000000000000000000000606482015290519081900360840190fd5b604080517f70a08231000000000000000000000000000000000000000000000000000000008152306004820152905173ffffffffffffffffffffffffffffffffffffffff8416916370a08231916024808301926020929190829003018186803b15801561086157600080fd5b505afa158015610875573d6000803e3d6000fd5b505050506040513d602081101561088b57600080fd5b505183111561089957600080fd5b8173ffffffffffffffffffffffffffffffffffffffff1663a9059cbb85856040518363ffffffff167c0100000000000000000000000000000000000000000000000000000000028152600401808373ffffffffffffffffffffffffffffffffffffffff1673ffffffffffffffffffffffffffffffffffffffff16815260200182815260200192505050602060405180830381600087803b15801561093c57600080fd5b505af1158015610950573d6000803e3d6000fd5b505050506040513d602081101561096657600080fd5b5051949350505050565b61098160063363ffffffff6115f516565b806109a85750600754610100900473ffffffffffffffffffffffffffffffffffffffff1633145b1515610a3b57604080517f08c379a000000000000000000000000000000000000000000000000000000000815260206004820152602660248201527f444f45535f4e4f545f484156455f41444d494e5f4f525f434f4e54524f4c4c4560448201527f525f524f4c450000000000000000000000000000000000000000000000000000606482015290519081900360840190fd5b6007805473ffffffffffffffffffffffffffffffffffffffff909216610100027fffffffffffffffffffffff0000000000000000000000000000000000000000ff909216919091179055565b60038054604080516020601f60027fffffffffffffffffffffffffffffffffffffffffffffffffffffffffffffffff610100600188161502019095169490940493840181900481028201810190925282815260609390929091830182828015610b315780601f10610b0657610100808354040283529160200191610b31565b820191906000526020600020905b815481529060010190602001808311610b1457829003601f168201915b5050505050905090565b600073ffffffffffffffffffffffffffffffffffffffff83161515610b5f57600080fd5b33600081815260016020908152604080832073ffffffffffffffffffffffffffffffffffffffff881680855290835292819020869055805186815290519293927f8c5be1e5ebec7d5bd14f71427d1e84f3dd0314c0f7b2291e5b200ac8c7c3b925929181900390910190a350600192915050565b610bdb6111bf565b1515610be657600080fd5b600754600160ff90911611610c5c57604080517f08c379a000000000000000000000000000000000000000000000000000000000815260206004820152601660248201527f43414e545f52454d4f56455f4c4153545f41444d494e00000000000000000000604482015290519081900360640190fd5b610c6d60068263ffffffff61164616565b50600780547fffffffffffffffffffffffffffffffffffffffffffffffffffffffffffffff00811660ff9182167fffffffffffffffffffffffffffffffffffffffffffffffffffffffffffffffff01909116179055565b60025490565b610cdb60063363ffffffff6115f516565b80610d025750600754610100900473ffffffffffffffffffffffffffffffffffffffff1633145b1515610d9557604080517f08c379a000000000000000000000000000000000000000000000000000000000815260206004820152602660248201527f444f45535f4e4f545f484156455f41444d494e5f4f525f434f4e54524f4c4c4560448201527f525f524f4c450000000000000000000000000000000000000000000000000000606482015290519081900360840190fd5b3031811115610da357600080fd5b60405173ffffffffffffffffffffffffffffffffffffffff83169082156108fc029083906000818181858888f19350505050158015610de6573d6000803e3d6000fd5b505050565b73ffffffffffffffffffffffffffffffffffffffff83166000908152600160209081526040808320338452909152812054610e2c908363ffffffff6116ca16565b73ffffffffffffffffffffffffffffffffffffffff85166000908152600160209081526040808320338452909152902055610e6884848461147c565b73ffffffffffffffffffffffffffffffffffffffff84166000818152600160209081526040808320338085529083529281902054815190815290519293927f8c5be1e5ebec7d5bd14f71427d1e84f3dd0314c0f7b2291e5b200ac8c7c3b925929181900390910190a35060019392505050565b60055460ff1690565b600073ffffffffffffffffffffffffffffffffffffffff83161515610f0857600080fd5b33600090815260016020908152604080832073ffffffffffffffffffffffffffffffffffffffff87168452909152902054610f49908363ffffffff6116df16565b33600081815260016020908152604080832073ffffffffffffffffffffffffffffffffffffffff89168085529083529281902085905580519485525191937f8c5be1e5ebec7d5bd14f71427d1e84f3dd0314c0f7b2291e5b200ac8c7c3b925929081900390910190a350600192915050565b610fcc60063363ffffffff6115f516565b80610ff35750600754610100900473ffffffffffffffffffffffffffffffffffffffff1633145b151561108657604080517f08c379a000000000000000000000000000000000000000000000000000000000815260206004820152602660248201527f444f45535f4e4f545f484156455f41444d494e5f4f525f434f4e54524f4c4c4560448201527f525f524f4c450000000000000000000000000000000000000000000000000000606482015290519081900360840190fd5b61109082826116f8565b5050565b61109c6111bf565b15156110a757600080fd5b6110b860068263ffffffff6117c916565b506007805460ff808216600101167fffffffffffffffffffffffffffffffffffffffffffffffffffffffffffffff00909116179055565b73ffffffffffffffffffffffffffffffffffffffff1660009081526020819052604090205490565b61111f6111bf565b151561112a57600080fd5b600554604051600091610100900473ffffffffffffffffffffffffffffffffffffffff16907f8be0079c531659141344cd1fd0a4f28419497f9722a3daafe3b4186f6b6457e0908390a3600580547fffffffffffffffffffffff0000000000000000000000000000000000000000ff169055565b600554610100900473ffffffffffffffffffffffffffffffffffffffff1690565b600554610100900473ffffffffffffffffffffffffffffffffffffffff16331490565b60048054604080516020601f60027fffffffffffffffffffffffffffffffffffffffffffffffffffffffffffffffff610100600188161502019095169490940493840181900481028201810190925282815260609390929091830182828015610b315780601f10610b0657610100808354040283529160200191610b31565b61127260063363ffffffff6115f516565b806112995750600754610100900473ffffffffffffffffffffffffffffffffffffffff1633145b151561132c57604080517f08c379a000000000000000000000000000000000000000000000000000000000815260206004820152602660248201527f444f45535f4e4f545f484156455f41444d494e5f4f525f434f4e54524f4c4c4560448201527f525f524f4c450000000000000000000000000000000000000000000000000000606482015290519081900360840190fd5b611090828261184f565b600073ffffffffffffffffffffffffffffffffffffffff8316151561135a57600080fd5b33600090815260016020908152604080832073ffffffffffffffffffffffffffffffffffffffff87168452909152902054610f49908363ffffffff6116ca16565b60006113a833848461147c565b50600192915050565b6113c260063363ffffffff6115f516565b806113e95750600754610100900473ffffffffffffffffffffffffffffffffffffffff1633145b151561147c57604080517f08c379a000000000000000000000000000000000000000000000000000000000815260206004820152602660248201527f444f45535f4e4f545f484156455f41444d494e5f4f525f434f4e54524f4c4c4560448201527f525f524f4c450000000000000000000000000000000000000000000000000000606482015290519081900360840190fd5b73ffffffffffffffffffffffffffffffffffffffff8216151561149e57600080fd5b73ffffffffffffffffffffffffffffffffffffffff83166000908152602081905260409020546114d4908263ffffffff6116ca16565b73ffffffffffffffffffffffffffffffffffffffff8085166000908152602081905260408082209390935590841681522054611516908263ffffffff6116df16565b73ffffffffffffffffffffffffffffffffffffffff8084166000818152602081815260409182902094909455805185815290519193928716927fddf252ad1be2c89b69c2b068fc378daa952ba7f163c4a11628f55a4df523b3ef92918290030190a3505050565b73ffffffffffffffffffffffffffffffffffffffff918216600090815260016020908152604080832093909416825291909152205490565b6115bd6111bf565b15156115c857600080fd5b6115d18161191f565b50565b600754610100900473ffffffffffffffffffffffffffffffffffffffff1681565b600073ffffffffffffffffffffffffffffffffffffffff8216151561161957600080fd5b5073ffffffffffffffffffffffffffffffffffffffff166000908152602091909152604090205460ff1690565b73ffffffffffffffffffffffffffffffffffffffff8116151561166857600080fd5b61167282826115f5565b151561167d57600080fd5b73ffffffffffffffffffffffffffffffffffffffff1660009081526020919091526040902080547fffffffffffffffffffffffffffffffffffffffffffffffffffffffffffffff00169055565b6000828211156116d957600080fd5b50900390565b6000828201838110156116f157600080fd5b9392505050565b73ffffffffffffffffffffffffffffffffffffffff8216151561171a57600080fd5b60025461172d908263ffffffff6116df16565b60025573ffffffffffffffffffffffffffffffffffffffff8216600090815260208190526040902054611766908263ffffffff6116df16565b73ffffffffffffffffffffffffffffffffffffffff83166000818152602081815260408083209490945583518581529351929391927fddf252ad1be2c89b69c2b068fc378daa952ba7f163c4a11628f55a4df523b3ef9281900390910190a35050565b73ffffffffffffffffffffffffffffffffffffffff811615156117eb57600080fd5b6117f582826115f5565b156117ff57600080fd5b73ffffffffffffffffffffffffffffffffffffffff1660009081526020919091526040902080547fffffffffffffffffffffffffffffffffffffffffffffffffffffffffffffff00166001179055565b73ffffffffffffffffffffffffffffffffffffffff8216151561187157600080fd5b600254611884908263ffffffff6116ca16565b60025573ffffffffffffffffffffffffffffffffffffffff82166000908152602081905260409020546118bd908263ffffffff6116ca16565b73ffffffffffffffffffffffffffffffffffffffff8316600081815260208181526040808320949094558351858152935191937fddf252ad1be2c89b69c2b068fc378daa952ba7f163c4a11628f55a4df523b3ef929081900390910190a35050565b73ffffffffffffffffffffffffffffffffffffffff8116151561194157600080fd5b60055460405173ffffffffffffffffffffffffffffffffffffffff80841692610100900416907f8be0079c531659141344cd1fd0a4f28419497f9722a3daafe3b4186f6b6457e090600090a36005805473ffffffffffffffffffffffffffffffffffffffff909216610100027fffffffffffffffffffffff0000000000000000000000000000000000000000ff90921691909117905556fea165627a7a72305820fa755309d9affb8e0ca61800675c19e3f326d70361c28bcef31222a5123beb010029",
  "source": "pragma solidity ^0.5.0;\n\nimport \"./Ownable.sol\";\nimport \"./ERC20.sol\";\nimport \"./Roles.sol\";\nimport \"./ERC20Detailed.sol\";\nimport \"./SafeMath.sol\";\n\n/*        \nBy David Rudnick\nProduced by Folia.app\n*/\n\ncontract LuxERC20 is ERC20, ERC20Detailed, Ownable {\n    using SafeMath for uint256;\n    using Roles for Roles.Role;\n    Roles.Role private _admins;\n    uint8 admins;\n\n    address public controller;\n\n    constructor() public ERC20Detailed(\"Lux\", \"LUX\", 18){\n        _admins.add(msg.sender);\n        admins += 1;\n    }\n\n    modifier onlyAdminOrController() {\n        require((_admins.has(msg.sender) || msg.sender == controller), \"DOES_NOT_HAVE_ADMIN_OR_CONTROLLER_ROLE\");\n        _;\n    }\n\n    function updateController(address _controller) public onlyAdminOrController {\n        controller = _controller;\n    }\n\n    function mint(address account, uint256 value) public onlyAdminOrController {\n      _mint(account, value);\n    }\n\n    function burn(address account, uint256 value) public onlyAdminOrController {\n        _burn(account, value);\n    }\n\n    function adminTransfer(address from, address to, uint256 value) public onlyAdminOrController {\n        require(to != address(0));\n\n        _balances[from] = _balances[from].sub(value);\n        _balances[to] = _balances[to].add(value);\n        emit Transfer(from, to, value);\n    }\n\n    function addAdmin(address _admin) public onlyOwner {\n        _admins.add(_admin);\n        admins += 1;\n    }\n\n    function removeAdmin(address _admin) public onlyOwner {\n        require(admins > 1, \"CANT_REMOVE_LAST_ADMIN\");\n        _admins.remove(_admin);\n        admins -= 1;\n    }\n\n    /**\n    * @dev Moves Eth to a certain address for use in the FoliaController\n    * @param _to The address to receive the Eth.\n    * @param _amount The amount of Eth to be transferred.\n    */\n    function moveEth(address payable _to, uint256 _amount) public onlyAdminOrController {\n        require(_amount <= address(this).balance);\n        _to.transfer(_amount);\n    }\n    /**\n    * @dev Moves Token to a certain address for use in the FoliaController\n    * @param _to The address to receive the Token.\n    * @param _amount The amount of Token to be transferred.\n    * @param _token The address of the Token to be transferred.\n    */\n    function moveToken(address _to, uint256 _amount, address _token) public onlyAdminOrController returns (bool) {\n        require(_amount <= IERC20(_token).balanceOf(address(this)));\n        return IERC20(_token).transfer(_to, _amount);\n    }\n}\n",
  "sourcePath": "/Users/billy/GitHub/folia-app/folia-contracts/contracts/LuxERC20.sol",
  "compiler": {
    "name": "solc",
    "version": "0.5.0+commit.1d4f565a.Emscripten.clang"
  },
  "schemaVersion": "3.4.3",
  "updatedAt": "2022-09-06T17:06:34.983Z",
  "devdoc": {
    "methods": {
      "allowance(address,address)": {
        "details": "Function to check the amount of tokens that an owner allowed to a spender.",
        "params": {
          "owner": "address The address which owns the funds.",
          "spender": "address The address which will spend the funds."
        },
        "return": "A uint256 specifying the amount of tokens still available for the spender."
      },
      "approve(address,uint256)": {
        "details": "Approve the passed address to spend the specified amount of tokens on behalf of msg.sender. Beware that changing an allowance with this method brings the risk that someone may use both the old and the new allowance by unfortunate transaction ordering. One possible solution to mitigate this race condition is to first reduce the spender's allowance to 0 and set the desired value afterwards: https://github.com/ethereum/EIPs/issues/20#issuecomment-263524729",
        "params": {
          "spender": "The address which will spend the funds.",
          "value": "The amount of tokens to be spent."
        }
      },
      "balanceOf(address)": {
        "details": "Gets the balance of the specified address.",
        "params": {
          "owner": "The address to query the balance of."
        },
        "return": "An uint256 representing the amount owned by the passed address."
      },
      "decimals()": {
        "return": "the number of decimals of the token."
      },
      "decreaseAllowance(address,uint256)": {
        "details": "Decrease the amount of tokens that an owner allowed to a spender. approve should be called when allowed_[_spender] == 0. To decrement allowed value is better to use this function to avoid 2 calls (and wait until the first transaction is mined) From MonolithDAO Token.sol Emits an Approval event.",
        "params": {
          "spender": "The address which will spend the funds.",
          "subtractedValue": "The amount of tokens to decrease the allowance by."
        }
      },
      "increaseAllowance(address,uint256)": {
        "details": "Increase the amount of tokens that an owner allowed to a spender. approve should be called when allowed_[_spender] == 0. To increment allowed value is better to use this function to avoid 2 calls (and wait until the first transaction is mined) From MonolithDAO Token.sol Emits an Approval event.",
        "params": {
          "addedValue": "The amount of tokens to increase the allowance by.",
          "spender": "The address which will spend the funds."
        }
      },
      "isOwner()": {
        "return": "true if `msg.sender` is the owner of the contract."
      },
      "moveEth(address,uint256)": {
        "details": "Moves Eth to a certain address for use in the FoliaController",
        "params": {
          "_amount": "The amount of Eth to be transferred.",
          "_to": "The address to receive the Eth."
        }
      },
      "moveToken(address,uint256,address)": {
        "details": "Moves Token to a certain address for use in the FoliaController",
        "params": {
          "_amount": "The amount of Token to be transferred.",
          "_to": "The address to receive the Token.",
          "_token": "The address of the Token to be transferred."
        }
      },
      "name()": {
        "return": "the name of the token."
      },
      "owner()": {
        "return": "the address of the owner."
      },
      "renounceOwnership()": {
        "details": "Allows the current owner to relinquish control of the contract."
      },
      "symbol()": {
        "return": "the symbol of the token."
      },
      "totalSupply()": {
        "details": "Total number of tokens in existence"
      },
      "transfer(address,uint256)": {
        "details": "Transfer token for a specified address",
        "params": {
          "to": "The address to transfer to.",
          "value": "The amount to be transferred."
        }
      },
      "transferFrom(address,address,uint256)": {
        "details": "Transfer tokens from one address to another. Note that while this function emits an Approval event, this is not required as per the specification, and other compliant implementations may not emit the event.",
        "params": {
          "from": "address The address which you want to send tokens from",
          "to": "address The address which you want to transfer to",
          "value": "uint256 the amount of tokens to be transferred"
        }
      },
      "transferOwnership(address)": {
        "details": "Allows the current owner to transfer control of the contract to a newOwner.",
        "params": {
          "newOwner": "The address to transfer ownership to."
        }
      }
    }
  },
  "userdoc": {
    "methods": {
      "renounceOwnership()": {
        "notice": "Renouncing to ownership will leave the contract without an owner. It will not be possible to call the functions with the `onlyOwner` modifier anymore."
      }
    }
  }
}