{
  "contractName": "ReserveAuction",
  "abi": [
    {
      "inputs": [
        {
          "internalType": "address",
          "name": "_nftAddress",
          "type": "address"
        }
      ],
      "payable": false,
      "stateMutability": "nonpayable",
      "type": "constructor"
    },
    {
      "anonymous": false,
      "inputs": [
        {
          "indexed": false,
          "internalType": "uint256",
          "name": "tokenId",
          "type": "uint256"
        },
        {
          "indexed": false,
          "internalType": "address",
          "name": "nftAddress",
          "type": "address"
        },
        {
          "indexed": false,
          "internalType": "address",
          "name": "sender",
          "type": "address"
        },
        {
          "indexed": false,
          "internalType": "uint256",
          "name": "value",
          "type": "uint256"
        },
        {
          "indexed": false,
          "internalType": "uint256",
          "name": "timestamp",
          "type": "uint256"
        },
        {
          "indexed": false,
          "internalType": "bool",
          "name": "firstBid",
          "type": "bool"
        },
        {
          "indexed": false,
          "internalType": "bool",
          "name": "extended",
          "type": "bool"
        }
      ],
      "name": "AuctionBid",
      "type": "event"
    },
    {
      "anonymous": false,
      "inputs": [
        {
          "indexed": false,
          "internalType": "uint256",
          "name": "tokenId",
          "type": "uint256"
        },
        {
          "indexed": false,
          "internalType": "address",
          "name": "nftAddress",
          "type": "address"
        },
        {
          "indexed": false,
          "internalType": "address",
          "name": "creator",
          "type": "address"
        }
      ],
      "name": "AuctionCanceled",
      "type": "event"
    },
    {
      "anonymous": false,
      "inputs": [
        {
          "indexed": false,
          "internalType": "uint256",
          "name": "tokenId",
          "type": "uint256"
        },
        {
          "indexed": false,
          "internalType": "address",
          "name": "nftAddress",
          "type": "address"
        },
        {
          "indexed": false,
          "internalType": "uint256",
          "name": "duration",
          "type": "uint256"
        },
        {
          "indexed": false,
          "internalType": "uint256",
          "name": "reservePrice",
          "type": "uint256"
        },
        {
          "indexed": false,
          "internalType": "address",
          "name": "creator",
          "type": "address"
        }
      ],
      "name": "AuctionCreated",
      "type": "event"
    },
    {
      "anonymous": false,
      "inputs": [
        {
          "indexed": false,
          "internalType": "uint256",
          "name": "tokenId",
          "type": "uint256"
        },
        {
          "indexed": false,
          "internalType": "address",
          "name": "nftAddress",
          "type": "address"
        },
        {
          "indexed": false,
          "internalType": "address",
          "name": "creator",
          "type": "address"
        },
        {
          "indexed": false,
          "internalType": "address",
          "name": "winner",
          "type": "address"
        },
        {
          "indexed": false,
          "internalType": "uint256",
          "name": "amount",
          "type": "uint256"
        }
      ],
      "name": "AuctionEnded",
      "type": "event"
    },
    {
      "anonymous": false,
      "inputs": [
        {
          "indexed": true,
          "internalType": "address",
          "name": "previousOwner",
          "type": "address"
        },
        {
          "indexed": true,
          "internalType": "address",
          "name": "newOwner",
          "type": "address"
        }
      ],
      "name": "OwnershipTransferred",
      "type": "event"
    },
    {
      "anonymous": false,
      "inputs": [
        {
          "indexed": false,
          "internalType": "uint256",
          "name": "tokenId",
          "type": "uint256"
        },
        {
          "indexed": false,
          "internalType": "bool",
          "name": "paused",
          "type": "bool"
        }
      ],
      "name": "UpdateAuction",
      "type": "event"
    },
    {
      "constant": true,
      "inputs": [
        {
          "internalType": "uint256",
          "name": "",
          "type": "uint256"
        }
      ],
      "name": "auctions",
      "outputs": [
        {
          "internalType": "bool",
          "name": "exists",
          "type": "bool"
        },
        {
          "internalType": "bool",
          "name": "paused",
          "type": "bool"
        },
        {
          "internalType": "uint256",
          "name": "amount",
          "type": "uint256"
        },
        {
          "internalType": "uint256",
          "name": "tokenId",
          "type": "uint256"
        },
        {
          "internalType": "uint256",
          "name": "duration",
          "type": "uint256"
        },
        {
          "internalType": "uint256",
          "name": "firstBidTime",
          "type": "uint256"
        },
        {
          "internalType": "uint256",
          "name": "reservePrice",
          "type": "uint256"
        },
        {
          "internalType": "uint256",
          "name": "adminSplit",
          "type": "uint256"
        },
        {
          "internalType": "address",
          "name": "creator",
          "type": "address"
        },
        {
          "internalType": "address payable",
          "name": "admin",
          "type": "address"
        },
        {
          "internalType": "address payable",
          "name": "proceedsRecipient",
          "type": "address"
        },
        {
          "internalType": "address payable",
          "name": "bidder",
          "type": "address"
        }
      ],
      "payable": false,
      "stateMutability": "view",
      "type": "function"
    },
    {
      "constant": true,
      "inputs": [],
      "name": "globalPaused",
      "outputs": [
        {
          "internalType": "bool",
          "name": "",
          "type": "bool"
        }
      ],
      "payable": false,
      "stateMutability": "view",
      "type": "function"
    },
    {
      "constant": true,
      "inputs": [],
      "name": "isOwner",
      "outputs": [
        {
          "internalType": "bool",
          "name": "",
          "type": "bool"
        }
      ],
      "payable": false,
      "stateMutability": "view",
      "type": "function"
    },
    {
      "constant": true,
      "inputs": [],
      "name": "minBid",
      "outputs": [
        {
          "internalType": "uint256",
          "name": "",
          "type": "uint256"
        }
      ],
      "payable": false,
      "stateMutability": "view",
      "type": "function"
    },
    {
      "constant": true,
      "inputs": [],
      "name": "nftAddress",
      "outputs": [
        {
          "internalType": "address",
          "name": "",
          "type": "address"
        }
      ],
      "payable": false,
      "stateMutability": "view",
      "type": "function"
    },
    {
      "constant": true,
      "inputs": [],
      "name": "owner",
      "outputs": [
        {
          "internalType": "address",
          "name": "",
          "type": "address"
        }
      ],
      "payable": false,
      "stateMutability": "view",
      "type": "function"
    },
    {
      "constant": false,
      "inputs": [],
      "name": "renounceOwnership",
      "outputs": [],
      "payable": false,
      "stateMutability": "nonpayable",
      "type": "function"
    },
    {
      "constant": true,
      "inputs": [],
      "name": "timeBuffer",
      "outputs": [
        {
          "internalType": "uint256",
          "name": "",
          "type": "uint256"
        }
      ],
      "payable": false,
      "stateMutability": "view",
      "type": "function"
    },
    {
      "constant": true,
      "inputs": [
        {
          "internalType": "uint256",
          "name": "",
          "type": "uint256"
        }
      ],
      "name": "tokenIds",
      "outputs": [
        {
          "internalType": "uint256",
          "name": "",
          "type": "uint256"
        }
      ],
      "payable": false,
      "stateMutability": "view",
      "type": "function"
    },
    {
      "constant": false,
      "inputs": [
        {
          "internalType": "address",
          "name": "newOwner",
          "type": "address"
        }
      ],
      "name": "transferOwnership",
      "outputs": [],
      "payable": false,
      "stateMutability": "nonpayable",
      "type": "function"
    },
    {
      "constant": false,
      "inputs": [
        {
          "internalType": "address",
          "name": "_nftAddress",
          "type": "address"
        }
      ],
      "name": "updateNftAddress",
      "outputs": [],
      "payable": false,
      "stateMutability": "nonpayable",
      "type": "function"
    },
    {
      "constant": false,
      "inputs": [
        {
          "internalType": "uint256",
          "name": "_minBid",
          "type": "uint256"
        }
      ],
      "name": "updateMinBid",
      "outputs": [],
      "payable": false,
      "stateMutability": "nonpayable",
      "type": "function"
    },
    {
      "constant": false,
      "inputs": [
        {
          "internalType": "uint256",
          "name": "_timeBuffer",
          "type": "uint256"
        }
      ],
      "name": "updateTimeBuffer",
      "outputs": [],
      "payable": false,
      "stateMutability": "nonpayable",
      "type": "function"
    },
    {
      "constant": false,
      "inputs": [
        {
          "internalType": "uint256",
          "name": "tokenId",
          "type": "uint256"
        },
        {
          "internalType": "bool",
          "name": "paused",
          "type": "bool"
        }
      ],
      "name": "updateAuction",
      "outputs": [],
      "payable": false,
      "stateMutability": "nonpayable",
      "type": "function"
    },
    {
      "constant": false,
      "inputs": [
        {
          "internalType": "bool",
          "name": "paused",
          "type": "bool"
        },
        {
          "internalType": "uint256",
          "name": "tokenId",
          "type": "uint256"
        },
        {
          "internalType": "uint256",
          "name": "duration",
          "type": "uint256"
        },
        {
          "internalType": "uint256",
          "name": "reservePrice",
          "type": "uint256"
        },
        {
          "internalType": "uint256",
          "name": "adminSplit",
          "type": "uint256"
        },
        {
          "internalType": "address payable",
          "name": "admin",
          "type": "address"
        },
        {
          "internalType": "address payable",
          "name": "proceedsRecipient",
          "type": "address"
        }
      ],
      "name": "createAuction",
      "outputs": [],
      "payable": false,
      "stateMutability": "nonpayable",
      "type": "function"
    },
    {
      "constant": false,
      "inputs": [
        {
          "internalType": "uint256",
          "name": "tokenId",
          "type": "uint256"
        }
      ],
      "name": "createBid",
      "outputs": [],
      "payable": true,
      "stateMutability": "payable",
      "type": "function"
    },
    {
      "constant": false,
      "inputs": [
        {
          "internalType": "uint256",
          "name": "tokenId",
          "type": "uint256"
        }
      ],
      "name": "endAuction",
      "outputs": [],
      "payable": false,
      "stateMutability": "nonpayable",
      "type": "function"
    },
    {
      "constant": false,
      "inputs": [
        {
          "internalType": "uint256",
          "name": "tokenId",
          "type": "uint256"
        }
      ],
      "name": "cancelAuction",
      "outputs": [],
      "payable": false,
      "stateMutability": "nonpayable",
      "type": "function"
    },
    {
      "constant": false,
      "inputs": [
        {
          "internalType": "bool",
          "name": "_globalPaused",
          "type": "bool"
        }
      ],
      "name": "updatePaused",
      "outputs": [],
      "payable": false,
      "stateMutability": "nonpayable",
      "type": "function"
    }
  ],
  "bytecode": "0x608060405261038460035567016345785d8a00006004553480156200002357600080fd5b5060405162002e8a38038062002e8a83398181016040526200004991908101906200025a565b336000806101000a81548173ffffffffffffffffffffffffffffffffffffffff021916908373ffffffffffffffffffffffffffffffffffffffff1602179055506000809054906101000a900473ffffffffffffffffffffffffffffffffffffffff1673ffffffffffffffffffffffffffffffffffffffff16600073ffffffffffffffffffffffffffffffffffffffff167f8be0079c531659141344cd1fd0a4f28419497f9722a3daafe3b4186f6b6457e060405160405180910390a3600180819055508073ffffffffffffffffffffffffffffffffffffffff166301ffc9a76380ac58cd60e01b6040518263ffffffff1660e01b81526004016200014e919062000305565b60206040518083038186803b1580156200016757600080fd5b505afa1580156200017c573d6000803e3d6000fd5b505050506040513d601f19601f82011682018060405250620001a2919081019062000286565b620001e4576040517f08c379a0000000000000000000000000000000000000000000000000000000008152600401620001db9062000322565b60405180910390fd5b80600560006101000a81548173ffffffffffffffffffffffffffffffffffffffff021916908373ffffffffffffffffffffffffffffffffffffffff16021790555050620003f5565b6000815190506200023d81620003c1565b92915050565b6000815190506200025481620003db565b92915050565b6000602082840312156200026d57600080fd5b60006200027d848285016200022c565b91505092915050565b6000602082840312156200029957600080fd5b6000620002a98482850162000243565b91505092915050565b620002bd8162000375565b82525050565b6000620002d2601d8362000344565b91507f446f65736e277420737570706f7274204e465420696e746572666163650000006000830152602082019050919050565b60006020820190506200031c6000830184620002b2565b92915050565b600060208201905081810360008301526200033d81620002c3565b9050919050565b600082825260208201905092915050565b60006200036282620003a1565b9050919050565b60008115159050919050565b60007fffffffff0000000000000000000000000000000000000000000000000000000082169050919050565b600073ffffffffffffffffffffffffffffffffffffffff82169050919050565b620003cc8162000355565b8114620003d857600080fd5b50565b620003e68162000369565b8114620003f257600080fd5b50565b612a8580620004056000396000f3fe6080604052600436106101145760003560e01c8063715018a6116100a0578063b9a2de3a11610064578063b9a2de3a14610361578063d58778d61461038a578063e5eb7ae8146103c7578063ec91f2a4146103f0578063f2fde38b1461041b57610114565b8063715018a6146102a25780638da5cb5b146102b95780638f32d59b146102e457806396b5a7551461030f5780639b8e5d621461033857610114565b80633e109a19116100e75780633e109a19146101bd578063571a26a0146101e85780635bf8633a1461023057806361a552dc1461025b578063659dd2b41461028657610114565b806308cdc2a8146101195780633166fd1d1461014257806331c28e901461016b578063389bb6a414610194575b600080fd5b34801561012557600080fd5b50610140600480360361013b9190810190611e89565b610444565b005b34801561014e57600080fd5b5061016960048036036101649190810190611f79565b610472565b005b34801561017757600080fd5b50610192600480360361018d9190810190611fa2565b61048d565b005b3480156101a057600080fd5b506101bb60048036036101b69190810190611edb565b61056c565b005b3480156101c957600080fd5b506101d261096e565b6040516101df9190612789565b60405180910390f35b3480156101f457600080fd5b5061020f600480360361020a9190810190611f79565b610974565b6040516102279c9b9a999897969594939291906124f4565b60405180910390f35b34801561023c57600080fd5b50610245610a6e565b6040516102529190612450565b60405180910390f35b34801561026757600080fd5b50610270610a94565b60405161027d91906124d9565b60405180910390f35b6102a0600480360361029b9190810190611f79565b610aa7565b005b3480156102ae57600080fd5b506102b7610f9b565b005b3480156102c557600080fd5b506102ce61106b565b6040516102db9190612450565b60405180910390f35b3480156102f057600080fd5b506102f9611094565b60405161030691906124d9565b60405180910390f35b34801561031b57600080fd5b5061033660048036036103319190810190611f79565b6110eb565b005b34801561034457600080fd5b5061035f600480360361035a9190810190611f79565b6114e5565b005b34801561036d57600080fd5b5061038860048036036103839190810190611f79565b611500565b005b34801561039657600080fd5b506103b160048036036103ac9190810190611f79565b611af8565b6040516103be9190612789565b60405180910390f35b3480156103d357600080fd5b506103ee60048036036103e99190810190611e60565b611b19565b005b3480156103fc57600080fd5b50610405611c3d565b6040516104129190612789565b60405180910390f35b34801561042757600080fd5b50610442600480360361043d9190810190611e60565b611c43565b005b61044c611094565b61045557600080fd5b80600260006101000a81548160ff02191690831515021790555050565b61047a611094565b61048357600080fd5b8060048190555050565b610495611094565b61049e57600080fd5b6006600083815260200190815260200160002060000160009054906101000a900460ff16610501576040517f08c379a00000000000000000000000000000000000000000000000000000000081526004016104f890612689565b60405180910390fd5b806006600084815260200190815260200160002060000160016101000a81548160ff0219169083151502179055507f6c17b6afb000df6548f717a281c368a89912f8a6ec06177486f77916c507a03182826040516105609291906128f0565b60405180910390a15050565b600260009054906101000a900460ff16156105bc576040517f08c379a00000000000000000000000000000000000000000000000000000000081526004016105b390612669565b60405180910390fd5b6105c4611094565b6105cd57600080fd5b60018060008282540192505081905550600060015490506006600088815260200190815260200160002060000160009054906101000a900460ff1615610648576040517f08c379a000000000000000000000000000000000000000000000000000000000815260040161063f906125c9565b60405180910390fd5b6064841061068b576040517f08c379a0000000000000000000000000000000000000000000000000000000008152600401610682906126c9565b60405180910390fd5b6007879080600181540180825580915050906001820390600052602060002001600090919290919091505550876006600089815260200190815260200160002060000160016101000a81548160ff02191690831515021790555060016006600089815260200190815260200160002060000160006101000a81548160ff021916908315150217905550856006600089815260200190815260200160002060030181905550846006600089815260200190815260200160002060050181905550836006600089815260200190815260200160002060060181905550336006600089815260200190815260200160002060070160006101000a81548173ffffffffffffffffffffffffffffffffffffffff021916908373ffffffffffffffffffffffffffffffffffffffff160217905550826006600089815260200190815260200160002060080160006101000a81548173ffffffffffffffffffffffffffffffffffffffff021916908373ffffffffffffffffffffffffffffffffffffffff160217905550816006600089815260200190815260200160002060090160006101000a81548173ffffffffffffffffffffffffffffffffffffffff021916908373ffffffffffffffffffffffffffffffffffffffff160217905550600560009054906101000a900473ffffffffffffffffffffffffffffffffffffffff1673ffffffffffffffffffffffffffffffffffffffff166323b872dd33308a6040518463ffffffff1660e01b81526004016108c39392919061246b565b600060405180830381600087803b1580156108dd57600080fd5b505af11580156108f1573d6000803e3d6000fd5b505050507f082e2e78efcea783a9afe8f62b658bcf1e3482f87016915ab4214c446b69f43e87600560009054906101000a900473ffffffffffffffffffffffffffffffffffffffff1688883360405161094e95949392919061289d565b60405180910390a1600154811461096457600080fd5b5050505050505050565b60045481565b60066020528060005260406000206000915090508060000160009054906101000a900460ff16908060000160019054906101000a900460ff16908060010154908060020154908060030154908060040154908060050154908060060154908060070160009054906101000a900473ffffffffffffffffffffffffffffffffffffffff16908060080160009054906101000a900473ffffffffffffffffffffffffffffffffffffffff16908060090160009054906101000a900473ffffffffffffffffffffffffffffffffffffffff169080600a0160009054906101000a900473ffffffffffffffffffffffffffffffffffffffff1690508c565b600560009054906101000a900473ffffffffffffffffffffffffffffffffffffffff1681565b600260009054906101000a900460ff1681565b600260009054906101000a900460ff1615610af7576040517f08c379a0000000000000000000000000000000000000000000000000000000008152600401610aee90612669565b60405180910390fd5b60018060008282540192505081905550600060015490506006600083815260200190815260200160002060000160009054906101000a900460ff16610b71576040517f08c379a0000000000000000000000000000000000000000000000000000000008152600401610b6890612689565b60405180910390fd5b6006600083815260200190815260200160002060000160019054906101000a900460ff1615610bd5576040517f08c379a0000000000000000000000000000000000000000000000000000000008152600401610bcc906126a9565b60405180910390fd5b6006600083815260200190815260200160002060050154341015610c2e576040517f08c379a0000000000000000000000000000000000000000000000000000000008152600401610c25906126e9565b60405180910390fd5b600060066000848152602001908152602001600020600401541480610c805750600660008381526020019081526020016000206003015460066000848152602001908152602001600020600401540142105b610cbf576040517f08c379a0000000000000000000000000000000000000000000000000000000008152600401610cb690612749565b60405180910390fd5b60006006600084815260200190815260200160002060010154905060008060008314610dbc57823411610d27576040517f08c379a0000000000000000000000000000000000000000000000000000000008152600401610d1e90612649565b60405180910390fd5b600454610d3d8434611c6090919063ffffffff16565b1015610d7e576040517f08c379a0000000000000000000000000000000000000000000000000000000008152600401610d7590612769565b60405180910390fd5b60066000868152602001908152602001600020600a0160009054906101000a900473ffffffffffffffffffffffffffffffffffffffff169050610ddc565b600191504260066000878152602001908152602001600020600401819055505b3460066000878152602001908152602001600020600101819055503360066000878152602001908152602001600020600a0160006101000a81548173ffffffffffffffffffffffffffffffffffffffff021916908373ffffffffffffffffffffffffffffffffffffffff1602179055506000600354610ea242610e94600660008b815260200190815260200160002060030154600660008c815260200190815260200160002060040154611c8090919063ffffffff16565b611c6090919063ffffffff16565b1015610ed3576003546006600088815260200190815260200160002060030160008282540192505081905550600190505b7f17aab958f10298d4269017458487925b395b4f89ddd829049ea143fd754cf7a986600560009054906101000a900473ffffffffffffffffffffffffffffffffffffffff163334428887604051610f3097969594939291906127db565b60405180910390a182610f85578173ffffffffffffffffffffffffffffffffffffffff166108fc859081150290604051600060405180830381858888f19350505050158015610f83573d6000803e3d6000fd5b505b505050506001548114610f9757600080fd5b5050565b610fa3611094565b610fac57600080fd5b600073ffffffffffffffffffffffffffffffffffffffff166000809054906101000a900473ffffffffffffffffffffffffffffffffffffffff1673ffffffffffffffffffffffffffffffffffffffff167f8be0079c531659141344cd1fd0a4f28419497f9722a3daafe3b4186f6b6457e060405160405180910390a360008060006101000a81548173ffffffffffffffffffffffffffffffffffffffff021916908373ffffffffffffffffffffffffffffffffffffffff160217905550565b60008060009054906101000a900473ffffffffffffffffffffffffffffffffffffffff16905090565b60008060009054906101000a900473ffffffffffffffffffffffffffffffffffffffff1673ffffffffffffffffffffffffffffffffffffffff163373ffffffffffffffffffffffffffffffffffffffff1614905090565b60018060008282540192505081905550600060015490506006600083815260200190815260200160002060000160009054906101000a900460ff16611165576040517f08c379a000000000000000000000000000000000000000000000000000000000815260040161115c90612689565b60405180910390fd5b3373ffffffffffffffffffffffffffffffffffffffff166006600084815260200190815260200160002060070160009054906101000a900473ffffffffffffffffffffffffffffffffffffffff1673ffffffffffffffffffffffffffffffffffffffff16148061120757506111d861106b565b73ffffffffffffffffffffffffffffffffffffffff163373ffffffffffffffffffffffffffffffffffffffff16145b611246576040517f08c379a000000000000000000000000000000000000000000000000000000000815260040161123d90612629565b60405180910390fd5b600060066000848152602001908152602001600020600401541461129f576040517f08c379a0000000000000000000000000000000000000000000000000000000008152600401611296906125e9565b60405180910390fd5b60006006600084815260200190815260200160002060070160009054906101000a900473ffffffffffffffffffffffffffffffffffffffff16905060066000848152602001908152602001600020600080820160006101000a81549060ff02191690556000820160016101000a81549060ff02191690556001820160009055600282016000905560038201600090556004820160009055600582016000905560068201600090556007820160006101000a81549073ffffffffffffffffffffffffffffffffffffffff02191690556008820160006101000a81549073ffffffffffffffffffffffffffffffffffffffff02191690556009820160006101000a81549073ffffffffffffffffffffffffffffffffffffffff0219169055600a820160006101000a81549073ffffffffffffffffffffffffffffffffffffffff02191690555050600560009054906101000a900473ffffffffffffffffffffffffffffffffffffffff1673ffffffffffffffffffffffffffffffffffffffff166323b872dd3083866040518463ffffffff1660e01b8152600401611443939291906124a2565b600060405180830381600087803b15801561145d57600080fd5b505af1158015611471573d6000803e3d6000fd5b505050507f31e46b3372adff8978a18a1c543a6b3a925ee693bdf7a7c54df36f30f87d290e83600560009054906101000a900473ffffffffffffffffffffffffffffffffffffffff16836040516114ca939291906127a4565b60405180910390a15060015481146114e157600080fd5b5050565b6114ed611094565b6114f657600080fd5b8060038190555050565b600260009054906101000a900460ff1615611550576040517f08c379a000000000000000000000000000000000000000000000000000000000815260040161154790612669565b60405180910390fd5b60018060008282540192505081905550600060015490506006600083815260200190815260200160002060000160009054906101000a900460ff166115ca576040517f08c379a00000000000000000000000000000000000000000000000000000000081526004016115c190612689565b60405180910390fd5b6006600083815260200190815260200160002060000160019054906101000a900460ff161561162e576040517f08c379a0000000000000000000000000000000000000000000000000000000008152600401611625906126a9565b60405180910390fd5b600060066000848152602001908152602001600020600401541415611688576040517f08c379a000000000000000000000000000000000000000000000000000000000815260040161167f90612609565b60405180910390fd5b60066000838152602001908152602001600020600301546006600084815260200190815260200160002060040154014210156116f9576040517f08c379a00000000000000000000000000000000000000000000000000000000081526004016116f090612709565b60405180910390fd5b600060066000848152602001908152602001600020600a0160009054906101000a900473ffffffffffffffffffffffffffffffffffffffff16905060006006600085815260200190815260200160002060010154905060006006600086815260200190815260200160002060070160009054906101000a900473ffffffffffffffffffffffffffffffffffffffff1690507f19f5e73c484e5274d91de54225d8a1330339f61b5f27dbe05c47ff361b8dd3c185600560009054906101000a900473ffffffffffffffffffffffffffffffffffffffff168386866040516117e395949392919061284a565b60405180910390a160066000868152602001908152602001600020600080820160006101000a81549060ff02191690556000820160016101000a81549060ff02191690556001820160009055600282016000905560038201600090556004820160009055600582016000905560068201600090556007820160006101000a81549073ffffffffffffffffffffffffffffffffffffffff02191690556008820160006101000a81549073ffffffffffffffffffffffffffffffffffffffff02191690556009820160006101000a81549073ffffffffffffffffffffffffffffffffffffffff0219169055600a820160006101000a81549073ffffffffffffffffffffffffffffffffffffffff02191690555050600560009054906101000a900473ffffffffffffffffffffffffffffffffffffffff1673ffffffffffffffffffffffffffffffffffffffff166323b872dd3085886040518463ffffffff1660e01b8152600401611954939291906124a2565b600060405180830381600087803b15801561196e57600080fd5b505af1158015611982573d6000803e3d6000fd5b5050505060006119c460646119b6600660008a81526020019081526020016000206006015486611c9f90919063ffffffff16565b611cd990919063ffffffff16565b905060006119db8285611c6090919063ffffffff16565b90506000821115611a64576006600088815260200190815260200160002060080160009054906101000a900473ffffffffffffffffffffffffffffffffffffffff1673ffffffffffffffffffffffffffffffffffffffff166108fc839081150290604051600060405180830381858888f19350505050158015611a62573d6000803e3d6000fd5b505b6006600088815260200190815260200160002060090160009054906101000a900473ffffffffffffffffffffffffffffffffffffffff1673ffffffffffffffffffffffffffffffffffffffff166108fc829081150290604051600060405180830381858888f19350505050158015611ae0573d6000803e3d6000fd5b5050505050506001548114611af457600080fd5b5050565b60078181548110611b0557fe5b906000526020600020016000915090505481565b611b21611094565b611b2a57600080fd5b8073ffffffffffffffffffffffffffffffffffffffff166301ffc9a76380ac58cd60e01b6040518263ffffffff1660e01b8152600401611b6a91906125ae565b60206040518083038186803b158015611b8257600080fd5b505afa158015611b96573d6000803e3d6000fd5b505050506040513d601f19601f82011682018060405250611bba9190810190611eb2565b611bf9576040517f08c379a0000000000000000000000000000000000000000000000000000000008152600401611bf090612729565b60405180910390fd5b80600560006101000a81548173ffffffffffffffffffffffffffffffffffffffff021916908373ffffffffffffffffffffffffffffffffffffffff16021790555050565b60035481565b611c4b611094565b611c5457600080fd5b611c5d81611cff565b50565b600082821115611c6f57600080fd5b600082840390508091505092915050565b600080828401905083811015611c9557600080fd5b8091505092915050565b600080831415611cb25760009050611cd3565b6000828402905082848281611cc357fe5b0414611cce57600080fd5b809150505b92915050565b6000808211611ce757600080fd5b6000828481611cf257fe5b0490508091505092915050565b600073ffffffffffffffffffffffffffffffffffffffff168173ffffffffffffffffffffffffffffffffffffffff161415611d3957600080fd5b8073ffffffffffffffffffffffffffffffffffffffff166000809054906101000a900473ffffffffffffffffffffffffffffffffffffffff1673ffffffffffffffffffffffffffffffffffffffff167f8be0079c531659141344cd1fd0a4f28419497f9722a3daafe3b4186f6b6457e060405160405180910390a3806000806101000a81548173ffffffffffffffffffffffffffffffffffffffff021916908373ffffffffffffffffffffffffffffffffffffffff16021790555050565b600081359050611e06816129e6565b92915050565b600081359050611e1b816129fd565b92915050565b600081359050611e3081612a14565b92915050565b600081519050611e4581612a14565b92915050565b600081359050611e5a81612a2b565b92915050565b600060208284031215611e7257600080fd5b6000611e8084828501611df7565b91505092915050565b600060208284031215611e9b57600080fd5b6000611ea984828501611e21565b91505092915050565b600060208284031215611ec457600080fd5b6000611ed284828501611e36565b91505092915050565b600080600080600080600060e0888a031215611ef657600080fd5b6000611f048a828b01611e21565b9750506020611f158a828b01611e4b565b9650506040611f268a828b01611e4b565b9550506060611f378a828b01611e4b565b9450506080611f488a828b01611e4b565b93505060a0611f598a828b01611e0c565b92505060c0611f6a8a828b01611e0c565b91505092959891949750929550565b600060208284031215611f8b57600080fd5b6000611f9984828501611e4b565b91505092915050565b60008060408385031215611fb557600080fd5b6000611fc385828601611e4b565b9250506020611fd485828601611e21565b9150509250929050565b611fe7816129b0565b82525050565b611ff68161293c565b82525050565b6120058161292a565b82525050565b6120148161294e565b82525050565b6120238161295a565b82525050565b6000612036601683612919565b91507f41756374696f6e20616c726561647920657869737473000000000000000000006000830152602082019050919050565b6000612076602783612919565b91507f43616e27742063616e63656c20616e2061756374696f6e206f6e63652069742760008301527f7320626567756e000000000000000000000000000000000000000000000000006020830152604082019050919050565b60006120dc601483612919565b91507f41756374696f6e206861736e277420626567756e0000000000000000000000006000830152602082019050919050565b600061211c602e83612919565b91507f43616e206f6e6c792062652063616c6c65642062792061756374696f6e20637260008301527f6561746f72206f72206f776e65720000000000000000000000000000000000006020830152604082019050919050565b6000612182601c83612919565b91507f4d7573742073656e64206d6f7265207468616e206c61737420626964000000006000830152602082019050919050565b60006121c2601283612919565b91507f4d757374206e6f742062652070617573656400000000000000000000000000006000830152602082019050919050565b6000612202601583612919565b91507f41756374696f6e20646f65736e277420657869737400000000000000000000006000830152602082019050919050565b6000612242600e83612919565b91507f41756374696f6e207061757365640000000000000000000000000000000000006000830152602082019050919050565b6000612282602283612919565b91507f50657263656e746167652068617320746f206265206c657373207468616e203160008301527f30300000000000000000000000000000000000000000000000000000000000006020830152604082019050919050565b60006122e8601e83612919565b91507f4d7573742073656e6420726573657276655072696365206f72206d6f726500006000830152602082019050919050565b6000612328601883612919565b91507f41756374696f6e206861736e277420636f6d706c6574656400000000000000006000830152602082019050919050565b6000612368601d83612919565b91507f446f65736e277420737570706f7274204e465420696e746572666163650000006000830152602082019050919050565b60006123a8600f83612919565b91507f41756374696f6e206578706972656400000000000000000000000000000000006000830152602082019050919050565b60006123e8602d83612919565b91507f4d7573742073656e64206d6f7265207468616e206c617374206269642062792060008301527f6d696e42696420416d6f756e74000000000000000000000000000000000000006020830152604082019050919050565b61244a816129a6565b82525050565b60006020820190506124656000830184611ffc565b92915050565b60006060820190506124806000830186611fde565b61248d6020830185611ffc565b61249a6040830184612441565b949350505050565b60006060820190506124b76000830186611ffc565b6124c46020830185611ffc565b6124d16040830184612441565b949350505050565b60006020820190506124ee600083018461200b565b92915050565b60006101808201905061250a600083018f61200b565b612517602083018e61200b565b612524604083018d612441565b612531606083018c612441565b61253e608083018b612441565b61254b60a083018a612441565b61255860c0830189612441565b61256560e0830188612441565b612573610100830187611ffc565b612581610120830186611fed565b61258f610140830185611fed565b61259d610160830184611fed565b9d9c50505050505050505050505050565b60006020820190506125c3600083018461201a565b92915050565b600060208201905081810360008301526125e281612029565b9050919050565b6000602082019050818103600083015261260281612069565b9050919050565b60006020820190508181036000830152612622816120cf565b9050919050565b600060208201905081810360008301526126428161210f565b9050919050565b6000602082019050818103600083015261266281612175565b9050919050565b60006020820190508181036000830152612682816121b5565b9050919050565b600060208201905081810360008301526126a2816121f5565b9050919050565b600060208201905081810360008301526126c281612235565b9050919050565b600060208201905081810360008301526126e281612275565b9050919050565b60006020820190508181036000830152612702816122db565b9050919050565b600060208201905081810360008301526127228161231b565b9050919050565b600060208201905081810360008301526127428161235b565b9050919050565b600060208201905081810360008301526127628161239b565b9050919050565b60006020820190508181036000830152612782816123db565b9050919050565b600060208201905061279e6000830184612441565b92915050565b60006060820190506127b96000830186612441565b6127c66020830185611ffc565b6127d36040830184611ffc565b949350505050565b600060e0820190506127f0600083018a612441565b6127fd6020830189611ffc565b61280a6040830188611fde565b6128176060830187612441565b6128246080830186612441565b61283160a083018561200b565b61283e60c083018461200b565b98975050505050505050565b600060a08201905061285f6000830188612441565b61286c6020830187611ffc565b6128796040830186611ffc565b6128866060830185611ffc565b6128936080830184612441565b9695505050505050565b600060a0820190506128b26000830188612441565b6128bf6020830187611ffc565b6128cc6040830186612441565b6128d96060830185612441565b6128e66080830184611fde565b9695505050505050565b60006040820190506129056000830185612441565b612912602083018461200b565b9392505050565b600082825260208201905092915050565b600061293582612986565b9050919050565b600061294782612986565b9050919050565b60008115159050919050565b60007fffffffff0000000000000000000000000000000000000000000000000000000082169050919050565b600073ffffffffffffffffffffffffffffffffffffffff82169050919050565b6000819050919050565b60006129bb826129c2565b9050919050565b60006129cd826129d4565b9050919050565b60006129df82612986565b9050919050565b6129ef8161292a565b81146129fa57600080fd5b50565b612a068161293c565b8114612a1157600080fd5b50565b612a1d8161294e565b8114612a2857600080fd5b50565b612a34816129a6565b8114612a3f57600080fd5b5056fea365627a7a723158202fcf3c99cadd3188455c41e282c148d23306a866448af6afdb9ad668e4204e376c6578706572696d656e74616cf564736f6c63430005100040",
  "source": "pragma solidity ^0.5.0;\npragma experimental ABIEncoderV2;\n\nimport \"openzeppelin-solidity/contracts/math/SafeMath.sol\";\nimport \"openzeppelin-solidity/contracts/ownership/Ownable.sol\";\n\nimport \"openzeppelin-solidity/contracts/token/ERC721/IERC721.sol\";\nimport \"openzeppelin-solidity/contracts/introspection/IERC165.sol\";\nimport \"openzeppelin-solidity/contracts/utils/ReentrancyGuard.sol\";\n\n/**\n\n                                                              \n                                                                 \n                                                          \n                                                     \n                                          \n                                                                  \n                                                                                      \n                                                                                                          \n                                                                                                                       \n                                                                                                                                        \n                                                          \n                                                 \n                                          \n                                         \n                              \n                                                   \n                                                                      \n                                                                                                   \n                                                                                                                   \n                                                                                                                                    \n\n*/\n\ncontract ReserveAuction is Ownable, ReentrancyGuard {\n    using SafeMath for uint256;\n\n    bool public globalPaused;\n\n    uint256 public timeBuffer = 15 * 60; // extend 15 minutes after every bid made in last 15 minutes\n    uint256 public minBid = 1 * 10**17; // 0.1 eth\n\n    bytes4 constant interfaceId = 0x80ac58cd; // 721 interface id\n    address public nftAddress;\n\n    mapping(uint256 => Auction) public auctions;\n    uint256[] public tokenIds;\n\n    struct Auction {\n        bool exists;\n        bool paused;\n        uint256 amount;\n        uint256 tokenId;\n        uint256 duration;\n        uint256 firstBidTime;\n        uint256 reservePrice;\n        uint256 adminSplit; // percentage of 100\n        address creator;\n        address payable admin;\n        address payable proceedsRecipient;\n        address payable bidder;\n    }\n\n    modifier notPaused() {\n        require(!globalPaused, \"Must not be paused\");\n        _;\n    }\n\n    event AuctionCreated(\n        uint256 tokenId,\n        address nftAddress,\n        uint256 duration,\n        uint256 reservePrice,\n        address creator\n    );\n    event AuctionBid(\n        uint256 tokenId,\n        address nftAddress,\n        address sender,\n        uint256 value,\n        uint256 timestamp,\n        bool firstBid,\n        bool extended\n    );\n    event AuctionEnded(\n        uint256 tokenId,\n        address nftAddress,\n        address creator,\n        address winner,\n        uint256 amount\n    );\n    event AuctionCanceled(\n        uint256 tokenId,\n        address nftAddress,\n        address creator\n    );\n    event UpdateAuction(\n        uint256 tokenId,\n        bool paused\n    );\n\n    constructor(address _nftAddress) public {\n        require(\n            IERC165(_nftAddress).supportsInterface(interfaceId),\n            \"Doesn't support NFT interface\"\n        );\n        nftAddress = _nftAddress;\n    }\n\n    function updateNftAddress(address _nftAddress) public onlyOwner {\n        require(\n            IERC165(_nftAddress).supportsInterface(interfaceId),\n            \"Doesn't support NFT interface\"\n        );\n        nftAddress = _nftAddress;\n    }\n\n    function updateMinBid(uint256 _minBid) public onlyOwner {\n        minBid = _minBid;\n    }\n\n    function updateTimeBuffer(uint256 _timeBuffer) public onlyOwner {\n        timeBuffer = _timeBuffer;\n    }\n\n    function updateAuction(uint256 tokenId, bool paused) public onlyOwner {\n        require(auctions[tokenId].exists, \"Auction doesn't exist\");\n        auctions[tokenId].paused = paused;\n        emit UpdateAuction(tokenId, paused);\n    }\n\n    function createAuction(\n        bool paused,\n        uint256 tokenId,\n        uint256 duration,\n        uint256 reservePrice,\n        uint256 adminSplit, // percentage\n        address payable admin,\n        address payable proceedsRecipient\n    ) external notPaused onlyOwner nonReentrant {\n        require(!auctions[tokenId].exists, \"Auction already exists\");\n        require(adminSplit < 100, \"Percentage has to be less than 100\");\n        tokenIds.push(tokenId);\n\n        auctions[tokenId].paused = paused;\n        auctions[tokenId].exists = true;\n        auctions[tokenId].duration = duration;\n        auctions[tokenId].reservePrice = reservePrice;\n\n        auctions[tokenId].adminSplit = adminSplit;\n        auctions[tokenId].creator = msg.sender;\n        auctions[tokenId].admin = admin;\n        auctions[tokenId].proceedsRecipient = proceedsRecipient;\n\n        IERC721(nftAddress).transferFrom(msg.sender, address(this), tokenId);\n\n        emit AuctionCreated(tokenId, nftAddress, duration, reservePrice, msg.sender);\n    }\n\n    function createBid(uint256 tokenId) external payable notPaused nonReentrant {\n        require(auctions[tokenId].exists, \"Auction doesn't exist\");\n        require(!auctions[tokenId].paused, \"Auction paused\");\n        require(\n            msg.value >= auctions[tokenId].reservePrice,\n            \"Must send reservePrice or more\"\n        );\n        require(\n            auctions[tokenId].firstBidTime == 0 ||\n                block.timestamp <\n                auctions[tokenId].firstBidTime + auctions[tokenId].duration,\n            \"Auction expired\"\n        );\n\n        uint256 lastValue = auctions[tokenId].amount;\n\n        bool firstBid;\n        address payable lastBidder;\n\n        // allows for auctions with starting price of 0\n        if (lastValue != 0) {\n            require(msg.value > lastValue, \"Must send more than last bid\");\n            require(\n                msg.value.sub(lastValue) >= minBid,\n                \"Must send more than last bid by minBid Amount\"\n            );\n            lastBidder = auctions[tokenId].bidder;\n        } else {\n            firstBid = true;\n            auctions[tokenId].firstBidTime = block.timestamp;\n        }\n\n        auctions[tokenId].amount = msg.value;\n        auctions[tokenId].bidder = msg.sender;\n\n        bool extended;\n        // at this point we know that the timestamp is less than start + duration\n        // we want to know by how much the timestamp is less than start + duration\n        // if the difference is less than the timeBuffer, increase the duration by the timeBuffer\n        if (\n            (auctions[tokenId].firstBidTime.add(auctions[tokenId].duration))\n                .sub(block.timestamp) < timeBuffer\n        ) {\n            auctions[tokenId].duration += timeBuffer;\n            extended = true;\n        }\n\n \n\n        emit AuctionBid(\n            tokenId,\n            nftAddress,\n            msg.sender,\n            msg.value,\n            block.timestamp,\n            firstBid,\n            extended\n        );\n        if (!firstBid) {\n            lastBidder.transfer(lastValue);\n        }\n    }\n\n    function endAuction(uint256 tokenId) external notPaused nonReentrant {\n        require(auctions[tokenId].exists, \"Auction doesn't exist\");\n        require(!auctions[tokenId].paused, \"Auction paused\");\n        require(\n            uint256(auctions[tokenId].firstBidTime) != 0,\n            \"Auction hasn't begun\"\n        );\n        require(\n            block.timestamp >=\n                auctions[tokenId].firstBidTime + auctions[tokenId].duration,\n            \"Auction hasn't completed\"\n        );\n\n        address winner = auctions[tokenId].bidder;\n        uint256 amount = auctions[tokenId].amount;\n        address creator = auctions[tokenId].creator;\n\n        emit AuctionEnded(tokenId, nftAddress, creator, winner, amount);\n        delete auctions[tokenId];\n\n        IERC721(nftAddress).transferFrom(address(this), winner, tokenId);\n\n        uint256 adminReceives = amount.mul(auctions[tokenId].adminSplit).div(100);\n        uint256 proceedsAmount = amount.sub(adminReceives);\n        if (adminReceives > 0) {\n            auctions[tokenId].admin.transfer(adminReceives);\n        }\n        auctions[tokenId].proceedsRecipient.transfer(proceedsAmount);\n    }\n\n    function cancelAuction(uint256 tokenId) external nonReentrant {\n        require(auctions[tokenId].exists, \"Auction doesn't exist\");\n        require(\n            auctions[tokenId].creator == msg.sender || msg.sender == owner(),\n            \"Can only be called by auction creator or owner\"\n        );\n        require(\n            uint256(auctions[tokenId].firstBidTime) == 0,\n            \"Can't cancel an auction once it's begun\"\n        );\n        address creator = auctions[tokenId].creator;\n        delete auctions[tokenId];\n        IERC721(nftAddress).transferFrom(address(this), creator, tokenId);\n        emit AuctionCanceled(tokenId, nftAddress, creator);\n    }\n\n    function updatePaused(bool _globalPaused) public onlyOwner {\n        globalPaused = _globalPaused;\n    }\n}\n",
  "sourcePath": "/Users/billy/GitHub/folia-app/folia-contracts/contracts/ReserveAuction.sol",
  "compiler": {
    "name": "solc",
    "version": "0.5.16+commit.9c3226ce.Emscripten.clang"
  },
  "schemaVersion": "3.3.2",
  "updatedAt": "2021-03-19T17:05:35.069Z",
  "networkType": "ethereum",
  "devdoc": {
    "methods": {
      "isOwner()": {
        "return": "true if `msg.sender` is the owner of the contract."
      },
      "owner()": {
        "return": "the address of the owner."
      },
      "renounceOwnership()": {
        "details": "Allows the current owner to relinquish control of the contract."
      },
      "transferOwnership(address)": {
        "details": "Allows the current owner to transfer control of the contract to a newOwner.",
        "params": {
          "newOwner": "The address to transfer ownership to."
        }
      }
    }
  },
  "userdoc": {
    "methods": {
      "renounceOwnership()": {
        "notice": "Renouncing to ownership will leave the contract without an owner. It will not be possible to call the functions with the `onlyOwner` modifier anymore."
      }
    },
    "notice": "                                                                                                                                                                                                                                                                                                                                                                                                                                                                                                                                                                                                                                                                                                                                                                                                                                                                                                                                                                                                                                                                                                                                                                                                                                                                                                                                                                                                                                                                                            "
  }
}