{
  "contractName": "ReserveAuction",
  "abi": [
    {
      "constant": true,
      "inputs": [],
      "name": "minBid",
      "outputs": [
        {
          "name": "",
          "type": "uint256"
        }
      ],
      "payable": false,
      "stateMutability": "view",
      "type": "function"
    },
    {
      "constant": true,
      "inputs": [
        {
          "name": "",
          "type": "uint256"
        }
      ],
      "name": "auctions",
      "outputs": [
        {
          "name": "exists",
          "type": "bool"
        },
        {
          "name": "paused",
          "type": "bool"
        },
        {
          "name": "amount",
          "type": "uint256"
        },
        {
          "name": "tokenId",
          "type": "uint256"
        },
        {
          "name": "duration",
          "type": "uint256"
        },
        {
          "name": "firstBidTime",
          "type": "uint256"
        },
        {
          "name": "reservePrice",
          "type": "uint256"
        },
        {
          "name": "adminSplit",
          "type": "uint256"
        },
        {
          "name": "creator",
          "type": "address"
        },
        {
          "name": "admin",
          "type": "address"
        },
        {
          "name": "proceedsRecipient",
          "type": "address"
        },
        {
          "name": "bidder",
          "type": "address"
        }
      ],
      "payable": false,
      "stateMutability": "view",
      "type": "function"
    },
    {
      "constant": true,
      "inputs": [],
      "name": "nftAddress",
      "outputs": [
        {
          "name": "",
          "type": "address"
        }
      ],
      "payable": false,
      "stateMutability": "view",
      "type": "function"
    },
    {
      "constant": true,
      "inputs": [],
      "name": "globalPaused",
      "outputs": [
        {
          "name": "",
          "type": "bool"
        }
      ],
      "payable": false,
      "stateMutability": "view",
      "type": "function"
    },
    {
      "constant": false,
      "inputs": [],
      "name": "renounceOwnership",
      "outputs": [],
      "payable": false,
      "stateMutability": "nonpayable",
      "type": "function"
    },
    {
      "constant": true,
      "inputs": [],
      "name": "owner",
      "outputs": [
        {
          "name": "",
          "type": "address"
        }
      ],
      "payable": false,
      "stateMutability": "view",
      "type": "function"
    },
    {
      "constant": true,
      "inputs": [],
      "name": "isOwner",
      "outputs": [
        {
          "name": "",
          "type": "bool"
        }
      ],
      "payable": false,
      "stateMutability": "view",
      "type": "function"
    },
    {
      "constant": true,
      "inputs": [
        {
          "name": "",
          "type": "uint256"
        }
      ],
      "name": "tokenIds",
      "outputs": [
        {
          "name": "",
          "type": "uint256"
        }
      ],
      "payable": false,
      "stateMutability": "view",
      "type": "function"
    },
    {
      "constant": true,
      "inputs": [],
      "name": "timeBuffer",
      "outputs": [
        {
          "name": "",
          "type": "uint256"
        }
      ],
      "payable": false,
      "stateMutability": "view",
      "type": "function"
    },
    {
      "constant": false,
      "inputs": [
        {
          "name": "newOwner",
          "type": "address"
        }
      ],
      "name": "transferOwnership",
      "outputs": [],
      "payable": false,
      "stateMutability": "nonpayable",
      "type": "function"
    },
    {
      "inputs": [
        {
          "name": "_nftAddress",
          "type": "address"
        }
      ],
      "payable": false,
      "stateMutability": "nonpayable",
      "type": "constructor"
    },
    {
      "anonymous": false,
      "inputs": [
        {
          "indexed": false,
          "name": "tokenId",
          "type": "uint256"
        },
        {
          "indexed": false,
          "name": "nftAddress",
          "type": "address"
        },
        {
          "indexed": false,
          "name": "duration",
          "type": "uint256"
        },
        {
          "indexed": false,
          "name": "reservePrice",
          "type": "uint256"
        },
        {
          "indexed": false,
          "name": "creator",
          "type": "address"
        }
      ],
      "name": "AuctionCreated",
      "type": "event"
    },
    {
      "anonymous": false,
      "inputs": [
        {
          "indexed": false,
          "name": "tokenId",
          "type": "uint256"
        },
        {
          "indexed": false,
          "name": "nftAddress",
          "type": "address"
        },
        {
          "indexed": false,
          "name": "sender",
          "type": "address"
        },
        {
          "indexed": false,
          "name": "value",
          "type": "uint256"
        },
        {
          "indexed": false,
          "name": "timestamp",
          "type": "uint256"
        },
        {
          "indexed": false,
          "name": "firstBid",
          "type": "bool"
        },
        {
          "indexed": false,
          "name": "extended",
          "type": "bool"
        }
      ],
      "name": "AuctionBid",
      "type": "event"
    },
    {
      "anonymous": false,
      "inputs": [
        {
          "indexed": false,
          "name": "tokenId",
          "type": "uint256"
        },
        {
          "indexed": false,
          "name": "nftAddress",
          "type": "address"
        },
        {
          "indexed": false,
          "name": "creator",
          "type": "address"
        },
        {
          "indexed": false,
          "name": "winner",
          "type": "address"
        },
        {
          "indexed": false,
          "name": "amount",
          "type": "uint256"
        }
      ],
      "name": "AuctionEnded",
      "type": "event"
    },
    {
      "anonymous": false,
      "inputs": [
        {
          "indexed": false,
          "name": "tokenId",
          "type": "uint256"
        },
        {
          "indexed": false,
          "name": "nftAddress",
          "type": "address"
        },
        {
          "indexed": false,
          "name": "creator",
          "type": "address"
        }
      ],
      "name": "AuctionCanceled",
      "type": "event"
    },
    {
      "anonymous": false,
      "inputs": [
        {
          "indexed": false,
          "name": "tokenId",
          "type": "uint256"
        },
        {
          "indexed": false,
          "name": "paused",
          "type": "bool"
        }
      ],
      "name": "UpdateAuction",
      "type": "event"
    },
    {
      "anonymous": false,
      "inputs": [
        {
          "indexed": true,
          "name": "previousOwner",
          "type": "address"
        },
        {
          "indexed": true,
          "name": "newOwner",
          "type": "address"
        }
      ],
      "name": "OwnershipTransferred",
      "type": "event"
    },
    {
      "constant": false,
      "inputs": [
        {
          "name": "_nftAddress",
          "type": "address"
        }
      ],
      "name": "updateNftAddress",
      "outputs": [],
      "payable": false,
      "stateMutability": "nonpayable",
      "type": "function"
    },
    {
      "constant": false,
      "inputs": [
        {
          "name": "_minBid",
          "type": "uint256"
        }
      ],
      "name": "updateMinBid",
      "outputs": [],
      "payable": false,
      "stateMutability": "nonpayable",
      "type": "function"
    },
    {
      "constant": false,
      "inputs": [
        {
          "name": "_timeBuffer",
          "type": "uint256"
        }
      ],
      "name": "updateTimeBuffer",
      "outputs": [],
      "payable": false,
      "stateMutability": "nonpayable",
      "type": "function"
    },
    {
      "constant": false,
      "inputs": [
        {
          "name": "tokenId",
          "type": "uint256"
        },
        {
          "name": "paused",
          "type": "bool"
        }
      ],
      "name": "updateAuction",
      "outputs": [],
      "payable": false,
      "stateMutability": "nonpayable",
      "type": "function"
    },
    {
      "constant": false,
      "inputs": [
        {
          "name": "paused",
          "type": "bool"
        },
        {
          "name": "tokenId",
          "type": "uint256"
        },
        {
          "name": "duration",
          "type": "uint256"
        },
        {
          "name": "reservePrice",
          "type": "uint256"
        },
        {
          "name": "adminSplit",
          "type": "uint256"
        },
        {
          "name": "admin",
          "type": "address"
        },
        {
          "name": "proceedsRecipient",
          "type": "address"
        }
      ],
      "name": "createAuction",
      "outputs": [],
      "payable": false,
      "stateMutability": "nonpayable",
      "type": "function"
    },
    {
      "constant": false,
      "inputs": [
        {
          "name": "tokenId",
          "type": "uint256"
        }
      ],
      "name": "createBid",
      "outputs": [],
      "payable": true,
      "stateMutability": "payable",
      "type": "function"
    },
    {
      "constant": false,
      "inputs": [
        {
          "name": "tokenId",
          "type": "uint256"
        }
      ],
      "name": "endAuction",
      "outputs": [],
      "payable": false,
      "stateMutability": "nonpayable",
      "type": "function"
    },
    {
      "constant": false,
      "inputs": [
        {
          "name": "tokenId",
          "type": "uint256"
        }
      ],
      "name": "cancelAuction",
      "outputs": [],
      "payable": false,
      "stateMutability": "nonpayable",
      "type": "function"
    },
    {
      "constant": false,
      "inputs": [
        {
          "name": "_globalPaused",
          "type": "bool"
        }
      ],
      "name": "updatePaused",
      "outputs": [],
      "payable": false,
      "stateMutability": "nonpayable",
      "type": "function"
    }
  ],
  "bytecode": "0x608060405261038460035567016345785d8a00006004553480156200002357600080fd5b50604051602080620022b68339810180604052620000459190810190620001da565b60008054600160a060020a0319163317808255604051600160a060020a039190911691907f8be0079c531659141344cd1fd0a4f28419497f9722a3daafe3b4186f6b6457e0908290a3600180556040517f01ffc9a7000000000000000000000000000000000000000000000000000000008152600160a060020a038216906301ffc9a790620000f9907f80ac58cd000000000000000000000000000000000000000000000000000000009060040162000265565b60206040518083038186803b1580156200011257600080fd5b505afa15801562000127573d6000803e3d6000fd5b505050506040513d601f19601f820116820180604052506200014d919081019062000203565b151562000191576040517f08c379a000000000000000000000000000000000000000000000000000000000815260040162000188906200027b565b60405180910390fd5b60058054600160a060020a031916600160a060020a0392909216919091179055620002d0565b6000620001c58251620002be565b9392505050565b6000620001c58251620002cb565b600060208284031215620001ed57600080fd5b6000620001fb8484620001b7565b949350505050565b6000602082840312156200021657600080fd5b6000620001fb8484620001cc565b6200022f816200028d565b82525050565b601d81527f446f65736e277420737570706f7274204e465420696e74657266616365000000602082015260400190565b6020810162000275828462000224565b92915050565b60208082528101620002758162000235565b7fffffffff000000000000000000000000000000000000000000000000000000001690565b600160a060020a031690565b60006200027582620002b2565b151590565b611fd680620002e06000396000f3fe6080604052600436106101065763ffffffff7c010000000000000000000000000000000000000000000000000000000060003504166308cdc2a8811461010b5780633166fd1d1461012d57806331c28e901461014d578063389bb6a41461016d5780633e109a191461018d578063571a26a0146101b85780635bf8633a146101f057806361a552dc14610212578063659dd2b414610234578063715018a6146102475780638da5cb5b1461025c5780638f32d59b1461027157806396b5a755146102865780639b8e5d62146102a6578063b9a2de3a146102c6578063d58778d6146102e6578063e5eb7ae814610306578063ec91f2a414610326578063f2fde38b1461033b575b600080fd5b34801561011757600080fd5b5061012b610126366004611765565b61035b565b005b34801561013957600080fd5b5061012b61014836600461183d565b61039f565b34801561015957600080fd5b5061012b61016836600461185b565b6103b7565b34801561017957600080fd5b5061012b6101883660046117a1565b610497565b34801561019957600080fd5b506101a2610769565b6040516101af9190611df3565b60405180910390f35b3480156101c457600080fd5b506101d86101d336600461183d565b61076f565b6040516101af9c9b9a99989796959493929190611c52565b3480156101fc57600080fd5b506102056107ef565b6040516101af9190611c00565b34801561021e57600080fd5b5061022761080b565b6040516101af9190611c44565b61012b61024236600461183d565b610814565b34801561025357600080fd5b5061012b610c60565b34801561026857600080fd5b50610205610ce2565b34801561027d57600080fd5b50610227610cfe565b34801561029257600080fd5b5061012b6102a136600461183d565b610d1c565b3480156102b257600080fd5b5061012b6102c136600461183d565b610ff8565b3480156102d257600080fd5b5061012b6102e136600461183d565b611010565b3480156102f257600080fd5b506101a261030136600461183d565b611446565b34801561031257600080fd5b5061012b61032136600461173f565b611465565b34801561033257600080fd5b506101a26115b9565b34801561034757600080fd5b5061012b61035636600461173f565b6115bf565b610363610cfe565b151561036e57600080fd5b600280547fffffffffffffffffffffffffffffffffffffffffffffffffffffffffffffff0016911515919091179055565b6103a7610cfe565b15156103b257600080fd5b600455565b6103bf610cfe565b15156103ca57600080fd5b60008281526006602052604090205460ff16151561041d576040517f08c379a000000000000000000000000000000000000000000000000000000000815260040161041490611d73565b60405180910390fd5b6000828152600660205260409081902080547fffffffffffffffffffffffffffffffffffffffffffffffffffffffffffff00ff1661010084151502179055517f6c17b6afb000df6548f717a281c368a89912f8a6ec06177486f77916c507a0319061048b9084908490611f1f565b60405180910390a15050565b60025460ff16156104d4576040517f08c379a000000000000000000000000000000000000000000000000000000000815260040161041490611d63565b6104dc610cfe565b15156104e757600080fd5b6001805481019081905560008781526006602052604090205460ff161561053a576040517f08c379a000000000000000000000000000000000000000000000000000000000815260040161041490611d13565b60648410610574576040517f08c379a000000000000000000000000000000000000000000000000000000000815260040161041490611d93565b60078054600180820183557fa66cc928b5edb82af9bd49922954155ab7b0942694bea4ce44661d9a8736c68890910189905560008981526006602081905260409182902080547fffffffffffffffffffffffffffffffffffffffffffffffffffffffffffff00ff166101008e151502177fffffffffffffffffffffffffffffffffffffffffffffffffffffffffffffff00169093178355600383018a905560058084018a90559083018890559282018054337fffffffffffffffffffffffff00000000000000000000000000000000000000009182168117909255600884018054821673ffffffffffffffffffffffffffffffffffffffff8a81169190911790915560099094018054909116878516179055925490517f23b872dd0000000000000000000000000000000000000000000000000000000081529116916323b872dd916106c7919030908c90600401611c0e565b600060405180830381600087803b1580156106e157600080fd5b505af11580156106f5573d6000803e3d6000fd5b50506005546040517f082e2e78efcea783a9afe8f62b658bcf1e3482f87016915ab4214c446b69f43e935061074992508a9173ffffffffffffffffffffffffffffffffffffffff16908a908a903390611edd565b60405180910390a1600154811461075f57600080fd5b5050505050505050565b60045481565b600660208190526000918252604090912080546001820154600283015460038401546004850154600586015496860154600787015460088801546009890154600a9099015460ff808a169b610100909a041699979896979596949573ffffffffffffffffffffffffffffffffffffffff938416939283169290811691168c565b60055473ffffffffffffffffffffffffffffffffffffffff1681565b60025460ff1681565b60025460ff1615610851576040517f08c379a000000000000000000000000000000000000000000000000000000000815260040161041490611d63565b6001805481019081905560008281526006602052604090205460ff1615156108a5576040517f08c379a000000000000000000000000000000000000000000000000000000000815260040161041490611d73565b600082815260066020526040902054610100900460ff16156108f3576040517f08c379a000000000000000000000000000000000000000000000000000000000815260040161041490611d83565b60008281526006602052604090206005015434101561093e576040517f08c379a000000000000000000000000000000000000000000000000000000000815260040161041490611da3565b60008281526006602052604090206004015415806109745750600082815260066020526040902060038101546004909101540142105b15156109ac576040517f08c379a000000000000000000000000000000000000000000000000000000000815260040161041490611dd3565b60008281526006602052604081206001015490808215610a78573483106109ff576040517f08c379a000000000000000000000000000000000000000000000000000000000815260040161041490611d53565b600454610a12348563ffffffff6115de16565b1015610a4a576040517f08c379a000000000000000000000000000000000000000000000000000000000815260040161041490611de3565b506000848152600660205260409020600a015473ffffffffffffffffffffffffffffffffffffffff16610a92565b600085815260066020526040902042600490910155600191505b6000858152600660205260408120346001820155600a810180547fffffffffffffffffffffffff0000000000000000000000000000000000000000163317905560038054908201546004909201549091610b04914291610af8919063ffffffff6115f816565b9063ffffffff6115de16565b1015610b5757600354600087815260066020526040902060040154610b419190610b3590429063ffffffff6115de16565b9063ffffffff6115f816565b6000878152600660205260409020600301555060015b6005546040517f17aab958f10298d4269017458487925b395b4f89ddd829049ea143fd754cf7a991610bab91899173ffffffffffffffffffffffffffffffffffffffff16903390349042908a908990611e29565b60405180910390a1821515610c485760405173ffffffffffffffffffffffffffffffffffffffff83169085156108fc029086906000818181858888f193505050501515610c485760008681526006602052604080822060080154905173ffffffffffffffffffffffffffffffffffffffff9091169186156108fc02918791818181858888f19350505050158015610c46573d6000803e3d6000fd5b505b5050505060015481141515610c5c57600080fd5b5050565b610c68610cfe565b1515610c7357600080fd5b6000805460405173ffffffffffffffffffffffffffffffffffffffff909116907f8be0079c531659141344cd1fd0a4f28419497f9722a3daafe3b4186f6b6457e0908390a3600080547fffffffffffffffffffffffff0000000000000000000000000000000000000000169055565b60005473ffffffffffffffffffffffffffffffffffffffff1690565b60005473ffffffffffffffffffffffffffffffffffffffff16331490565b6001805481019081905560008281526006602052604090205460ff161515610d70576040517f08c379a000000000000000000000000000000000000000000000000000000000815260040161041490611d73565b60008281526006602052604090206007015473ffffffffffffffffffffffffffffffffffffffff16331480610dd75750610da8610ce2565b73ffffffffffffffffffffffffffffffffffffffff163373ffffffffffffffffffffffffffffffffffffffff16145b1515610e0f576040517f08c379a000000000000000000000000000000000000000000000000000000000815260040161041490611d43565b60008281526006602052604090206004015415610e58576040517f08c379a000000000000000000000000000000000000000000000000000000000815260040161041490611d23565b600082815260066020819052604080832060078101805482547fffffffffffffffffffffffffffffffffffffffffffffffffffffffffffff000016835560018301869055600283018690556003830186905560048084018790556005808501889055958401969096557fffffffffffffffffffffffff00000000000000000000000000000000000000008082169092556008830180548316905560098301805483169055600a90920180549091169055915490517f23b872dd00000000000000000000000000000000000000000000000000000000815273ffffffffffffffffffffffffffffffffffffffff9283169391909216916323b872dd91610f639130918691899101611c36565b600060405180830381600087803b158015610f7d57600080fd5b505af1158015610f91573d6000803e3d6000fd5b50506005546040517f31e46b3372adff8978a18a1c543a6b3a925ee693bdf7a7c54df36f30f87d290e9350610fe19250869173ffffffffffffffffffffffffffffffffffffffff16908590611e01565b60405180910390a1506001548114610c5c57600080fd5b611000610cfe565b151561100b57600080fd5b600355565b60025460ff161561104d576040517f08c379a000000000000000000000000000000000000000000000000000000000815260040161041490611d63565b6001805481019081905560008281526006602052604090205460ff1615156110a1576040517f08c379a000000000000000000000000000000000000000000000000000000000815260040161041490611d73565b600082815260066020526040902054610100900460ff16156110ef576040517f08c379a000000000000000000000000000000000000000000000000000000000815260040161041490611d83565b6000828152600660205260409020600401541515611139576040517f08c379a000000000000000000000000000000000000000000000000000000000815260040161041490611d33565b600082815260066020526040902060038101546004909101540142101561118c576040517f08c379a000000000000000000000000000000000000000000000000000000000815260040161041490611db3565b600082815260066020819052604091829020600a81015460018201546007830154938301546008840154600990940154600554965173ffffffffffffffffffffffffffffffffffffffff948516979396851695929492831693918316927f19f5e73c484e5274d91de54225d8a1330339f61b5f27dbe05c47ff361b8dd3c192611220928c929091169088908b908b90611e91565b60405180910390a1600088815260066020819052604080832080547fffffffffffffffffffffffffffffffffffffffffffffffffffffffffffff000016815560018101849055600281018490556003810184905560048082018590556005808301869055938201949094556007810180547fffffffffffffffffffffffff00000000000000000000000000000000000000009081169091556008820180548216905560098201805482169055600a90910180549091169055905490517f23b872dd00000000000000000000000000000000000000000000000000000000815273ffffffffffffffffffffffffffffffffffffffff909116916323b872dd9161132e9130918b918e9101611c36565b600060405180830381600087803b15801561134857600080fd5b505af115801561135c573d6000803e3d6000fd5b505050506000611386606461137a868961161190919063ffffffff16565b9063ffffffff61163c16565b9050600061139a878363ffffffff6115de16565b905060008211156113ea5760405173ffffffffffffffffffffffffffffffffffffffff85169083156108fc029084906000818181858888f193505050501580156113e8573d6000803e3d6000fd5b505b60405173ffffffffffffffffffffffffffffffffffffffff84169082156108fc029083906000818181858888f1935050505015801561142d573d6000803e3d6000fd5b50505050505050505060015481141515610c5c57600080fd5b600780548290811061145457fe5b600091825260209091200154905081565b61146d610cfe565b151561147857600080fd5b6040517f01ffc9a700000000000000000000000000000000000000000000000000000000815273ffffffffffffffffffffffffffffffffffffffff8216906301ffc9a7906114ea907f80ac58cd0000000000000000000000000000000000000000000000000000000090600401611d05565b60206040518083038186803b15801561150257600080fd5b505afa158015611516573d6000803e3d6000fd5b505050506040513d601f19601f8201168201806040525061153a9190810190611783565b1515611572576040517f08c379a000000000000000000000000000000000000000000000000000000000815260040161041490611dc3565b600580547fffffffffffffffffffffffff00000000000000000000000000000000000000001673ffffffffffffffffffffffffffffffffffffffff92909216919091179055565b60035481565b6115c7610cfe565b15156115d257600080fd5b6115db81611660565b50565b6000828211156115ed57600080fd5b508082035b92915050565b60008282018381101561160a57600080fd5b9392505050565b6000821515611622575060006115f2565b82820282848281151561163157fe5b041461160a57600080fd5b600080821161164a57600080fd5b6000828481151561165757fe5b04949350505050565b73ffffffffffffffffffffffffffffffffffffffff8116151561168257600080fd5b6000805460405173ffffffffffffffffffffffffffffffffffffffff808516939216917f8be0079c531659141344cd1fd0a4f28419497f9722a3daafe3b4186f6b6457e091a3600080547fffffffffffffffffffffffff00000000000000000000000000000000000000001673ffffffffffffffffffffffffffffffffffffffff92909216919091179055565b600061160a8235611f3a565b600061160a8235611f45565b600061160a8251611f45565b600061160a8235611f88565b60006020828403121561175157600080fd5b600061175d848461170f565b949350505050565b60006020828403121561177757600080fd5b600061175d848461171b565b60006020828403121561179557600080fd5b600061175d8484611727565b600080600080600080600060e0888a0312156117bc57600080fd5b60006117c88a8a61171b565b97505060206117d98a828b01611733565b96505060406117ea8a828b01611733565b95505060606117fb8a828b01611733565b945050608061180c8a828b01611733565b93505060a061181d8a828b0161170f565b92505060c061182e8a828b0161170f565b91505092959891949750929550565b60006020828403121561184f57600080fd5b600061175d8484611733565b6000806040838503121561186e57600080fd5b600061187a8585611733565b925050602061188b8582860161171b565b9150509250929050565b61189e81611f8b565b82525050565b61189e81611f3a565b61189e81611f45565b61189e81611f4a565b601681527f41756374696f6e20616c72656164792065786973747300000000000000000000602082015260400190565b602781527f43616e27742063616e63656c20616e2061756374696f6e206f6e63652069742760208201527f7320626567756e00000000000000000000000000000000000000000000000000604082015260600190565b601481527f41756374696f6e206861736e277420626567756e000000000000000000000000602082015260400190565b602e81527f43616e206f6e6c792062652063616c6c65642062792061756374696f6e20637260208201527f6561746f72206f72206f776e6572000000000000000000000000000000000000604082015260600190565b601c81527f4d7573742073656e64206d6f7265207468616e206c6173742062696400000000602082015260400190565b601281527f4d757374206e6f74206265207061757365640000000000000000000000000000602082015260400190565b601581527f41756374696f6e20646f65736e27742065786973740000000000000000000000602082015260400190565b600e81527f41756374696f6e20706175736564000000000000000000000000000000000000602082015260400190565b602281527f50657263656e746167652068617320746f206265206c657373207468616e203160208201527f3030000000000000000000000000000000000000000000000000000000000000604082015260600190565b601e81527f4d7573742073656e6420726573657276655072696365206f72206d6f72650000602082015260400190565b601881527f41756374696f6e206861736e277420636f6d706c657465640000000000000000602082015260400190565b601d81527f446f65736e277420737570706f7274204e465420696e74657266616365000000602082015260400190565b600f81527f41756374696f6e20657870697265640000000000000000000000000000000000602082015260400190565b602d81527f4d7573742073656e64206d6f7265207468616e206c617374206269642062792060208201527f6d696e42696420416d6f756e7400000000000000000000000000000000000000604082015260600190565b61189e81611f88565b602081016115f282846118a4565b60608101611c1c8286611895565b611c2960208301856118a4565b61175d6040830184611bf7565b60608101611c1c82866118a4565b602081016115f282846118ad565b6101808101611c61828f6118ad565b611c6e602083018e6118ad565b611c7b604083018d611bf7565b611c88606083018c611bf7565b611c95608083018b611bf7565b611ca260a083018a611bf7565b611caf60c0830189611bf7565b611cbc60e0830188611bf7565b611cca6101008301876118a4565b611cd86101208301866118a4565b611ce66101408301856118a4565b611cf46101608301846118a4565b9d9c50505050505050505050505050565b602081016115f282846118b6565b602080825281016115f2816118bf565b602080825281016115f2816118ef565b602080825281016115f281611945565b602080825281016115f281611975565b602080825281016115f2816119cb565b602080825281016115f2816119fb565b602080825281016115f281611a2b565b602080825281016115f281611a5b565b602080825281016115f281611a8b565b602080825281016115f281611ae1565b602080825281016115f281611b11565b602080825281016115f281611b41565b602080825281016115f281611b71565b602080825281016115f281611ba1565b602081016115f28284611bf7565b60608101611e0f8286611bf7565b611e1c60208301856118a4565b61175d60408301846118a4565b60e08101611e37828a611bf7565b611e4460208301896118a4565b611e516040830188611895565b611e5e6060830187611bf7565b611e6b6080830186611bf7565b611e7860a08301856118ad565b611e8560c08301846118ad565b98975050505050505050565b60a08101611e9f8288611bf7565b611eac60208301876118a4565b611eb960408301866118a4565b611ec660608301856118a4565b611ed36080830184611bf7565b9695505050505050565b60a08101611eeb8288611bf7565b611ef860208301876118a4565b611f056040830186611bf7565b611f126060830185611bf7565b611ed36080830184611895565b60408101611f2d8285611bf7565b61160a60208301846118ad565b60006115f282611f6f565b151590565b7fffffffff000000000000000000000000000000000000000000000000000000001690565b73ffffffffffffffffffffffffffffffffffffffff1690565b90565b60006115f28260006115f282611f3a56fea265627a7a723058207b2480955719bd1cf3bb660577e4bb2c0ea313cc04b2afef4ec8225fdb7152806c6578706572696d656e74616cf50037",
  "source": "pragma solidity ^0.5.0;\npragma experimental ABIEncoderV2;\n\nimport \"openzeppelin-solidity/contracts/math/SafeMath.sol\";\nimport \"openzeppelin-solidity/contracts/ownership/Ownable.sol\";\n\nimport \"openzeppelin-solidity/contracts/token/ERC721/IERC721.sol\";\nimport \"openzeppelin-solidity/contracts/introspection/IERC165.sol\";\nimport \"openzeppelin-solidity/contracts/utils/ReentrancyGuard.sol\";\n\n/**\n\n                                                              \n                                                                 \n                                                          \n                                                     \n                                          \n                                                                  \n                                                                                      \n                                                                                                          \n                                                                                                                       \n                                                                                                                                        \n                                                          \n                                                 \n                                          \n                                         \n                              \n                                                   \n                                                                      \n                                                                                                   \n                                                                                                                   \n                                                                                                                                    \n\n*/\n\ncontract ReserveAuction is Ownable, ReentrancyGuard {\n    using SafeMath for uint256;\n\n    bool public globalPaused;\n\n    uint256 public timeBuffer = 15 * 60; // extend 15 minutes after every bid made in last 15 minutes\n    uint256 public minBid = 1 * 10**17; // 0.1 eth\n\n    bytes4 constant interfaceId = 0x80ac58cd; // 721 interface id\n    address public nftAddress;\n\n    mapping(uint256 => Auction) public auctions;\n    uint256[] public tokenIds;\n\n    struct Auction {\n        bool exists;\n        bool paused;\n        uint256 amount;\n        uint256 tokenId;\n        uint256 duration;\n        uint256 firstBidTime;\n        uint256 reservePrice;\n        uint256 adminSplit; // percentage of 100\n        address creator;\n        address payable admin;\n        address payable proceedsRecipient;\n        address payable bidder;\n    }\n\n    modifier notPaused() {\n        require(!globalPaused, \"Must not be paused\");\n        _;\n    }\n\n    event AuctionCreated(\n        uint256 tokenId,\n        address nftAddress,\n        uint256 duration,\n        uint256 reservePrice,\n        address creator\n    );\n    event AuctionBid(\n        uint256 tokenId,\n        address nftAddress,\n        address sender,\n        uint256 value,\n        uint256 timestamp,\n        bool firstBid,\n        bool extended\n    );\n    event AuctionEnded(\n        uint256 tokenId,\n        address nftAddress,\n        address creator,\n        address winner,\n        uint256 amount\n    );\n    event AuctionCanceled(\n        uint256 tokenId,\n        address nftAddress,\n        address creator\n    );\n    event UpdateAuction(\n        uint256 tokenId,\n        bool paused\n    );\n\n    constructor(address _nftAddress) public {\n        require(\n            IERC165(_nftAddress).supportsInterface(interfaceId),\n            \"Doesn't support NFT interface\"\n        );\n        nftAddress = _nftAddress;\n    }\n\n    function updateNftAddress(address _nftAddress) public onlyOwner {\n        require(\n            IERC165(_nftAddress).supportsInterface(interfaceId),\n            \"Doesn't support NFT interface\"\n        );\n        nftAddress = _nftAddress;\n    }\n\n    function updateMinBid(uint256 _minBid) public onlyOwner {\n        minBid = _minBid;\n    }\n\n    function updateTimeBuffer(uint256 _timeBuffer) public onlyOwner {\n        timeBuffer = _timeBuffer;\n    }\n\n    function updateAuction(uint256 tokenId, bool paused) public onlyOwner {\n        require(auctions[tokenId].exists, \"Auction doesn't exist\");\n        auctions[tokenId].paused = paused;\n        emit UpdateAuction(tokenId, paused);\n    }\n\n    function createAuction(\n        bool paused,\n        uint256 tokenId,\n        uint256 duration,\n        uint256 reservePrice,\n        uint256 adminSplit, // percentage\n        address payable admin,\n        address payable proceedsRecipient\n    ) external notPaused onlyOwner nonReentrant {\n        require(!auctions[tokenId].exists, \"Auction already exists\");\n        require(adminSplit < 100, \"Percentage has to be less than 100\");\n        tokenIds.push(tokenId);\n\n        auctions[tokenId].paused = paused;\n        auctions[tokenId].exists = true;\n        auctions[tokenId].duration = duration;\n        auctions[tokenId].reservePrice = reservePrice;\n\n        auctions[tokenId].adminSplit = adminSplit;\n        auctions[tokenId].creator = msg.sender;\n        auctions[tokenId].admin = admin;\n        auctions[tokenId].proceedsRecipient = proceedsRecipient;\n\n        IERC721(nftAddress).transferFrom(msg.sender, address(this), tokenId);\n\n        emit AuctionCreated(tokenId, nftAddress, duration, reservePrice, msg.sender);\n    }\n\n    function createBid(uint256 tokenId) external payable notPaused nonReentrant {\n        require(auctions[tokenId].exists, \"Auction doesn't exist\");\n        require(!auctions[tokenId].paused, \"Auction paused\");\n        require(\n            msg.value >= auctions[tokenId].reservePrice,\n            \"Must send reservePrice or more\"\n        );\n        require(\n            auctions[tokenId].firstBidTime == 0 ||\n                block.timestamp <\n                auctions[tokenId].firstBidTime + auctions[tokenId].duration,\n            \"Auction expired\"\n        );\n\n        uint256 lastValue = auctions[tokenId].amount;\n\n        bool firstBid;\n        address payable lastBidder;\n\n        // allows for auctions with starting price of 0\n        if (lastValue != 0) {\n            require(msg.value > lastValue, \"Must send more than last bid\");\n            require(\n                msg.value.sub(lastValue) >= minBid,\n                \"Must send more than last bid by minBid Amount\"\n            );\n            lastBidder = auctions[tokenId].bidder;\n        } else {\n            firstBid = true;\n            auctions[tokenId].firstBidTime = block.timestamp;\n        }\n\n        auctions[tokenId].amount = msg.value;\n        auctions[tokenId].bidder = msg.sender;\n\n        bool extended;\n        // at this point we know that the timestamp is less than start + duration\n        // we want to know by how much the timestamp is less than start + duration\n        // if the difference is less than the timeBuffer, update duration to time buffer\n        if (\n            (auctions[tokenId].firstBidTime.add(auctions[tokenId].duration))\n                .sub(block.timestamp) < timeBuffer\n        ) {\n            // take the difference between now and starting point, add timeBuffer and set as duration\n            auctions[tokenId].duration = block.timestamp.sub(auctions[tokenId].firstBidTime).add(timeBuffer);\n            extended = true;\n        }\n\n \n\n        emit AuctionBid(\n            tokenId,\n            nftAddress,\n            msg.sender,\n            msg.value,\n            block.timestamp,\n            firstBid,\n            extended\n        );\n        if (!firstBid) {\n            // in case the bidder is a contract that doesn't allow receiving\n            if (!lastBidder.send(lastValue)) {\n                auctions[tokenId].admin.transfer(lastValue);\n            }\n        }\n    }\n\n    function endAuction(uint256 tokenId) external notPaused nonReentrant {\n        require(auctions[tokenId].exists, \"Auction doesn't exist\");\n        require(!auctions[tokenId].paused, \"Auction paused\");\n        require(\n            uint256(auctions[tokenId].firstBidTime) != 0,\n            \"Auction hasn't begun\"\n        );\n        require(\n            block.timestamp >=\n                auctions[tokenId].firstBidTime + auctions[tokenId].duration,\n            \"Auction hasn't completed\"\n        );\n\n        address winner = auctions[tokenId].bidder;\n        uint256 amount = auctions[tokenId].amount;\n        address creator = auctions[tokenId].creator;\n        uint256 adminSplit = auctions[tokenId].adminSplit;\n        address payable admin = auctions[tokenId].admin;\n        address payable proceedsRecipient = auctions[tokenId].proceedsRecipient;\n\n        emit AuctionEnded(tokenId, nftAddress, creator, winner, amount);\n        delete auctions[tokenId];\n\n        IERC721(nftAddress).transferFrom(address(this), winner, tokenId);\n\n        uint256 adminReceives = amount.mul(adminSplit).div(100);\n        uint256 proceedsAmount = amount.sub(adminReceives);\n        if (adminReceives > 0) {\n            admin.transfer(adminReceives);\n        }\n        proceedsRecipient.transfer(proceedsAmount);\n    }\n\n    function cancelAuction(uint256 tokenId) external nonReentrant {\n        require(auctions[tokenId].exists, \"Auction doesn't exist\");\n        require(\n            auctions[tokenId].creator == msg.sender || msg.sender == owner(),\n            \"Can only be called by auction creator or owner\"\n        );\n        require(\n            uint256(auctions[tokenId].firstBidTime) == 0,\n            \"Can't cancel an auction once it's begun\"\n        );\n        address creator = auctions[tokenId].creator;\n        delete auctions[tokenId];\n        IERC721(nftAddress).transferFrom(address(this), creator, tokenId);\n        emit AuctionCanceled(tokenId, nftAddress, creator);\n    }\n\n    function updatePaused(bool _globalPaused) public onlyOwner {\n        globalPaused = _globalPaused;\n    }\n}\n",
  "sourcePath": "/Users/billy/GitHub/folia-app/folia-contracts/contracts/ReserveAuction.sol",
  "compiler": {
    "name": "solc",
    "version": "0.5.0+commit.1d4f565a.Emscripten.clang"
  },
  "schemaVersion": "3.3.4",
  "updatedAt": "2021-04-25T14:36:14.055Z",
  "devdoc": {
    "methods": {
      "isOwner()": {
        "return": "true if `msg.sender` is the owner of the contract."
      },
      "owner()": {
        "return": "the address of the owner."
      },
      "renounceOwnership()": {
        "details": "Allows the current owner to relinquish control of the contract."
      },
      "transferOwnership(address)": {
        "details": "Allows the current owner to transfer control of the contract to a newOwner.",
        "params": {
          "newOwner": "The address to transfer ownership to."
        }
      }
    }
  },
  "userdoc": {
    "methods": {
      "renounceOwnership()": {
        "notice": "Renouncing to ownership will leave the contract without an owner. It will not be possible to call the functions with the `onlyOwner` modifier anymore."
      }
    },
    "notice": "                                                                                                                                                                                                                                                                                                                                                                                                                                                                                                                                                                                                                                                                                                                                                                                                                                                                                                                                                                                                                                                                                                                                                                                                                                                                                                                                                                                                                                                                                            "
  }
}