{
  "contractName": "ReserveAuction",
  "abi": [
    {
      "constant": true,
      "inputs": [
        {
          "name": "",
          "type": "bytes32"
        }
      ],
      "name": "auctions",
      "outputs": [
        {
          "name": "exists",
          "type": "bool"
        },
        {
          "name": "amount",
          "type": "uint256"
        },
        {
          "name": "tokenId",
          "type": "uint256"
        },
        {
          "name": "duration",
          "type": "uint256"
        },
        {
          "name": "firstBidTime",
          "type": "uint256"
        },
        {
          "name": "reservePrice",
          "type": "uint256"
        },
        {
          "name": "creator",
          "type": "address"
        },
        {
          "name": "bidder",
          "type": "address"
        },
        {
          "name": "tokenContract",
          "type": "address"
        }
      ],
      "payable": false,
      "stateMutability": "view",
      "type": "function"
    },
    {
      "constant": true,
      "inputs": [
        {
          "name": "",
          "type": "uint256"
        }
      ],
      "name": "auctionIds",
      "outputs": [
        {
          "name": "",
          "type": "bytes32"
        }
      ],
      "payable": false,
      "stateMutability": "view",
      "type": "function"
    },
    {
      "constant": false,
      "inputs": [],
      "name": "renounceOwnership",
      "outputs": [],
      "payable": false,
      "stateMutability": "nonpayable",
      "type": "function"
    },
    {
      "constant": true,
      "inputs": [],
      "name": "owner",
      "outputs": [
        {
          "name": "",
          "type": "address"
        }
      ],
      "payable": false,
      "stateMutability": "view",
      "type": "function"
    },
    {
      "constant": true,
      "inputs": [],
      "name": "isOwner",
      "outputs": [
        {
          "name": "",
          "type": "bool"
        }
      ],
      "payable": false,
      "stateMutability": "view",
      "type": "function"
    },
    {
      "constant": false,
      "inputs": [
        {
          "name": "newOwner",
          "type": "address"
        }
      ],
      "name": "transferOwnership",
      "outputs": [],
      "payable": false,
      "stateMutability": "nonpayable",
      "type": "function"
    },
    {
      "inputs": [
        {
          "name": "_defaultTokenContract",
          "type": "address"
        }
      ],
      "payable": false,
      "stateMutability": "nonpayable",
      "type": "constructor"
    },
    {
      "anonymous": false,
      "inputs": [
        {
          "indexed": false,
          "name": "auctionId",
          "type": "bytes32"
        },
        {
          "indexed": false,
          "name": "tokenId",
          "type": "uint256"
        },
        {
          "indexed": false,
          "name": "tokenContract",
          "type": "address"
        },
        {
          "indexed": false,
          "name": "duration",
          "type": "uint256"
        },
        {
          "indexed": false,
          "name": "reservePrice",
          "type": "uint256"
        },
        {
          "indexed": false,
          "name": "creator",
          "type": "address"
        }
      ],
      "name": "AuctionCreated",
      "type": "event"
    },
    {
      "anonymous": false,
      "inputs": [
        {
          "indexed": false,
          "name": "auctionId",
          "type": "bytes32"
        },
        {
          "indexed": false,
          "name": "tokenId",
          "type": "uint256"
        },
        {
          "indexed": false,
          "name": "tokenContract",
          "type": "address"
        },
        {
          "indexed": false,
          "name": "sender",
          "type": "address"
        },
        {
          "indexed": false,
          "name": "value",
          "type": "uint256"
        },
        {
          "indexed": false,
          "name": "timestamp",
          "type": "uint256"
        },
        {
          "indexed": false,
          "name": "firstBid",
          "type": "bool"
        },
        {
          "indexed": false,
          "name": "extended",
          "type": "bool"
        }
      ],
      "name": "AuctionBid",
      "type": "event"
    },
    {
      "anonymous": false,
      "inputs": [
        {
          "indexed": false,
          "name": "auctionId",
          "type": "bytes32"
        },
        {
          "indexed": false,
          "name": "tokenId",
          "type": "uint256"
        },
        {
          "indexed": false,
          "name": "tokenContract",
          "type": "address"
        },
        {
          "indexed": false,
          "name": "creator",
          "type": "address"
        },
        {
          "indexed": false,
          "name": "winner",
          "type": "address"
        },
        {
          "indexed": false,
          "name": "amount",
          "type": "uint256"
        }
      ],
      "name": "AuctionEnded",
      "type": "event"
    },
    {
      "anonymous": false,
      "inputs": [
        {
          "indexed": false,
          "name": "auctionId",
          "type": "bytes32"
        },
        {
          "indexed": false,
          "name": "tokenId",
          "type": "uint256"
        },
        {
          "indexed": false,
          "name": "tokenContract",
          "type": "address"
        },
        {
          "indexed": false,
          "name": "creator",
          "type": "address"
        }
      ],
      "name": "AuctionCanceled",
      "type": "event"
    },
    {
      "anonymous": false,
      "inputs": [
        {
          "indexed": true,
          "name": "previousOwner",
          "type": "address"
        },
        {
          "indexed": true,
          "name": "newOwner",
          "type": "address"
        }
      ],
      "name": "OwnershipTransferred",
      "type": "event"
    },
    {
      "constant": false,
      "inputs": [
        {
          "name": "_defaultTokenContract",
          "type": "address"
        }
      ],
      "name": "updateDefaultTokenContract",
      "outputs": [],
      "payable": false,
      "stateMutability": "nonpayable",
      "type": "function"
    },
    {
      "constant": false,
      "inputs": [
        {
          "name": "tokenId",
          "type": "uint256"
        },
        {
          "name": "duration",
          "type": "uint256"
        },
        {
          "name": "reservePrice",
          "type": "uint256"
        },
        {
          "name": "creator",
          "type": "address"
        }
      ],
      "name": "createAuction",
      "outputs": [
        {
          "name": "",
          "type": "bool"
        }
      ],
      "payable": false,
      "stateMutability": "nonpayable",
      "type": "function"
    },
    {
      "constant": false,
      "inputs": [
        {
          "name": "tokenId",
          "type": "uint256"
        },
        {
          "name": "tokenContract",
          "type": "address"
        },
        {
          "name": "duration",
          "type": "uint256"
        },
        {
          "name": "reservePrice",
          "type": "uint256"
        },
        {
          "name": "creator",
          "type": "address"
        }
      ],
      "name": "createAuctionCustom",
      "outputs": [
        {
          "name": "",
          "type": "bool"
        }
      ],
      "payable": false,
      "stateMutability": "nonpayable",
      "type": "function"
    },
    {
      "constant": false,
      "inputs": [
        {
          "name": "tokenId",
          "type": "uint256"
        }
      ],
      "name": "createBid",
      "outputs": [
        {
          "name": "",
          "type": "bool"
        }
      ],
      "payable": true,
      "stateMutability": "payable",
      "type": "function"
    },
    {
      "constant": false,
      "inputs": [
        {
          "name": "tokenId",
          "type": "uint256"
        },
        {
          "name": "tokenContract",
          "type": "address"
        }
      ],
      "name": "createBidCustom",
      "outputs": [
        {
          "name": "",
          "type": "bool"
        }
      ],
      "payable": true,
      "stateMutability": "payable",
      "type": "function"
    },
    {
      "constant": false,
      "inputs": [
        {
          "name": "tokenId",
          "type": "uint256"
        }
      ],
      "name": "endAuction",
      "outputs": [
        {
          "name": "",
          "type": "bool"
        }
      ],
      "payable": false,
      "stateMutability": "nonpayable",
      "type": "function"
    },
    {
      "constant": false,
      "inputs": [
        {
          "name": "tokenId",
          "type": "uint256"
        },
        {
          "name": "tokenContract",
          "type": "address"
        }
      ],
      "name": "endAuctionCustom",
      "outputs": [
        {
          "name": "",
          "type": "bool"
        }
      ],
      "payable": false,
      "stateMutability": "nonpayable",
      "type": "function"
    },
    {
      "constant": false,
      "inputs": [
        {
          "name": "tokenId",
          "type": "uint256"
        },
        {
          "name": "tokenContract",
          "type": "address"
        }
      ],
      "name": "cancelAuctionCustom",
      "outputs": [
        {
          "name": "",
          "type": "bool"
        }
      ],
      "payable": false,
      "stateMutability": "nonpayable",
      "type": "function"
    },
    {
      "constant": false,
      "inputs": [
        {
          "name": "tokenId",
          "type": "uint256"
        }
      ],
      "name": "cancelAuction",
      "outputs": [
        {
          "name": "",
          "type": "bool"
        }
      ],
      "payable": false,
      "stateMutability": "nonpayable",
      "type": "function"
    }
  ],
  "bytecode": "0x60806040523480156200001157600080fd5b50604051602080620033b883398101806040526200003391908101906200029e565b336000806101000a81548173ffffffffffffffffffffffffffffffffffffffff021916908373ffffffffffffffffffffffffffffffffffffffff1602179055506000809054906101000a900473ffffffffffffffffffffffffffffffffffffffff1673ffffffffffffffffffffffffffffffffffffffff16600073ffffffffffffffffffffffffffffffffffffffff167f8be0079c531659141344cd1fd0a4f28419497f9722a3daafe3b4186f6b6457e060405160405180910390a36001808190555080600260006101000a81548173ffffffffffffffffffffffffffffffffffffffff021916908373ffffffffffffffffffffffffffffffffffffffff160217905550600260009054906101000a900473ffffffffffffffffffffffffffffffffffffffff1673ffffffffffffffffffffffffffffffffffffffff166301ffc9a76380ac58cd7c0100000000000000000000000000000000000000000000000000000000026040518263ffffffff167c0100000000000000000000000000000000000000000000000000000000028152600401620001d391906200033e565b60206040518083038186803b158015620001ec57600080fd5b505afa15801562000201573d6000803e3d6000fd5b505050506040513d601f19601f82011682018060405250620002279190810190620002ca565b15156200026b576040517f08c379a000000000000000000000000000000000000000000000000000000000815260040162000262906200035b565b60405180910390fd5b50620003e9565b6000620002808251620003c9565b905092915050565b6000620002968251620003dd565b905092915050565b600060208284031215620002b157600080fd5b6000620002c18482850162000272565b91505092915050565b600060208284031215620002dd57600080fd5b6000620002ed8482850162000288565b91505092915050565b62000301816200037d565b82525050565b6000601d82527f446f65736e277420737570706f7274204e465420696e746572666163650000006020830152604082019050919050565b6000602082019050620003556000830184620002f6565b92915050565b60006020820190508181036000830152620003768162000307565b9050919050565b60007fffffffff0000000000000000000000000000000000000000000000000000000082169050919050565b600073ffffffffffffffffffffffffffffffffffffffff82169050919050565b6000620003d682620003a9565b9050919050565b60008115159050919050565b612fbf80620003f96000396000f3fe6080604052600436106100db576000357c0100000000000000000000000000000000000000000000000000000000900463ffffffff1680631edbc5be146100e05780632a6433be14610125578063659dd2b414610162578063715018a614610192578063819c9e4c146101a95780638da5cb5b146101e65780638f32d59b1461021157806396b5a7551461023c578063a06cb24c14610279578063b9a2de3a146102b6578063d6cf4da2146102f3578063ecffe03614610323578063f2fde38b14610360578063f58df18b14610389578063f795b5fa146103c6575b600080fd5b3480156100ec57600080fd5b506101076004803603610102919081019061240a565b6103ef565b60405161011c99989796959493929190612a19565b60405180910390f35b34801561013157600080fd5b5061014c6004803603610147919081019061245c565b6104aa565b6040516101599190612aa6565b60405180910390f35b61017c6004803603610177919081019061245c565b6104cd565b60405161018991906129fe565b60405180910390f35b34801561019e57600080fd5b506101a7610502565b005b3480156101b557600080fd5b506101d060048036036101cb9190810190612561565b6105d4565b6040516101dd91906129fe565b60405180910390f35b3480156101f257600080fd5b506101fb61060f565b6040516102089190612975565b60405180910390f35b34801561021d57600080fd5b50610226610638565b60405161023391906129fe565b60405180910390f35b34801561024857600080fd5b50610263600480360361025e919081019061245c565b61068f565b60405161027091906129fe565b60405180910390f35b34801561028557600080fd5b506102a0600480360361029b91908101906124ae565b6106c4565b6040516102ad91906129fe565b60405180910390f35b3480156102c257600080fd5b506102dd60048036036102d8919081019061245c565b611020565b6040516102ea91906129fe565b60405180910390f35b61030d600480360361030891908101906124ae565b611055565b60405161031a91906129fe565b60405180910390f35b34801561032f57600080fd5b5061034a600480360361034591908101906124ea565b6116a6565b60405161035791906129fe565b60405180910390f35b34801561036c57600080fd5b506103876004803603610382919081019061238f565b611ab5565b005b34801561039557600080fd5b506103b060048036036103ab91908101906124ae565b611ad4565b6040516103bd91906129fe565b60405180910390f35b3480156103d257600080fd5b506103ed60048036036103e8919081019061238f565b611f85565b005b60036020528060005260406000206000915090508060000160009054906101000a900460ff16908060010154908060020154908060030154908060040154908060050154908060060160009054906101000a900473ffffffffffffffffffffffffffffffffffffffff16908060070160009054906101000a900473ffffffffffffffffffffffffffffffffffffffff16908060080160009054906101000a900473ffffffffffffffffffffffffffffffffffffffff16905089565b6004818154811015156104b957fe5b906000526020600020016000915090505481565b60006104fb82600260009054906101000a900473ffffffffffffffffffffffffffffffffffffffff16611055565b9050919050565b61050a610638565b151561051557600080fd5b600073ffffffffffffffffffffffffffffffffffffffff166000809054906101000a900473ffffffffffffffffffffffffffffffffffffffff1673ffffffffffffffffffffffffffffffffffffffff167f8be0079c531659141344cd1fd0a4f28419497f9722a3daafe3b4186f6b6457e060405160405180910390a360008060006101000a81548173ffffffffffffffffffffffffffffffffffffffff021916908373ffffffffffffffffffffffffffffffffffffffff160217905550565b600061060585600260009054906101000a900473ffffffffffffffffffffffffffffffffffffffff168686866116a6565b9050949350505050565b60008060009054906101000a900473ffffffffffffffffffffffffffffffffffffffff16905090565b60008060009054906101000a900473ffffffffffffffffffffffffffffffffffffffff1673ffffffffffffffffffffffffffffffffffffffff163373ffffffffffffffffffffffffffffffffffffffff1614905090565b60006106bd82600260009054906101000a900473ffffffffffffffffffffffffffffffffffffffff16611ad4565b9050919050565b60008173ffffffffffffffffffffffffffffffffffffffff166301ffc9a76380ac58cd7c0100000000000000000000000000000000000000000000000000000000026040518263ffffffff167c010000000000000000000000000000000000000000000000000000000002815260040161073e9190612c46565b60206040518083038186803b15801561075657600080fd5b505afa15801561076a573d6000803e3d6000fd5b505050506040513d601f19601f8201168201806040525061078e91908101906123e1565b15156107cf576040517f08c379a00000000000000000000000000000000000000000000000000000000081526004016107c690612d81565b60405180910390fd5b60008284604051602001808373ffffffffffffffffffffffffffffffffffffffff1673ffffffffffffffffffffffffffffffffffffffff166c01000000000000000000000000028152601401828152602001925050506040516020818303038152906040528051906020012090506003600082815260200190815260200160002060000160009054906101000a900460ff1615156108a2576040517f08c379a000000000000000000000000000000000000000000000000000000000815260040161089990612d21565b60405180910390fd5b60006003600083815260200190815260200160002060040154141515156108fe576040517f08c379a00000000000000000000000000000000000000000000000000000000081526004016108f590612ce1565b60405180910390fd5b60036000828152602001908152602001600020600301546003600083815260200190815260200160002060040154014210151515610971576040517f08c379a000000000000000000000000000000000000000000000000000000000815260040161096890612d61565b60405180910390fd5b60006003600083815260200190815260200160002060070160009054906101000a900473ffffffffffffffffffffffffffffffffffffffff16905060006003600084815260200190815260200160002060010154905060006003600085815260200190815260200160002060060160009054906101000a900473ffffffffffffffffffffffffffffffffffffffff1690507fbcdcc2b00c10054eeea29d66fba0ffc2a0797e978b82f614df5330c5ce9ed113848888848787604051610a3b96959493929190612b06565b60405180910390a160036000858152602001908152602001600020600080820160006101000a81549060ff0219169055600182016000905560028201600090556003820160009055600482016000905560058201600090556006820160006101000a81549073ffffffffffffffffffffffffffffffffffffffff02191690556007820160006101000a81549073ffffffffffffffffffffffffffffffffffffffff02191690556008820160006101000a81549073ffffffffffffffffffffffffffffffffffffffff021916905550508573ffffffffffffffffffffffffffffffffffffffff166323b872dd30858a6040518463ffffffff167c0100000000000000000000000000000000000000000000000000000000028152600401610b63939291906129c7565b600060405180830381600087803b158015610b7d57600080fd5b505af1158015610b91573d6000803e3d6000fd5b5050505073abefbc9fd2f806065b4f3c237d4b59d9a97bcac773ffffffffffffffffffffffffffffffffffffffff168673ffffffffffffffffffffffffffffffffffffffff161415610fca57610be5612223565b73abefbc9fd2f806065b4f3c237d4b59d9a97bcac773ffffffffffffffffffffffffffffffffffffffff1663f9ce0582896040518263ffffffff167c0100000000000000000000000000000000000000000000000000000000028152600401610c4e9190612e0a565b60606040518083038186803b158015610c6657600080fd5b505afa158015610c7a573d6000803e3d6000fd5b505050506040513d601f19601f82011682018060405250610c9e9190810190612433565b905073abefbc9fd2f806065b4f3c237d4b59d9a97bcac773ffffffffffffffffffffffffffffffffffffffff166302e8fe1389856040518363ffffffff167c0100000000000000000000000000000000000000000000000000000000028152600401610d0b929190612e25565b60206040518083038186803b158015610d2357600080fd5b505afa158015610d37573d6000803e3d6000fd5b505050506040513d601f19601f82011682018060405250610d5b91908101906123e1565b1515610d9c576040517f08c379a0000000000000000000000000000000000000000000000000000000008152600401610d9390612d01565b60405180910390fd5b600073abefbc9fd2f806065b4f3c237d4b59d9a97bcac773ffffffffffffffffffffffffffffffffffffffff1663e0fd045f8a6040518263ffffffff167c0100000000000000000000000000000000000000000000000000000000028152600401610e079190612e0a565b60206040518083038186803b158015610e1f57600080fd5b505afa158015610e33573d6000803e3d6000fd5b505050506040513d601f19601f82011682018060405250610e5791908101906123b8565b9050600073abefbc9fd2f806065b4f3c237d4b59d9a97bcac773ffffffffffffffffffffffffffffffffffffffff1663b920c1238460200151876040518363ffffffff167c0100000000000000000000000000000000000000000000000000000000028152600401610eca929190612de1565b60206040518083038186803b158015610ee257600080fd5b505afa158015610ef6573d6000803e3d6000fd5b505050506040513d601f19601f82011682018060405250610f1a9190810190612485565b90506000610f31828761210790919063ffffffff16565b90508273ffffffffffffffffffffffffffffffffffffffff166108fc839081150290604051600060405180830381858888f19350505050158015610f79573d6000803e3d6000fd5b508473ffffffffffffffffffffffffffffffffffffffff166108fc829081150290604051600060405180830381858888f19350505050158015610fc0573d6000803e3d6000fd5b5050505050611012565b8073ffffffffffffffffffffffffffffffffffffffff166108fc839081150290604051600060405180830381858888f19350505050158015611010573d6000803e3d6000fd5b505b600194505050505092915050565b600061104e82600260009054906101000a900473ffffffffffffffffffffffffffffffffffffffff166106c4565b9050919050565b60008173ffffffffffffffffffffffffffffffffffffffff166301ffc9a76380ac58cd7c0100000000000000000000000000000000000000000000000000000000026040518263ffffffff167c01000000000000000000000000000000000000000000000000000000000281526004016110cf9190612c46565b60206040518083038186803b1580156110e757600080fd5b505afa1580156110fb573d6000803e3d6000fd5b505050506040513d601f19601f8201168201806040525061111f91908101906123e1565b1515611160576040517f08c379a000000000000000000000000000000000000000000000000000000000815260040161115790612d81565b60405180910390fd5b60008284604051602001808373ffffffffffffffffffffffffffffffffffffffff1673ffffffffffffffffffffffffffffffffffffffff166c01000000000000000000000000028152601401828152602001925050506040516020818303038152906040528051906020012090506003600082815260200190815260200160002060000160009054906101000a900460ff161515611233576040517f08c379a000000000000000000000000000000000000000000000000000000000815260040161122a90612d21565b60405180910390fd5b6003600082815260200190815260200160002060050154341015151561128e576040517f08c379a000000000000000000000000000000000000000000000000000000000815260040161128590612d41565b60405180910390fd5b600360008281526020019081526020016000206003015460036000838152602001908152602001600020600401540142101515611300576040517f08c379a00000000000000000000000000000000000000000000000000000000081526004016112f790612da1565b60405180910390fd5b6000600360008381526020019081526020016000206001015490506000806000831415156113c55767016345785d8a0000611344843461210790919063ffffffff16565b10151515611387576040517f08c379a000000000000000000000000000000000000000000000000000000000815260040161137e90612dc1565b60405180910390fd5b6003600085815260200190815260200160002060070160009054906101000a900473ffffffffffffffffffffffffffffffffffffffff1690506113e5565b600191504260036000868152602001908152602001600020600401819055505b73abefbc9fd2f806065b4f3c237d4b59d9a97bcac773ffffffffffffffffffffffffffffffffffffffff168673ffffffffffffffffffffffffffffffffffffffff16141561152a5773abefbc9fd2f806065b4f3c237d4b59d9a97bcac773ffffffffffffffffffffffffffffffffffffffff166302e8fe1388346040518363ffffffff167c0100000000000000000000000000000000000000000000000000000000028152600401611498929190612e25565b60206040518083038186803b1580156114b057600080fd5b505afa1580156114c4573d6000803e3d6000fd5b505050506040513d601f19601f820116820180604052506114e891908101906123e1565b1515611529576040517f08c379a000000000000000000000000000000000000000000000000000000000815260040161152090612ca1565b60405180910390fd5b5b346003600086815260200190815260200160002060010181905550336003600086815260200190815260200160002060070160006101000a81548173ffffffffffffffffffffffffffffffffffffffff021916908373ffffffffffffffffffffffffffffffffffffffff16021790555060006201518060036000878152602001908152602001600020600301546003600088815260200190815260200160002060040154014203101561160357620151806003600087815260200190815260200160002060040160008282540192505081905550600190505b821515611652578173ffffffffffffffffffffffffffffffffffffffff166108fc859081150290604051600060405180830381858888f19350505050158015611650573d6000803e3d6000fd5b505b7fb7cb24394be78b885fec82359b645762a7fa414a7b07069f07695c319a292f91858989333442898860405161168f989796959493929190612b67565b60405180910390a160019550505050505092915050565b60008473ffffffffffffffffffffffffffffffffffffffff166301ffc9a76380ac58cd7c0100000000000000000000000000000000000000000000000000000000026040518263ffffffff167c01000000000000000000000000000000000000000000000000000000000281526004016117209190612c46565b60206040518083038186803b15801561173857600080fd5b505afa15801561174c573d6000803e3d6000fd5b505050506040513d601f19601f8201168201806040525061177091908101906123e1565b15156117b1576040517f08c379a00000000000000000000000000000000000000000000000000000000081526004016117a890612d81565b60405180910390fd5b60008587604051602001808373ffffffffffffffffffffffffffffffffffffffff1673ffffffffffffffffffffffffffffffffffffffff166c01000000000000000000000000028152601401828152602001925050506040516020818303038152906040528051906020012090506003600082815260200190815260200160002060000160009054906101000a900460ff16151515611885576040517f08c379a000000000000000000000000000000000000000000000000000000000815260040161187c90612c61565b60405180910390fd5b600481908060018154018082558091505090600182039060005260206000200160009091929091909150555060016003600083815260200190815260200160002060000160006101000a81548160ff021916908315150217905550866003600083815260200190815260200160002060020181905550856003600083815260200190815260200160002060080160006101000a81548173ffffffffffffffffffffffffffffffffffffffff021916908373ffffffffffffffffffffffffffffffffffffffff160217905550846003600083815260200190815260200160002060030181905550836003600083815260200190815260200160002060050181905550826003600083815260200190815260200160002060060160006101000a81548173ffffffffffffffffffffffffffffffffffffffff021916908373ffffffffffffffffffffffffffffffffffffffff1602179055508573ffffffffffffffffffffffffffffffffffffffff166323b872dd84308a6040518463ffffffff167c0100000000000000000000000000000000000000000000000000000000028152600401611a3493929190612990565b600060405180830381600087803b158015611a4e57600080fd5b505af1158015611a62573d6000803e3d6000fd5b505050507fbcf0e5c2076aed3986d9f611fb6e7539a5a11db71f5f5d86b629ccce68c4f7a7818888888888604051611a9f96959493929190612be5565b60405180910390a1600191505095945050505050565b611abd610638565b1515611ac857600080fd5b611ad181612129565b50565b60008173ffffffffffffffffffffffffffffffffffffffff166301ffc9a76380ac58cd7c0100000000000000000000000000000000000000000000000000000000026040518263ffffffff167c0100000000000000000000000000000000000000000000000000000000028152600401611b4e9190612c46565b60206040518083038186803b158015611b6657600080fd5b505afa158015611b7a573d6000803e3d6000fd5b505050506040513d601f19601f82011682018060405250611b9e91908101906123e1565b1515611bdf576040517f08c379a0000000000000000000000000000000000000000000000000000000008152600401611bd690612d81565b60405180910390fd5b60008284604051602001808373ffffffffffffffffffffffffffffffffffffffff1673ffffffffffffffffffffffffffffffffffffffff166c01000000000000000000000000028152601401828152602001925050506040516020818303038152906040528051906020012090506003600082815260200190815260200160002060000160009054906101000a900460ff161515611cb2576040517f08c379a0000000000000000000000000000000000000000000000000000000008152600401611ca990612d21565b60405180910390fd5b3373ffffffffffffffffffffffffffffffffffffffff166003600083815260200190815260200160002060060160009054906101000a900473ffffffffffffffffffffffffffffffffffffffff1673ffffffffffffffffffffffffffffffffffffffff16141515611d58576040517f08c379a0000000000000000000000000000000000000000000000000000000008152600401611d4f90612cc1565b60405180910390fd5b60006003600083815260200190815260200160002060040154141515611db3576040517f08c379a0000000000000000000000000000000000000000000000000000000008152600401611daa90612c81565b60405180910390fd5b60006003600083815260200190815260200160002060060160009054906101000a900473ffffffffffffffffffffffffffffffffffffffff1690508373ffffffffffffffffffffffffffffffffffffffff166323b872dd3083886040518463ffffffff167c0100000000000000000000000000000000000000000000000000000000028152600401611e47939291906129c7565b600060405180830381600087803b158015611e6157600080fd5b505af1158015611e75573d6000803e3d6000fd5b505050507f18e0ec0be49f5d9b7f4a5d128e9826bd21e66e90473b927cf7d7e6f9b4e619f182868684604051611eae9493929190612ac1565b60405180910390a160036000838152602001908152602001600020600080820160006101000a81549060ff0219169055600182016000905560028201600090556003820160009055600482016000905560058201600090556006820160006101000a81549073ffffffffffffffffffffffffffffffffffffffff02191690556007820160006101000a81549073ffffffffffffffffffffffffffffffffffffffff02191690556008820160006101000a81549073ffffffffffffffffffffffffffffffffffffffff02191690555050505092915050565b611f8d610638565b1515611f9857600080fd5b80600260006101000a81548173ffffffffffffffffffffffffffffffffffffffff021916908373ffffffffffffffffffffffffffffffffffffffff160217905550600260009054906101000a900473ffffffffffffffffffffffffffffffffffffffff1673ffffffffffffffffffffffffffffffffffffffff166301ffc9a76380ac58cd7c0100000000000000000000000000000000000000000000000000000000026040518263ffffffff167c01000000000000000000000000000000000000000000000000000000000281526004016120739190612c46565b60206040518083038186803b15801561208b57600080fd5b505afa15801561209f573d6000803e3d6000fd5b505050506040513d601f19601f820116820180604052506120c391908101906123e1565b1515612104576040517f08c379a00000000000000000000000000000000000000000000000000000000081526004016120fb90612d81565b60405180910390fd5b50565b600082821115151561211857600080fd5b600082840390508091505092915050565b600073ffffffffffffffffffffffffffffffffffffffff168173ffffffffffffffffffffffffffffffffffffffff161415151561216557600080fd5b8073ffffffffffffffffffffffffffffffffffffffff166000809054906101000a900473ffffffffffffffffffffffffffffffffffffffff1673ffffffffffffffffffffffffffffffffffffffff167f8be0079c531659141344cd1fd0a4f28419497f9722a3daafe3b4186f6b6457e060405160405180910390a3806000806101000a81548173ffffffffffffffffffffffffffffffffffffffff021916908373ffffffffffffffffffffffffffffffffffffffff16021790555050565b606060405190810160405280612237612257565b8152602001612244612257565b8152602001612251612257565b81525090565b602060405190810160405280600081525090565b60006122778235612f0b565b905092915050565b600061228b8251612f0b565b905092915050565b600061229f8235612f1d565b905092915050565b60006122b38251612f2f565b905092915050565b60006122c78235612f3b565b905092915050565b6000606082840312156122e157600080fd5b6122eb6060612e4e565b905060006122fb8482850161232f565b600083015250602061230f8482850161232f565b60208301525060406123238482850161232f565b60408301525092915050565b60006020828403121561234157600080fd5b61234b6020612e4e565b9050600061235b8482850161237b565b60008301525092915050565b60006123738235612f45565b905092915050565b60006123878251612f45565b905092915050565b6000602082840312156123a157600080fd5b60006123af8482850161226b565b91505092915050565b6000602082840312156123ca57600080fd5b60006123d88482850161227f565b91505092915050565b6000602082840312156123f357600080fd5b6000612401848285016122a7565b91505092915050565b60006020828403121561241c57600080fd5b600061242a848285016122bb565b91505092915050565b60006060828403121561244557600080fd5b6000612453848285016122cf565b91505092915050565b60006020828403121561246e57600080fd5b600061247c84828501612367565b91505092915050565b60006020828403121561249757600080fd5b60006124a58482850161237b565b91505092915050565b600080604083850312156124c157600080fd5b60006124cf85828601612367565b92505060206124e08582860161226b565b9150509250929050565b600080600080600060a0868803121561250257600080fd5b600061251088828901612367565b95505060206125218882890161226b565b945050604061253288828901612367565b935050606061254388828901612367565b925050608061255488828901612293565b9150509295509295909350565b6000806000806080858703121561257757600080fd5b600061258587828801612367565b945050602061259687828801612367565b93505060406125a787828801612367565b92505060606125b887828801612293565b91505092959194509250565b6125cd81612f4f565b82525050565b6125dc81612e8d565b82525050565b6125eb81612e7b565b82525050565b6125fa81612e9f565b82525050565b61260981612eab565b82525050565b61261881612eb5565b82525050565b6000601682527f41756374696f6e20616c726561647920657869737473000000000000000000006020830152604082019050919050565b6000602782527f43616e27742063616e63656c20616e2061756374696f6e206f6e63652069742760208301527f7320626567756e000000000000000000000000000000000000000000000000006040830152606082019050919050565b6000602782527f4d61726b65743a2041736b20696e76616c696420666f7220736861726520737060208301527f6c697474696e67000000000000000000000000000000000000000000000000006040830152606082019050919050565b6000602582527f43616e206f6e6c792062652063616c6c65642062792061756374696f6e20637260208301527f6561746f720000000000000000000000000000000000000000000000000000006040830152606082019050919050565b6000601482527f41756374696f6e206861736e277420626567756e0000000000000000000000006020830152604082019050919050565b6000601082527f4973206e6f742076616c696420626964000000000000000000000000000000006020830152604082019050919050565b6000601582527f41756374696f6e20646f65736e277420657869737400000000000000000000006020830152604082019050919050565b6000601e82527f4d7573742073656e6420726573657276655072696365206f72206d6f726500006020830152604082019050919050565b6000601882527f41756374696f6e206861736e277420636f6d706c6574656400000000000000006020830152604082019050919050565b6000601d82527f446f65736e277420737570706f7274204e465420696e746572666163650000006020830152604082019050919050565b6000600f82527f41756374696f6e206578706972656400000000000000000000000000000000006020830152604082019050919050565b6000602d82527f4d7573742073656e64206d6f7265207468616e206c617374206269642062792060208301527f6d696e42696420416d6f756e74000000000000000000000000000000000000006040830152606082019050919050565b6020820160008201516129606000850182612966565b50505050565b61296f81612f01565b82525050565b600060208201905061298a60008301846125e2565b92915050565b60006060820190506129a560008301866125c4565b6129b260208301856125e2565b6129bf6040830184612966565b949350505050565b60006060820190506129dc60008301866125e2565b6129e960208301856125e2565b6129f66040830184612966565b949350505050565b6000602082019050612a1360008301846125f1565b92915050565b600061012082019050612a2f600083018c6125f1565b612a3c602083018b612966565b612a49604083018a612966565b612a566060830189612966565b612a636080830188612966565b612a7060a0830187612966565b612a7d60c08301866125d3565b612a8a60e08301856125d3565b612a986101008301846125e2565b9a9950505050505050505050565b6000602082019050612abb6000830184612600565b92915050565b6000608082019050612ad66000830187612600565b612ae36020830186612966565b612af060408301856125e2565b612afd60608301846125e2565b95945050505050565b600060c082019050612b1b6000830189612600565b612b286020830188612966565b612b3560408301876125e2565b612b4260608301866125c4565b612b4f60808301856125e2565b612b5c60a0830184612966565b979650505050505050565b600061010082019050612b7d600083018b612600565b612b8a602083018a612966565b612b9760408301896125e2565b612ba460608301886125c4565b612bb16080830187612966565b612bbe60a0830186612966565b612bcb60c08301856125f1565b612bd860e08301846125f1565b9998505050505050505050565b600060c082019050612bfa6000830189612600565b612c076020830188612966565b612c1460408301876125e2565b612c216060830186612966565b612c2e6080830185612966565b612c3b60a08301846125c4565b979650505050505050565b6000602082019050612c5b600083018461260f565b92915050565b60006020820190508181036000830152612c7a8161261e565b9050919050565b60006020820190508181036000830152612c9a81612655565b9050919050565b60006020820190508181036000830152612cba816126b2565b9050919050565b60006020820190508181036000830152612cda8161270f565b9050919050565b60006020820190508181036000830152612cfa8161276c565b9050919050565b60006020820190508181036000830152612d1a816127a3565b9050919050565b60006020820190508181036000830152612d3a816127da565b9050919050565b60006020820190508181036000830152612d5a81612811565b9050919050565b60006020820190508181036000830152612d7a81612848565b9050919050565b60006020820190508181036000830152612d9a8161287f565b9050919050565b60006020820190508181036000830152612dba816128b6565b9050919050565b60006020820190508181036000830152612dda816128ed565b9050919050565b6000604082019050612df6600083018561294a565b612e036020830184612966565b9392505050565b6000602082019050612e1f6000830184612966565b92915050565b6000604082019050612e3a6000830185612966565b612e476020830184612966565b9392505050565b6000604051905081810181811067ffffffffffffffff82111715612e7157600080fd5b8060405250919050565b6000612e8682612ee1565b9050919050565b6000612e9882612ee1565b9050919050565b60008115159050919050565b6000819050919050565b60007fffffffff0000000000000000000000000000000000000000000000000000000082169050919050565b600073ffffffffffffffffffffffffffffffffffffffff82169050919050565b6000819050919050565b6000612f1682612ee1565b9050919050565b6000612f2882612ee1565b9050919050565b60008115159050919050565b6000819050919050565b6000819050919050565b6000612f5a82612f61565b9050919050565b6000612f6c82612f73565b9050919050565b6000612f7e82612ee1565b905091905056fea265627a7a72305820267b0c2652327ed98117776b60d2019be9e5ec4e50ffe6e1a7ab7fa67e6700c56c6578706572696d656e74616cf50037",
  "source": "pragma solidity ^0.5.0;\npragma experimental ABIEncoderV2;\n\nimport \"openzeppelin-solidity/contracts/math/SafeMath.sol\";\nimport \"openzeppelin-solidity/contracts/ownership/Ownable.sol\";\n\nimport \"./IMedia.sol\";\nimport \"./IMarket.sol\";\nimport \"openzeppelin-solidity/contracts/token/ERC20/IERC20.sol\";\nimport \"openzeppelin-solidity/contracts/token/ERC721/IERC721.sol\";\nimport \"openzeppelin-solidity/contracts/introspection/IERC165.sol\";\nimport \"openzeppelin-solidity/contracts/utils/ReentrancyGuard.sol\";\n\ncontract ReserveAuction is Ownable, ReentrancyGuard {\n    using SafeMath for uint256;\n    \n    // TODO ask about this\n    uint256 constant timeBuffer = 24 * 60 * 60; // extend 24 hours after every bid made in last 24 hours \n    // TODO ask about this\n    uint256 constant minBid = 1 * 10**17; // 0.1 eth \n\n    bytes4 constant interfaceId = 0x80ac58cd;\n    address constant zora = 0xabEFBc9fD2F806065b4f3C237d4b59D9A97Bcac7;\n\n    address defaultTokenContract;\n    mapping (bytes32 => Auction) public auctions;\n    bytes32[] public auctionIds;\n\n    struct Auction {\n      bool exists;\n      uint256 amount;\n      uint256 tokenId;\n      uint256 duration;\n      uint256 firstBidTime;\n      uint256 reservePrice;\n      address payable creator;\n      address payable bidder;\n      address tokenContract;\n    }\n\n    event AuctionCreated(bytes32 auctionId, uint256 tokenId, address tokenContract, uint256 duration, uint256 reservePrice, address creator);\n    event  AuctionBid(\n        bytes32 auctionId,\n        uint256 tokenId,\n        address tokenContract,\n        address sender,\n        uint256 value,\n        uint256 timestamp,\n        bool firstBid,\n        bool extended\n      );\n    event AuctionEnded(bytes32 auctionId, uint256 tokenId, address tokenContract, address creator, address winner, uint256 amount);\n    event AuctionCanceled(bytes32 auctionId, uint256 tokenId, address tokenContract, address creator);\n\n    constructor(address _defaultTokenContract) public {\n      defaultTokenContract = _defaultTokenContract;\n      require(IERC165(defaultTokenContract).supportsInterface(interfaceId), \"Doesn't support NFT interface\");\n    }\n\n    function updateDefaultTokenContract(address _defaultTokenContract) public onlyOwner {\n      defaultTokenContract = _defaultTokenContract;\n      require(IERC165(defaultTokenContract).supportsInterface(interfaceId), \"Doesn't support NFT interface\");\n    }\n\n    function createAuction(\n      uint256 tokenId,\n      uint256 duration,\n      uint256 reservePrice,\n      address payable creator\n    ) external returns(bool) {\n      return createAuctionCustom(tokenId, defaultTokenContract, duration, reservePrice, creator);\n    }\n\n    function createAuctionCustom(\n      uint256 tokenId,\n      address tokenContract,\n      uint256 duration,\n      uint256 reservePrice,\n      address payable creator\n    ) public returns(bool) {\n      require(IERC165(tokenContract).supportsInterface(interfaceId), \"Doesn't support NFT interface\");\n\n      bytes32 auctionId = keccak256(abi.encodePacked(tokenContract, tokenId));\n      require(!auctions[auctionId].exists, \"Auction already exists\");\n\n      auctionIds.push(auctionId);\n\n      auctions[auctionId].exists = true;\n      auctions[auctionId].tokenId = tokenId;\n      auctions[auctionId].tokenContract = tokenContract;\n      auctions[auctionId].duration = duration;\n      auctions[auctionId].reservePrice = reservePrice;\n      auctions[auctionId].creator = creator;\n\n      IERC721(tokenContract).transferFrom(creator, address(this), tokenId);\n      emit AuctionCreated(auctionId, tokenId, tokenContract, duration, reservePrice, creator);\n      return true;\n    }\n\n    function createBid(uint256 tokenId) external payable returns (bool) {\n      return createBidCustom(tokenId, defaultTokenContract);\n    }\n\n    //NOTE: removed amount as a variable because it's redundant with msg.amount since ERC20s aren't accepted. // TODO ask about this;\n    function createBidCustom(uint256 tokenId, address tokenContract) public payable returns (bool) {\n      require(IERC165(tokenContract).supportsInterface(interfaceId), \"Doesn't support NFT interface\");\n      bytes32 auctionId = keccak256(abi.encodePacked(tokenContract, tokenId));\n      require(auctions[auctionId].exists, \"Auction doesn't exist\");\n      require(msg.value >= auctions[auctionId].reservePrice, \"Must send reservePrice or more\");\n      require(block.timestamp < auctions[auctionId].firstBidTime + auctions[auctionId].duration, \"Auction expired\");\n\n      uint256 lastValue = auctions[auctionId].amount;\n\n      bool firstBid;\n      address payable lastBidder;\n      // allows for auctions with starting price of 0 // TODO ask about this;\n      if (lastValue != 0) {\n        require(msg.value.sub(lastValue) >= minBid, \"Must send more than last bid by minBid Amount\");\n        lastBidder = auctions[auctionId].bidder;\n      } else {\n        firstBid = true;\n        auctions[auctionId].firstBidTime = block.timestamp;\n      }\n\n      if (tokenContract == zora) {\n          require(\n            IMarket(zora).isValidBid(tokenId, msg.value),\n            \"Market: Ask invalid for share splitting\"\n        );\n      }\n\n      auctions[auctionId].amount = msg.value;\n      auctions[auctionId].bidder = msg.sender;\n\n      bool extended;\n      if (block.timestamp - (auctions[auctionId].firstBidTime + auctions[auctionId].duration) < timeBuffer) {\n        auctions[auctionId].firstBidTime += timeBuffer;\n        extended = true;\n      }\n\n      if (!firstBid) {\n        lastBidder.transfer(lastValue);\n      }\n\n      emit AuctionBid(\n        auctionId,\n        tokenId,\n        tokenContract,\n        msg.sender,\n        msg.value,\n        block.timestamp,\n        firstBid,\n        extended\n      );\n      return true;\n    }\n\n    function endAuction(uint256 tokenId) external returns (bool) {\n      return endAuctionCustom(tokenId, defaultTokenContract);\n    }\n\n    // NOTE: description \"Transfers the NFT to the highest bidder, if there is one and is greater-or-equal the reserve price, else transfers back to the creator\"\n    // Doesn't make sense. If there is no greater-or-equal to reserve price, the auction hasn't begun and cancelAuction should instead be called.\n    // TODO: ask about this;\n    function endAuctionCustom(uint256 tokenId, address tokenContract) public returns (bool) {\n      require(IERC165(tokenContract).supportsInterface(interfaceId), \"Doesn't support NFT interface\");\n      bytes32 auctionId = keccak256(abi.encodePacked(tokenContract, tokenId));\n      require(auctions[auctionId].exists, \"Auction doesn't exist\");\n      require(uint256(auctions[auctionId].firstBidTime) != 0, \"Auction hasn't begun\");\n      require(block.timestamp >= auctions[auctionId].firstBidTime + auctions[auctionId].duration, \"Auction hasn't completed\");\n\n      address winner = auctions[auctionId].bidder;\n      uint256 amount = auctions[auctionId].amount;\n      address payable creator = auctions[auctionId].creator;\n\n      emit AuctionEnded(auctionId, tokenId, tokenContract, creator, winner, amount);\n      delete auctions[auctionId];\n\n      IERC721(tokenContract).transferFrom(address(this), winner, tokenId);\n      if (tokenContract == zora) {\n        IMarket.BidShares memory bidShares = IMarket(zora).bidSharesForToken(tokenId);\n        // BidShares storage bidShares = _bidShares[tokenId];\n        require(IMarket(zora).isValidBid(tokenId, amount), \"Is not valid bid\");\n        // IMarket(zora).splitShare(bidShares.owner, bid.amount)\n\n        address payable originalCreator = address(uint160(IMedia(zora).tokenCreators(tokenId)));\n        uint256 creatorAmount = IMarket(zora).splitShare(bidShares.creator, amount);\n\n        uint256 sellerAmount = amount.sub(creatorAmount);\n\n        originalCreator.transfer(creatorAmount);\n        creator.transfer(sellerAmount);\n\n        // IMarket(zora).splitShare(bidShares.prevOwner, bid.amount)\n\n        // // Calculate the bid share for the new owner,\n        // // equal to 100 - creatorShare - sellOnShare\n        // bidShares.owner = Decimal.D256(\n        //     uint256(100)\n        //         .mul(Decimal.BASE)\n        //         .sub(_bidShares[tokenId].creator.value)\n        //         .sub(bid.sellOnShare.value)\n        // );\n        // Set the previous owner share to the accepted bid's sell-on fee\n        // bidShares.prevOwner = bid.sellOnShare;\n\n\n      } else {\n        creator.transfer(amount);\n      }\n\n      return true;\n    }\n\n\n\n    function cancelAuctionCustom(uint256 tokenId, address tokenContract) public returns (bool) {\n      require(IERC165(tokenContract).supportsInterface(interfaceId), \"Doesn't support NFT interface\");\n      bytes32 auctionId = keccak256(abi.encodePacked(tokenContract, tokenId));\n      require(auctions[auctionId].exists, \"Auction doesn't exist\");\n      require(auctions[auctionId].creator == msg.sender, \"Can only be called by auction creator\");\n      require(uint256(auctions[auctionId].firstBidTime) == 0, \"Can't cancel an auction once it's begun\");\n      address creator = auctions[auctionId].creator;\n      IERC721(tokenContract).transferFrom(address(this), creator, tokenId);\n      emit AuctionCanceled(auctionId, tokenId, tokenContract, creator);\n      delete auctions[auctionId];\n\n    }\n    function cancelAuction(uint256 tokenId) external returns (bool) {\n      return cancelAuctionCustom(tokenId, defaultTokenContract);\n    }\n\n}",
  "sourcePath": "/Users/billy/GitHub/folia-app/folia-contracts/contracts/ReserveAuction.sol",
  "compiler": {
    "name": "solc",
    "version": "0.5.0+commit.1d4f565a.Emscripten.clang"
  },
  "schemaVersion": "3.0.5",
  "updatedAt": "2021-03-07T18:14:28.192Z",
  "devdoc": {
    "methods": {
      "isOwner()": {
        "return": "true if `msg.sender` is the owner of the contract."
      },
      "owner()": {
        "return": "the address of the owner."
      },
      "renounceOwnership()": {
        "details": "Allows the current owner to relinquish control of the contract."
      },
      "transferOwnership(address)": {
        "details": "Allows the current owner to transfer control of the contract to a newOwner.",
        "params": {
          "newOwner": "The address to transfer ownership to."
        }
      }
    }
  },
  "userdoc": {
    "methods": {
      "renounceOwnership()": {
        "notice": "Renouncing to ownership will leave the contract without an owner. It will not be possible to call the functions with the `onlyOwner` modifier anymore."
      }
    }
  }
}