{
  "contractName": "ReserveAuction",
  "abi": [
    {
      "inputs": [
        {
          "internalType": "address",
          "name": "_nftAddress",
          "type": "address"
        }
      ],
      "payable": false,
      "stateMutability": "nonpayable",
      "type": "constructor"
    },
    {
      "anonymous": false,
      "inputs": [
        {
          "indexed": false,
          "internalType": "uint256",
          "name": "tokenId",
          "type": "uint256"
        },
        {
          "indexed": false,
          "internalType": "address",
          "name": "nftAddress",
          "type": "address"
        },
        {
          "indexed": false,
          "internalType": "address",
          "name": "sender",
          "type": "address"
        },
        {
          "indexed": false,
          "internalType": "uint256",
          "name": "value",
          "type": "uint256"
        },
        {
          "indexed": false,
          "internalType": "uint256",
          "name": "timestamp",
          "type": "uint256"
        },
        {
          "indexed": false,
          "internalType": "bool",
          "name": "firstBid",
          "type": "bool"
        },
        {
          "indexed": false,
          "internalType": "bool",
          "name": "extended",
          "type": "bool"
        }
      ],
      "name": "AuctionBid",
      "type": "event"
    },
    {
      "anonymous": false,
      "inputs": [
        {
          "indexed": false,
          "internalType": "uint256",
          "name": "tokenId",
          "type": "uint256"
        },
        {
          "indexed": false,
          "internalType": "address",
          "name": "nftAddress",
          "type": "address"
        },
        {
          "indexed": false,
          "internalType": "address",
          "name": "creator",
          "type": "address"
        }
      ],
      "name": "AuctionCanceled",
      "type": "event"
    },
    {
      "anonymous": false,
      "inputs": [
        {
          "indexed": false,
          "internalType": "uint256",
          "name": "tokenId",
          "type": "uint256"
        },
        {
          "indexed": false,
          "internalType": "address",
          "name": "nftAddress",
          "type": "address"
        },
        {
          "indexed": false,
          "internalType": "uint256",
          "name": "duration",
          "type": "uint256"
        },
        {
          "indexed": false,
          "internalType": "uint256",
          "name": "reservePrice",
          "type": "uint256"
        },
        {
          "indexed": false,
          "internalType": "address",
          "name": "creator",
          "type": "address"
        }
      ],
      "name": "AuctionCreated",
      "type": "event"
    },
    {
      "anonymous": false,
      "inputs": [
        {
          "indexed": false,
          "internalType": "uint256",
          "name": "tokenId",
          "type": "uint256"
        },
        {
          "indexed": false,
          "internalType": "address",
          "name": "nftAddress",
          "type": "address"
        },
        {
          "indexed": false,
          "internalType": "address",
          "name": "creator",
          "type": "address"
        },
        {
          "indexed": false,
          "internalType": "address",
          "name": "winner",
          "type": "address"
        },
        {
          "indexed": false,
          "internalType": "uint256",
          "name": "amount",
          "type": "uint256"
        }
      ],
      "name": "AuctionEnded",
      "type": "event"
    },
    {
      "anonymous": false,
      "inputs": [
        {
          "indexed": true,
          "internalType": "address",
          "name": "previousOwner",
          "type": "address"
        },
        {
          "indexed": true,
          "internalType": "address",
          "name": "newOwner",
          "type": "address"
        }
      ],
      "name": "OwnershipTransferred",
      "type": "event"
    },
    {
      "constant": true,
      "inputs": [
        {
          "internalType": "uint256",
          "name": "",
          "type": "uint256"
        }
      ],
      "name": "auctions",
      "outputs": [
        {
          "internalType": "bool",
          "name": "exists",
          "type": "bool"
        },
        {
          "internalType": "uint256",
          "name": "amount",
          "type": "uint256"
        },
        {
          "internalType": "uint256",
          "name": "tokenId",
          "type": "uint256"
        },
        {
          "internalType": "uint256",
          "name": "duration",
          "type": "uint256"
        },
        {
          "internalType": "uint256",
          "name": "firstBidTime",
          "type": "uint256"
        },
        {
          "internalType": "uint256",
          "name": "reservePrice",
          "type": "uint256"
        },
        {
          "internalType": "address payable",
          "name": "creator",
          "type": "address"
        },
        {
          "internalType": "address payable",
          "name": "bidder",
          "type": "address"
        }
      ],
      "payable": false,
      "stateMutability": "view",
      "type": "function"
    },
    {
      "constant": true,
      "inputs": [],
      "name": "isOwner",
      "outputs": [
        {
          "internalType": "bool",
          "name": "",
          "type": "bool"
        }
      ],
      "payable": false,
      "stateMutability": "view",
      "type": "function"
    },
    {
      "constant": true,
      "inputs": [],
      "name": "minBid",
      "outputs": [
        {
          "internalType": "uint256",
          "name": "",
          "type": "uint256"
        }
      ],
      "payable": false,
      "stateMutability": "view",
      "type": "function"
    },
    {
      "constant": true,
      "inputs": [],
      "name": "nftAddress",
      "outputs": [
        {
          "internalType": "address",
          "name": "",
          "type": "address"
        }
      ],
      "payable": false,
      "stateMutability": "view",
      "type": "function"
    },
    {
      "constant": true,
      "inputs": [],
      "name": "owner",
      "outputs": [
        {
          "internalType": "address",
          "name": "",
          "type": "address"
        }
      ],
      "payable": false,
      "stateMutability": "view",
      "type": "function"
    },
    {
      "constant": true,
      "inputs": [],
      "name": "paused",
      "outputs": [
        {
          "internalType": "bool",
          "name": "",
          "type": "bool"
        }
      ],
      "payable": false,
      "stateMutability": "view",
      "type": "function"
    },
    {
      "constant": false,
      "inputs": [],
      "name": "renounceOwnership",
      "outputs": [],
      "payable": false,
      "stateMutability": "nonpayable",
      "type": "function"
    },
    {
      "constant": true,
      "inputs": [],
      "name": "timeBuffer",
      "outputs": [
        {
          "internalType": "uint256",
          "name": "",
          "type": "uint256"
        }
      ],
      "payable": false,
      "stateMutability": "view",
      "type": "function"
    },
    {
      "constant": true,
      "inputs": [
        {
          "internalType": "uint256",
          "name": "",
          "type": "uint256"
        }
      ],
      "name": "tokenIds",
      "outputs": [
        {
          "internalType": "uint256",
          "name": "",
          "type": "uint256"
        }
      ],
      "payable": false,
      "stateMutability": "view",
      "type": "function"
    },
    {
      "constant": false,
      "inputs": [
        {
          "internalType": "address",
          "name": "newOwner",
          "type": "address"
        }
      ],
      "name": "transferOwnership",
      "outputs": [],
      "payable": false,
      "stateMutability": "nonpayable",
      "type": "function"
    },
    {
      "constant": false,
      "inputs": [
        {
          "internalType": "address",
          "name": "_nftAddress",
          "type": "address"
        }
      ],
      "name": "updateNftAddress",
      "outputs": [],
      "payable": false,
      "stateMutability": "nonpayable",
      "type": "function"
    },
    {
      "constant": false,
      "inputs": [
        {
          "internalType": "uint256",
          "name": "_minBid",
          "type": "uint256"
        }
      ],
      "name": "updateMinBid",
      "outputs": [],
      "payable": false,
      "stateMutability": "nonpayable",
      "type": "function"
    },
    {
      "constant": false,
      "inputs": [
        {
          "internalType": "uint256",
          "name": "_timeBuffer",
          "type": "uint256"
        }
      ],
      "name": "updateTimeBuffer",
      "outputs": [],
      "payable": false,
      "stateMutability": "nonpayable",
      "type": "function"
    },
    {
      "constant": false,
      "inputs": [
        {
          "internalType": "uint256",
          "name": "tokenId",
          "type": "uint256"
        },
        {
          "internalType": "uint256",
          "name": "duration",
          "type": "uint256"
        },
        {
          "internalType": "uint256",
          "name": "reservePrice",
          "type": "uint256"
        },
        {
          "internalType": "address payable",
          "name": "creator",
          "type": "address"
        }
      ],
      "name": "createAuction",
      "outputs": [],
      "payable": false,
      "stateMutability": "nonpayable",
      "type": "function"
    },
    {
      "constant": false,
      "inputs": [
        {
          "internalType": "uint256",
          "name": "tokenId",
          "type": "uint256"
        }
      ],
      "name": "createBid",
      "outputs": [],
      "payable": true,
      "stateMutability": "payable",
      "type": "function"
    },
    {
      "constant": false,
      "inputs": [
        {
          "internalType": "uint256",
          "name": "tokenId",
          "type": "uint256"
        }
      ],
      "name": "endAuction",
      "outputs": [],
      "payable": false,
      "stateMutability": "nonpayable",
      "type": "function"
    },
    {
      "constant": false,
      "inputs": [
        {
          "internalType": "uint256",
          "name": "tokenId",
          "type": "uint256"
        }
      ],
      "name": "cancelAuction",
      "outputs": [],
      "payable": false,
      "stateMutability": "nonpayable",
      "type": "function"
    },
    {
      "constant": false,
      "inputs": [
        {
          "internalType": "bool",
          "name": "_paused",
          "type": "bool"
        }
      ],
      "name": "updatePaused",
      "outputs": [],
      "payable": false,
      "stateMutability": "nonpayable",
      "type": "function"
    }
  ],
  "bytecode": "0x608060405261038460035567016345785d8a00006004553480156200002357600080fd5b50604051620026693803806200266983398181016040526200004991908101906200025a565b336000806101000a81548173ffffffffffffffffffffffffffffffffffffffff021916908373ffffffffffffffffffffffffffffffffffffffff1602179055506000809054906101000a900473ffffffffffffffffffffffffffffffffffffffff1673ffffffffffffffffffffffffffffffffffffffff16600073ffffffffffffffffffffffffffffffffffffffff167f8be0079c531659141344cd1fd0a4f28419497f9722a3daafe3b4186f6b6457e060405160405180910390a3600180819055508073ffffffffffffffffffffffffffffffffffffffff166301ffc9a76380ac58cd60e01b6040518263ffffffff1660e01b81526004016200014e919062000305565b60206040518083038186803b1580156200016757600080fd5b505afa1580156200017c573d6000803e3d6000fd5b505050506040513d601f19601f82011682018060405250620001a2919081019062000286565b620001e4576040517f08c379a0000000000000000000000000000000000000000000000000000000008152600401620001db9062000322565b60405180910390fd5b80600560006101000a81548173ffffffffffffffffffffffffffffffffffffffff021916908373ffffffffffffffffffffffffffffffffffffffff16021790555050620003f5565b6000815190506200023d81620003c1565b92915050565b6000815190506200025481620003db565b92915050565b6000602082840312156200026d57600080fd5b60006200027d848285016200022c565b91505092915050565b6000602082840312156200029957600080fd5b6000620002a98482850162000243565b91505092915050565b620002bd8162000375565b82525050565b6000620002d2601d8362000344565b91507f446f65736e277420737570706f7274204e465420696e746572666163650000006000830152602082019050919050565b60006020820190506200031c6000830184620002b2565b92915050565b600060208201905081810360008301526200033d81620002c3565b9050919050565b600082825260208201905092915050565b60006200036282620003a1565b9050919050565b60008115159050919050565b60007fffffffff0000000000000000000000000000000000000000000000000000000082169050919050565b600073ffffffffffffffffffffffffffffffffffffffff82169050919050565b620003cc8162000355565b8114620003d857600080fd5b50565b620003e68162000369565b8114620003f257600080fd5b50565b61226480620004056000396000f3fe6080604052600436106101095760003560e01c80638da5cb5b11610095578063b9a2de3a11610064578063b9a2de3a14610329578063d58778d614610352578063e5eb7ae81461038f578063ec91f2a4146103b8578063f2fde38b146103e357610109565b80638da5cb5b146102815780638f32d59b146102ac57806396b5a755146102d75780639b8e5d621461030057610109565b80635bf8633a116100dc5780635bf8633a146101cf5780635c975abb146101fa578063659dd2b414610225578063715018a614610241578063819c9e4c1461025857610109565b806308cdc2a81461010e5780633166fd1d146101375780633e109a1914610160578063571a26a01461018b575b600080fd5b34801561011a57600080fd5b506101356004803603610130919081019061182a565b61040c565b005b34801561014357600080fd5b5061015e6004803603610159919081019061187c565b61043a565b005b34801561016c57600080fd5b50610175610455565b6040516101829190611f91565b60405180910390f35b34801561019757600080fd5b506101b260048036036101ad919081019061187c565b61045b565b6040516101c6989796959493929190611d78565b60405180910390f35b3480156101db57600080fd5b506101e46104f0565b6040516101f19190611cd4565b60405180910390f35b34801561020657600080fd5b5061020f610516565b60405161021c9190611d5d565b60405180910390f35b61023f600480360361023a919081019061187c565b610529565b005b34801561024d57600080fd5b50610256610993565b005b34801561026457600080fd5b5061027f600480360361027a91908101906118a5565b610a63565b005b34801561028d57600080fd5b50610296610d06565b6040516102a39190611cd4565b60405180910390f35b3480156102b857600080fd5b506102c1610d2f565b6040516102ce9190611d5d565b60405180910390f35b3480156102e357600080fd5b506102fe60048036036102f9919081019061187c565b610d86565b005b34801561030c57600080fd5b506103276004803603610322919081019061187c565b6110f0565b005b34801561033557600080fd5b50610350600480360361034b919081019061187c565b61110b565b005b34801561035e57600080fd5b506103796004803603610374919081019061187c565b6114f9565b6040516103869190611f91565b60405180910390f35b34801561039b57600080fd5b506103b660048036036103b19190810190611801565b61151a565b005b3480156103c457600080fd5b506103cd61163e565b6040516103da9190611f91565b60405180910390f35b3480156103ef57600080fd5b5061040a60048036036104059190810190611801565b611644565b005b610414610d2f565b61041d57600080fd5b80600260006101000a81548160ff02191690831515021790555050565b610442610d2f565b61044b57600080fd5b8060048190555050565b60045481565b60066020528060005260406000206000915090508060000160009054906101000a900460ff16908060010154908060020154908060030154908060040154908060050154908060060160009054906101000a900473ffffffffffffffffffffffffffffffffffffffff16908060070160009054906101000a900473ffffffffffffffffffffffffffffffffffffffff16905088565b600560009054906101000a900473ffffffffffffffffffffffffffffffffffffffff1681565b600260009054906101000a900460ff1681565b600260009054906101000a900460ff1615610579576040517f08c379a000000000000000000000000000000000000000000000000000000000815260040161057090611eb1565b60405180910390fd5b6006600082815260200190815260200160002060000160009054906101000a900460ff166105dc576040517f08c379a00000000000000000000000000000000000000000000000000000000081526004016105d390611ed1565b60405180910390fd5b6006600082815260200190815260200160002060050154341015610635576040517f08c379a000000000000000000000000000000000000000000000000000000000815260040161062c90611ef1565b60405180910390fd5b6000600660008381526020019081526020016000206004015414806106875750600660008281526020019081526020016000206003015460066000838152602001908152602001600020600401540142105b6106c6576040517f08c379a00000000000000000000000000000000000000000000000000000000081526004016106bd90611f51565b60405180910390fd5b600060066000838152602001908152602001600020600101549050600080600083146107c35782341161072e576040517f08c379a000000000000000000000000000000000000000000000000000000000815260040161072590611e91565b60405180910390fd5b600454610744843461166190919063ffffffff16565b1015610785576040517f08c379a000000000000000000000000000000000000000000000000000000000815260040161077c90611f71565b60405180910390fd5b6006600085815260200190815260200160002060070160009054906101000a900473ffffffffffffffffffffffffffffffffffffffff1690506107e3565b600191504260066000868152602001908152602001600020600401819055505b346006600086815260200190815260200160002060010181905550336006600086815260200190815260200160002060070160006101000a81548173ffffffffffffffffffffffffffffffffffffffff021916908373ffffffffffffffffffffffffffffffffffffffff16021790555060006003546108a94261089b600660008a815260200190815260200160002060030154600660008b81526020019081526020016000206004015461168190919063ffffffff16565b61166190919063ffffffff16565b10156108da576003546006600087815260200190815260200160002060030160008282540192505081905550600190505b82610927578173ffffffffffffffffffffffffffffffffffffffff166108fc859081150290604051600060405180830381858888f19350505050158015610925573d6000803e3d6000fd5b505b7f17aab958f10298d4269017458487925b395b4f89ddd829049ea143fd754cf7a985600560009054906101000a900473ffffffffffffffffffffffffffffffffffffffff1633344288876040516109849796959493929190612036565b60405180910390a15050505050565b61099b610d2f565b6109a457600080fd5b600073ffffffffffffffffffffffffffffffffffffffff166000809054906101000a900473ffffffffffffffffffffffffffffffffffffffff1673ffffffffffffffffffffffffffffffffffffffff167f8be0079c531659141344cd1fd0a4f28419497f9722a3daafe3b4186f6b6457e060405160405180910390a360008060006101000a81548173ffffffffffffffffffffffffffffffffffffffff021916908373ffffffffffffffffffffffffffffffffffffffff160217905550565b600260009054906101000a900460ff1615610ab3576040517f08c379a0000000000000000000000000000000000000000000000000000000008152600401610aaa90611eb1565b60405180910390fd5b610abb610d2f565b610ac457600080fd5b6006600085815260200190815260200160002060000160009054906101000a900460ff1615610b28576040517f08c379a0000000000000000000000000000000000000000000000000000000008152600401610b1f90611e11565b60405180910390fd5b600784908060018154018082558091505090600182039060005260206000200160009091929091909150555060016006600086815260200190815260200160002060000160006101000a81548160ff021916908315150217905550826006600086815260200190815260200160002060030181905550816006600086815260200190815260200160002060050181905550806006600086815260200190815260200160002060060160006101000a81548173ffffffffffffffffffffffffffffffffffffffff021916908373ffffffffffffffffffffffffffffffffffffffff160217905550600560009054906101000a900473ffffffffffffffffffffffffffffffffffffffff1673ffffffffffffffffffffffffffffffffffffffff166323b872dd8230876040518463ffffffff1660e01b8152600401610c6d93929190611cef565b600060405180830381600087803b158015610c8757600080fd5b505af1158015610c9b573d6000803e3d6000fd5b505050507f082e2e78efcea783a9afe8f62b658bcf1e3482f87016915ab4214c446b69f43e84600560009054906101000a900473ffffffffffffffffffffffffffffffffffffffff16858585604051610cf89594939291906120a5565b60405180910390a150505050565b60008060009054906101000a900473ffffffffffffffffffffffffffffffffffffffff16905090565b60008060009054906101000a900473ffffffffffffffffffffffffffffffffffffffff1673ffffffffffffffffffffffffffffffffffffffff163373ffffffffffffffffffffffffffffffffffffffff1614905090565b6006600082815260200190815260200160002060000160009054906101000a900460ff16610de9576040517f08c379a0000000000000000000000000000000000000000000000000000000008152600401610de090611ed1565b60405180910390fd5b3373ffffffffffffffffffffffffffffffffffffffff166006600083815260200190815260200160002060060160009054906101000a900473ffffffffffffffffffffffffffffffffffffffff1673ffffffffffffffffffffffffffffffffffffffff161480610e8b5750610e5c610d06565b73ffffffffffffffffffffffffffffffffffffffff163373ffffffffffffffffffffffffffffffffffffffff16145b610eca576040517f08c379a0000000000000000000000000000000000000000000000000000000008152600401610ec190611e71565b60405180910390fd5b6000600660008381526020019081526020016000206004015414610f23576040517f08c379a0000000000000000000000000000000000000000000000000000000008152600401610f1a90611e31565b60405180910390fd5b60006006600083815260200190815260200160002060060160009054906101000a900473ffffffffffffffffffffffffffffffffffffffff169050600560009054906101000a900473ffffffffffffffffffffffffffffffffffffffff1673ffffffffffffffffffffffffffffffffffffffff166323b872dd3083856040518463ffffffff1660e01b8152600401610fbd93929190611d26565b600060405180830381600087803b158015610fd757600080fd5b505af1158015610feb573d6000803e3d6000fd5b505050507f31e46b3372adff8978a18a1c543a6b3a925ee693bdf7a7c54df36f30f87d290e82600560009054906101000a900473ffffffffffffffffffffffffffffffffffffffff168360405161104493929190611fac565b60405180910390a160066000838152602001908152602001600020600080820160006101000a81549060ff0219169055600182016000905560028201600090556003820160009055600482016000905560058201600090556006820160006101000a81549073ffffffffffffffffffffffffffffffffffffffff02191690556007820160006101000a81549073ffffffffffffffffffffffffffffffffffffffff021916905550505050565b6110f8610d2f565b61110157600080fd5b8060038190555050565b600260009054906101000a900460ff161561115b576040517f08c379a000000000000000000000000000000000000000000000000000000000815260040161115290611eb1565b60405180910390fd5b6006600082815260200190815260200160002060000160009054906101000a900460ff166111be576040517f08c379a00000000000000000000000000000000000000000000000000000000081526004016111b590611ed1565b60405180910390fd5b600060066000838152602001908152602001600020600401541415611218576040517f08c379a000000000000000000000000000000000000000000000000000000000815260040161120f90611e51565b60405180910390fd5b6006600082815260200190815260200160002060030154600660008381526020019081526020016000206004015401421015611289576040517f08c379a000000000000000000000000000000000000000000000000000000000815260040161128090611f11565b60405180910390fd5b60006006600083815260200190815260200160002060070160009054906101000a900473ffffffffffffffffffffffffffffffffffffffff16905060006006600084815260200190815260200160002060010154905060006006600085815260200190815260200160002060060160009054906101000a900473ffffffffffffffffffffffffffffffffffffffff1690507f19f5e73c484e5274d91de54225d8a1330339f61b5f27dbe05c47ff361b8dd3c184600560009054906101000a900473ffffffffffffffffffffffffffffffffffffffff16838686604051611373959493929190611fe3565b60405180910390a160066000858152602001908152602001600020600080820160006101000a81549060ff0219169055600182016000905560028201600090556003820160009055600482016000905560058201600090556006820160006101000a81549073ffffffffffffffffffffffffffffffffffffffff02191690556007820160006101000a81549073ffffffffffffffffffffffffffffffffffffffff02191690555050600560009054906101000a900473ffffffffffffffffffffffffffffffffffffffff1673ffffffffffffffffffffffffffffffffffffffff166323b872dd3085876040518463ffffffff1660e01b815260040161147a93929190611d26565b600060405180830381600087803b15801561149457600080fd5b505af11580156114a8573d6000803e3d6000fd5b505050508073ffffffffffffffffffffffffffffffffffffffff166108fc839081150290604051600060405180830381858888f193505050501580156114f2573d6000803e3d6000fd5b5050505050565b6007818154811061150657fe5b906000526020600020016000915090505481565b611522610d2f565b61152b57600080fd5b8073ffffffffffffffffffffffffffffffffffffffff166301ffc9a76380ac58cd60e01b6040518263ffffffff1660e01b815260040161156b9190611df6565b60206040518083038186803b15801561158357600080fd5b505afa158015611597573d6000803e3d6000fd5b505050506040513d601f19601f820116820180604052506115bb9190810190611853565b6115fa576040517f08c379a00000000000000000000000000000000000000000000000000000000081526004016115f190611f31565b60405180910390fd5b80600560006101000a81548173ffffffffffffffffffffffffffffffffffffffff021916908373ffffffffffffffffffffffffffffffffffffffff16021790555050565b60035481565b61164c610d2f565b61165557600080fd5b61165e816116a0565b50565b60008282111561167057600080fd5b600082840390508091505092915050565b60008082840190508381101561169657600080fd5b8091505092915050565b600073ffffffffffffffffffffffffffffffffffffffff168173ffffffffffffffffffffffffffffffffffffffff1614156116da57600080fd5b8073ffffffffffffffffffffffffffffffffffffffff166000809054906101000a900473ffffffffffffffffffffffffffffffffffffffff1673ffffffffffffffffffffffffffffffffffffffff167f8be0079c531659141344cd1fd0a4f28419497f9722a3daafe3b4186f6b6457e060405160405180910390a3806000806101000a81548173ffffffffffffffffffffffffffffffffffffffff021916908373ffffffffffffffffffffffffffffffffffffffff16021790555050565b6000813590506117a7816121c5565b92915050565b6000813590506117bc816121dc565b92915050565b6000813590506117d1816121f3565b92915050565b6000815190506117e6816121f3565b92915050565b6000813590506117fb8161220a565b92915050565b60006020828403121561181357600080fd5b600061182184828501611798565b91505092915050565b60006020828403121561183c57600080fd5b600061184a848285016117c2565b91505092915050565b60006020828403121561186557600080fd5b6000611873848285016117d7565b91505092915050565b60006020828403121561188e57600080fd5b600061189c848285016117ec565b91505092915050565b600080600080608085870312156118bb57600080fd5b60006118c9878288016117ec565b94505060206118da878288016117ec565b93505060406118eb878288016117ec565b92505060606118fc878288016117ad565b91505092959194509250565b6119118161218f565b82525050565b6119208161211b565b82525050565b61192f81612109565b82525050565b61193e8161212d565b82525050565b61194d81612139565b82525050565b60006119606016836120f8565b91507f41756374696f6e20616c726561647920657869737473000000000000000000006000830152602082019050919050565b60006119a06027836120f8565b91507f43616e27742063616e63656c20616e2061756374696f6e206f6e63652069742760008301527f7320626567756e000000000000000000000000000000000000000000000000006020830152604082019050919050565b6000611a066014836120f8565b91507f41756374696f6e206861736e277420626567756e0000000000000000000000006000830152602082019050919050565b6000611a46602e836120f8565b91507f43616e206f6e6c792062652063616c6c65642062792061756374696f6e20637260008301527f6561746f72206f72206f776e65720000000000000000000000000000000000006020830152604082019050919050565b6000611aac601c836120f8565b91507f4d7573742073656e64206d6f7265207468616e206c61737420626964000000006000830152602082019050919050565b6000611aec6012836120f8565b91507f4d757374206e6f742062652070617573656400000000000000000000000000006000830152602082019050919050565b6000611b2c6015836120f8565b91507f41756374696f6e20646f65736e277420657869737400000000000000000000006000830152602082019050919050565b6000611b6c601e836120f8565b91507f4d7573742073656e6420726573657276655072696365206f72206d6f726500006000830152602082019050919050565b6000611bac6018836120f8565b91507f41756374696f6e206861736e277420636f6d706c6574656400000000000000006000830152602082019050919050565b6000611bec601d836120f8565b91507f446f65736e277420737570706f7274204e465420696e746572666163650000006000830152602082019050919050565b6000611c2c600f836120f8565b91507f41756374696f6e206578706972656400000000000000000000000000000000006000830152602082019050919050565b6000611c6c602d836120f8565b91507f4d7573742073656e64206d6f7265207468616e206c617374206269642062792060008301527f6d696e42696420416d6f756e74000000000000000000000000000000000000006020830152604082019050919050565b611cce81612185565b82525050565b6000602082019050611ce96000830184611926565b92915050565b6000606082019050611d046000830186611908565b611d116020830185611926565b611d1e6040830184611cc5565b949350505050565b6000606082019050611d3b6000830186611926565b611d486020830185611926565b611d556040830184611cc5565b949350505050565b6000602082019050611d726000830184611935565b92915050565b600061010082019050611d8e600083018b611935565b611d9b602083018a611cc5565b611da86040830189611cc5565b611db56060830188611cc5565b611dc26080830187611cc5565b611dcf60a0830186611cc5565b611ddc60c0830185611917565b611de960e0830184611917565b9998505050505050505050565b6000602082019050611e0b6000830184611944565b92915050565b60006020820190508181036000830152611e2a81611953565b9050919050565b60006020820190508181036000830152611e4a81611993565b9050919050565b60006020820190508181036000830152611e6a816119f9565b9050919050565b60006020820190508181036000830152611e8a81611a39565b9050919050565b60006020820190508181036000830152611eaa81611a9f565b9050919050565b60006020820190508181036000830152611eca81611adf565b9050919050565b60006020820190508181036000830152611eea81611b1f565b9050919050565b60006020820190508181036000830152611f0a81611b5f565b9050919050565b60006020820190508181036000830152611f2a81611b9f565b9050919050565b60006020820190508181036000830152611f4a81611bdf565b9050919050565b60006020820190508181036000830152611f6a81611c1f565b9050919050565b60006020820190508181036000830152611f8a81611c5f565b9050919050565b6000602082019050611fa66000830184611cc5565b92915050565b6000606082019050611fc16000830186611cc5565b611fce6020830185611926565b611fdb6040830184611926565b949350505050565b600060a082019050611ff86000830188611cc5565b6120056020830187611926565b6120126040830186611908565b61201f6060830185611926565b61202c6080830184611cc5565b9695505050505050565b600060e08201905061204b600083018a611cc5565b6120586020830189611926565b6120656040830188611908565b6120726060830187611cc5565b61207f6080830186611cc5565b61208c60a0830185611935565b61209960c0830184611935565b98975050505050505050565b600060a0820190506120ba6000830188611cc5565b6120c76020830187611926565b6120d46040830186611cc5565b6120e16060830185611cc5565b6120ee6080830184611908565b9695505050505050565b600082825260208201905092915050565b600061211482612165565b9050919050565b600061212682612165565b9050919050565b60008115159050919050565b60007fffffffff0000000000000000000000000000000000000000000000000000000082169050919050565b600073ffffffffffffffffffffffffffffffffffffffff82169050919050565b6000819050919050565b600061219a826121a1565b9050919050565b60006121ac826121b3565b9050919050565b60006121be82612165565b9050919050565b6121ce81612109565b81146121d957600080fd5b50565b6121e58161211b565b81146121f057600080fd5b50565b6121fc8161212d565b811461220757600080fd5b50565b61221381612185565b811461221e57600080fd5b5056fea365627a7a7231582073400a732480c254216bea6944c0a926180ecf248dae1a792a08abd98fcde3536c6578706572696d656e74616cf564736f6c63430005100040",
  "source": "pragma solidity ^0.5.0;\npragma experimental ABIEncoderV2;\n\nimport \"openzeppelin-solidity/contracts/math/SafeMath.sol\";\nimport \"openzeppelin-solidity/contracts/ownership/Ownable.sol\";\n\nimport \"openzeppelin-solidity/contracts/token/ERC721/IERC721.sol\";\nimport \"openzeppelin-solidity/contracts/introspection/IERC165.sol\";\nimport \"openzeppelin-solidity/contracts/utils/ReentrancyGuard.sol\";\n\n/**\n   _____                                                   _   _                           \n  |  __ \\                                  /\\             | | (_)                          \n  | |__) |___ ___  ___ _ ____   _____     /  \\  _   _  ___| |_ _  ___  _ __                \n  |  _  // _ / __|/ _ | '__\\ \\ / / _ \\   / /\\ \\| | | |/ __| __| |/ _ \\| '_ \\               \n  | | \\ |  __\\__ |  __| |   \\ V |  __/  / ____ | |_| | (__| |_| | (_) | | | |              \n  |_|  \\_\\___|___/\\___|_|    \\_/ \\___| /_/    \\_\\__,_|\\___|\\__|_|\\___/|_| |_|              \n                                                                                           \n                                                                                           \n   ____          ____  _ _ _         _____                       _                         \n  |  _ \\        |  _ \\(_| | |       |  __ \\                     | |                        \n  | |_) |_   _  | |_) |_| | |_   _  | |__) |___ _ __  _ __   ___| | ____ _ _ __ ___  _ __  \n  |  _ <| | | | |  _ <| | | | | | | |  _  // _ | '_ \\| '_ \\ / _ | |/ / _` | '_ ` _ \\| '_ \\ \n  | |_) | |_| | | |_) | | | | |_| | | | \\ |  __| | | | | | |  __|   | (_| | | | | | | |_) |\n  |____/ \\__, | |____/|_|_|_|\\__, | |_|  \\_\\___|_| |_|_| |_|\\___|_|\\_\\__,_|_| |_| |_| .__/ \n          __/ |               __/ |                                                 | |    \n         |___/               |___/                                                  |_|    \n\n*/\n\ncontract ReserveAuction is Ownable, ReentrancyGuard {\n    using SafeMath for uint256;\n\n    bool public paused;\n\n    uint256 public timeBuffer = 15 * 60; // extend 15 minutes after every bid made in last 15 minutes\n    uint256 public minBid = 1 * 10**17; // 0.1 eth\n\n    bytes4 constant interfaceId = 0x80ac58cd; // 721 interface id\n    address public nftAddress;\n\n    mapping(uint256 => Auction) public auctions;\n    uint256[] public tokenIds;\n\n    struct Auction {\n        bool exists;\n        uint256 amount;\n        uint256 tokenId;\n        uint256 duration;\n        uint256 firstBidTime;\n        uint256 reservePrice;\n        address payable creator;\n        address payable bidder;\n    }\n\n    modifier notPaused() {\n        require(!paused, \"Must not be paused\");\n        _;\n    }\n\n    event AuctionCreated(\n        uint256 tokenId,\n        address nftAddress,\n        uint256 duration,\n        uint256 reservePrice,\n        address creator\n    );\n    event AuctionBid(\n        uint256 tokenId,\n        address nftAddress,\n        address sender,\n        uint256 value,\n        uint256 timestamp,\n        bool firstBid,\n        bool extended\n    );\n    event AuctionEnded(\n        uint256 tokenId,\n        address nftAddress,\n        address creator,\n        address winner,\n        uint256 amount\n    );\n    event AuctionCanceled(\n        uint256 tokenId,\n        address nftAddress,\n        address creator\n    );\n\n    constructor(address _nftAddress) public {\n        require(\n            IERC165(_nftAddress).supportsInterface(interfaceId),\n            \"Doesn't support NFT interface\"\n        );\n        nftAddress = _nftAddress;\n    }\n\n    function updateNftAddress(address _nftAddress) public onlyOwner {\n        require(\n            IERC165(_nftAddress).supportsInterface(interfaceId),\n            \"Doesn't support NFT interface\"\n        );\n        nftAddress = _nftAddress;\n    }\n\n    function updateMinBid(uint256 _minBid) public onlyOwner {\n        minBid = _minBid;\n    }\n\n    function updateTimeBuffer(uint256 _timeBuffer) public onlyOwner {\n        timeBuffer = _timeBuffer;\n    }\n\n    function createAuction(\n        uint256 tokenId,\n        uint256 duration,\n        uint256 reservePrice,\n        address payable creator\n    ) external notPaused onlyOwner {\n        require(!auctions[tokenId].exists, \"Auction already exists\");\n\n        tokenIds.push(tokenId);\n\n        auctions[tokenId].exists = true;\n        auctions[tokenId].duration = duration;\n        auctions[tokenId].reservePrice = reservePrice;\n        auctions[tokenId].creator = creator;\n\n        IERC721(nftAddress).transferFrom(creator, address(this), tokenId);\n\n        emit AuctionCreated(tokenId, nftAddress, duration, reservePrice, creator);\n    }\n\n    function createBid(uint256 tokenId) external payable notPaused {\n        require(auctions[tokenId].exists, \"Auction doesn't exist\");\n        require(\n            msg.value >= auctions[tokenId].reservePrice,\n            \"Must send reservePrice or more\"\n        );\n        require(\n            auctions[tokenId].firstBidTime == 0 ||\n                block.timestamp <\n                auctions[tokenId].firstBidTime + auctions[tokenId].duration,\n            \"Auction expired\"\n        );\n\n        uint256 lastValue = auctions[tokenId].amount;\n\n        bool firstBid;\n        address payable lastBidder;\n\n        // allows for auctions with starting price of 0\n        if (lastValue != 0) {\n            require(msg.value > lastValue, \"Must send more than last bid\");\n            require(\n                msg.value.sub(lastValue) >= minBid,\n                \"Must send more than last bid by minBid Amount\"\n            );\n            lastBidder = auctions[tokenId].bidder;\n        } else {\n            firstBid = true;\n            auctions[tokenId].firstBidTime = block.timestamp;\n        }\n\n        auctions[tokenId].amount = msg.value;\n        auctions[tokenId].bidder = msg.sender;\n\n        bool extended;\n        // at this point we know that the timestamp is less than start + duration\n        // we want to know by how much the timestamp is less than start + duration\n        // if the difference is less than the timeBuffer, increase the duration by the timeBuffer\n        if (\n            (auctions[tokenId].firstBidTime.add(auctions[tokenId].duration))\n                .sub(block.timestamp) < timeBuffer\n        ) {\n            auctions[tokenId].duration += timeBuffer;\n            extended = true;\n        }\n\n        if (!firstBid) {\n            lastBidder.transfer(lastValue);\n        }\n\n        emit AuctionBid(\n            tokenId,\n            nftAddress,\n            msg.sender,\n            msg.value,\n            block.timestamp,\n            firstBid,\n            extended\n        );\n    }\n\n    function endAuction(uint256 tokenId) external notPaused {\n        require(auctions[tokenId].exists, \"Auction doesn't exist\");\n        require(\n            uint256(auctions[tokenId].firstBidTime) != 0,\n            \"Auction hasn't begun\"\n        );\n        require(\n            block.timestamp >=\n                auctions[tokenId].firstBidTime + auctions[tokenId].duration,\n            \"Auction hasn't completed\"\n        );\n\n        address winner = auctions[tokenId].bidder;\n        uint256 amount = auctions[tokenId].amount;\n        address payable creator = auctions[tokenId].creator;\n\n        emit AuctionEnded(tokenId, nftAddress, creator, winner, amount);\n        delete auctions[tokenId];\n\n        IERC721(nftAddress).transferFrom(address(this), winner, tokenId);\n        creator.transfer(amount);\n    }\n\n    function cancelAuction(uint256 tokenId) external {\n        require(auctions[tokenId].exists, \"Auction doesn't exist\");\n        require(\n            auctions[tokenId].creator == msg.sender || msg.sender == owner(),\n            \"Can only be called by auction creator or owner\"\n        );\n        require(\n            uint256(auctions[tokenId].firstBidTime) == 0,\n            \"Can't cancel an auction once it's begun\"\n        );\n        address creator = auctions[tokenId].creator;\n        IERC721(nftAddress).transferFrom(address(this), creator, tokenId);\n        emit AuctionCanceled(tokenId, nftAddress, creator);\n        delete auctions[tokenId];\n    }\n\n    function updatePaused(bool _paused) public onlyOwner {\n        paused = _paused;\n    }\n}\n",
  "sourcePath": "/Users/billy/GitHub/folia-app/folia-contracts/contracts/ReserveAuction.sol",
  "compiler": {
    "name": "solc",
    "version": "0.5.16+commit.9c3226ce.Emscripten.clang"
  },
  "schemaVersion": "3.3.4",
  "updatedAt": "2021-03-15T18:00:24.777Z",
  "networkType": "ethereum",
  "devdoc": {
    "methods": {
      "isOwner()": {
        "return": "true if `msg.sender` is the owner of the contract."
      },
      "owner()": {
        "return": "the address of the owner."
      },
      "renounceOwnership()": {
        "details": "Allows the current owner to relinquish control of the contract."
      },
      "transferOwnership(address)": {
        "details": "Allows the current owner to transfer control of the contract to a newOwner.",
        "params": {
          "newOwner": "The address to transfer ownership to."
        }
      }
    }
  },
  "userdoc": {
    "methods": {
      "renounceOwnership()": {
        "notice": "Renouncing to ownership will leave the contract without an owner. It will not be possible to call the functions with the `onlyOwner` modifier anymore."
      }
    },
    "notice": "_____                                                   _   _                            |  __ \\                                  /\\             | | (_)                           | |__) |___ ___  ___ _ ____   _____     /  \\  _   _  ___| |_ _  ___  _ __                 |  _  // _ / __|/ _ | '__\\ \\ / / _ \\   / /\\ \\| | | |/ __| __| |/ _ \\| '_ \\                | | \\ |  __\\__ |  __| |   \\ V |  __/  / ____ | |_| | (__| |_| | (_) | | | |               |_|  \\_\\___|___/\\___|_|    \\_/ \\___| /_/    \\_\\__,_|\\___|\\__|_|\\___/|_| |_|               ____          ____  _ _ _         _____                       _                          |  _ \\        |  _ \\(_| | |       |  __ \\                     | |                         | |_) |_   _  | |_) |_| | |_   _  | |__) |___ _ __  _ __   ___| | ____ _ _ __ ___  _ __   |  _ <| | | | |  _ <| | | | | | | |  _  // _ | '_ \\| '_ \\ / _ | |/ / _` | '_ ` _ \\| '_ \\  | |_) | |_| | | |_) | | | | |_| | | | \\ |  __| | | | | | |  __|   | (_| | | | | | | |_) | |____/ \\__, | |____/|_|_|_|\\__, | |_|  \\_\\___|_| |_|_| |_|\\___|_|\\_\\__,_|_| |_| |_| .__/  __/ |               __/ |                                                 | |     |___/               |___/                                                  |_|    "
  }
}