{
  "contractName": "ReserveAuction",
  "abi": [
    {
      "constant": true,
      "inputs": [],
      "name": "minBid",
      "outputs": [
        {
          "name": "",
          "type": "uint256"
        }
      ],
      "payable": false,
      "stateMutability": "view",
      "type": "function"
    },
    {
      "constant": true,
      "inputs": [
        {
          "name": "",
          "type": "uint256"
        }
      ],
      "name": "auctions",
      "outputs": [
        {
          "name": "exists",
          "type": "bool"
        },
        {
          "name": "paused",
          "type": "bool"
        },
        {
          "name": "amount",
          "type": "uint256"
        },
        {
          "name": "duration",
          "type": "uint256"
        },
        {
          "name": "firstBidTime",
          "type": "uint256"
        },
        {
          "name": "reservePrice",
          "type": "uint256"
        },
        {
          "name": "adminSplit",
          "type": "uint256"
        },
        {
          "name": "creator",
          "type": "address"
        },
        {
          "name": "proceedsRecipient",
          "type": "address"
        },
        {
          "name": "bidder",
          "type": "address"
        }
      ],
      "payable": false,
      "stateMutability": "view",
      "type": "function"
    },
    {
      "constant": true,
      "inputs": [],
      "name": "nftAddress",
      "outputs": [
        {
          "name": "",
          "type": "address"
        }
      ],
      "payable": false,
      "stateMutability": "view",
      "type": "function"
    },
    {
      "constant": true,
      "inputs": [],
      "name": "globalPaused",
      "outputs": [
        {
          "name": "",
          "type": "bool"
        }
      ],
      "payable": false,
      "stateMutability": "view",
      "type": "function"
    },
    {
      "constant": false,
      "inputs": [],
      "name": "renounceOwnership",
      "outputs": [],
      "payable": false,
      "stateMutability": "nonpayable",
      "type": "function"
    },
    {
      "constant": true,
      "inputs": [],
      "name": "owner",
      "outputs": [
        {
          "name": "",
          "type": "address"
        }
      ],
      "payable": false,
      "stateMutability": "view",
      "type": "function"
    },
    {
      "constant": true,
      "inputs": [],
      "name": "isOwner",
      "outputs": [
        {
          "name": "",
          "type": "bool"
        }
      ],
      "payable": false,
      "stateMutability": "view",
      "type": "function"
    },
    {
      "constant": true,
      "inputs": [
        {
          "name": "",
          "type": "uint256"
        }
      ],
      "name": "tokenIds",
      "outputs": [
        {
          "name": "",
          "type": "uint256"
        }
      ],
      "payable": false,
      "stateMutability": "view",
      "type": "function"
    },
    {
      "constant": true,
      "inputs": [],
      "name": "timeBuffer",
      "outputs": [
        {
          "name": "",
          "type": "uint256"
        }
      ],
      "payable": false,
      "stateMutability": "view",
      "type": "function"
    },
    {
      "constant": false,
      "inputs": [
        {
          "name": "newOwner",
          "type": "address"
        }
      ],
      "name": "transferOwnership",
      "outputs": [],
      "payable": false,
      "stateMutability": "nonpayable",
      "type": "function"
    },
    {
      "constant": true,
      "inputs": [],
      "name": "admin",
      "outputs": [
        {
          "name": "",
          "type": "address"
        }
      ],
      "payable": false,
      "stateMutability": "view",
      "type": "function"
    },
    {
      "inputs": [
        {
          "name": "_nftAddress",
          "type": "address"
        },
        {
          "name": "_admin",
          "type": "address"
        }
      ],
      "payable": false,
      "stateMutability": "nonpayable",
      "type": "constructor"
    },
    {
      "anonymous": false,
      "inputs": [
        {
          "indexed": false,
          "name": "tokenId",
          "type": "uint256"
        },
        {
          "indexed": false,
          "name": "nftAddress",
          "type": "address"
        },
        {
          "indexed": false,
          "name": "duration",
          "type": "uint256"
        },
        {
          "indexed": false,
          "name": "reservePrice",
          "type": "uint256"
        },
        {
          "indexed": false,
          "name": "creator",
          "type": "address"
        }
      ],
      "name": "AuctionCreated",
      "type": "event"
    },
    {
      "anonymous": false,
      "inputs": [
        {
          "indexed": false,
          "name": "tokenId",
          "type": "uint256"
        },
        {
          "indexed": false,
          "name": "nftAddress",
          "type": "address"
        },
        {
          "indexed": false,
          "name": "sender",
          "type": "address"
        },
        {
          "indexed": false,
          "name": "value",
          "type": "uint256"
        },
        {
          "indexed": false,
          "name": "timestamp",
          "type": "uint256"
        },
        {
          "indexed": false,
          "name": "firstBid",
          "type": "bool"
        },
        {
          "indexed": false,
          "name": "extended",
          "type": "bool"
        }
      ],
      "name": "AuctionBid",
      "type": "event"
    },
    {
      "anonymous": false,
      "inputs": [
        {
          "indexed": false,
          "name": "tokenId",
          "type": "uint256"
        },
        {
          "indexed": false,
          "name": "nftAddress",
          "type": "address"
        },
        {
          "indexed": false,
          "name": "creator",
          "type": "address"
        },
        {
          "indexed": false,
          "name": "winner",
          "type": "address"
        },
        {
          "indexed": false,
          "name": "amount",
          "type": "uint256"
        }
      ],
      "name": "AuctionEnded",
      "type": "event"
    },
    {
      "anonymous": false,
      "inputs": [
        {
          "indexed": false,
          "name": "tokenId",
          "type": "uint256"
        },
        {
          "indexed": false,
          "name": "nftAddress",
          "type": "address"
        },
        {
          "indexed": false,
          "name": "creator",
          "type": "address"
        }
      ],
      "name": "AuctionCanceled",
      "type": "event"
    },
    {
      "anonymous": false,
      "inputs": [
        {
          "indexed": false,
          "name": "tokenId",
          "type": "uint256"
        },
        {
          "indexed": false,
          "name": "paused",
          "type": "bool"
        }
      ],
      "name": "UpdateAuction",
      "type": "event"
    },
    {
      "anonymous": false,
      "inputs": [
        {
          "indexed": true,
          "name": "previousOwner",
          "type": "address"
        },
        {
          "indexed": true,
          "name": "newOwner",
          "type": "address"
        }
      ],
      "name": "OwnershipTransferred",
      "type": "event"
    },
    {
      "constant": false,
      "inputs": [
        {
          "name": "_nftAddress",
          "type": "address"
        }
      ],
      "name": "updateNftAddress",
      "outputs": [],
      "payable": false,
      "stateMutability": "nonpayable",
      "type": "function"
    },
    {
      "constant": false,
      "inputs": [
        {
          "name": "_minBid",
          "type": "uint256"
        }
      ],
      "name": "updateMinBid",
      "outputs": [],
      "payable": false,
      "stateMutability": "nonpayable",
      "type": "function"
    },
    {
      "constant": false,
      "inputs": [
        {
          "name": "_timeBuffer",
          "type": "uint256"
        }
      ],
      "name": "updateTimeBuffer",
      "outputs": [],
      "payable": false,
      "stateMutability": "nonpayable",
      "type": "function"
    },
    {
      "constant": false,
      "inputs": [
        {
          "name": "tokenId",
          "type": "uint256"
        },
        {
          "name": "paused",
          "type": "bool"
        }
      ],
      "name": "updateAuction",
      "outputs": [],
      "payable": false,
      "stateMutability": "nonpayable",
      "type": "function"
    },
    {
      "constant": false,
      "inputs": [
        {
          "name": "paused",
          "type": "bool"
        },
        {
          "name": "tokenId",
          "type": "uint256"
        },
        {
          "name": "duration",
          "type": "uint256"
        },
        {
          "name": "firstBidTime",
          "type": "uint256"
        },
        {
          "name": "reservePrice",
          "type": "uint256"
        },
        {
          "name": "adminSplit",
          "type": "uint256"
        },
        {
          "name": "proceedsRecipient",
          "type": "address"
        }
      ],
      "name": "createAuction",
      "outputs": [],
      "payable": false,
      "stateMutability": "nonpayable",
      "type": "function"
    },
    {
      "constant": false,
      "inputs": [
        {
          "name": "tokenId",
          "type": "uint256"
        }
      ],
      "name": "createBid",
      "outputs": [],
      "payable": true,
      "stateMutability": "payable",
      "type": "function"
    },
    {
      "constant": false,
      "inputs": [
        {
          "name": "tokenId",
          "type": "uint256"
        }
      ],
      "name": "endAuction",
      "outputs": [],
      "payable": false,
      "stateMutability": "nonpayable",
      "type": "function"
    },
    {
      "constant": false,
      "inputs": [
        {
          "name": "tokenId",
          "type": "uint256"
        }
      ],
      "name": "cancelAuction",
      "outputs": [],
      "payable": false,
      "stateMutability": "nonpayable",
      "type": "function"
    },
    {
      "constant": false,
      "inputs": [
        {
          "name": "_globalPaused",
          "type": "bool"
        }
      ],
      "name": "updatePaused",
      "outputs": [],
      "payable": false,
      "stateMutability": "nonpayable",
      "type": "function"
    },
    {
      "constant": false,
      "inputs": [
        {
          "name": "_admin",
          "type": "address"
        }
      ],
      "name": "updateAdmin",
      "outputs": [],
      "payable": false,
      "stateMutability": "nonpayable",
      "type": "function"
    }
  ],
  "bytecode": "0x608060405261038460035567016345785d8a00006004553480156200002357600080fd5b506040516040806200275c8339810180604052620000459190810190620001e6565b60008054600160a060020a0319163317808255604051600160a060020a039190911691907f8be0079c531659141344cd1fd0a4f28419497f9722a3daafe3b4186f6b6457e0908290a3600180556040517f01ffc9a7000000000000000000000000000000000000000000000000000000008152600160a060020a038316906301ffc9a790620000f9907f80ac58cd00000000000000000000000000000000000000000000000000000000906004016200028f565b60206040518083038186803b1580156200011257600080fd5b505afa15801562000127573d6000803e3d6000fd5b505050506040513d601f19601f820116820180604052506200014d919081019062000225565b151562000191576040517f08c379a00000000000000000000000000000000000000000000000000000000081526004016200018890620002a5565b60405180910390fd5b60058054600160a060020a03938416600160a060020a03199182161790915560068054929093169116179055620002fa565b6000620001d18251620002e8565b9392505050565b6000620001d18251620002f5565b60008060408385031215620001fa57600080fd5b6000620002088585620001c3565b92505060206200021b85828601620001c3565b9150509250929050565b6000602082840312156200023857600080fd5b6000620002468484620001d8565b949350505050565b6200025981620002b7565b82525050565b601d81527f446f65736e277420737570706f7274204e465420696e74657266616365000000602082015260400190565b602081016200029f82846200024e565b92915050565b602080825281016200029f816200025f565b7fffffffff000000000000000000000000000000000000000000000000000000001690565b600160a060020a031690565b60006200029f82620002dc565b151590565b612452806200030a6000396000f3fe60806040526004361061011c5763ffffffff7c010000000000000000000000000000000000000000000000000000000060003504166308cdc2a881146101215780633166fd1d1461014357806331c28e90146101635780633e109a1914610183578063571a26a0146101ae5780635bf8633a146101e457806361a552dc14610206578063659dd2b414610228578063715018a61461023b5780638da5cb5b146102505780638f32d59b1461026557806396b5a7551461027a5780639b8e5d621461029a578063b54940de146102ba578063b9a2de3a146102da578063d58778d6146102fa578063e2f273bd1461031a578063e5eb7ae81461033a578063ec91f2a41461035a578063f2fde38b1461036f578063f851a4401461038f575b600080fd5b34801561012d57600080fd5b5061014161013c366004611ad9565b6103a4565b005b34801561014f57600080fd5b5061014161015e366004611bb1565b6103e8565b34801561016f57600080fd5b5061014161017e366004611bcf565b610400565b34801561018f57600080fd5b506101986104e0565b6040516101a5919061226f565b60405180910390f35b3480156101ba57600080fd5b506101ce6101c9366004611bb1565b6104e6565b6040516101a59a999897969594939291906120ac565b3480156101f057600080fd5b506101f9610559565b6040516101a5919061205a565b34801561021257600080fd5b5061021b610575565b6040516101a5919061209e565b610141610236366004611bb1565b61057e565b34801561024757600080fd5b50610141610ada565b34801561025c57600080fd5b506101f9610b5c565b34801561027157600080fd5b5061021b610b78565b34801561028657600080fd5b50610141610295366004611bb1565b610b96565b3480156102a657600080fd5b506101416102b5366004611bb1565b610ee8565b3480156102c657600080fd5b506101416102d5366004611b15565b610f00565b3480156102e657600080fd5b506101416102f5366004611bb1565b6111cb565b34801561030657600080fd5b50610198610315366004611bb1565b6116f0565b34801561032657600080fd5b50610141610335366004611ab3565b61170f565b34801561034657600080fd5b50610141610355366004611ab3565b611769565b34801561036657600080fd5b506101986118bd565b34801561037b57600080fd5b5061014161038a366004611ab3565b6118c3565b34801561039b57600080fd5b506101f96118e2565b6103ac610b78565b15156103b757600080fd5b600280547fffffffffffffffffffffffffffffffffffffffffffffffffffffffffffffff0016911515919091179055565b6103f0610b78565b15156103fb57600080fd5b600455565b610408610b78565b151561041357600080fd5b60008281526007602052604090205460ff161515610466576040517f08c379a000000000000000000000000000000000000000000000000000000000815260040161045d906121cf565b60405180910390fd5b6000828152600760205260409081902080547fffffffffffffffffffffffffffffffffffffffffffffffffffffffffffff00ff1661010084151502179055517f6c17b6afb000df6548f717a281c368a89912f8a6ec06177486f77916c507a031906104d4908490849061239b565b60405180910390a15050565b60045481565b600760208190526000918252604090912080546001820154600283015460038401546004850154600586015460068701549787015460089097015460ff8088169961010090980416979596949593949293919273ffffffffffffffffffffffffffffffffffffffff90811692811691168a565b60055473ffffffffffffffffffffffffffffffffffffffff1681565b60025460ff1681565b60025460ff16156105bb576040517f08c379a000000000000000000000000000000000000000000000000000000000815260040161045d906121bf565b600180548101908190556105cd611a2f565b50600082815260076020818152604092839020835161014081018552815460ff8082161515808452610100928390049091161515948301949094526001830154958201959095526002820154606082015260038201546080820152600482015460a0820152600582015460c0820152600682015473ffffffffffffffffffffffffffffffffffffffff90811660e083015293820154841694810194909452600801549091166101208301526106ae576040517f08c379a000000000000000000000000000000000000000000000000000000000815260040161045d906121cf565b6020810151156106ea576040517f08c379a000000000000000000000000000000000000000000000000000000000815260040161045d906121df565b60a0810151341015610728576040517f08c379a000000000000000000000000000000000000000000000000000000000815260040161045d9061221f565b600081608001511115610773576080810151421015610773576040517f08c379a000000000000000000000000000000000000000000000000000000000815260040161045d906121af565b6080810151158061078d5750806060015181608001510142105b15156107c5576040517f08c379a000000000000000000000000000000000000000000000000000000000815260040161045d9061224f565b604081015160008082156108635734831061080c576040517f08c379a000000000000000000000000000000000000000000000000000000000815260040161045d9061219f565b60045461081f348563ffffffff6118fe16565b1015610857576040517f08c379a000000000000000000000000000000000000000000000000000000000815260040161045d9061225f565b50610120830151610888565b6080840151600192501515610888576000868152600760205260409020426003909101555b60008681526007602052604081203460018201556008810180547fffffffffffffffffffffffff0000000000000000000000000000000000000000163317905560038054606088015191909201546108f79142916108eb9163ffffffff61191816565b9063ffffffff6118fe16565b101561094b5760038054600089815260076020526040902090910154610935919061092990429063ffffffff6118fe16565b9063ffffffff61191816565b6000888152600760205260409020600201555060015b6005546040517f17aab958f10298d4269017458487925b395b4f89ddd829049ea143fd754cf7a99161099f918a9173ffffffffffffffffffffffffffffffffffffffff16903390349042908a9089906122a5565b60405180910390a1821580156109b55750600084115b15610ac15760405160009073ffffffffffffffffffffffffffffffffffffffff84169086908381818185875af1925050503d8060008114610a12576040519150601f19603f3d011682016040523d82523d6000602084013e610a17565b606091505b50509050801515610abf5760065460405173ffffffffffffffffffffffffffffffffffffffff909116908690600081818185875af1925050503d8060008114610a7c576040519150601f19603f3d011682016040523d82523d6000602084013e610a81565b606091505b5090915050801515610abf576040517f08c379a000000000000000000000000000000000000000000000000000000000815260040161045d9061217f565b505b505050505060015481141515610ad657600080fd5b5050565b610ae2610b78565b1515610aed57600080fd5b6000805460405173ffffffffffffffffffffffffffffffffffffffff909116907f8be0079c531659141344cd1fd0a4f28419497f9722a3daafe3b4186f6b6457e0908390a3600080547fffffffffffffffffffffffff0000000000000000000000000000000000000000169055565b60005473ffffffffffffffffffffffffffffffffffffffff1690565b60005473ffffffffffffffffffffffffffffffffffffffff16331490565b60018054810190819055610ba8611a2f565b50600082815260076020818152604092839020835161014081018552815460ff8082161515808452610100928390049091161515948301949094526001830154958201959095526002820154606082015260038201546080820152600482015460a0820152600582015460c0820152600682015473ffffffffffffffffffffffffffffffffffffffff90811660e08301529382015484169481019490945260080154909116610120830152610c89576040517f08c379a000000000000000000000000000000000000000000000000000000000815260040161045d906121cf565b60e081015173ffffffffffffffffffffffffffffffffffffffff16331480610ce35750610cb4610b5c565b73ffffffffffffffffffffffffffffffffffffffff163373ffffffffffffffffffffffffffffffffffffffff16145b1515610d1b576040517f08c379a000000000000000000000000000000000000000000000000000000000815260040161045d9061218f565b604081015115610d57576040517f08c379a000000000000000000000000000000000000000000000000000000000815260040161045d9061215f565b60e0810151600084815260076020819052604080832080547fffffffffffffffffffffffffffffffffffffffffffffffffffffffffffff000016815560018101849055600281018490556003810184905560048082018590556005808301959095556006820180547fffffffffffffffffffffffff000000000000000000000000000000000000000090811690915593820180548516905560089091018054909316909255915491517f23b872dd00000000000000000000000000000000000000000000000000000000815273ffffffffffffffffffffffffffffffffffffffff909216916323b872dd91610e5291309186918a9101612090565b600060405180830381600087803b158015610e6c57600080fd5b505af1158015610e80573d6000803e3d6000fd5b50506005546040517f31e46b3372adff8978a18a1c543a6b3a925ee693bdf7a7c54df36f30f87d290e9350610ed09250879173ffffffffffffffffffffffffffffffffffffffff1690859061227d565b60405180910390a150506001548114610ad657600080fd5b610ef0610b78565b1515610efb57600080fd5b600355565b60025460ff1615610f3d576040517f08c379a000000000000000000000000000000000000000000000000000000000815260040161045d906121bf565b610f45610b78565b1515610f5057600080fd5b6001805481019081905560008781526007602052604090205460ff1615610fa3576040517f08c379a000000000000000000000000000000000000000000000000000000000815260040161045d9061214f565b60648310610fdd576040517f08c379a000000000000000000000000000000000000000000000000000000000815260040161045d906121ef565b6008805460018082019092557ff3f7a9fe364faab93b216da50a3214154f22a0a2b415b23a84c8169e8b636ee30188905560008881526007602081905260409182902080547fffffffffffffffffffffffffffffffffffffffffffffffffffffffffffff00ff166101008d151502177fffffffffffffffffffffffffffffffffffffffffffffffffffffffffffffff00169093178355600283018990556003830188905560048084018890556005808501889055600685018054337fffffffffffffffffffffffff0000000000000000000000000000000000000000918216811790925595909301805490951673ffffffffffffffffffffffffffffffffffffffff888116919091179095555492517f23b872dd00000000000000000000000000000000000000000000000000000000815292909316926323b872dd92611129929130918d9101612068565b600060405180830381600087803b15801561114357600080fd5b505af1158015611157573d6000803e3d6000fd5b50506005546040517f082e2e78efcea783a9afe8f62b658bcf1e3482f87016915ab4214c446b69f43e93506111ab92508a9173ffffffffffffffffffffffffffffffffffffffff16908a9089903390612359565b60405180910390a160015481146111c157600080fd5b5050505050505050565b60025460ff1615611208576040517f08c379a000000000000000000000000000000000000000000000000000000000815260040161045d906121bf565b6001805481019081905561121a611a2f565b50600082815260076020818152604092839020835161014081018552815460ff8082161515808452610100928390049091161515948301949094526001830154958201959095526002820154606082015260038201546080820152600482015460a0820152600582015460c0820152600682015473ffffffffffffffffffffffffffffffffffffffff90811660e083015293820154841694810194909452600801549091166101208301526112fb576040517f08c379a000000000000000000000000000000000000000000000000000000000815260040161045d906121cf565b602081015115611337576040517f08c379a000000000000000000000000000000000000000000000000000000000815260040161045d906121df565b60808101511515611374576040517f08c379a000000000000000000000000000000000000000000000000000000000815260040161045d9061216f565b60608101516080820151014210156113b8576040517f08c379a000000000000000000000000000000000000000000000000000000000815260040161045d9061222f565b61012081015160408083015160e084015160c0850151610100860151600554945193949293919290917f19f5e73c484e5274d91de54225d8a1330339f61b5f27dbe05c47ff361b8dd3c19161142b918b9173ffffffffffffffffffffffffffffffffffffffff169087908a908a9061230d565b60405180910390a1600088815260076020819052604080832080547fffffffffffffffffffffffffffffffffffffffffffffffffffffffffffff000016815560018101849055600281018490556003810184905560048082018590556005808301959095556006820180547fffffffffffffffffffffffff000000000000000000000000000000000000000090811690915593820180548516905560089091018054909316909255915491517f23b872dd00000000000000000000000000000000000000000000000000000000815273ffffffffffffffffffffffffffffffffffffffff909216916323b872dd916115299130918a918e9101612090565b600060405180830381600087803b15801561154357600080fd5b505af1158015611557573d6000803e3d6000fd5b5050505060006115816064611575858861193190919063ffffffff16565b9063ffffffff61195c16565b90506000611595868363ffffffff6118fe16565b905060008083111561163e5760065460405173ffffffffffffffffffffffffffffffffffffffff909116908490600081818185875af1925050503d80600081146115fb576040519150601f19603f3d011682016040523d82523d6000602084013e611600565b606091505b509091505080151561163e576040517f08c379a000000000000000000000000000000000000000000000000000000000815260040161045d906121ff565b60405173ffffffffffffffffffffffffffffffffffffffff8516908390600081818185875af1925050503d8060008114611694576040519150601f19603f3d011682016040523d82523d6000602084013e611699565b606091505b50909150508015156116d7576040517f08c379a000000000000000000000000000000000000000000000000000000000815260040161045d9061220f565b50505050505050505060015481141515610ad657600080fd5b60088054829081106116fe57fe5b600091825260209091200154905081565b611717610b78565b151561172257600080fd5b600680547fffffffffffffffffffffffff00000000000000000000000000000000000000001673ffffffffffffffffffffffffffffffffffffffff92909216919091179055565b611771610b78565b151561177c57600080fd5b6040517f01ffc9a700000000000000000000000000000000000000000000000000000000815273ffffffffffffffffffffffffffffffffffffffff8216906301ffc9a7906117ee907f80ac58cd0000000000000000000000000000000000000000000000000000000090600401612141565b60206040518083038186803b15801561180657600080fd5b505afa15801561181a573d6000803e3d6000fd5b505050506040513d601f19601f8201168201806040525061183e9190810190611af7565b1515611876576040517f08c379a000000000000000000000000000000000000000000000000000000000815260040161045d9061223f565b600580547fffffffffffffffffffffffff00000000000000000000000000000000000000001673ffffffffffffffffffffffffffffffffffffffff92909216919091179055565b60035481565b6118cb610b78565b15156118d657600080fd5b6118df81611980565b50565b60065473ffffffffffffffffffffffffffffffffffffffff1681565b60008282111561190d57600080fd5b508082035b92915050565b60008282018381101561192a57600080fd5b9392505050565b600082151561194257506000611912565b82820282848281151561195157fe5b041461192a57600080fd5b600080821161196a57600080fd5b6000828481151561197757fe5b04949350505050565b73ffffffffffffffffffffffffffffffffffffffff811615156119a257600080fd5b6000805460405173ffffffffffffffffffffffffffffffffffffffff808516939216917f8be0079c531659141344cd1fd0a4f28419497f9722a3daafe3b4186f6b6457e091a3600080547fffffffffffffffffffffffff00000000000000000000000000000000000000001673ffffffffffffffffffffffffffffffffffffffff92909216919091179055565b6040805161014081018252600080825260208201819052918101829052606081018290526080810182905260a0810182905260c0810182905260e08101829052610100810182905261012081019190915290565b600061192a82356123b6565b600061192a82356123c1565b600061192a82516123c1565b600061192a8235612404565b600060208284031215611ac557600080fd5b6000611ad18484611a83565b949350505050565b600060208284031215611aeb57600080fd5b6000611ad18484611a8f565b600060208284031215611b0957600080fd5b6000611ad18484611a9b565b600080600080600080600060e0888a031215611b3057600080fd5b6000611b3c8a8a611a8f565b9750506020611b4d8a828b01611aa7565b9650506040611b5e8a828b01611aa7565b9550506060611b6f8a828b01611aa7565b9450506080611b808a828b01611aa7565b93505060a0611b918a828b01611aa7565b92505060c0611ba28a828b01611a83565b91505092959891949750929550565b600060208284031215611bc357600080fd5b6000611ad18484611aa7565b60008060408385031215611be257600080fd5b6000611bee8585611aa7565b9250506020611bff85828601611a8f565b9150509250929050565b611c1281612407565b82525050565b611c12816123b6565b611c12816123c1565b611c12816123c6565b601681527f41756374696f6e20616c72656164792065786973747300000000000000000000602082015260400190565b602781527f43616e27742063616e63656c20616e2061756374696f6e206f6e63652069742760208201527f7320626567756e00000000000000000000000000000000000000000000000000604082015260600190565b601481527f41756374696f6e206861736e277420626567756e000000000000000000000000602082015260400190565b603081527f61646d696e2028696e20706c616365206f66206c61737442696464657229206660208201527f61696c656420746f207265636569766500000000000000000000000000000000604082015260600190565b602e81527f43616e206f6e6c792062652063616c6c65642062792061756374696f6e20637260208201527f6561746f72206f72206f776e6572000000000000000000000000000000000000604082015260600190565b601c81527f4d7573742073656e64206d6f7265207468616e206c6173742062696400000000602082015260400190565b601681527f41756374696f6e206861736e2774207374617274656400000000000000000000602082015260400190565b601281527f4d757374206e6f74206265207061757365640000000000000000000000000000602082015260400190565b601581527f41756374696f6e20646f65736e27742065786973740000000000000000000000602082015260400190565b600e81527f41756374696f6e20706175736564000000000000000000000000000000000000602082015260400190565b602281527f50657263656e746167652068617320746f206265206c657373207468616e203160208201527f3030000000000000000000000000000000000000000000000000000000000000604082015260600190565b601781527f61646d696e206661696c656420746f2072656365697665000000000000000000602082015260400190565b601b81527f726563697069656e74206661696c656420746f20726563656976650000000000602082015260400190565b601e81527f4d7573742073656e6420726573657276655072696365206f72206d6f72650000602082015260400190565b601881527f41756374696f6e206861736e277420636f6d706c657465640000000000000000602082015260400190565b601d81527f446f65736e277420737570706f7274204e465420696e74657266616365000000602082015260400190565b600f81527f41756374696f6e20657870697265640000000000000000000000000000000000602082015260400190565b602d81527f4d7573742073656e64206d6f7265207468616e206c617374206269642062792060208201527f6d696e42696420416d6f756e7400000000000000000000000000000000000000604082015260600190565b611c1281612404565b602081016119128284611c18565b606081016120768286611c09565b6120836020830185611c18565b611ad16040830184612051565b606081016120768286611c18565b602081016119128284611c21565b61014081016120bb828d611c21565b6120c8602083018c611c21565b6120d5604083018b612051565b6120e2606083018a612051565b6120ef6080830189612051565b6120fc60a0830188612051565b61210960c0830187612051565b61211660e0830186611c18565b612124610100830185611c18565b612132610120830184611c18565b9b9a5050505050505050505050565b602081016119128284611c2a565b6020808252810161191281611c33565b6020808252810161191281611c63565b6020808252810161191281611cb9565b6020808252810161191281611ce9565b6020808252810161191281611d3f565b6020808252810161191281611d95565b6020808252810161191281611dc5565b6020808252810161191281611df5565b6020808252810161191281611e25565b6020808252810161191281611e55565b6020808252810161191281611e85565b6020808252810161191281611edb565b6020808252810161191281611f0b565b6020808252810161191281611f3b565b6020808252810161191281611f6b565b6020808252810161191281611f9b565b6020808252810161191281611fcb565b6020808252810161191281611ffb565b602081016119128284612051565b6060810161228b8286612051565b6122986020830185611c18565b611ad16040830184611c18565b60e081016122b3828a612051565b6122c06020830189611c18565b6122cd6040830188611c09565b6122da6060830187612051565b6122e76080830186612051565b6122f460a0830185611c21565b61230160c0830184611c21565b98975050505050505050565b60a0810161231b8288612051565b6123286020830187611c18565b6123356040830186611c18565b6123426060830185611c18565b61234f6080830184612051565b9695505050505050565b60a081016123678288612051565b6123746020830187611c18565b6123816040830186612051565b61238e6060830185612051565b61234f6080830184611c09565b604081016123a98285612051565b61192a6020830184611c21565b6000611912826123eb565b151590565b7fffffffff000000000000000000000000000000000000000000000000000000001690565b73ffffffffffffffffffffffffffffffffffffffff1690565b90565b6000611912826000611912826123b656fea265627a7a7230582066b753beed6f5e3471acceb826431e4fbe9ff8a8b2f7cf0868cb01e9ace1dbe56c6578706572696d656e74616cf50037",
  "source": "pragma solidity ^0.5.0;\npragma experimental ABIEncoderV2;\n\nimport \"openzeppelin-solidity/contracts/math/SafeMath.sol\";\nimport \"openzeppelin-solidity/contracts/ownership/Ownable.sol\";\n\nimport \"openzeppelin-solidity/contracts/token/ERC721/IERC721.sol\";\nimport \"openzeppelin-solidity/contracts/introspection/IERC165.sol\";\nimport \"openzeppelin-solidity/contracts/utils/ReentrancyGuard.sol\";\n\ncontract ReserveAuction is Ownable, ReentrancyGuard {\n    using SafeMath for uint256;\n\n    bool public globalPaused;\n\n    uint256 public timeBuffer = 15 * 60; // extend 15 minutes after every bid made in last 15 minutes\n    uint256 public minBid = 1 * 10**17; // 0.1 eth\n\n    bytes4 constant interfaceId = 0x80ac58cd; // 721 interface id\n    address public nftAddress;\n    address payable public admin;\n\n    mapping(uint256 => Auction) public auctions;\n    uint256[] public tokenIds;\n\n    struct Auction {\n        bool exists;\n        bool paused;\n        uint256 amount;\n        uint256 duration;\n        uint256 firstBidTime;\n        uint256 reservePrice;\n        uint256 adminSplit; // percentage of 100\n        address creator;\n        address payable proceedsRecipient;\n        address payable bidder;\n    }\n\n    modifier notPaused() {\n        require(!globalPaused, \"Must not be paused\");\n        _;\n    }\n\n    event AuctionCreated(\n        uint256 tokenId,\n        address nftAddress,\n        uint256 duration,\n        uint256 reservePrice,\n        address creator\n    );\n    event AuctionBid(\n        uint256 tokenId,\n        address nftAddress,\n        address sender,\n        uint256 value,\n        uint256 timestamp,\n        bool firstBid,\n        bool extended\n    );\n    event AuctionEnded(\n        uint256 tokenId,\n        address nftAddress,\n        address creator,\n        address winner,\n        uint256 amount\n    );\n    event AuctionCanceled(\n        uint256 tokenId,\n        address nftAddress,\n        address creator\n    );\n    event UpdateAuction(\n        uint256 tokenId,\n        bool paused\n    );\n\n    constructor(address _nftAddress, address payable _admin) public {\n        require(\n            IERC165(_nftAddress).supportsInterface(interfaceId),\n            \"Doesn't support NFT interface\"\n        );\n        nftAddress = _nftAddress;\n        admin = _admin;\n    }\n\n    function updateNftAddress(address _nftAddress) public onlyOwner {\n        require(\n            IERC165(_nftAddress).supportsInterface(interfaceId),\n            \"Doesn't support NFT interface\"\n        );\n        nftAddress = _nftAddress;\n    }\n\n    function updateMinBid(uint256 _minBid) public onlyOwner {\n        minBid = _minBid;\n    }\n\n    function updateTimeBuffer(uint256 _timeBuffer) public onlyOwner {\n        timeBuffer = _timeBuffer;\n    }\n\n    function updateAuction(uint256 tokenId, bool paused) public onlyOwner {\n        require(auctions[tokenId].exists, \"Auction doesn't exist\");\n        auctions[tokenId].paused = paused;\n        emit UpdateAuction(tokenId, paused);\n    }\n\n    function createAuction(\n        bool paused,\n        uint256 tokenId,\n        uint256 duration,\n        uint256 firstBidTime,\n        uint256 reservePrice,\n        uint256 adminSplit, // percentage\n        address payable proceedsRecipient\n    ) external notPaused onlyOwner nonReentrant {\n        require(!auctions[tokenId].exists, \"Auction already exists\");\n        require(adminSplit < 100, \"Percentage has to be less than 100\");\n        tokenIds.push(tokenId);\n\n        auctions[tokenId].paused = paused;\n        auctions[tokenId].exists = true;\n        auctions[tokenId].duration = duration;\n        auctions[tokenId].firstBidTime = firstBidTime;\n        auctions[tokenId].reservePrice = reservePrice;\n\n        auctions[tokenId].adminSplit = adminSplit;\n        auctions[tokenId].creator = msg.sender;\n        auctions[tokenId].proceedsRecipient = proceedsRecipient;\n\n        IERC721(nftAddress).transferFrom(msg.sender, address(this), tokenId);\n\n        emit AuctionCreated(tokenId, nftAddress, duration, reservePrice, msg.sender);\n    }\n\n    function createBid(uint256 tokenId) external payable notPaused nonReentrant {\n\n        Auction memory auction = auctions[tokenId];\n\n        require(auction.exists, \"Auction doesn't exist\");\n        require(!auction.paused, \"Auction paused\");\n        require(\n            msg.value >= auction.reservePrice,\n            \"Must send reservePrice or more\"\n        );\n\n        if (auction.firstBidTime > 0) {\n            require(\n                auction.firstBidTime <= block.timestamp,\n            \"Auction hasn't started\");\n        }\n\n        require(\n            auction.firstBidTime == 0 ||\n                block.timestamp <\n                auction.firstBidTime + auction.duration,\n            \"Auction expired\"\n        );\n\n        uint256 lastValue = auction.amount;\n\n        bool firstBid;\n        address payable lastBidder;\n\n        // allows for auctions with starting price of 0\n        if (lastValue != 0) {\n            require(msg.value > lastValue, \"Must send more than last bid\");\n            require(\n                msg.value.sub(lastValue) >= minBid,\n                \"Must send more than last bid by minBid Amount\"\n            );\n            lastBidder = auction.bidder;\n        } else {\n            firstBid = true;\n            if (auction.firstBidTime == 0) {\n                auctions[tokenId].firstBidTime = block.timestamp;\n            }\n        }\n\n        auctions[tokenId].amount = msg.value;\n        auctions[tokenId].bidder = msg.sender;\n\n        bool extended;\n        // at this point we know that the timestamp is less than start + duration\n        // we want to know by how much the timestamp is less than start + duration\n        // if the difference is less than the timeBuffer, update duration to time buffer\n        if (\n            ( auctions[tokenId].firstBidTime.add( auction.duration ) ).sub( block.timestamp ) < timeBuffer\n        ) {\n            // take the difference between now and starting point, add timeBuffer and set as duration\n            auctions[tokenId].duration = block.timestamp.sub(auctions[tokenId].firstBidTime).add(timeBuffer);\n            extended = true;\n        }\n\n        emit AuctionBid(\n            tokenId,\n            nftAddress,\n            msg.sender,\n            msg.value,\n            block.timestamp,\n            firstBid,\n            extended\n        );\n        if (!firstBid && lastValue > 0) {\n            // in case the bidder is a contract that doesn't allow receiving\n             (bool success, ) = lastBidder.call.value(lastValue)(\"\");\n            if (!success) {\n                (success, ) = admin.call.value(lastValue)(\"\");\n                require(success, \"admin (in place of lastBidder) failed to receive\");\n            }\n        }\n    }\n\n    function endAuction(uint256 tokenId) external notPaused nonReentrant {\n        \n        Auction memory auction = auctions[tokenId];\n\n        require(auction.exists, \"Auction doesn't exist\");\n        require(!auction.paused, \"Auction paused\");\n        require(\n            uint256(auction.firstBidTime) != 0,\n            \"Auction hasn't begun\"\n        );\n        require(\n            block.timestamp >=\n                auction.firstBidTime + auction.duration,\n            \"Auction hasn't completed\"\n        );\n\n        address winner = auction.bidder;\n        uint256 amount = auction.amount;\n        address creator = auction.creator;\n        uint256 adminSplit = auction.adminSplit;\n        address payable proceedsRecipient = auction.proceedsRecipient;\n\n        emit AuctionEnded(tokenId, nftAddress, creator, winner, amount);\n        delete auctions[tokenId];\n\n        IERC721(nftAddress).transferFrom(address(this), winner, tokenId);\n\n        uint256 adminReceives = amount.mul(adminSplit).div(100);\n        uint256 proceedsAmount = amount.sub(adminReceives);\n        bool success;\n        if (adminReceives > 0) {\n            (success, ) = admin.call.value(adminReceives)(\"\");\n            require(success, \"admin failed to receive\");\n        }\n\n        (success, ) = proceedsRecipient.call.value(proceedsAmount)(\"\");\n        require(success, \"recipient failed to receive\");\n    }\n\n    function cancelAuction(uint256 tokenId) external nonReentrant {\n\n        Auction memory auction = auctions[tokenId];\n\n        require(auction.exists, \"Auction doesn't exist\");\n        require(\n            auction.creator == msg.sender || msg.sender == owner(),\n            \"Can only be called by auction creator or owner\"\n        );\n        require(\n            auction.amount == 0,\n            \"Can't cancel an auction once it's begun\"\n        );\n        address creator = auction.creator;\n        delete auctions[tokenId];\n        IERC721(nftAddress).transferFrom(address(this), creator, tokenId);\n        emit AuctionCanceled(tokenId, nftAddress, creator);\n    }\n\n    function updatePaused(bool _globalPaused) public onlyOwner {\n        globalPaused = _globalPaused;\n    }\n\n    function updateAdmin(address payable _admin) public onlyOwner {\n        admin = _admin;\n    }\n}\n",
  "sourcePath": "/Users/billy/GitHub/folia-app/folia-contracts/contracts/ReserveAuction.sol",
  "compiler": {
    "name": "solc",
    "version": "0.5.0+commit.1d4f565a.Emscripten.clang"
  },
  "schemaVersion": "3.4.3",
  "updatedAt": "2022-02-13T19:58:29.720Z",
  "devdoc": {
    "methods": {
      "isOwner()": {
        "return": "true if `msg.sender` is the owner of the contract."
      },
      "owner()": {
        "return": "the address of the owner."
      },
      "renounceOwnership()": {
        "details": "Allows the current owner to relinquish control of the contract."
      },
      "transferOwnership(address)": {
        "details": "Allows the current owner to transfer control of the contract to a newOwner.",
        "params": {
          "newOwner": "The address to transfer ownership to."
        }
      }
    }
  },
  "userdoc": {
    "methods": {
      "renounceOwnership()": {
        "notice": "Renouncing to ownership will leave the contract without an owner. It will not be possible to call the functions with the `onlyOwner` modifier anymore."
      }
    }
  }
}