{
  "contractName": "ReserveAuction",
  "abi": [
    {
      "inputs": [
        {
          "internalType": "address",
          "name": "_nftAddress",
          "type": "address"
        }
      ],
      "payable": false,
      "stateMutability": "nonpayable",
      "type": "constructor"
    },
    {
      "anonymous": false,
      "inputs": [
        {
          "indexed": false,
          "internalType": "uint256",
          "name": "tokenId",
          "type": "uint256"
        },
        {
          "indexed": false,
          "internalType": "address",
          "name": "nftAddress",
          "type": "address"
        },
        {
          "indexed": false,
          "internalType": "address",
          "name": "sender",
          "type": "address"
        },
        {
          "indexed": false,
          "internalType": "uint256",
          "name": "value",
          "type": "uint256"
        },
        {
          "indexed": false,
          "internalType": "uint256",
          "name": "timestamp",
          "type": "uint256"
        },
        {
          "indexed": false,
          "internalType": "bool",
          "name": "firstBid",
          "type": "bool"
        },
        {
          "indexed": false,
          "internalType": "bool",
          "name": "extended",
          "type": "bool"
        }
      ],
      "name": "AuctionBid",
      "type": "event"
    },
    {
      "anonymous": false,
      "inputs": [
        {
          "indexed": false,
          "internalType": "uint256",
          "name": "tokenId",
          "type": "uint256"
        },
        {
          "indexed": false,
          "internalType": "address",
          "name": "nftAddress",
          "type": "address"
        },
        {
          "indexed": false,
          "internalType": "address",
          "name": "creator",
          "type": "address"
        }
      ],
      "name": "AuctionCanceled",
      "type": "event"
    },
    {
      "anonymous": false,
      "inputs": [
        {
          "indexed": false,
          "internalType": "uint256",
          "name": "tokenId",
          "type": "uint256"
        },
        {
          "indexed": false,
          "internalType": "address",
          "name": "nftAddress",
          "type": "address"
        },
        {
          "indexed": false,
          "internalType": "uint256",
          "name": "duration",
          "type": "uint256"
        },
        {
          "indexed": false,
          "internalType": "uint256",
          "name": "reservePrice",
          "type": "uint256"
        },
        {
          "indexed": false,
          "internalType": "address",
          "name": "creator",
          "type": "address"
        }
      ],
      "name": "AuctionCreated",
      "type": "event"
    },
    {
      "anonymous": false,
      "inputs": [
        {
          "indexed": false,
          "internalType": "uint256",
          "name": "tokenId",
          "type": "uint256"
        },
        {
          "indexed": false,
          "internalType": "address",
          "name": "nftAddress",
          "type": "address"
        },
        {
          "indexed": false,
          "internalType": "address",
          "name": "creator",
          "type": "address"
        },
        {
          "indexed": false,
          "internalType": "address",
          "name": "winner",
          "type": "address"
        },
        {
          "indexed": false,
          "internalType": "uint256",
          "name": "amount",
          "type": "uint256"
        }
      ],
      "name": "AuctionEnded",
      "type": "event"
    },
    {
      "anonymous": false,
      "inputs": [
        {
          "indexed": true,
          "internalType": "address",
          "name": "previousOwner",
          "type": "address"
        },
        {
          "indexed": true,
          "internalType": "address",
          "name": "newOwner",
          "type": "address"
        }
      ],
      "name": "OwnershipTransferred",
      "type": "event"
    },
    {
      "constant": true,
      "inputs": [
        {
          "internalType": "uint256",
          "name": "",
          "type": "uint256"
        }
      ],
      "name": "auctions",
      "outputs": [
        {
          "internalType": "bool",
          "name": "exists",
          "type": "bool"
        },
        {
          "internalType": "uint256",
          "name": "amount",
          "type": "uint256"
        },
        {
          "internalType": "uint256",
          "name": "tokenId",
          "type": "uint256"
        },
        {
          "internalType": "uint256",
          "name": "duration",
          "type": "uint256"
        },
        {
          "internalType": "uint256",
          "name": "firstBidTime",
          "type": "uint256"
        },
        {
          "internalType": "uint256",
          "name": "reservePrice",
          "type": "uint256"
        },
        {
          "internalType": "address payable",
          "name": "creator",
          "type": "address"
        },
        {
          "internalType": "address payable",
          "name": "bidder",
          "type": "address"
        }
      ],
      "payable": false,
      "stateMutability": "view",
      "type": "function"
    },
    {
      "constant": true,
      "inputs": [],
      "name": "isOwner",
      "outputs": [
        {
          "internalType": "bool",
          "name": "",
          "type": "bool"
        }
      ],
      "payable": false,
      "stateMutability": "view",
      "type": "function"
    },
    {
      "constant": true,
      "inputs": [],
      "name": "minBid",
      "outputs": [
        {
          "internalType": "uint256",
          "name": "",
          "type": "uint256"
        }
      ],
      "payable": false,
      "stateMutability": "view",
      "type": "function"
    },
    {
      "constant": true,
      "inputs": [],
      "name": "nftAddress",
      "outputs": [
        {
          "internalType": "address",
          "name": "",
          "type": "address"
        }
      ],
      "payable": false,
      "stateMutability": "view",
      "type": "function"
    },
    {
      "constant": true,
      "inputs": [],
      "name": "owner",
      "outputs": [
        {
          "internalType": "address",
          "name": "",
          "type": "address"
        }
      ],
      "payable": false,
      "stateMutability": "view",
      "type": "function"
    },
    {
      "constant": true,
      "inputs": [],
      "name": "paused",
      "outputs": [
        {
          "internalType": "bool",
          "name": "",
          "type": "bool"
        }
      ],
      "payable": false,
      "stateMutability": "view",
      "type": "function"
    },
    {
      "constant": false,
      "inputs": [],
      "name": "renounceOwnership",
      "outputs": [],
      "payable": false,
      "stateMutability": "nonpayable",
      "type": "function"
    },
    {
      "constant": true,
      "inputs": [],
      "name": "timeBuffer",
      "outputs": [
        {
          "internalType": "uint256",
          "name": "",
          "type": "uint256"
        }
      ],
      "payable": false,
      "stateMutability": "view",
      "type": "function"
    },
    {
      "constant": true,
      "inputs": [
        {
          "internalType": "uint256",
          "name": "",
          "type": "uint256"
        }
      ],
      "name": "tokenIds",
      "outputs": [
        {
          "internalType": "uint256",
          "name": "",
          "type": "uint256"
        }
      ],
      "payable": false,
      "stateMutability": "view",
      "type": "function"
    },
    {
      "constant": false,
      "inputs": [
        {
          "internalType": "address",
          "name": "newOwner",
          "type": "address"
        }
      ],
      "name": "transferOwnership",
      "outputs": [],
      "payable": false,
      "stateMutability": "nonpayable",
      "type": "function"
    },
    {
      "constant": false,
      "inputs": [
        {
          "internalType": "address",
          "name": "_nftAddress",
          "type": "address"
        }
      ],
      "name": "updateNftAddress",
      "outputs": [],
      "payable": false,
      "stateMutability": "nonpayable",
      "type": "function"
    },
    {
      "constant": false,
      "inputs": [
        {
          "internalType": "uint256",
          "name": "_minBid",
          "type": "uint256"
        }
      ],
      "name": "updateMinBid",
      "outputs": [],
      "payable": false,
      "stateMutability": "nonpayable",
      "type": "function"
    },
    {
      "constant": false,
      "inputs": [
        {
          "internalType": "uint256",
          "name": "_timeBuffer",
          "type": "uint256"
        }
      ],
      "name": "updateTimeBuffer",
      "outputs": [],
      "payable": false,
      "stateMutability": "nonpayable",
      "type": "function"
    },
    {
      "constant": false,
      "inputs": [
        {
          "internalType": "uint256",
          "name": "tokenId",
          "type": "uint256"
        },
        {
          "internalType": "uint256",
          "name": "duration",
          "type": "uint256"
        },
        {
          "internalType": "uint256",
          "name": "reservePrice",
          "type": "uint256"
        },
        {
          "internalType": "address payable",
          "name": "creator",
          "type": "address"
        }
      ],
      "name": "createAuction",
      "outputs": [],
      "payable": false,
      "stateMutability": "nonpayable",
      "type": "function"
    },
    {
      "constant": false,
      "inputs": [
        {
          "internalType": "uint256",
          "name": "tokenId",
          "type": "uint256"
        }
      ],
      "name": "createBid",
      "outputs": [],
      "payable": true,
      "stateMutability": "payable",
      "type": "function"
    },
    {
      "constant": false,
      "inputs": [
        {
          "internalType": "uint256",
          "name": "tokenId",
          "type": "uint256"
        }
      ],
      "name": "endAuction",
      "outputs": [],
      "payable": false,
      "stateMutability": "nonpayable",
      "type": "function"
    },
    {
      "constant": false,
      "inputs": [
        {
          "internalType": "uint256",
          "name": "tokenId",
          "type": "uint256"
        }
      ],
      "name": "cancelAuction",
      "outputs": [],
      "payable": false,
      "stateMutability": "nonpayable",
      "type": "function"
    },
    {
      "constant": false,
      "inputs": [
        {
          "internalType": "bool",
          "name": "_paused",
          "type": "bool"
        }
      ],
      "name": "updatePaused",
      "outputs": [],
      "payable": false,
      "stateMutability": "nonpayable",
      "type": "function"
    }
  ],
  "bytecode": "0x608060405261038460035567016345785d8a00006004553480156200002357600080fd5b50604051620027013803806200270183398181016040526200004991908101906200025a565b336000806101000a81548173ffffffffffffffffffffffffffffffffffffffff021916908373ffffffffffffffffffffffffffffffffffffffff1602179055506000809054906101000a900473ffffffffffffffffffffffffffffffffffffffff1673ffffffffffffffffffffffffffffffffffffffff16600073ffffffffffffffffffffffffffffffffffffffff167f8be0079c531659141344cd1fd0a4f28419497f9722a3daafe3b4186f6b6457e060405160405180910390a3600180819055508073ffffffffffffffffffffffffffffffffffffffff166301ffc9a76380ac58cd60e01b6040518263ffffffff1660e01b81526004016200014e919062000305565b60206040518083038186803b1580156200016757600080fd5b505afa1580156200017c573d6000803e3d6000fd5b505050506040513d601f19601f82011682018060405250620001a2919081019062000286565b620001e4576040517f08c379a0000000000000000000000000000000000000000000000000000000008152600401620001db9062000322565b60405180910390fd5b80600560006101000a81548173ffffffffffffffffffffffffffffffffffffffff021916908373ffffffffffffffffffffffffffffffffffffffff16021790555050620003f5565b6000815190506200023d81620003c1565b92915050565b6000815190506200025481620003db565b92915050565b6000602082840312156200026d57600080fd5b60006200027d848285016200022c565b91505092915050565b6000602082840312156200029957600080fd5b6000620002a98482850162000243565b91505092915050565b620002bd8162000375565b82525050565b6000620002d2601d8362000344565b91507f446f65736e277420737570706f7274204e465420696e746572666163650000006000830152602082019050919050565b60006020820190506200031c6000830184620002b2565b92915050565b600060208201905081810360008301526200033d81620002c3565b9050919050565b600082825260208201905092915050565b60006200036282620003a1565b9050919050565b60008115159050919050565b60007fffffffff0000000000000000000000000000000000000000000000000000000082169050919050565b600073ffffffffffffffffffffffffffffffffffffffff82169050919050565b620003cc8162000355565b8114620003d857600080fd5b50565b620003e68162000369565b8114620003f257600080fd5b50565b6122fc80620004056000396000f3fe6080604052600436106101095760003560e01c80638da5cb5b11610095578063b9a2de3a11610064578063b9a2de3a14610329578063d58778d614610352578063e5eb7ae81461038f578063ec91f2a4146103b8578063f2fde38b146103e357610109565b80638da5cb5b146102815780638f32d59b146102ac57806396b5a755146102d75780639b8e5d621461030057610109565b80635bf8633a116100dc5780635bf8633a146101cf5780635c975abb146101fa578063659dd2b414610225578063715018a614610241578063819c9e4c1461025857610109565b806308cdc2a81461010e5780633166fd1d146101375780633e109a1914610160578063571a26a01461018b575b600080fd5b34801561011a57600080fd5b50610135600480360361013091908101906118c2565b61040c565b005b34801561014357600080fd5b5061015e60048036036101599190810190611914565b61043a565b005b34801561016c57600080fd5b50610175610455565b6040516101829190612029565b60405180910390f35b34801561019757600080fd5b506101b260048036036101ad9190810190611914565b61045b565b6040516101c6989796959493929190611e10565b60405180910390f35b3480156101db57600080fd5b506101e46104f0565b6040516101f19190611d6c565b60405180910390f35b34801561020657600080fd5b5061020f610516565b60405161021c9190611df5565b60405180910390f35b61023f600480360361023a9190810190611914565b610529565b005b34801561024d57600080fd5b506102566109b9565b005b34801561026457600080fd5b5061027f600480360361027a919081019061193d565b610a89565b005b34801561028d57600080fd5b50610296610d52565b6040516102a39190611d6c565b60405180910390f35b3480156102b857600080fd5b506102c1610d7b565b6040516102ce9190611df5565b60405180910390f35b3480156102e357600080fd5b506102fe60048036036102f99190810190611914565b610dd2565b005b34801561030c57600080fd5b5061032760048036036103229190810190611914565b611162565b005b34801561033557600080fd5b50610350600480360361034b9190810190611914565b61117d565b005b34801561035e57600080fd5b5061037960048036036103749190810190611914565b611591565b6040516103869190612029565b60405180910390f35b34801561039b57600080fd5b506103b660048036036103b19190810190611899565b6115b2565b005b3480156103c457600080fd5b506103cd6116d6565b6040516103da9190612029565b60405180910390f35b3480156103ef57600080fd5b5061040a60048036036104059190810190611899565b6116dc565b005b610414610d7b565b61041d57600080fd5b80600260006101000a81548160ff02191690831515021790555050565b610442610d7b565b61044b57600080fd5b8060048190555050565b60045481565b60066020528060005260406000206000915090508060000160009054906101000a900460ff16908060010154908060020154908060030154908060040154908060050154908060060160009054906101000a900473ffffffffffffffffffffffffffffffffffffffff16908060070160009054906101000a900473ffffffffffffffffffffffffffffffffffffffff16905088565b600560009054906101000a900473ffffffffffffffffffffffffffffffffffffffff1681565b600260009054906101000a900460ff1681565b600260009054906101000a900460ff1615610579576040517f08c379a000000000000000000000000000000000000000000000000000000000815260040161057090611f49565b60405180910390fd5b60018060008282540192505081905550600060015490506006600083815260200190815260200160002060000160009054906101000a900460ff166105f3576040517f08c379a00000000000000000000000000000000000000000000000000000000081526004016105ea90611f69565b60405180910390fd5b600660008381526020019081526020016000206005015434101561064c576040517f08c379a000000000000000000000000000000000000000000000000000000000815260040161064390611f89565b60405180910390fd5b60006006600084815260200190815260200160002060040154148061069e5750600660008381526020019081526020016000206003015460066000848152602001908152602001600020600401540142105b6106dd576040517f08c379a00000000000000000000000000000000000000000000000000000000081526004016106d490611fe9565b60405180910390fd5b600060066000848152602001908152602001600020600101549050600080600083146107da57823411610745576040517f08c379a000000000000000000000000000000000000000000000000000000000815260040161073c90611f29565b60405180910390fd5b60045461075b84346116f990919063ffffffff16565b101561079c576040517f08c379a000000000000000000000000000000000000000000000000000000000815260040161079390612009565b60405180910390fd5b6006600086815260200190815260200160002060070160009054906101000a900473ffffffffffffffffffffffffffffffffffffffff1690506107fa565b600191504260066000878152602001908152602001600020600401819055505b346006600087815260200190815260200160002060010181905550336006600087815260200190815260200160002060070160006101000a81548173ffffffffffffffffffffffffffffffffffffffff021916908373ffffffffffffffffffffffffffffffffffffffff16021790555060006003546108c0426108b2600660008b815260200190815260200160002060030154600660008c81526020019081526020016000206004015461171990919063ffffffff16565b6116f990919063ffffffff16565b10156108f1576003546006600088815260200190815260200160002060030160008282540192505081905550600190505b7f17aab958f10298d4269017458487925b395b4f89ddd829049ea143fd754cf7a986600560009054906101000a900473ffffffffffffffffffffffffffffffffffffffff16333442888760405161094e97969594939291906120ce565b60405180910390a1826109a3578173ffffffffffffffffffffffffffffffffffffffff166108fc859081150290604051600060405180830381858888f193505050501580156109a1573d6000803e3d6000fd5b505b5050505060015481146109b557600080fd5b5050565b6109c1610d7b565b6109ca57600080fd5b600073ffffffffffffffffffffffffffffffffffffffff166000809054906101000a900473ffffffffffffffffffffffffffffffffffffffff1673ffffffffffffffffffffffffffffffffffffffff167f8be0079c531659141344cd1fd0a4f28419497f9722a3daafe3b4186f6b6457e060405160405180910390a360008060006101000a81548173ffffffffffffffffffffffffffffffffffffffff021916908373ffffffffffffffffffffffffffffffffffffffff160217905550565b600260009054906101000a900460ff1615610ad9576040517f08c379a0000000000000000000000000000000000000000000000000000000008152600401610ad090611f49565b60405180910390fd5b610ae1610d7b565b610aea57600080fd5b60018060008282540192505081905550600060015490506006600086815260200190815260200160002060000160009054906101000a900460ff1615610b65576040517f08c379a0000000000000000000000000000000000000000000000000000000008152600401610b5c90611ea9565b60405180910390fd5b600785908060018154018082558091505090600182039060005260206000200160009091929091909150555060016006600087815260200190815260200160002060000160006101000a81548160ff021916908315150217905550836006600087815260200190815260200160002060030181905550826006600087815260200190815260200160002060050181905550816006600087815260200190815260200160002060060160006101000a81548173ffffffffffffffffffffffffffffffffffffffff021916908373ffffffffffffffffffffffffffffffffffffffff160217905550600560009054906101000a900473ffffffffffffffffffffffffffffffffffffffff1673ffffffffffffffffffffffffffffffffffffffff166323b872dd8330886040518463ffffffff1660e01b8152600401610caa93929190611d87565b600060405180830381600087803b158015610cc457600080fd5b505af1158015610cd8573d6000803e3d6000fd5b505050507f082e2e78efcea783a9afe8f62b658bcf1e3482f87016915ab4214c446b69f43e85600560009054906101000a900473ffffffffffffffffffffffffffffffffffffffff16868686604051610d3595949392919061213d565b60405180910390a16001548114610d4b57600080fd5b5050505050565b60008060009054906101000a900473ffffffffffffffffffffffffffffffffffffffff16905090565b60008060009054906101000a900473ffffffffffffffffffffffffffffffffffffffff1673ffffffffffffffffffffffffffffffffffffffff163373ffffffffffffffffffffffffffffffffffffffff1614905090565b60018060008282540192505081905550600060015490506006600083815260200190815260200160002060000160009054906101000a900460ff16610e4c576040517f08c379a0000000000000000000000000000000000000000000000000000000008152600401610e4390611f69565b60405180910390fd5b3373ffffffffffffffffffffffffffffffffffffffff166006600084815260200190815260200160002060060160009054906101000a900473ffffffffffffffffffffffffffffffffffffffff1673ffffffffffffffffffffffffffffffffffffffff161480610eee5750610ebf610d52565b73ffffffffffffffffffffffffffffffffffffffff163373ffffffffffffffffffffffffffffffffffffffff16145b610f2d576040517f08c379a0000000000000000000000000000000000000000000000000000000008152600401610f2490611f09565b60405180910390fd5b6000600660008481526020019081526020016000206004015414610f86576040517f08c379a0000000000000000000000000000000000000000000000000000000008152600401610f7d90611ec9565b60405180910390fd5b60006006600084815260200190815260200160002060060160009054906101000a900473ffffffffffffffffffffffffffffffffffffffff16905060066000848152602001908152602001600020600080820160006101000a81549060ff0219169055600182016000905560028201600090556003820160009055600482016000905560058201600090556006820160006101000a81549073ffffffffffffffffffffffffffffffffffffffff02191690556007820160006101000a81549073ffffffffffffffffffffffffffffffffffffffff02191690555050600560009054906101000a900473ffffffffffffffffffffffffffffffffffffffff1673ffffffffffffffffffffffffffffffffffffffff166323b872dd3083866040518463ffffffff1660e01b81526004016110c093929190611dbe565b600060405180830381600087803b1580156110da57600080fd5b505af11580156110ee573d6000803e3d6000fd5b505050507f31e46b3372adff8978a18a1c543a6b3a925ee693bdf7a7c54df36f30f87d290e83600560009054906101000a900473ffffffffffffffffffffffffffffffffffffffff168360405161114793929190612044565b60405180910390a150600154811461115e57600080fd5b5050565b61116a610d7b565b61117357600080fd5b8060038190555050565b600260009054906101000a900460ff16156111cd576040517f08c379a00000000000000000000000000000000000000000000000000000000081526004016111c490611f49565b60405180910390fd5b60018060008282540192505081905550600060015490506006600083815260200190815260200160002060000160009054906101000a900460ff16611247576040517f08c379a000000000000000000000000000000000000000000000000000000000815260040161123e90611f69565b60405180910390fd5b6000600660008481526020019081526020016000206004015414156112a1576040517f08c379a000000000000000000000000000000000000000000000000000000000815260040161129890611ee9565b60405180910390fd5b6006600083815260200190815260200160002060030154600660008481526020019081526020016000206004015401421015611312576040517f08c379a000000000000000000000000000000000000000000000000000000000815260040161130990611fa9565b60405180910390fd5b60006006600084815260200190815260200160002060070160009054906101000a900473ffffffffffffffffffffffffffffffffffffffff16905060006006600085815260200190815260200160002060010154905060006006600086815260200190815260200160002060060160009054906101000a900473ffffffffffffffffffffffffffffffffffffffff1690507f19f5e73c484e5274d91de54225d8a1330339f61b5f27dbe05c47ff361b8dd3c185600560009054906101000a900473ffffffffffffffffffffffffffffffffffffffff168386866040516113fc95949392919061207b565b60405180910390a160066000868152602001908152602001600020600080820160006101000a81549060ff0219169055600182016000905560028201600090556003820160009055600482016000905560058201600090556006820160006101000a81549073ffffffffffffffffffffffffffffffffffffffff02191690556007820160006101000a81549073ffffffffffffffffffffffffffffffffffffffff02191690555050600560009054906101000a900473ffffffffffffffffffffffffffffffffffffffff1673ffffffffffffffffffffffffffffffffffffffff166323b872dd3085886040518463ffffffff1660e01b815260040161150393929190611dbe565b600060405180830381600087803b15801561151d57600080fd5b505af1158015611531573d6000803e3d6000fd5b505050508073ffffffffffffffffffffffffffffffffffffffff166108fc839081150290604051600060405180830381858888f1935050505015801561157b573d6000803e3d6000fd5b50505050600154811461158d57600080fd5b5050565b6007818154811061159e57fe5b906000526020600020016000915090505481565b6115ba610d7b565b6115c357600080fd5b8073ffffffffffffffffffffffffffffffffffffffff166301ffc9a76380ac58cd60e01b6040518263ffffffff1660e01b81526004016116039190611e8e565b60206040518083038186803b15801561161b57600080fd5b505afa15801561162f573d6000803e3d6000fd5b505050506040513d601f19601f8201168201806040525061165391908101906118eb565b611692576040517f08c379a000000000000000000000000000000000000000000000000000000000815260040161168990611fc9565b60405180910390fd5b80600560006101000a81548173ffffffffffffffffffffffffffffffffffffffff021916908373ffffffffffffffffffffffffffffffffffffffff16021790555050565b60035481565b6116e4610d7b565b6116ed57600080fd5b6116f681611738565b50565b60008282111561170857600080fd5b600082840390508091505092915050565b60008082840190508381101561172e57600080fd5b8091505092915050565b600073ffffffffffffffffffffffffffffffffffffffff168173ffffffffffffffffffffffffffffffffffffffff16141561177257600080fd5b8073ffffffffffffffffffffffffffffffffffffffff166000809054906101000a900473ffffffffffffffffffffffffffffffffffffffff1673ffffffffffffffffffffffffffffffffffffffff167f8be0079c531659141344cd1fd0a4f28419497f9722a3daafe3b4186f6b6457e060405160405180910390a3806000806101000a81548173ffffffffffffffffffffffffffffffffffffffff021916908373ffffffffffffffffffffffffffffffffffffffff16021790555050565b60008135905061183f8161225d565b92915050565b60008135905061185481612274565b92915050565b6000813590506118698161228b565b92915050565b60008151905061187e8161228b565b92915050565b600081359050611893816122a2565b92915050565b6000602082840312156118ab57600080fd5b60006118b984828501611830565b91505092915050565b6000602082840312156118d457600080fd5b60006118e28482850161185a565b91505092915050565b6000602082840312156118fd57600080fd5b600061190b8482850161186f565b91505092915050565b60006020828403121561192657600080fd5b600061193484828501611884565b91505092915050565b6000806000806080858703121561195357600080fd5b600061196187828801611884565b945050602061197287828801611884565b935050604061198387828801611884565b925050606061199487828801611845565b91505092959194509250565b6119a981612227565b82525050565b6119b8816121b3565b82525050565b6119c7816121a1565b82525050565b6119d6816121c5565b82525050565b6119e5816121d1565b82525050565b60006119f8601683612190565b91507f41756374696f6e20616c726561647920657869737473000000000000000000006000830152602082019050919050565b6000611a38602783612190565b91507f43616e27742063616e63656c20616e2061756374696f6e206f6e63652069742760008301527f7320626567756e000000000000000000000000000000000000000000000000006020830152604082019050919050565b6000611a9e601483612190565b91507f41756374696f6e206861736e277420626567756e0000000000000000000000006000830152602082019050919050565b6000611ade602e83612190565b91507f43616e206f6e6c792062652063616c6c65642062792061756374696f6e20637260008301527f6561746f72206f72206f776e65720000000000000000000000000000000000006020830152604082019050919050565b6000611b44601c83612190565b91507f4d7573742073656e64206d6f7265207468616e206c61737420626964000000006000830152602082019050919050565b6000611b84601283612190565b91507f4d757374206e6f742062652070617573656400000000000000000000000000006000830152602082019050919050565b6000611bc4601583612190565b91507f41756374696f6e20646f65736e277420657869737400000000000000000000006000830152602082019050919050565b6000611c04601e83612190565b91507f4d7573742073656e6420726573657276655072696365206f72206d6f726500006000830152602082019050919050565b6000611c44601883612190565b91507f41756374696f6e206861736e277420636f6d706c6574656400000000000000006000830152602082019050919050565b6000611c84601d83612190565b91507f446f65736e277420737570706f7274204e465420696e746572666163650000006000830152602082019050919050565b6000611cc4600f83612190565b91507f41756374696f6e206578706972656400000000000000000000000000000000006000830152602082019050919050565b6000611d04602d83612190565b91507f4d7573742073656e64206d6f7265207468616e206c617374206269642062792060008301527f6d696e42696420416d6f756e74000000000000000000000000000000000000006020830152604082019050919050565b611d668161221d565b82525050565b6000602082019050611d8160008301846119be565b92915050565b6000606082019050611d9c60008301866119a0565b611da960208301856119be565b611db66040830184611d5d565b949350505050565b6000606082019050611dd360008301866119be565b611de060208301856119be565b611ded6040830184611d5d565b949350505050565b6000602082019050611e0a60008301846119cd565b92915050565b600061010082019050611e26600083018b6119cd565b611e33602083018a611d5d565b611e406040830189611d5d565b611e4d6060830188611d5d565b611e5a6080830187611d5d565b611e6760a0830186611d5d565b611e7460c08301856119af565b611e8160e08301846119af565b9998505050505050505050565b6000602082019050611ea360008301846119dc565b92915050565b60006020820190508181036000830152611ec2816119eb565b9050919050565b60006020820190508181036000830152611ee281611a2b565b9050919050565b60006020820190508181036000830152611f0281611a91565b9050919050565b60006020820190508181036000830152611f2281611ad1565b9050919050565b60006020820190508181036000830152611f4281611b37565b9050919050565b60006020820190508181036000830152611f6281611b77565b9050919050565b60006020820190508181036000830152611f8281611bb7565b9050919050565b60006020820190508181036000830152611fa281611bf7565b9050919050565b60006020820190508181036000830152611fc281611c37565b9050919050565b60006020820190508181036000830152611fe281611c77565b9050919050565b6000602082019050818103600083015261200281611cb7565b9050919050565b6000602082019050818103600083015261202281611cf7565b9050919050565b600060208201905061203e6000830184611d5d565b92915050565b60006060820190506120596000830186611d5d565b61206660208301856119be565b61207360408301846119be565b949350505050565b600060a0820190506120906000830188611d5d565b61209d60208301876119be565b6120aa60408301866119a0565b6120b760608301856119be565b6120c46080830184611d5d565b9695505050505050565b600060e0820190506120e3600083018a611d5d565b6120f060208301896119be565b6120fd60408301886119a0565b61210a6060830187611d5d565b6121176080830186611d5d565b61212460a08301856119cd565b61213160c08301846119cd565b98975050505050505050565b600060a0820190506121526000830188611d5d565b61215f60208301876119be565b61216c6040830186611d5d565b6121796060830185611d5d565b61218660808301846119a0565b9695505050505050565b600082825260208201905092915050565b60006121ac826121fd565b9050919050565b60006121be826121fd565b9050919050565b60008115159050919050565b60007fffffffff0000000000000000000000000000000000000000000000000000000082169050919050565b600073ffffffffffffffffffffffffffffffffffffffff82169050919050565b6000819050919050565b600061223282612239565b9050919050565b60006122448261224b565b9050919050565b6000612256826121fd565b9050919050565b612266816121a1565b811461227157600080fd5b50565b61227d816121b3565b811461228857600080fd5b50565b612294816121c5565b811461229f57600080fd5b50565b6122ab8161221d565b81146122b657600080fd5b5056fea365627a7a7231582072e7bfad8c1af299a4f775d9919712ebad18cc821e4e254129c9f4b53e20b75e6c6578706572696d656e74616cf564736f6c63430005100040",
  "source": "pragma solidity ^0.5.0;\npragma experimental ABIEncoderV2;\n\nimport \"openzeppelin-solidity/contracts/math/SafeMath.sol\";\nimport \"openzeppelin-solidity/contracts/ownership/Ownable.sol\";\n\nimport \"openzeppelin-solidity/contracts/token/ERC721/IERC721.sol\";\nimport \"openzeppelin-solidity/contracts/introspection/IERC165.sol\";\nimport \"openzeppelin-solidity/contracts/utils/ReentrancyGuard.sol\";\n\n/**\n\n                                                              \n                                                                 \n                                                          \n                                                     \n                                          \n                                                                  \n                                                                                      \n                                                                                                          \n                                                                                                                       \n                                                                                                                                        \n                                                          \n                                                 \n                                          \n                                         \n                              \n                                                   \n                                                                      \n                                                                                                   \n                                                                                                                   \n                                                                                                                                    \n\n*/\n\ncontract ReserveAuction is Ownable, ReentrancyGuard {\n    using SafeMath for uint256;\n\n    bool public paused;\n\n    uint256 public timeBuffer = 15 * 60; // extend 15 minutes after every bid made in last 15 minutes\n    uint256 public minBid = 1 * 10**17; // 0.1 eth\n\n    bytes4 constant interfaceId = 0x80ac58cd; // 721 interface id\n    address public nftAddress;\n\n    mapping(uint256 => Auction) public auctions;\n    uint256[] public tokenIds;\n\n    struct Auction {\n        bool exists;\n        uint256 amount;\n        uint256 tokenId;\n        uint256 duration;\n        uint256 firstBidTime;\n        uint256 reservePrice;\n        address payable creator;\n        address payable bidder;\n    }\n\n    modifier notPaused() {\n        require(!paused, \"Must not be paused\");\n        _;\n    }\n\n    event AuctionCreated(\n        uint256 tokenId,\n        address nftAddress,\n        uint256 duration,\n        uint256 reservePrice,\n        address creator\n    );\n    event AuctionBid(\n        uint256 tokenId,\n        address nftAddress,\n        address sender,\n        uint256 value,\n        uint256 timestamp,\n        bool firstBid,\n        bool extended\n    );\n    event AuctionEnded(\n        uint256 tokenId,\n        address nftAddress,\n        address creator,\n        address winner,\n        uint256 amount\n    );\n    event AuctionCanceled(\n        uint256 tokenId,\n        address nftAddress,\n        address creator\n    );\n\n    constructor(address _nftAddress) public {\n        require(\n            IERC165(_nftAddress).supportsInterface(interfaceId),\n            \"Doesn't support NFT interface\"\n        );\n        nftAddress = _nftAddress;\n    }\n\n    function updateNftAddress(address _nftAddress) public onlyOwner {\n        require(\n            IERC165(_nftAddress).supportsInterface(interfaceId),\n            \"Doesn't support NFT interface\"\n        );\n        nftAddress = _nftAddress;\n    }\n\n    function updateMinBid(uint256 _minBid) public onlyOwner {\n        minBid = _minBid;\n    }\n\n    function updateTimeBuffer(uint256 _timeBuffer) public onlyOwner {\n        timeBuffer = _timeBuffer;\n    }\n\n    function createAuction(\n        uint256 tokenId,\n        uint256 duration,\n        uint256 reservePrice,\n        address payable creator\n    ) external notPaused onlyOwner nonReentrant {\n        require(!auctions[tokenId].exists, \"Auction already exists\");\n\n        tokenIds.push(tokenId);\n\n        auctions[tokenId].exists = true;\n        auctions[tokenId].duration = duration;\n        auctions[tokenId].reservePrice = reservePrice;\n        auctions[tokenId].creator = creator;\n\n        IERC721(nftAddress).transferFrom(creator, address(this), tokenId);\n\n        emit AuctionCreated(tokenId, nftAddress, duration, reservePrice, creator);\n    }\n\n    function createBid(uint256 tokenId) external payable notPaused nonReentrant {\n        require(auctions[tokenId].exists, \"Auction doesn't exist\");\n        require(\n            msg.value >= auctions[tokenId].reservePrice,\n            \"Must send reservePrice or more\"\n        );\n        require(\n            auctions[tokenId].firstBidTime == 0 ||\n                block.timestamp <\n                auctions[tokenId].firstBidTime + auctions[tokenId].duration,\n            \"Auction expired\"\n        );\n\n        uint256 lastValue = auctions[tokenId].amount;\n\n        bool firstBid;\n        address payable lastBidder;\n\n        // allows for auctions with starting price of 0\n        if (lastValue != 0) {\n            require(msg.value > lastValue, \"Must send more than last bid\");\n            require(\n                msg.value.sub(lastValue) >= minBid,\n                \"Must send more than last bid by minBid Amount\"\n            );\n            lastBidder = auctions[tokenId].bidder;\n        } else {\n            firstBid = true;\n            auctions[tokenId].firstBidTime = block.timestamp;\n        }\n\n        auctions[tokenId].amount = msg.value;\n        auctions[tokenId].bidder = msg.sender;\n\n        bool extended;\n        // at this point we know that the timestamp is less than start + duration\n        // we want to know by how much the timestamp is less than start + duration\n        // if the difference is less than the timeBuffer, increase the duration by the timeBuffer\n        if (\n            (auctions[tokenId].firstBidTime.add(auctions[tokenId].duration))\n                .sub(block.timestamp) < timeBuffer\n        ) {\n            auctions[tokenId].duration += timeBuffer;\n            extended = true;\n        }\n\n \n\n        emit AuctionBid(\n            tokenId,\n            nftAddress,\n            msg.sender,\n            msg.value,\n            block.timestamp,\n            firstBid,\n            extended\n        );\n        if (!firstBid) {\n            lastBidder.transfer(lastValue);\n        }\n    }\n\n    function endAuction(uint256 tokenId) external notPaused nonReentrant {\n        require(auctions[tokenId].exists, \"Auction doesn't exist\");\n        require(\n            uint256(auctions[tokenId].firstBidTime) != 0,\n            \"Auction hasn't begun\"\n        );\n        require(\n            block.timestamp >=\n                auctions[tokenId].firstBidTime + auctions[tokenId].duration,\n            \"Auction hasn't completed\"\n        );\n\n        address winner = auctions[tokenId].bidder;\n        uint256 amount = auctions[tokenId].amount;\n        address payable creator = auctions[tokenId].creator;\n\n        emit AuctionEnded(tokenId, nftAddress, creator, winner, amount);\n        delete auctions[tokenId];\n\n        IERC721(nftAddress).transferFrom(address(this), winner, tokenId);\n        creator.transfer(amount);\n    }\n\n    function cancelAuction(uint256 tokenId) external nonReentrant {\n        require(auctions[tokenId].exists, \"Auction doesn't exist\");\n        require(\n            auctions[tokenId].creator == msg.sender || msg.sender == owner(),\n            \"Can only be called by auction creator or owner\"\n        );\n        require(\n            uint256(auctions[tokenId].firstBidTime) == 0,\n            \"Can't cancel an auction once it's begun\"\n        );\n        address creator = auctions[tokenId].creator;\n        delete auctions[tokenId];\n        IERC721(nftAddress).transferFrom(address(this), creator, tokenId);\n        emit AuctionCanceled(tokenId, nftAddress, creator);\n    }\n\n    function updatePaused(bool _paused) public onlyOwner {\n        paused = _paused;\n    }\n}\n",
  "sourcePath": "/Users/billy/GitHub/folia-app/folia-contracts/contracts/ReserveAuction.sol",
  "compiler": {
    "name": "solc",
    "version": "0.5.16+commit.9c3226ce.Emscripten.clang"
  },
  "schemaVersion": "3.3.4",
  "updatedAt": "2021-03-16T16:03:35.529Z",
  "networkType": "ethereum",
  "devdoc": {
    "methods": {
      "isOwner()": {
        "return": "true if `msg.sender` is the owner of the contract."
      },
      "owner()": {
        "return": "the address of the owner."
      },
      "renounceOwnership()": {
        "details": "Allows the current owner to relinquish control of the contract."
      },
      "transferOwnership(address)": {
        "details": "Allows the current owner to transfer control of the contract to a newOwner.",
        "params": {
          "newOwner": "The address to transfer ownership to."
        }
      }
    }
  },
  "userdoc": {
    "methods": {
      "renounceOwnership()": {
        "notice": "Renouncing to ownership will leave the contract without an owner. It will not be possible to call the functions with the `onlyOwner` modifier anymore."
      }
    },
    "notice": "                                                                                                                                                                                                                                                                                                                                                                                                                                                                                                                                                                                                                                                                                                                                                                                                                                                                                                                                                                                                                                                                                                                                                                                                                                                                                                                                                                                                                                                                                            "
  }
}