{
  "contractName": "ScammerController",
  "abi": [
    {
      "inputs": [
        {
          "internalType": "contract Scammer",
          "name": "_scammer",
          "type": "address"
        },
        {
          "internalType": "address payable",
          "name": "_adminWallet",
          "type": "address"
        },
        {
          "internalType": "address payable",
          "name": "_artistWallet",
          "type": "address"
        },
        {
          "internalType": "address[]",
          "name": "voucherRecipients",
          "type": "address[]"
        }
      ],
      "payable": false,
      "stateMutability": "nonpayable",
      "type": "constructor"
    },
    {
      "anonymous": false,
      "inputs": [
        {
          "indexed": true,
          "internalType": "address",
          "name": "previousOwner",
          "type": "address"
        },
        {
          "indexed": true,
          "internalType": "address",
          "name": "newOwner",
          "type": "address"
        }
      ],
      "name": "OwnershipTransferred",
      "type": "event"
    },
    {
      "anonymous": false,
      "inputs": [
        {
          "indexed": false,
          "internalType": "uint256",
          "name": "collectionId",
          "type": "uint256"
        },
        {
          "indexed": false,
          "internalType": "uint256",
          "name": "editionId",
          "type": "uint256"
        },
        {
          "indexed": false,
          "internalType": "uint256",
          "name": "tokenId",
          "type": "uint256"
        },
        {
          "indexed": false,
          "internalType": "address",
          "name": "recipient",
          "type": "address"
        },
        {
          "indexed": false,
          "internalType": "uint256",
          "name": "paid",
          "type": "uint256"
        },
        {
          "indexed": false,
          "internalType": "uint256",
          "name": "artistReceived",
          "type": "uint256"
        },
        {
          "indexed": false,
          "internalType": "uint256",
          "name": "adminReceived",
          "type": "uint256"
        }
      ],
      "name": "editionBought",
      "type": "event"
    },
    {
      "anonymous": false,
      "inputs": [
        {
          "indexed": false,
          "internalType": "uint256",
          "name": "collectionId",
          "type": "uint256"
        },
        {
          "indexed": false,
          "internalType": "uint256",
          "name": "editions",
          "type": "uint256"
        },
        {
          "indexed": false,
          "internalType": "uint256",
          "name": "price",
          "type": "uint256"
        },
        {
          "indexed": false,
          "internalType": "bool",
          "name": "paused",
          "type": "bool"
        }
      ],
      "name": "newCollection",
      "type": "event"
    },
    {
      "anonymous": false,
      "inputs": [
        {
          "indexed": false,
          "internalType": "uint256",
          "name": "collectionId",
          "type": "uint256"
        },
        {
          "indexed": false,
          "internalType": "uint256",
          "name": "editions",
          "type": "uint256"
        },
        {
          "indexed": false,
          "internalType": "uint256",
          "name": "price",
          "type": "uint256"
        },
        {
          "indexed": false,
          "internalType": "bool",
          "name": "paused",
          "type": "bool"
        }
      ],
      "name": "updatedCollection",
      "type": "event"
    },
    {
      "constant": true,
      "inputs": [],
      "name": "adminSplit",
      "outputs": [
        {
          "internalType": "uint256",
          "name": "",
          "type": "uint256"
        }
      ],
      "payable": false,
      "stateMutability": "view",
      "type": "function"
    },
    {
      "constant": true,
      "inputs": [],
      "name": "adminWallet",
      "outputs": [
        {
          "internalType": "address payable",
          "name": "",
          "type": "address"
        }
      ],
      "payable": false,
      "stateMutability": "view",
      "type": "function"
    },
    {
      "constant": true,
      "inputs": [],
      "name": "artistWallet",
      "outputs": [
        {
          "internalType": "address payable",
          "name": "",
          "type": "address"
        }
      ],
      "payable": false,
      "stateMutability": "view",
      "type": "function"
    },
    {
      "constant": true,
      "inputs": [
        {
          "internalType": "uint256",
          "name": "",
          "type": "uint256"
        }
      ],
      "name": "collections",
      "outputs": [
        {
          "internalType": "bool",
          "name": "exists",
          "type": "bool"
        },
        {
          "internalType": "bool",
          "name": "paused",
          "type": "bool"
        },
        {
          "internalType": "uint256",
          "name": "editions",
          "type": "uint256"
        },
        {
          "internalType": "uint256",
          "name": "minted",
          "type": "uint256"
        },
        {
          "internalType": "uint256",
          "name": "price",
          "type": "uint256"
        }
      ],
      "payable": false,
      "stateMutability": "view",
      "type": "function"
    },
    {
      "constant": true,
      "inputs": [],
      "name": "isOwner",
      "outputs": [
        {
          "internalType": "bool",
          "name": "",
          "type": "bool"
        }
      ],
      "payable": false,
      "stateMutability": "view",
      "type": "function"
    },
    {
      "constant": true,
      "inputs": [],
      "name": "latestCollectionId",
      "outputs": [
        {
          "internalType": "uint256",
          "name": "",
          "type": "uint256"
        }
      ],
      "payable": false,
      "stateMutability": "view",
      "type": "function"
    },
    {
      "constant": true,
      "inputs": [],
      "name": "owner",
      "outputs": [
        {
          "internalType": "address",
          "name": "",
          "type": "address"
        }
      ],
      "payable": false,
      "stateMutability": "view",
      "type": "function"
    },
    {
      "constant": true,
      "inputs": [],
      "name": "paused",
      "outputs": [
        {
          "internalType": "bool",
          "name": "",
          "type": "bool"
        }
      ],
      "payable": false,
      "stateMutability": "view",
      "type": "function"
    },
    {
      "constant": false,
      "inputs": [],
      "name": "renounceOwnership",
      "outputs": [],
      "payable": false,
      "stateMutability": "nonpayable",
      "type": "function"
    },
    {
      "constant": true,
      "inputs": [],
      "name": "scammer",
      "outputs": [
        {
          "internalType": "contract Scammer",
          "name": "",
          "type": "address"
        }
      ],
      "payable": false,
      "stateMutability": "view",
      "type": "function"
    },
    {
      "constant": false,
      "inputs": [
        {
          "internalType": "address",
          "name": "newOwner",
          "type": "address"
        }
      ],
      "name": "transferOwnership",
      "outputs": [],
      "payable": false,
      "stateMutability": "nonpayable",
      "type": "function"
    },
    {
      "constant": true,
      "inputs": [
        {
          "internalType": "address",
          "name": "",
          "type": "address"
        }
      ],
      "name": "vouchers",
      "outputs": [
        {
          "internalType": "uint256",
          "name": "",
          "type": "uint256"
        }
      ],
      "payable": false,
      "stateMutability": "view",
      "type": "function"
    },
    {
      "constant": false,
      "inputs": [
        {
          "internalType": "uint256",
          "name": "editions",
          "type": "uint256"
        },
        {
          "internalType": "uint256",
          "name": "price",
          "type": "uint256"
        },
        {
          "internalType": "bool",
          "name": "_paused",
          "type": "bool"
        }
      ],
      "name": "addCollection",
      "outputs": [],
      "payable": false,
      "stateMutability": "nonpayable",
      "type": "function"
    },
    {
      "constant": false,
      "inputs": [
        {
          "internalType": "uint256",
          "name": "collectionId",
          "type": "uint256"
        },
        {
          "internalType": "bool",
          "name": "_paused",
          "type": "bool"
        }
      ],
      "name": "updateCollectionPaused",
      "outputs": [],
      "payable": false,
      "stateMutability": "nonpayable",
      "type": "function"
    },
    {
      "constant": false,
      "inputs": [
        {
          "internalType": "uint256",
          "name": "collectionId",
          "type": "uint256"
        },
        {
          "internalType": "uint256",
          "name": "_editions",
          "type": "uint256"
        }
      ],
      "name": "updateCollectionEditions",
      "outputs": [],
      "payable": false,
      "stateMutability": "nonpayable",
      "type": "function"
    },
    {
      "constant": false,
      "inputs": [
        {
          "internalType": "uint256",
          "name": "collectionId",
          "type": "uint256"
        },
        {
          "internalType": "uint256",
          "name": "_price",
          "type": "uint256"
        }
      ],
      "name": "updateCollectionPrice",
      "outputs": [],
      "payable": false,
      "stateMutability": "nonpayable",
      "type": "function"
    },
    {
      "constant": false,
      "inputs": [
        {
          "internalType": "address",
          "name": "recipient",
          "type": "address"
        },
        {
          "internalType": "uint256",
          "name": "tokenId",
          "type": "uint256"
        }
      ],
      "name": "redeem",
      "outputs": [
        {
          "internalType": "bool",
          "name": "",
          "type": "bool"
        }
      ],
      "payable": false,
      "stateMutability": "nonpayable",
      "type": "function"
    },
    {
      "constant": false,
      "inputs": [
        {
          "internalType": "address",
          "name": "recipient",
          "type": "address"
        },
        {
          "internalType": "uint256",
          "name": "tokenId",
          "type": "uint256"
        }
      ],
      "name": "buy",
      "outputs": [
        {
          "internalType": "bool",
          "name": "",
          "type": "bool"
        }
      ],
      "payable": true,
      "stateMutability": "payable",
      "type": "function"
    },
    {
      "constant": false,
      "inputs": [
        {
          "internalType": "address",
          "name": "recipient",
          "type": "address"
        }
      ],
      "name": "mintVoucher",
      "outputs": [],
      "payable": false,
      "stateMutability": "nonpayable",
      "type": "function"
    },
    {
      "constant": false,
      "inputs": [
        {
          "internalType": "address",
          "name": "recipient",
          "type": "address"
        }
      ],
      "name": "burnVoucher",
      "outputs": [],
      "payable": false,
      "stateMutability": "nonpayable",
      "type": "function"
    },
    {
      "constant": true,
      "inputs": [
        {
          "internalType": "address",
          "name": "recipient",
          "type": "address"
        }
      ],
      "name": "hasVoucher",
      "outputs": [
        {
          "internalType": "bool",
          "name": "",
          "type": "bool"
        }
      ],
      "payable": false,
      "stateMutability": "view",
      "type": "function"
    },
    {
      "constant": false,
      "inputs": [
        {
          "internalType": "uint256",
          "name": "_adminSplit",
          "type": "uint256"
        }
      ],
      "name": "updateAdminSplit",
      "outputs": [],
      "payable": false,
      "stateMutability": "nonpayable",
      "type": "function"
    },
    {
      "constant": false,
      "inputs": [
        {
          "internalType": "address payable",
          "name": "_adminWallet",
          "type": "address"
        }
      ],
      "name": "updateAdminWallet",
      "outputs": [],
      "payable": false,
      "stateMutability": "nonpayable",
      "type": "function"
    },
    {
      "constant": false,
      "inputs": [
        {
          "internalType": "address payable",
          "name": "_artistWallet",
          "type": "address"
        }
      ],
      "name": "updateArtistWallet",
      "outputs": [],
      "payable": false,
      "stateMutability": "nonpayable",
      "type": "function"
    },
    {
      "constant": false,
      "inputs": [
        {
          "internalType": "bool",
          "name": "_paused",
          "type": "bool"
        }
      ],
      "name": "updatePaused",
      "outputs": [],
      "payable": false,
      "stateMutability": "nonpayable",
      "type": "function"
    }
  ],
  "bytecode": "0x6080604052600f6004553480156200001657600080fd5b506040516200236e3803806200236e833981810160405260808110156200003c57600080fd5b81019080805190602001909291908051906020019092919080519060200190929190805160405193929190846401000000008211156200007b57600080fd5b838201915060208201858111156200009257600080fd5b8251866020820283011164010000000082111715620000b057600080fd5b8083526020830192505050908051906020019060200280838360005b83811015620000e9578082015181840152602081019050620000cc565b50505050905001604052505050336000806101000a81548173ffffffffffffffffffffffffffffffffffffffff021916908373ffffffffffffffffffffffffffffffffffffffff1602179055506000809054906101000a900473ffffffffffffffffffffffffffffffffffffffff1673ffffffffffffffffffffffffffffffffffffffff16600073ffffffffffffffffffffffffffffffffffffffff167f8be0079c531659141344cd1fd0a4f28419497f9722a3daafe3b4186f6b6457e060405160405180910390a383600760006101000a81548173ffffffffffffffffffffffffffffffffffffffff021916908373ffffffffffffffffffffffffffffffffffffffff16021790555082600560006101000a81548173ffffffffffffffffffffffffffffffffffffffff021916908373ffffffffffffffffffffffffffffffffffffffff16021790555081600660006101000a81548173ffffffffffffffffffffffffffffffffffffffff021916908373ffffffffffffffffffffffffffffffffffffffff16021790555060008090505b81518110156200035e576000620002f56001600260008686815181106200029e57fe5b602002602001015173ffffffffffffffffffffffffffffffffffffffff1673ffffffffffffffffffffffffffffffffffffffff168152602001908152602001600020546200036960201b62001e4f1790919060201c565b905080600260008585815181106200030957fe5b602002602001015173ffffffffffffffffffffffffffffffffffffffff1673ffffffffffffffffffffffffffffffffffffffff168152602001908152602001600020819055505080806001019150506200027b565b505050505062000389565b6000808284019050838110156200037f57600080fd5b8091505092915050565b611fd580620003996000396000f3fe6080604052600436106101665760003560e01c8063715018a6116100d1578063c3cc385c1161008a578063d792440b11610064578063d792440b1461079b578063df01e4bf146107c6578063f2fde38b14610817578063fdbda0ec1461086857610166565b8063c3cc385c14610687578063c7c9c15f146106f0578063cce7ec131461073557610166565b8063715018a61461052357806381de5aef1461053a5780638da5cb5b1461057f5780638f32d59b146105d6578063a3342fba14610605578063aa2b25151461065c57610166565b8063450b974311610123578063450b974314610361578063479f0876146103c65780634cd31e73146104175780635c975abb146104525780635eec08701461048157806366b05b01146104d257610166565b8063066cae331461016b57806308cdc2a8146101c25780631b691ba6146101ff5780631e9a69501461024657806330d5f0fc146102b957806336b19cd71461030a575b600080fd5b34801561017757600080fd5b506101806108db565b604051808273ffffffffffffffffffffffffffffffffffffffff1673ffffffffffffffffffffffffffffffffffffffff16815260200191505060405180910390f35b3480156101ce57600080fd5b506101fd600480360360208110156101e557600080fd5b81019080803515159060200190929190505050610901565b005b34801561020b57600080fd5b506102446004803603604081101561022257600080fd5b810190808035906020019092919080351515906020019092919050505061092f565b005b34801561025257600080fd5b5061029f6004803603604081101561026957600080fd5b81019080803573ffffffffffffffffffffffffffffffffffffffff16906020019092919080359060200190929190505050610aaa565b604051808215151515815260200191505060405180910390f35b3480156102c557600080fd5b50610308600480360360208110156102dc57600080fd5b81019080803573ffffffffffffffffffffffffffffffffffffffff169060200190929190505050610f33565b005b34801561031657600080fd5b5061031f610fe3565b604051808273ffffffffffffffffffffffffffffffffffffffff1673ffffffffffffffffffffffffffffffffffffffff16815260200191505060405180910390f35b34801561036d57600080fd5b506103b06004803603602081101561038457600080fd5b81019080803573ffffffffffffffffffffffffffffffffffffffff169060200190929190505050611009565b6040518082815260200191505060405180910390f35b3480156103d257600080fd5b50610415600480360360208110156103e957600080fd5b81019080803573ffffffffffffffffffffffffffffffffffffffff169060200190929190505050611021565b005b34801561042357600080fd5b506104506004803603602081101561043a57600080fd5b810190808035906020019092919050505061107a565b005b34801561045e57600080fd5b5061046761110c565b604051808215151515815260200191505060405180910390f35b34801561048d57600080fd5b506104d0600480360360208110156104a457600080fd5b81019080803573ffffffffffffffffffffffffffffffffffffffff16906020019092919050505061111f565b005b3480156104de57600080fd5b50610521600480360360608110156104f557600080fd5b810190808035906020019092919080359060200190929190803515159060200190929190505050611174565b005b34801561052f57600080fd5b50610538611302565b005b34801561054657600080fd5b5061057d6004803603604081101561055d57600080fd5b8101908080359060200190929190803590602001909291905050506113d2565b005b34801561058b57600080fd5b506105946115c5565b604051808273ffffffffffffffffffffffffffffffffffffffff1673ffffffffffffffffffffffffffffffffffffffff16815260200191505060405180910390f35b3480156105e257600080fd5b506105eb6115ee565b604051808215151515815260200191505060405180910390f35b34801561061157600080fd5b5061061a611645565b604051808273ffffffffffffffffffffffffffffffffffffffff1673ffffffffffffffffffffffffffffffffffffffff16815260200191505060405180910390f35b34801561066857600080fd5b5061067161166b565b6040518082815260200191505060405180910390f35b34801561069357600080fd5b506106d6600480360360208110156106aa57600080fd5b81019080803573ffffffffffffffffffffffffffffffffffffffff169060200190929190505050611671565b604051808215151515815260200191505060405180910390f35b3480156106fc57600080fd5b506107336004803603604081101561071357600080fd5b8101908080359060200190929190803590602001909291905050506116bc565b005b6107816004803603604081101561074b57600080fd5b81019080803573ffffffffffffffffffffffffffffffffffffffff16906020019092919080359060200190929190505050611824565b604051808215151515815260200191505060405180910390f35b3480156107a757600080fd5b506107b0611d20565b6040518082815260200191505060405180910390f35b3480156107d257600080fd5b50610815600480360360208110156107e957600080fd5b81019080803573ffffffffffffffffffffffffffffffffffffffff169060200190929190505050611d26565b005b34801561082357600080fd5b506108666004803603602081101561083a57600080fd5b81019080803573ffffffffffffffffffffffffffffffffffffffff169060200190929190505050611d7b565b005b34801561087457600080fd5b506108a16004803603602081101561088b57600080fd5b8101908080359060200190929190505050611d98565b6040518086151515158152602001851515151581526020018481526020018381526020018281526020019550505050505060405180910390f35b600760009054906101000a900473ffffffffffffffffffffffffffffffffffffffff1681565b6109096115ee565b61091257600080fd5b80600660146101000a81548160ff02191690831515021790555050565b6109376115ee565b61094057600080fd5b6003600083815260200190815260200160002060000160009054906101000a900460ff166109d6576040517f08c379a00000000000000000000000000000000000000000000000000000000081526004018080602001828103825260198152602001807f434f4c4c454354494f4e5f444f45535f4e4f545f45584953540000000000000081525060200191505060405180910390fd5b806003600084815260200190815260200160002060000160016101000a81548160ff0219169083151502179055507f93e3e9f8e5669f39b953ea0d762b2bb5d0010b9b0f0094862e2326ff0a4ade3282600360008581526020019081526020016000206001015460036000868152602001908152602001600020600301546003600087815260200190815260200160002060000160019054906101000a900460ff16604051808581526020018481526020018381526020018215151515815260200194505050505060405180910390a15050565b6000600660149054906101000a900460ff1615610b2f576040517f08c379a00000000000000000000000000000000000000000000000000000000081526004018080602001828103825260128152602001807f4d757374206e6f7420626520706175736564000000000000000000000000000081525060200191505060405180910390fd5b6000610b47620f424084611de890919063ffffffff16565b90506000610b61620f424085611e0e90919063ffffffff16565b90506003600083815260200190815260200160002060000160009054906101000a900460ff16610bf9576040517f08c379a00000000000000000000000000000000000000000000000000000000081526004018080602001828103825260198152602001807f434f4c4c454354494f4e5f444f45535f4e4f545f45584953540000000000000081525060200191505060405180910390fd5b60036000838152602001908152602001600020600101548111610c84576040517f08c379a00000000000000000000000000000000000000000000000000000000081526004018080602001828103825260108152602001807f494e56414c49445f544f4b454e5f49440000000000000000000000000000000081525060200191505060405180910390fd5b6000600260003373ffffffffffffffffffffffffffffffffffffffff1673ffffffffffffffffffffffffffffffffffffffff1681526020019081526020016000205411610d39576040517f08c379a00000000000000000000000000000000000000000000000000000000081526004018080602001828103825260148152602001807f555345525f4841535f4e4f5f564f55434845525300000000000000000000000081525060200191505060405180910390fd5b600760009054906101000a900473ffffffffffffffffffffffffffffffffffffffff1673ffffffffffffffffffffffffffffffffffffffff166340c10f1986866040518363ffffffff1660e01b8152600401808373ffffffffffffffffffffffffffffffffffffffff1673ffffffffffffffffffffffffffffffffffffffff16815260200182815260200192505050600060405180830381600087803b158015610de257600080fd5b505af1158015610df6573d6000803e3d6000fd5b505050506000610e4f6001600260008973ffffffffffffffffffffffffffffffffffffffff1673ffffffffffffffffffffffffffffffffffffffff16815260200190815260200160002054611e2f90919063ffffffff16565b905080600260008873ffffffffffffffffffffffffffffffffffffffff1673ffffffffffffffffffffffffffffffffffffffff168152602001908152602001600020819055507f98d41ea2d99604d19bd920bfa2fde9f14a004bb5f3bbacf3706fc23dd386f499838387896000806000604051808881526020018781526020018681526020018573ffffffffffffffffffffffffffffffffffffffff1673ffffffffffffffffffffffffffffffffffffffff16815260200184815260200183815260200182815260200197505050505050505060405180910390a150505092915050565b610f3b6115ee565b610f4457600080fd5b6000610f996001600260008573ffffffffffffffffffffffffffffffffffffffff1673ffffffffffffffffffffffffffffffffffffffff16815260200190815260200160002054611e4f90919063ffffffff16565b905080600260008473ffffffffffffffffffffffffffffffffffffffff1673ffffffffffffffffffffffffffffffffffffffff168152602001908152602001600020819055505050565b600560009054906101000a900473ffffffffffffffffffffffffffffffffffffffff1681565b60026020528060005260406000206000915090505481565b6110296115ee565b61103257600080fd5b6000600260008373ffffffffffffffffffffffffffffffffffffffff1673ffffffffffffffffffffffffffffffffffffffff1681526020019081526020016000208190555050565b6110826115ee565b61108b57600080fd5b6064811115611102576040517f08c379a00000000000000000000000000000000000000000000000000000000081526004018080602001828103825260158152602001807f53504c49545f4d5553545f42455f4c54455f313030000000000000000000000081525060200191505060405180910390fd5b8060048190555050565b600660149054906101000a900460ff1681565b6111276115ee565b61113057600080fd5b80600560006101000a81548173ffffffffffffffffffffffffffffffffffffffff021916908373ffffffffffffffffffffffffffffffffffffffff16021790555050565b61117c6115ee565b61118557600080fd5b620f424083106111fd576040517f08c379a00000000000000000000000000000000000000000000000000000000081526004018080602001828103825260158152602001807f4d41585f45444954494f4e535f4558434545444544000000000000000000000081525060200191505060405180910390fd5b60018060008282540192505081905550600160036000600154815260200190815260200160002060000160006101000a81548160ff021916908315150217905550826003600060015481526020019081526020016000206001018190555081600360006001548152602001908152602001600020600301819055508060036000600154815260200190815260200160002060000160016101000a81548160ff0219169083151502179055507fa869b76d568f6db8e218beac3d34119cfaa17030d9206a0697fabc12769ae4bc600154848484604051808581526020018481526020018381526020018215151515815260200194505050505060405180910390a1505050565b61130a6115ee565b61131357600080fd5b600073ffffffffffffffffffffffffffffffffffffffff166000809054906101000a900473ffffffffffffffffffffffffffffffffffffffff1673ffffffffffffffffffffffffffffffffffffffff167f8be0079c531659141344cd1fd0a4f28419497f9722a3daafe3b4186f6b6457e060405160405180910390a360008060006101000a81548173ffffffffffffffffffffffffffffffffffffffff021916908373ffffffffffffffffffffffffffffffffffffffff160217905550565b6113da6115ee565b6113e357600080fd5b6003600083815260200190815260200160002060000160009054906101000a900460ff16611479576040517f08c379a00000000000000000000000000000000000000000000000000000000081526004018080602001828103825260198152602001807f434f4c4c454354494f4e5f444f45535f4e4f545f45584953540000000000000081525060200191505060405180910390fd5b80600360008481526020019081526020016000206001015410611504576040517f08c379a00000000000000000000000000000000000000000000000000000000081526004018080602001828103825260168152602001807f45444954494f4e535f4d5553545f494e4352454153450000000000000000000081525060200191505060405180910390fd5b8060036000848152602001908152602001600020600101819055507f93e3e9f8e5669f39b953ea0d762b2bb5d0010b9b0f0094862e2326ff0a4ade3282600360008581526020019081526020016000206001015460036000868152602001908152602001600020600301546003600087815260200190815260200160002060000160019054906101000a900460ff16604051808581526020018481526020018381526020018215151515815260200194505050505060405180910390a15050565b60008060009054906101000a900473ffffffffffffffffffffffffffffffffffffffff16905090565b60008060009054906101000a900473ffffffffffffffffffffffffffffffffffffffff1673ffffffffffffffffffffffffffffffffffffffff163373ffffffffffffffffffffffffffffffffffffffff1614905090565b600660009054906101000a900473ffffffffffffffffffffffffffffffffffffffff1681565b60015481565b600080600260008473ffffffffffffffffffffffffffffffffffffffff1673ffffffffffffffffffffffffffffffffffffffff16815260200190815260200160002054119050919050565b6116c46115ee565b6116cd57600080fd5b6003600083815260200190815260200160002060000160009054906101000a900460ff16611763576040517f08c379a00000000000000000000000000000000000000000000000000000000081526004018080602001828103825260198152602001807f434f4c4c454354494f4e5f444f45535f4e4f545f45584953540000000000000081525060200191505060405180910390fd5b8060036000848152602001908152602001600020600301819055507f93e3e9f8e5669f39b953ea0d762b2bb5d0010b9b0f0094862e2326ff0a4ade3282600360008581526020019081526020016000206001015460036000868152602001908152602001600020600301546003600087815260200190815260200160002060000160019054906101000a900460ff16604051808581526020018481526020018381526020018215151515815260200194505050505060405180910390a15050565b6000600660149054906101000a900460ff16156118a9576040517f08c379a00000000000000000000000000000000000000000000000000000000081526004018080602001828103825260128152602001807f4d757374206e6f7420626520706175736564000000000000000000000000000081525060200191505060405180910390fd5b60006118c1620f424084611de890919063ffffffff16565b905060006118db620f424085611e0e90919063ffffffff16565b90506003600083815260200190815260200160002060000160009054906101000a900460ff16611973576040517f08c379a00000000000000000000000000000000000000000000000000000000081526004018080602001828103825260198152602001807f434f4c4c454354494f4e5f444f45535f4e4f545f45584953540000000000000081525060200191505060405180910390fd5b6003600083815260200190815260200160002060010154811115801561199a575060008114155b611a0c576040517f08c379a00000000000000000000000000000000000000000000000000000000081526004018080602001828103825260108152602001807f494e56414c49445f544f4b454e5f49440000000000000000000000000000000081525060200191505060405180910390fd5b60036000838152602001908152602001600020600301543414611a97576040517f08c379a00000000000000000000000000000000000000000000000000000000081526004018080602001828103825260128152602001807f4449445f4e4f545f53454e445f5052494345000000000000000000000000000081525060200191505060405180910390fd5b600760009054906101000a900473ffffffffffffffffffffffffffffffffffffffff1673ffffffffffffffffffffffffffffffffffffffff166340c10f1986866040518363ffffffff1660e01b8152600401808373ffffffffffffffffffffffffffffffffffffffff1673ffffffffffffffffffffffffffffffffffffffff16815260200182815260200192505050600060405180830381600087803b158015611b4057600080fd5b505af1158015611b54573d6000803e3d6000fd5b505050506000611b826064611b7460045434611e6e90919063ffffffff16565b611de890919063ffffffff16565b90506000611b998234611e2f90919063ffffffff16565b9050600560009054906101000a900473ffffffffffffffffffffffffffffffffffffffff1673ffffffffffffffffffffffffffffffffffffffff166108fc839081150290604051600060405180830381858888f19350505050158015611c03573d6000803e3d6000fd5b50600660009054906101000a900473ffffffffffffffffffffffffffffffffffffffff1673ffffffffffffffffffffffffffffffffffffffff166108fc829081150290604051600060405180830381858888f19350505050158015611c6c573d6000803e3d6000fd5b507f98d41ea2d99604d19bd920bfa2fde9f14a004bb5f3bbacf3706fc23dd386f4998484888a600360008a8152602001908152602001600020600301548688604051808881526020018781526020018681526020018573ffffffffffffffffffffffffffffffffffffffff1673ffffffffffffffffffffffffffffffffffffffff16815260200184815260200183815260200182815260200197505050505050505060405180910390a15050505092915050565b60045481565b611d2e6115ee565b611d3757600080fd5b80600660006101000a81548173ffffffffffffffffffffffffffffffffffffffff021916908373ffffffffffffffffffffffffffffffffffffffff16021790555050565b611d836115ee565b611d8c57600080fd5b611d9581611ea8565b50565b60036020528060005260406000206000915090508060000160009054906101000a900460ff16908060000160019054906101000a900460ff16908060010154908060020154908060030154905085565b6000808211611df657600080fd5b6000828481611e0157fe5b0490508091505092915050565b600080821415611e1d57600080fd5b818381611e2657fe5b06905092915050565b600082821115611e3e57600080fd5b600082840390508091505092915050565b600080828401905083811015611e6457600080fd5b8091505092915050565b600080831415611e815760009050611ea2565b6000828402905082848281611e9257fe5b0414611e9d57600080fd5b809150505b92915050565b600073ffffffffffffffffffffffffffffffffffffffff168173ffffffffffffffffffffffffffffffffffffffff161415611ee257600080fd5b8073ffffffffffffffffffffffffffffffffffffffff166000809054906101000a900473ffffffffffffffffffffffffffffffffffffffff1673ffffffffffffffffffffffffffffffffffffffff167f8be0079c531659141344cd1fd0a4f28419497f9722a3daafe3b4186f6b6457e060405160405180910390a3806000806101000a81548173ffffffffffffffffffffffffffffffffffffffff021916908373ffffffffffffffffffffffffffffffffffffffff1602179055505056fea265627a7a72315820537a0ab7ee963ef404905fe9fa98b7aae1beee784c319738e3ffdefd831651ec64736f6c63430005100032",
  "source": "pragma solidity ^0.5.0;\n\n/**\n * The ScammerController is an upgradeable endpoint for controlling Scammer.sol\n */\n\nimport \"./Scammer.sol\";\nimport \"openzeppelin-solidity/contracts/math/SafeMath.sol\";\nimport \"openzeppelin-solidity/contracts/ownership/Ownable.sol\";\n\ncontract ScammerController is Ownable {\n\n    event newCollection(uint256 collectionId, uint256 editions, uint256 price, bool paused);\n    event updatedCollection(uint256 collectionId, uint256 editions, uint256 price, bool paused);\n    event editionBought(uint256 collectionId, uint256 editionId, uint256 tokenId, address recipient, uint256 paid, uint256 artistReceived, uint256 adminReceived);\n\n    using SafeMath for uint256;\n\n    uint256 constant MAX_EDITIONS = 1000000;\n    uint256 public latestCollectionId;\n\n    mapping (address => uint) public vouchers;\n\n    mapping (uint256 => Collection) public collections;\n    struct Collection {\n        bool exists;\n        bool paused;\n        uint256 editions;\n        uint256 minted;\n        uint256 price;\n    }\n\n    uint256 public adminSplit = 15;\n\n    address payable public adminWallet;\n    address payable public artistWallet;\n    bool public paused;\n    Scammer public scammer;\n\n    modifier notPaused() {\n        require(!paused, \"Must not be paused\");\n        _;\n    }\n\n    constructor(\n        Scammer _scammer,\n        address payable _adminWallet,\n        address payable _artistWallet,\n        address[] memory voucherRecipients\n    ) public {\n        scammer = _scammer;\n        adminWallet = _adminWallet;\n        artistWallet = _artistWallet;\n\n        for (uint i = 0; i < voucherRecipients.length; i++) {\n            uint numVouchers = vouchers[voucherRecipients[i]].add(1);\n            vouchers[voucherRecipients[i]] = numVouchers;\n        }\n    }\n\n    function addCollection(uint256 editions, uint256 price, bool _paused) public onlyOwner {\n        require(editions < MAX_EDITIONS, \"MAX_EDITIONS_EXCEEDED\");\n\n        latestCollectionId += 1;\n\n        collections[latestCollectionId].exists = true;\n        collections[latestCollectionId].editions = editions;\n        collections[latestCollectionId].price = price;\n        collections[latestCollectionId].paused = _paused;\n        emit newCollection(latestCollectionId, editions, price, _paused);\n    }\n\n    function updateCollectionPaused(uint256 collectionId, bool _paused) public onlyOwner {\n        require(collections[collectionId].exists, \"COLLECTION_DOES_NOT_EXIST\");\n        collections[collectionId].paused = _paused;\n        emit updatedCollection(collectionId, collections[collectionId].editions, collections[collectionId].price, collections[collectionId].paused);\n    }\n\n    function updateCollectionEditions(uint256 collectionId, uint256 _editions) public onlyOwner {\n        require(collections[collectionId].exists, \"COLLECTION_DOES_NOT_EXIST\");\n        require(collections[collectionId].editions < _editions, \"EDITIONS_MUST_INCREASE\");\n        collections[collectionId].editions = _editions;\n        emit updatedCollection(collectionId, collections[collectionId].editions, collections[collectionId].price, collections[collectionId].paused);\n    }\n\n    function updateCollectionPrice(uint256 collectionId, uint256 _price) public onlyOwner {\n        require(collections[collectionId].exists, \"COLLECTION_DOES_NOT_EXIST\");\n        collections[collectionId].price = _price;\n        emit updatedCollection(collectionId, collections[collectionId].editions, collections[collectionId].price, collections[collectionId].paused);\n    }\n\n    function redeem(address recipient, uint256 tokenId) public notPaused returns (bool) {\n        uint256 collectionId = tokenId.div(MAX_EDITIONS);\n        uint256 editionId = tokenId.mod(MAX_EDITIONS);\n\n        // need to change this so it checks that token exists (collectionId exists, and edition # exists)\n        require(collections[collectionId].exists, \"COLLECTION_DOES_NOT_EXIST\");\n        require(editionId > collections[collectionId].editions, \"INVALID_TOKEN_ID\");\n        require(vouchers[msg.sender] > 0 , \"USER_HAS_NO_VOUCHERS\");\n\n        scammer.mint(recipient, tokenId);\n\n        uint numVouchers = vouchers[recipient].sub(1);\n        vouchers[recipient] = numVouchers;\n        \n        emit editionBought(collectionId, editionId, tokenId, recipient,  0, 0, 0);\n    }\n\n    function buy(address recipient, uint256 tokenId) public payable notPaused returns (bool) {\n        uint256 collectionId = tokenId.div(MAX_EDITIONS);\n        uint256 editionId = tokenId.mod(MAX_EDITIONS);\n\n        // need to change this so it checks that token exists (collectionId exists, and edition # exists)\n        require(collections[collectionId].exists, \"COLLECTION_DOES_NOT_EXIST\");\n        require(editionId <= collections[collectionId].editions && editionId != 0, \"INVALID_TOKEN_ID\");\n        require(msg.value == collections[collectionId].price , \"DID_NOT_SEND_PRICE\");\n\n        scammer.mint(recipient, tokenId);\n        \n        uint256 adminReceives = msg.value.mul(adminSplit).div(100);\n        uint256 artistReceives = msg.value.sub(adminReceives);\n\n        adminWallet.transfer(adminReceives);\n        artistWallet.transfer(artistReceives);\n\n        emit editionBought(collectionId, editionId, tokenId, recipient,  collections[collectionId].price, artistReceives, adminReceives);\n    }\n\n    function mintVoucher(address recipient) public onlyOwner {\n        uint numVouchers = vouchers[recipient].add(1);\n        vouchers[recipient] = numVouchers;\n    }\n\n    function burnVoucher(address recipient) public onlyOwner {\n        vouchers[recipient] = 0;\n    }\n\n    function hasVoucher(address recipient) external view returns (bool) {\n        return vouchers[recipient] > 0;\n    }\n\n    function updateAdminSplit(uint256 _adminSplit) public onlyOwner {\n        require(_adminSplit <= 100, \"SPLIT_MUST_BE_LTE_100\");\n        adminSplit = _adminSplit;\n    }\n\n    function updateAdminWallet(address payable _adminWallet) public onlyOwner {\n        adminWallet = _adminWallet;\n    }\n\n    function updateArtistWallet(address payable _artistWallet) public onlyOwner {\n        artistWallet = _artistWallet;\n    }\n\n    function updatePaused(bool _paused) public onlyOwner {\n        paused = _paused;\n    }\n\n}\n",
  "sourcePath": "/Users/sarahscott/Desktop/dev/scammer/scammer-contracts/contracts/ScammerController.sol",
  "compiler": {
    "name": "solc",
    "version": "0.5.16+commit.9c3226ce.Emscripten.clang"
  },
  "schemaVersion": "3.3.4",
  "updatedAt": "2021-06-10T06:12:46.240Z",
  "networkType": "ethereum",
  "devdoc": {
    "methods": {
      "isOwner()": {
        "return": "true if `msg.sender` is the owner of the contract."
      },
      "owner()": {
        "return": "the address of the owner."
      },
      "renounceOwnership()": {
        "details": "Allows the current owner to relinquish control of the contract."
      },
      "transferOwnership(address)": {
        "details": "Allows the current owner to transfer control of the contract to a newOwner.",
        "params": {
          "newOwner": "The address to transfer ownership to."
        }
      }
    }
  },
  "userdoc": {
    "methods": {
      "renounceOwnership()": {
        "notice": "Renouncing to ownership will leave the contract without an owner. It will not be possible to call the functions with the `onlyOwner` modifier anymore."
      }
    }
  }
}