{
  "contractName": "ScammerController",
  "abi": [
    {
      "inputs": [
        {
          "internalType": "contract Scammer",
          "name": "_scammer",
          "type": "address"
        },
        {
          "internalType": "address payable",
          "name": "_adminWallet",
          "type": "address"
        },
        {
          "internalType": "address payable",
          "name": "_artistWallet",
          "type": "address"
        },
        {
          "internalType": "address[]",
          "name": "voucherRecipients",
          "type": "address[]"
        }
      ],
      "payable": false,
      "stateMutability": "nonpayable",
      "type": "constructor"
    },
    {
      "anonymous": false,
      "inputs": [
        {
          "indexed": true,
          "internalType": "address",
          "name": "previousOwner",
          "type": "address"
        },
        {
          "indexed": true,
          "internalType": "address",
          "name": "newOwner",
          "type": "address"
        }
      ],
      "name": "OwnershipTransferred",
      "type": "event"
    },
    {
      "anonymous": false,
      "inputs": [
        {
          "indexed": false,
          "internalType": "uint256",
          "name": "collectionId",
          "type": "uint256"
        },
        {
          "indexed": false,
          "internalType": "uint256",
          "name": "editionId",
          "type": "uint256"
        },
        {
          "indexed": false,
          "internalType": "uint256",
          "name": "tokenId",
          "type": "uint256"
        },
        {
          "indexed": false,
          "internalType": "address",
          "name": "recipient",
          "type": "address"
        },
        {
          "indexed": false,
          "internalType": "uint256",
          "name": "paid",
          "type": "uint256"
        },
        {
          "indexed": false,
          "internalType": "uint256",
          "name": "artistReceived",
          "type": "uint256"
        },
        {
          "indexed": false,
          "internalType": "uint256",
          "name": "adminReceived",
          "type": "uint256"
        }
      ],
      "name": "editionBought",
      "type": "event"
    },
    {
      "anonymous": false,
      "inputs": [
        {
          "indexed": false,
          "internalType": "uint256",
          "name": "collectionId",
          "type": "uint256"
        },
        {
          "indexed": false,
          "internalType": "uint256",
          "name": "editions",
          "type": "uint256"
        },
        {
          "indexed": false,
          "internalType": "uint256",
          "name": "price",
          "type": "uint256"
        },
        {
          "indexed": false,
          "internalType": "bool",
          "name": "paused",
          "type": "bool"
        }
      ],
      "name": "newCollection",
      "type": "event"
    },
    {
      "anonymous": false,
      "inputs": [
        {
          "indexed": false,
          "internalType": "uint256",
          "name": "collectionId",
          "type": "uint256"
        },
        {
          "indexed": false,
          "internalType": "uint256",
          "name": "editions",
          "type": "uint256"
        },
        {
          "indexed": false,
          "internalType": "uint256",
          "name": "price",
          "type": "uint256"
        },
        {
          "indexed": false,
          "internalType": "bool",
          "name": "paused",
          "type": "bool"
        }
      ],
      "name": "updatedCollection",
      "type": "event"
    },
    {
      "constant": true,
      "inputs": [],
      "name": "adminSplit",
      "outputs": [
        {
          "internalType": "uint256",
          "name": "",
          "type": "uint256"
        }
      ],
      "payable": false,
      "stateMutability": "view",
      "type": "function"
    },
    {
      "constant": true,
      "inputs": [],
      "name": "adminWallet",
      "outputs": [
        {
          "internalType": "address payable",
          "name": "",
          "type": "address"
        }
      ],
      "payable": false,
      "stateMutability": "view",
      "type": "function"
    },
    {
      "constant": true,
      "inputs": [],
      "name": "artistWallet",
      "outputs": [
        {
          "internalType": "address payable",
          "name": "",
          "type": "address"
        }
      ],
      "payable": false,
      "stateMutability": "view",
      "type": "function"
    },
    {
      "constant": true,
      "inputs": [
        {
          "internalType": "uint256",
          "name": "",
          "type": "uint256"
        }
      ],
      "name": "collections",
      "outputs": [
        {
          "internalType": "bool",
          "name": "exists",
          "type": "bool"
        },
        {
          "internalType": "bool",
          "name": "paused",
          "type": "bool"
        },
        {
          "internalType": "uint256",
          "name": "editions",
          "type": "uint256"
        },
        {
          "internalType": "uint256",
          "name": "minted",
          "type": "uint256"
        },
        {
          "internalType": "uint256",
          "name": "price",
          "type": "uint256"
        }
      ],
      "payable": false,
      "stateMutability": "view",
      "type": "function"
    },
    {
      "constant": true,
      "inputs": [],
      "name": "isOwner",
      "outputs": [
        {
          "internalType": "bool",
          "name": "",
          "type": "bool"
        }
      ],
      "payable": false,
      "stateMutability": "view",
      "type": "function"
    },
    {
      "constant": true,
      "inputs": [],
      "name": "latestCollectionId",
      "outputs": [
        {
          "internalType": "uint256",
          "name": "",
          "type": "uint256"
        }
      ],
      "payable": false,
      "stateMutability": "view",
      "type": "function"
    },
    {
      "constant": true,
      "inputs": [],
      "name": "owner",
      "outputs": [
        {
          "internalType": "address",
          "name": "",
          "type": "address"
        }
      ],
      "payable": false,
      "stateMutability": "view",
      "type": "function"
    },
    {
      "constant": true,
      "inputs": [],
      "name": "paused",
      "outputs": [
        {
          "internalType": "bool",
          "name": "",
          "type": "bool"
        }
      ],
      "payable": false,
      "stateMutability": "view",
      "type": "function"
    },
    {
      "constant": false,
      "inputs": [],
      "name": "renounceOwnership",
      "outputs": [],
      "payable": false,
      "stateMutability": "nonpayable",
      "type": "function"
    },
    {
      "constant": true,
      "inputs": [],
      "name": "scammer",
      "outputs": [
        {
          "internalType": "contract Scammer",
          "name": "",
          "type": "address"
        }
      ],
      "payable": false,
      "stateMutability": "view",
      "type": "function"
    },
    {
      "constant": false,
      "inputs": [
        {
          "internalType": "address",
          "name": "newOwner",
          "type": "address"
        }
      ],
      "name": "transferOwnership",
      "outputs": [],
      "payable": false,
      "stateMutability": "nonpayable",
      "type": "function"
    },
    {
      "constant": false,
      "inputs": [
        {
          "internalType": "uint256",
          "name": "editions",
          "type": "uint256"
        },
        {
          "internalType": "uint256",
          "name": "price",
          "type": "uint256"
        },
        {
          "internalType": "bool",
          "name": "_paused",
          "type": "bool"
        }
      ],
      "name": "addCollection",
      "outputs": [],
      "payable": false,
      "stateMutability": "nonpayable",
      "type": "function"
    },
    {
      "constant": false,
      "inputs": [
        {
          "internalType": "uint256",
          "name": "collectionId",
          "type": "uint256"
        },
        {
          "internalType": "bool",
          "name": "_paused",
          "type": "bool"
        }
      ],
      "name": "updateCollectionPaused",
      "outputs": [],
      "payable": false,
      "stateMutability": "nonpayable",
      "type": "function"
    },
    {
      "constant": false,
      "inputs": [
        {
          "internalType": "uint256",
          "name": "collectionId",
          "type": "uint256"
        },
        {
          "internalType": "uint256",
          "name": "_editions",
          "type": "uint256"
        }
      ],
      "name": "updateCollectionEditions",
      "outputs": [],
      "payable": false,
      "stateMutability": "nonpayable",
      "type": "function"
    },
    {
      "constant": false,
      "inputs": [
        {
          "internalType": "uint256",
          "name": "collectionId",
          "type": "uint256"
        },
        {
          "internalType": "uint256",
          "name": "_price",
          "type": "uint256"
        }
      ],
      "name": "updateCollectionPrice",
      "outputs": [],
      "payable": false,
      "stateMutability": "nonpayable",
      "type": "function"
    },
    {
      "constant": false,
      "inputs": [
        {
          "internalType": "address",
          "name": "recipient",
          "type": "address"
        },
        {
          "internalType": "uint256",
          "name": "tokenId",
          "type": "uint256"
        }
      ],
      "name": "redeem",
      "outputs": [
        {
          "internalType": "bool",
          "name": "",
          "type": "bool"
        }
      ],
      "payable": false,
      "stateMutability": "nonpayable",
      "type": "function"
    },
    {
      "constant": false,
      "inputs": [
        {
          "internalType": "address",
          "name": "recipient",
          "type": "address"
        },
        {
          "internalType": "uint256",
          "name": "tokenId",
          "type": "uint256"
        }
      ],
      "name": "buy",
      "outputs": [
        {
          "internalType": "bool",
          "name": "",
          "type": "bool"
        }
      ],
      "payable": true,
      "stateMutability": "payable",
      "type": "function"
    },
    {
      "constant": false,
      "inputs": [
        {
          "internalType": "address",
          "name": "recipient",
          "type": "address"
        }
      ],
      "name": "mintVoucher",
      "outputs": [],
      "payable": false,
      "stateMutability": "nonpayable",
      "type": "function"
    },
    {
      "constant": false,
      "inputs": [
        {
          "internalType": "address",
          "name": "recipient",
          "type": "address"
        }
      ],
      "name": "burnVoucher",
      "outputs": [],
      "payable": false,
      "stateMutability": "nonpayable",
      "type": "function"
    },
    {
      "constant": true,
      "inputs": [
        {
          "internalType": "address",
          "name": "recipient",
          "type": "address"
        }
      ],
      "name": "hasVoucher",
      "outputs": [
        {
          "internalType": "bool",
          "name": "",
          "type": "bool"
        }
      ],
      "payable": false,
      "stateMutability": "view",
      "type": "function"
    },
    {
      "constant": false,
      "inputs": [
        {
          "internalType": "uint256",
          "name": "_adminSplit",
          "type": "uint256"
        }
      ],
      "name": "updateAdminSplit",
      "outputs": [],
      "payable": false,
      "stateMutability": "nonpayable",
      "type": "function"
    },
    {
      "constant": false,
      "inputs": [
        {
          "internalType": "address payable",
          "name": "_adminWallet",
          "type": "address"
        }
      ],
      "name": "updateAdminWallet",
      "outputs": [],
      "payable": false,
      "stateMutability": "nonpayable",
      "type": "function"
    },
    {
      "constant": false,
      "inputs": [
        {
          "internalType": "address payable",
          "name": "_artistWallet",
          "type": "address"
        }
      ],
      "name": "updateArtistWallet",
      "outputs": [],
      "payable": false,
      "stateMutability": "nonpayable",
      "type": "function"
    },
    {
      "constant": false,
      "inputs": [
        {
          "internalType": "bool",
          "name": "_paused",
          "type": "bool"
        }
      ],
      "name": "updatePaused",
      "outputs": [],
      "payable": false,
      "stateMutability": "nonpayable",
      "type": "function"
    }
  ],
  "bytecode": "0x6080604052600f6004553480156200001657600080fd5b50604051620022c8380380620022c8833981810160405260808110156200003c57600080fd5b81019080805190602001909291908051906020019092919080519060200190929190805160405193929190846401000000008211156200007b57600080fd5b838201915060208201858111156200009257600080fd5b8251866020820283011164010000000082111715620000b057600080fd5b8083526020830192505050908051906020019060200280838360005b83811015620000e9578082015181840152602081019050620000cc565b50505050905001604052505050336000806101000a81548173ffffffffffffffffffffffffffffffffffffffff021916908373ffffffffffffffffffffffffffffffffffffffff1602179055506000809054906101000a900473ffffffffffffffffffffffffffffffffffffffff1673ffffffffffffffffffffffffffffffffffffffff16600073ffffffffffffffffffffffffffffffffffffffff167f8be0079c531659141344cd1fd0a4f28419497f9722a3daafe3b4186f6b6457e060405160405180910390a383600760006101000a81548173ffffffffffffffffffffffffffffffffffffffff021916908373ffffffffffffffffffffffffffffffffffffffff16021790555082600560006101000a81548173ffffffffffffffffffffffffffffffffffffffff021916908373ffffffffffffffffffffffffffffffffffffffff16021790555081600660006101000a81548173ffffffffffffffffffffffffffffffffffffffff021916908373ffffffffffffffffffffffffffffffffffffffff16021790555060008090505b81518110156200035e576000620002f56001600260008686815181106200029e57fe5b602002602001015173ffffffffffffffffffffffffffffffffffffffff1673ffffffffffffffffffffffffffffffffffffffff168152602001908152602001600020546200036960201b62001da91790919060201c565b905080600260008585815181106200030957fe5b602002602001015173ffffffffffffffffffffffffffffffffffffffff1673ffffffffffffffffffffffffffffffffffffffff168152602001908152602001600020819055505080806001019150506200027b565b505050505062000389565b6000808284019050838110156200037f57600080fd5b8091505092915050565b611f2f80620003996000396000f3fe60806040526004361061014b5760003560e01c806381de5aef116100b6578063c7c9c15f1161006f578063c7c9c15f14610670578063cce7ec13146106b5578063d792440b1461071b578063df01e4bf14610746578063f2fde38b14610797578063fdbda0ec146107e85761014b565b806381de5aef146104ba5780638da5cb5b146104ff5780638f32d59b14610556578063a3342fba14610585578063aa2b2515146105dc578063c3cc385c146106075761014b565b8063479f087611610108578063479f0876146103465780634cd31e73146103975780635c975abb146103d25780635eec08701461040157806366b05b0114610452578063715018a6146104a35761014b565b8063066cae331461015057806308cdc2a8146101a75780631b691ba6146101e45780631e9a69501461022b57806330d5f0fc1461029e57806336b19cd7146102ef575b600080fd5b34801561015c57600080fd5b5061016561085b565b604051808273ffffffffffffffffffffffffffffffffffffffff1673ffffffffffffffffffffffffffffffffffffffff16815260200191505060405180910390f35b3480156101b357600080fd5b506101e2600480360360208110156101ca57600080fd5b81019080803515159060200190929190505050610881565b005b3480156101f057600080fd5b506102296004803603604081101561020757600080fd5b81019080803590602001909291908035151590602001909291905050506108af565b005b34801561023757600080fd5b506102846004803603604081101561024e57600080fd5b81019080803573ffffffffffffffffffffffffffffffffffffffff16906020019092919080359060200190929190505050610a2a565b604051808215151515815260200191505060405180910390f35b3480156102aa57600080fd5b506102ed600480360360208110156102c157600080fd5b81019080803573ffffffffffffffffffffffffffffffffffffffff169060200190929190505050610eb3565b005b3480156102fb57600080fd5b50610304610f63565b604051808273ffffffffffffffffffffffffffffffffffffffff1673ffffffffffffffffffffffffffffffffffffffff16815260200191505060405180910390f35b34801561035257600080fd5b506103956004803603602081101561036957600080fd5b81019080803573ffffffffffffffffffffffffffffffffffffffff169060200190929190505050610f89565b005b3480156103a357600080fd5b506103d0600480360360208110156103ba57600080fd5b8101908080359060200190929190505050610fe2565b005b3480156103de57600080fd5b506103e7611074565b604051808215151515815260200191505060405180910390f35b34801561040d57600080fd5b506104506004803603602081101561042457600080fd5b81019080803573ffffffffffffffffffffffffffffffffffffffff169060200190929190505050611087565b005b34801561045e57600080fd5b506104a16004803603606081101561047557600080fd5b8101908080359060200190929190803590602001909291908035151590602001909291905050506110dc565b005b3480156104af57600080fd5b506104b861126a565b005b3480156104c657600080fd5b506104fd600480360360408110156104dd57600080fd5b81019080803590602001909291908035906020019092919050505061133a565b005b34801561050b57600080fd5b5061051461152d565b604051808273ffffffffffffffffffffffffffffffffffffffff1673ffffffffffffffffffffffffffffffffffffffff16815260200191505060405180910390f35b34801561056257600080fd5b5061056b611556565b604051808215151515815260200191505060405180910390f35b34801561059157600080fd5b5061059a6115ad565b604051808273ffffffffffffffffffffffffffffffffffffffff1673ffffffffffffffffffffffffffffffffffffffff16815260200191505060405180910390f35b3480156105e857600080fd5b506105f16115d3565b6040518082815260200191505060405180910390f35b34801561061357600080fd5b506106566004803603602081101561062a57600080fd5b81019080803573ffffffffffffffffffffffffffffffffffffffff1690602001909291905050506115d9565b604051808215151515815260200191505060405180910390f35b34801561067c57600080fd5b506106b36004803603604081101561069357600080fd5b810190808035906020019092919080359060200190929190505050611624565b005b610701600480360360408110156106cb57600080fd5b81019080803573ffffffffffffffffffffffffffffffffffffffff1690602001909291908035906020019092919050505061178c565b604051808215151515815260200191505060405180910390f35b34801561072757600080fd5b50610730611c7a565b6040518082815260200191505060405180910390f35b34801561075257600080fd5b506107956004803603602081101561076957600080fd5b81019080803573ffffffffffffffffffffffffffffffffffffffff169060200190929190505050611c80565b005b3480156107a357600080fd5b506107e6600480360360208110156107ba57600080fd5b81019080803573ffffffffffffffffffffffffffffffffffffffff169060200190929190505050611cd5565b005b3480156107f457600080fd5b506108216004803603602081101561080b57600080fd5b8101908080359060200190929190505050611cf2565b6040518086151515158152602001851515151581526020018481526020018381526020018281526020019550505050505060405180910390f35b600760009054906101000a900473ffffffffffffffffffffffffffffffffffffffff1681565b610889611556565b61089257600080fd5b80600660146101000a81548160ff02191690831515021790555050565b6108b7611556565b6108c057600080fd5b6003600083815260200190815260200160002060000160009054906101000a900460ff16610956576040517f08c379a00000000000000000000000000000000000000000000000000000000081526004018080602001828103825260198152602001807f434f4c4c454354494f4e5f444f45535f4e4f545f45584953540000000000000081525060200191505060405180910390fd5b806003600084815260200190815260200160002060000160016101000a81548160ff0219169083151502179055507f93e3e9f8e5669f39b953ea0d762b2bb5d0010b9b0f0094862e2326ff0a4ade3282600360008581526020019081526020016000206001015460036000868152602001908152602001600020600301546003600087815260200190815260200160002060000160019054906101000a900460ff16604051808581526020018481526020018381526020018215151515815260200194505050505060405180910390a15050565b6000600660149054906101000a900460ff1615610aaf576040517f08c379a00000000000000000000000000000000000000000000000000000000081526004018080602001828103825260128152602001807f4d757374206e6f7420626520706175736564000000000000000000000000000081525060200191505060405180910390fd5b6000610ac7620f424084611d4290919063ffffffff16565b90506000610ae1620f424085611d6890919063ffffffff16565b90506003600083815260200190815260200160002060000160009054906101000a900460ff16610b79576040517f08c379a00000000000000000000000000000000000000000000000000000000081526004018080602001828103825260198152602001807f434f4c4c454354494f4e5f444f45535f4e4f545f45584953540000000000000081525060200191505060405180910390fd5b60036000838152602001908152602001600020600101548111610c04576040517f08c379a00000000000000000000000000000000000000000000000000000000081526004018080602001828103825260108152602001807f494e56414c49445f544f4b454e5f49440000000000000000000000000000000081525060200191505060405180910390fd5b6000600260003373ffffffffffffffffffffffffffffffffffffffff1673ffffffffffffffffffffffffffffffffffffffff1681526020019081526020016000205411610cb9576040517f08c379a00000000000000000000000000000000000000000000000000000000081526004018080602001828103825260148152602001807f555345525f4841535f4e4f5f564f55434845525300000000000000000000000081525060200191505060405180910390fd5b600760009054906101000a900473ffffffffffffffffffffffffffffffffffffffff1673ffffffffffffffffffffffffffffffffffffffff166340c10f1986866040518363ffffffff1660e01b8152600401808373ffffffffffffffffffffffffffffffffffffffff1673ffffffffffffffffffffffffffffffffffffffff16815260200182815260200192505050600060405180830381600087803b158015610d6257600080fd5b505af1158015610d76573d6000803e3d6000fd5b505050506000610dcf6001600260008973ffffffffffffffffffffffffffffffffffffffff1673ffffffffffffffffffffffffffffffffffffffff16815260200190815260200160002054611d8990919063ffffffff16565b905080600260008873ffffffffffffffffffffffffffffffffffffffff1673ffffffffffffffffffffffffffffffffffffffff168152602001908152602001600020819055507f98d41ea2d99604d19bd920bfa2fde9f14a004bb5f3bbacf3706fc23dd386f499838387896000806000604051808881526020018781526020018681526020018573ffffffffffffffffffffffffffffffffffffffff1673ffffffffffffffffffffffffffffffffffffffff16815260200184815260200183815260200182815260200197505050505050505060405180910390a150505092915050565b610ebb611556565b610ec457600080fd5b6000610f196001600260008573ffffffffffffffffffffffffffffffffffffffff1673ffffffffffffffffffffffffffffffffffffffff16815260200190815260200160002054611da990919063ffffffff16565b905080600260008473ffffffffffffffffffffffffffffffffffffffff1673ffffffffffffffffffffffffffffffffffffffff168152602001908152602001600020819055505050565b600560009054906101000a900473ffffffffffffffffffffffffffffffffffffffff1681565b610f91611556565b610f9a57600080fd5b6000600260008373ffffffffffffffffffffffffffffffffffffffff1673ffffffffffffffffffffffffffffffffffffffff1681526020019081526020016000208190555050565b610fea611556565b610ff357600080fd5b606481111561106a576040517f08c379a00000000000000000000000000000000000000000000000000000000081526004018080602001828103825260158152602001807f53504c49545f4d5553545f42455f4c54455f313030000000000000000000000081525060200191505060405180910390fd5b8060048190555050565b600660149054906101000a900460ff1681565b61108f611556565b61109857600080fd5b80600560006101000a81548173ffffffffffffffffffffffffffffffffffffffff021916908373ffffffffffffffffffffffffffffffffffffffff16021790555050565b6110e4611556565b6110ed57600080fd5b620f42408310611165576040517f08c379a00000000000000000000000000000000000000000000000000000000081526004018080602001828103825260158152602001807f4d41585f45444954494f4e535f4558434545444544000000000000000000000081525060200191505060405180910390fd5b60018060008282540192505081905550600160036000600154815260200190815260200160002060000160006101000a81548160ff021916908315150217905550826003600060015481526020019081526020016000206001018190555081600360006001548152602001908152602001600020600301819055508060036000600154815260200190815260200160002060000160016101000a81548160ff0219169083151502179055507fa869b76d568f6db8e218beac3d34119cfaa17030d9206a0697fabc12769ae4bc600154848484604051808581526020018481526020018381526020018215151515815260200194505050505060405180910390a1505050565b611272611556565b61127b57600080fd5b600073ffffffffffffffffffffffffffffffffffffffff166000809054906101000a900473ffffffffffffffffffffffffffffffffffffffff1673ffffffffffffffffffffffffffffffffffffffff167f8be0079c531659141344cd1fd0a4f28419497f9722a3daafe3b4186f6b6457e060405160405180910390a360008060006101000a81548173ffffffffffffffffffffffffffffffffffffffff021916908373ffffffffffffffffffffffffffffffffffffffff160217905550565b611342611556565b61134b57600080fd5b6003600083815260200190815260200160002060000160009054906101000a900460ff166113e1576040517f08c379a00000000000000000000000000000000000000000000000000000000081526004018080602001828103825260198152602001807f434f4c4c454354494f4e5f444f45535f4e4f545f45584953540000000000000081525060200191505060405180910390fd5b8060036000848152602001908152602001600020600101541061146c576040517f08c379a00000000000000000000000000000000000000000000000000000000081526004018080602001828103825260168152602001807f45444954494f4e535f4d5553545f494e4352454153450000000000000000000081525060200191505060405180910390fd5b8060036000848152602001908152602001600020600101819055507f93e3e9f8e5669f39b953ea0d762b2bb5d0010b9b0f0094862e2326ff0a4ade3282600360008581526020019081526020016000206001015460036000868152602001908152602001600020600301546003600087815260200190815260200160002060000160019054906101000a900460ff16604051808581526020018481526020018381526020018215151515815260200194505050505060405180910390a15050565b60008060009054906101000a900473ffffffffffffffffffffffffffffffffffffffff16905090565b60008060009054906101000a900473ffffffffffffffffffffffffffffffffffffffff1673ffffffffffffffffffffffffffffffffffffffff163373ffffffffffffffffffffffffffffffffffffffff1614905090565b600660009054906101000a900473ffffffffffffffffffffffffffffffffffffffff1681565b60015481565b600080600260008473ffffffffffffffffffffffffffffffffffffffff1673ffffffffffffffffffffffffffffffffffffffff16815260200190815260200160002054119050919050565b61162c611556565b61163557600080fd5b6003600083815260200190815260200160002060000160009054906101000a900460ff166116cb576040517f08c379a00000000000000000000000000000000000000000000000000000000081526004018080602001828103825260198152602001807f434f4c4c454354494f4e5f444f45535f4e4f545f45584953540000000000000081525060200191505060405180910390fd5b8060036000848152602001908152602001600020600301819055507f93e3e9f8e5669f39b953ea0d762b2bb5d0010b9b0f0094862e2326ff0a4ade3282600360008581526020019081526020016000206001015460036000868152602001908152602001600020600301546003600087815260200190815260200160002060000160019054906101000a900460ff16604051808581526020018481526020018381526020018215151515815260200194505050505060405180910390a15050565b6000600660149054906101000a900460ff1615611811576040517f08c379a00000000000000000000000000000000000000000000000000000000081526004018080602001828103825260128152602001807f4d757374206e6f7420626520706175736564000000000000000000000000000081525060200191505060405180910390fd5b6000611829620f424084611d4290919063ffffffff16565b90506000611843620f424085611d6890919063ffffffff16565b90506003600083815260200190815260200160002060000160009054906101000a900460ff166118db576040517f08c379a00000000000000000000000000000000000000000000000000000000081526004018080602001828103825260198152602001807f434f4c4c454354494f4e5f444f45535f4e4f545f45584953540000000000000081525060200191505060405180910390fd5b60036000838152602001908152602001600020600101548111611966576040517f08c379a00000000000000000000000000000000000000000000000000000000081526004018080602001828103825260108152602001807f494e56414c49445f544f4b454e5f49440000000000000000000000000000000081525060200191505060405180910390fd5b600360008381526020019081526020016000206003015434146119f1576040517f08c379a00000000000000000000000000000000000000000000000000000000081526004018080602001828103825260128152602001807f4449445f4e4f545f53454e445f5052494345000000000000000000000000000081525060200191505060405180910390fd5b600760009054906101000a900473ffffffffffffffffffffffffffffffffffffffff1673ffffffffffffffffffffffffffffffffffffffff166340c10f1986866040518363ffffffff1660e01b8152600401808373ffffffffffffffffffffffffffffffffffffffff1673ffffffffffffffffffffffffffffffffffffffff16815260200182815260200192505050600060405180830381600087803b158015611a9a57600080fd5b505af1158015611aae573d6000803e3d6000fd5b505050506000611adc6064611ace60045434611dc890919063ffffffff16565b611d4290919063ffffffff16565b90506000611af38234611d8990919063ffffffff16565b9050600560009054906101000a900473ffffffffffffffffffffffffffffffffffffffff1673ffffffffffffffffffffffffffffffffffffffff166108fc839081150290604051600060405180830381858888f19350505050158015611b5d573d6000803e3d6000fd5b50600660009054906101000a900473ffffffffffffffffffffffffffffffffffffffff1673ffffffffffffffffffffffffffffffffffffffff166108fc829081150290604051600060405180830381858888f19350505050158015611bc6573d6000803e3d6000fd5b507f98d41ea2d99604d19bd920bfa2fde9f14a004bb5f3bbacf3706fc23dd386f4998484888a600360008a8152602001908152602001600020600301548688604051808881526020018781526020018681526020018573ffffffffffffffffffffffffffffffffffffffff1673ffffffffffffffffffffffffffffffffffffffff16815260200184815260200183815260200182815260200197505050505050505060405180910390a15050505092915050565b60045481565b611c88611556565b611c9157600080fd5b80600660006101000a81548173ffffffffffffffffffffffffffffffffffffffff021916908373ffffffffffffffffffffffffffffffffffffffff16021790555050565b611cdd611556565b611ce657600080fd5b611cef81611e02565b50565b60036020528060005260406000206000915090508060000160009054906101000a900460ff16908060000160019054906101000a900460ff16908060010154908060020154908060030154905085565b6000808211611d5057600080fd5b6000828481611d5b57fe5b0490508091505092915050565b600080821415611d7757600080fd5b818381611d8057fe5b06905092915050565b600082821115611d9857600080fd5b600082840390508091505092915050565b600080828401905083811015611dbe57600080fd5b8091505092915050565b600080831415611ddb5760009050611dfc565b6000828402905082848281611dec57fe5b0414611df757600080fd5b809150505b92915050565b600073ffffffffffffffffffffffffffffffffffffffff168173ffffffffffffffffffffffffffffffffffffffff161415611e3c57600080fd5b8073ffffffffffffffffffffffffffffffffffffffff166000809054906101000a900473ffffffffffffffffffffffffffffffffffffffff1673ffffffffffffffffffffffffffffffffffffffff167f8be0079c531659141344cd1fd0a4f28419497f9722a3daafe3b4186f6b6457e060405160405180910390a3806000806101000a81548173ffffffffffffffffffffffffffffffffffffffff021916908373ffffffffffffffffffffffffffffffffffffffff1602179055505056fea265627a7a7231582098acd4db15e8be4803a22592f4db371bb54d6580ef50492990437e5f4112271964736f6c63430005100032",
  "source": "pragma solidity ^0.5.0;\n\n/**\n * The ScammerController is an upgradeable endpoint for controlling Scammer.sol\n */\n\nimport \"./Scammer.sol\";\nimport \"openzeppelin-solidity/contracts/math/SafeMath.sol\";\nimport \"openzeppelin-solidity/contracts/ownership/Ownable.sol\";\n\ncontract ScammerController is Ownable {\n\n    event newCollection(uint256 collectionId, uint256 editions, uint256 price, bool paused);\n    event updatedCollection(uint256 collectionId, uint256 editions, uint256 price, bool paused);\n    event editionBought(uint256 collectionId, uint256 editionId, uint256 tokenId, address recipient, uint256 paid, uint256 artistReceived, uint256 adminReceived);\n\n    using SafeMath for uint256;\n\n    uint256 constant MAX_EDITIONS = 1000000;\n    uint256 public latestCollectionId;\n\n    mapping (address => uint) vouchers;\n    mapping (uint256 => Collection) public collections;\n\n    struct Collection {\n        bool exists;\n        bool paused;\n        uint256 editions;\n        uint256 minted;\n        uint256 price;\n    }\n\n    uint256 public adminSplit = 15;\n\n    address payable public adminWallet;\n    address payable public artistWallet;\n    bool public paused;\n    Scammer public scammer;\n\n    modifier notPaused() {\n        require(!paused, \"Must not be paused\");\n        _;\n    }\n\n    constructor(\n        Scammer _scammer,\n        address payable _adminWallet,\n        address payable _artistWallet,\n        address[] memory voucherRecipients\n    ) public {\n        scammer = _scammer;\n        adminWallet = _adminWallet;\n        artistWallet = _artistWallet;\n\n        for (uint i = 0; i < voucherRecipients.length; i++) {\n            uint numVouchers = vouchers[voucherRecipients[i]].add(1);\n            vouchers[voucherRecipients[i]] = numVouchers;\n        }\n    }\n\n    function addCollection(uint256 editions, uint256 price, bool _paused) public onlyOwner {\n        require(editions < MAX_EDITIONS, \"MAX_EDITIONS_EXCEEDED\");\n\n        latestCollectionId += 1;\n\n        collections[latestCollectionId].exists = true;\n        collections[latestCollectionId].editions = editions;\n        collections[latestCollectionId].price = price;\n        collections[latestCollectionId].paused = _paused;\n        emit newCollection(latestCollectionId, editions, price, _paused);\n    }\n\n    function updateCollectionPaused(uint256 collectionId, bool _paused) public onlyOwner {\n        require(collections[collectionId].exists, \"COLLECTION_DOES_NOT_EXIST\");\n        collections[collectionId].paused = _paused;\n        emit updatedCollection(collectionId, collections[collectionId].editions, collections[collectionId].price, collections[collectionId].paused);\n    }\n\n    function updateCollectionEditions(uint256 collectionId, uint256 _editions) public onlyOwner {\n        require(collections[collectionId].exists, \"COLLECTION_DOES_NOT_EXIST\");\n        require(collections[collectionId].editions < _editions, \"EDITIONS_MUST_INCREASE\");\n        collections[collectionId].editions = _editions;\n        emit updatedCollection(collectionId, collections[collectionId].editions, collections[collectionId].price, collections[collectionId].paused);\n    }\n\n    function updateCollectionPrice(uint256 collectionId, uint256 _price) public onlyOwner {\n        require(collections[collectionId].exists, \"COLLECTION_DOES_NOT_EXIST\");\n        collections[collectionId].price = _price;\n        emit updatedCollection(collectionId, collections[collectionId].editions, collections[collectionId].price, collections[collectionId].paused);\n    }\n\n    function redeem(address recipient, uint256 tokenId) public notPaused returns (bool) {\n        uint256 collectionId = tokenId.div(MAX_EDITIONS);\n        uint256 editionId = tokenId.mod(MAX_EDITIONS);\n\n        // need to change this so it checks that token exists (collectionId exists, and edition # exists)\n        require(collections[collectionId].exists, \"COLLECTION_DOES_NOT_EXIST\");\n        require(editionId > collections[collectionId].editions, \"INVALID_TOKEN_ID\");\n        require(vouchers[msg.sender] > 0 , \"USER_HAS_NO_VOUCHERS\");\n\n        scammer.mint(recipient, tokenId);\n\n        uint numVouchers = vouchers[recipient].sub(1);\n        vouchers[recipient] = numVouchers;\n        \n        emit editionBought(collectionId, editionId, tokenId, recipient,  0, 0, 0);\n    }\n\n    function buy(address recipient, uint256 tokenId) public payable notPaused returns (bool) {\n        uint256 collectionId = tokenId.div(MAX_EDITIONS);\n        uint256 editionId = tokenId.mod(MAX_EDITIONS);\n\n        // need to change this so it checks that token exists (collectionId exists, and edition # exists)\n        require(collections[collectionId].exists, \"COLLECTION_DOES_NOT_EXIST\");\n        require(editionId > collections[collectionId].editions, \"INVALID_TOKEN_ID\");\n        require(msg.value == collections[collectionId].price , \"DID_NOT_SEND_PRICE\");\n\n        scammer.mint(recipient, tokenId);\n        \n        uint256 adminReceives = msg.value.mul(adminSplit).div(100);\n        uint256 artistReceives = msg.value.sub(adminReceives);\n\n        adminWallet.transfer(adminReceives);\n        artistWallet.transfer(artistReceives);\n\n        emit editionBought(collectionId, editionId, tokenId, recipient,  collections[collectionId].price, artistReceives, adminReceives);\n    }\n\n    function mintVoucher(address recipient) public onlyOwner {\n        uint numVouchers = vouchers[recipient].add(1);\n        vouchers[recipient] = numVouchers;\n    }\n\n    function burnVoucher(address recipient) public onlyOwner {\n        vouchers[recipient] = 0;\n    }\n\n    function hasVoucher(address recipient) external view returns (bool) {\n        return vouchers[recipient] > 0;\n    }\n\n    function updateAdminSplit(uint256 _adminSplit) public onlyOwner {\n        require(_adminSplit <= 100, \"SPLIT_MUST_BE_LTE_100\");\n        adminSplit = _adminSplit;\n    }\n\n    function updateAdminWallet(address payable _adminWallet) public onlyOwner {\n        adminWallet = _adminWallet;\n    }\n\n    function updateArtistWallet(address payable _artistWallet) public onlyOwner {\n        artistWallet = _artistWallet;\n    }\n\n    function updatePaused(bool _paused) public onlyOwner {\n        paused = _paused;\n    }\n\n}\n",
  "sourcePath": "/Users/cory/Code/pan/scammer-contracts/contracts/ScammerController.sol",
  "compiler": {
    "name": "solc",
    "version": "0.5.16+commit.9c3226ce.Emscripten.clang"
  },
  "schemaVersion": "3.3.4",
  "updatedAt": "2021-03-31T01:19:20.311Z",
  "devdoc": {
    "methods": {
      "isOwner()": {
        "return": "true if `msg.sender` is the owner of the contract."
      },
      "owner()": {
        "return": "the address of the owner."
      },
      "renounceOwnership()": {
        "details": "Allows the current owner to relinquish control of the contract."
      },
      "transferOwnership(address)": {
        "details": "Allows the current owner to transfer control of the contract to a newOwner.",
        "params": {
          "newOwner": "The address to transfer ownership to."
        }
      }
    }
  },
  "userdoc": {
    "methods": {
      "renounceOwnership()": {
        "notice": "Renouncing to ownership will leave the contract without an owner. It will not be possible to call the functions with the `onlyOwner` modifier anymore."
      }
    }
  }
}