{
  "contractName": "ShadowController",
  "abi": [
    {
      "constant": true,
      "inputs": [],
      "name": "paused",
      "outputs": [
        {
          "name": "",
          "type": "bool"
        }
      ],
      "payable": false,
      "stateMutability": "view",
      "type": "function"
    },
    {
      "constant": false,
      "inputs": [],
      "name": "renounceOwnership",
      "outputs": [],
      "payable": false,
      "stateMutability": "nonpayable",
      "type": "function"
    },
    {
      "constant": true,
      "inputs": [],
      "name": "owner",
      "outputs": [
        {
          "name": "",
          "type": "address"
        }
      ],
      "payable": false,
      "stateMutability": "view",
      "type": "function"
    },
    {
      "constant": true,
      "inputs": [],
      "name": "isOwner",
      "outputs": [
        {
          "name": "",
          "type": "bool"
        }
      ],
      "payable": false,
      "stateMutability": "view",
      "type": "function"
    },
    {
      "constant": true,
      "inputs": [],
      "name": "luxChildERC20",
      "outputs": [
        {
          "name": "",
          "type": "address"
        }
      ],
      "payable": false,
      "stateMutability": "view",
      "type": "function"
    },
    {
      "constant": true,
      "inputs": [],
      "name": "shadow",
      "outputs": [
        {
          "name": "",
          "type": "address"
        }
      ],
      "payable": false,
      "stateMutability": "view",
      "type": "function"
    },
    {
      "constant": true,
      "inputs": [],
      "name": "shieldChild",
      "outputs": [
        {
          "name": "",
          "type": "address"
        }
      ],
      "payable": false,
      "stateMutability": "view",
      "type": "function"
    },
    {
      "constant": true,
      "inputs": [
        {
          "name": "",
          "type": "uint256"
        }
      ],
      "name": "claimed",
      "outputs": [
        {
          "name": "",
          "type": "bool"
        }
      ],
      "payable": false,
      "stateMutability": "view",
      "type": "function"
    },
    {
      "constant": false,
      "inputs": [
        {
          "name": "newOwner",
          "type": "address"
        }
      ],
      "name": "transferOwnership",
      "outputs": [],
      "payable": false,
      "stateMutability": "nonpayable",
      "type": "function"
    },
    {
      "inputs": [
        {
          "name": "_shadow",
          "type": "address"
        },
        {
          "name": "_shieldChild",
          "type": "address"
        },
        {
          "name": "_luxChildERC20",
          "type": "address"
        }
      ],
      "payable": false,
      "stateMutability": "nonpayable",
      "type": "constructor"
    },
    {
      "anonymous": false,
      "inputs": [
        {
          "indexed": true,
          "name": "previousOwner",
          "type": "address"
        },
        {
          "indexed": true,
          "name": "newOwner",
          "type": "address"
        }
      ],
      "name": "OwnershipTransferred",
      "type": "event"
    },
    {
      "constant": true,
      "inputs": [
        {
          "name": "from",
          "type": "address"
        },
        {
          "name": "to",
          "type": "address"
        },
        {
          "name": "tokenId",
          "type": "uint256"
        }
      ],
      "name": "isLocked",
      "outputs": [
        {
          "name": "",
          "type": "bool"
        }
      ],
      "payable": false,
      "stateMutability": "view",
      "type": "function"
    },
    {
      "constant": false,
      "inputs": [
        {
          "name": "value",
          "type": "uint256"
        }
      ],
      "name": "increaseLock",
      "outputs": [],
      "payable": false,
      "stateMutability": "nonpayable",
      "type": "function"
    },
    {
      "constant": false,
      "inputs": [
        {
          "name": "_paused",
          "type": "bool"
        }
      ],
      "name": "updatePaused",
      "outputs": [],
      "payable": false,
      "stateMutability": "nonpayable",
      "type": "function"
    }
  ],
  "bytecode": "0x608060405234801561001057600080fd5b5060405160608061088e8339810180604052606081101561003057600080fd5b508051602082015160409283015160008054600160a060020a03191633178082559451939492939192600160a060020a0316917f8be0079c531659141344cd1fd0a4f28419497f9722a3daafe3b4186f6b6457e0908290a36001805560028054600160a060020a03948516600160a060020a031991821617909155600380549385169382169390931790925560048054919093169116179055426006556107b2806100dc6000396000f3fe6080604052600436106100b95763ffffffff7c010000000000000000000000000000000000000000000000000000000060003504166308cdc2a881146100be5780631c5a0914146100ec5780632b879782146101165780635c975abb1461017a578063715018a61461018f5780638da5cb5b146101a45780638f32d59b146101e2578063ab4b875a146101f7578063ac600a3c1461020c578063b93985b714610221578063dbe7e3bd14610236578063f2fde38b14610260575b600080fd5b3480156100ca57600080fd5b506100ea600480360360208110156100e157600080fd5b503515156102a0565b005b3480156100f857600080fd5b506100ea6004803603602081101561010f57600080fd5b50356102fd565b34801561012257600080fd5b506101666004803603606081101561013957600080fd5b5073ffffffffffffffffffffffffffffffffffffffff8135811691602081013590911690604001356103d5565b604080519115158252519081900360200190f35b34801561018657600080fd5b506101666104eb565b34801561019b57600080fd5b506100ea61050c565b3480156101b057600080fd5b506101b961058e565b6040805173ffffffffffffffffffffffffffffffffffffffff9092168252519081900360200190f35b3480156101ee57600080fd5b506101666105aa565b34801561020357600080fd5b506101b96105c8565b34801561021857600080fd5b506101b96105e4565b34801561022d57600080fd5b506101b9610600565b34801561024257600080fd5b506101666004803603602081101561025957600080fd5b503561061c565b34801561026c57600080fd5b506100ea6004803603602081101561028357600080fd5b503573ffffffffffffffffffffffffffffffffffffffff1661064e565b6102a86105aa565b15156102b357600080fd5b6004805491151574010000000000000000000000000000000000000000027fffffffffffffffffffffff00ffffffffffffffffffffffffffffffffffffffff909216919091179055565b60048054604080517fda72c1e80000000000000000000000000000000000000000000000000000000081523393810193909352306024840152604483018490525173ffffffffffffffffffffffffffffffffffffffff9091169163da72c1e891606480830192600092919082900301818387803b15801561037d57600080fd5b505af1158015610391573d6000803e3d6000fd5b505050506103cb60186103bf603c6103b3603c8661066d90919063ffffffff16565b9063ffffffff61066d16565b9063ffffffff6106a116565b6007555042600655565b600354604080517f70a0823100000000000000000000000000000000000000000000000000000000815273ffffffffffffffffffffffffffffffffffffffff86811660048301529151600093849316916370a08231916024808301926020929190829003018186803b15801561044a57600080fd5b505afa15801561045e573d6000803e3d6000fd5b505050506040513d602081101561047457600080fd5b505111156104a0575060045474010000000000000000000000000000000000000000900460ff166104e4565b6007546006546104b59163ffffffff6106c516565b4210156104c4575060016104e4565b5060045474010000000000000000000000000000000000000000900460ff165b9392505050565b60045474010000000000000000000000000000000000000000900460ff1681565b6105146105aa565b151561051f57600080fd5b6000805460405173ffffffffffffffffffffffffffffffffffffffff909116907f8be0079c531659141344cd1fd0a4f28419497f9722a3daafe3b4186f6b6457e0908390a3600080547fffffffffffffffffffffffff0000000000000000000000000000000000000000169055565b60005473ffffffffffffffffffffffffffffffffffffffff1690565b60005473ffffffffffffffffffffffffffffffffffffffff16331490565b60045473ffffffffffffffffffffffffffffffffffffffff1681565b60025473ffffffffffffffffffffffffffffffffffffffff1681565b60035473ffffffffffffffffffffffffffffffffffffffff1681565b600580548290811061062a57fe5b9060005260206000209060209182820401919006915054906101000a900460ff1681565b6106566105aa565b151561066157600080fd5b61066a816106d7565b50565b600082151561067e5750600061069b565b82820282848281151561068d57fe5b041461069857600080fd5b90505b92915050565b60008082116106af57600080fd5b600082848115156106bc57fe5b04949350505050565b60008282018381101561069857600080fd5b73ffffffffffffffffffffffffffffffffffffffff811615156106f957600080fd5b6000805460405173ffffffffffffffffffffffffffffffffffffffff808516939216917f8be0079c531659141344cd1fd0a4f28419497f9722a3daafe3b4186f6b6457e091a3600080547fffffffffffffffffffffffff00000000000000000000000000000000000000001673ffffffffffffffffffffffffffffffffffffffff9290921691909117905556fea165627a7a72305820560ad66b6b4cbabf6f25d34eb2d5bcd3d37ae99487e46ab18bc86cf16fa7ae160029",
  "source": "pragma solidity ^0.5.0;\n/**\n * The Controller is an upgradeable endpoint for controlling Folia.sol\n */\n\nimport \"./LuxChildERC20.sol\";\nimport \"./ShieldChild.sol\";\nimport \"./Shadow.sol\";\nimport \"./IShadowController.sol\";\nimport \"./SafeMath.sol\";\nimport \"./Ownable.sol\";\nimport \"./ReentrancyGuard.sol\";\nimport \"./IERC721.sol\";\nimport \"./IERC165.sol\";\n\ncontract ShadowController is Ownable, ReentrancyGuard, IShadowController {\n\n    using SafeMath for uint256;\n    Shadow public shadow;\n    ShieldChild public shieldChild;\n    LuxChildERC20 public luxChildERC20;\n\n    bool public paused;\n    bool[] public claimed;\n    uint256 pauseStart;\n    uint256 luxLocked;\n\n    modifier notPaused() {\n        require(!paused, \"Must not be paused\");\n        _;\n    }\n\n    constructor(\n        Shadow _shadow,\n        ShieldChild _shieldChild,\n        LuxChildERC20 _luxChildERC20\n    ) public {\n        shadow = _shadow;\n        shieldChild = _shieldChild;\n        luxChildERC20 = _luxChildERC20;\n        pauseStart = now;\n    }\n\n    // this function will be replaced by LUX ERC20 logic eventually\n    function isLocked(address from, address to, uint256 tokenId) public view returns (bool) {\n        if (shieldChild.balanceOf(from) > 0) {\n            return paused; // shield owners can override isLocked but can't override \"paused\"\n        }\n        if(now < pauseStart.add(luxLocked)) {\n            return true;\n        }\n        return paused;\n    }\n\n    function increaseLock(uint256 value) public {\n        luxChildERC20.adminTransfer(msg.sender, address(this), value);\n        luxLocked = value.mul(60).mul(60).div(10^18); // convert 18 decimals so that it's back to hours then convert to seconds (do multiplication first to preserve accuracy)\n        pauseStart = now;\n    }\n\n    function updatePaused(bool _paused) public onlyOwner {\n        paused = _paused;\n    }\n}\n",
  "sourcePath": "/Users/billy/GitHub/folia-app/folia-contracts/contracts/ShadowController.sol",
  "compiler": {
    "name": "solc",
    "version": "0.5.0+commit.1d4f565a.Emscripten.clang"
  },
  "schemaVersion": "3.4.3",
  "updatedAt": "2022-09-06T17:31:02.811Z",
  "devdoc": {
    "methods": {
      "isOwner()": {
        "return": "true if `msg.sender` is the owner of the contract."
      },
      "owner()": {
        "return": "the address of the owner."
      },
      "renounceOwnership()": {
        "details": "Allows the current owner to relinquish control of the contract."
      },
      "transferOwnership(address)": {
        "details": "Allows the current owner to transfer control of the contract to a newOwner.",
        "params": {
          "newOwner": "The address to transfer ownership to."
        }
      }
    }
  },
  "userdoc": {
    "methods": {
      "renounceOwnership()": {
        "notice": "Renouncing to ownership will leave the contract without an owner. It will not be possible to call the functions with the `onlyOwner` modifier anymore."
      }
    }
  }
}