{
  "contractName": "Shadow",
  "abi": [
    {
      "constant": true,
      "inputs": [
        {
          "name": "interfaceId",
          "type": "bytes4"
        }
      ],
      "name": "supportsInterface",
      "outputs": [
        {
          "name": "",
          "type": "bool"
        }
      ],
      "payable": false,
      "stateMutability": "view",
      "type": "function"
    },
    {
      "constant": false,
      "inputs": [
        {
          "name": "_to",
          "type": "address"
        },
        {
          "name": "_amount",
          "type": "uint256"
        },
        {
          "name": "_token",
          "type": "address"
        }
      ],
      "name": "moveToken",
      "outputs": [
        {
          "name": "",
          "type": "bool"
        }
      ],
      "payable": false,
      "stateMutability": "nonpayable",
      "type": "function"
    },
    {
      "constant": false,
      "inputs": [
        {
          "name": "_controller",
          "type": "address"
        }
      ],
      "name": "updateController",
      "outputs": [],
      "payable": false,
      "stateMutability": "nonpayable",
      "type": "function"
    },
    {
      "constant": true,
      "inputs": [],
      "name": "name",
      "outputs": [
        {
          "name": "",
          "type": "string"
        }
      ],
      "payable": false,
      "stateMutability": "view",
      "type": "function"
    },
    {
      "constant": true,
      "inputs": [
        {
          "name": "tokenId",
          "type": "uint256"
        }
      ],
      "name": "getApproved",
      "outputs": [
        {
          "name": "",
          "type": "address"
        }
      ],
      "payable": false,
      "stateMutability": "view",
      "type": "function"
    },
    {
      "constant": false,
      "inputs": [
        {
          "name": "to",
          "type": "address"
        },
        {
          "name": "tokenId",
          "type": "uint256"
        }
      ],
      "name": "approve",
      "outputs": [],
      "payable": false,
      "stateMutability": "nonpayable",
      "type": "function"
    },
    {
      "constant": false,
      "inputs": [
        {
          "name": "_admin",
          "type": "address"
        }
      ],
      "name": "removeAdmin",
      "outputs": [],
      "payable": false,
      "stateMutability": "nonpayable",
      "type": "function"
    },
    {
      "constant": true,
      "inputs": [],
      "name": "totalSupply",
      "outputs": [
        {
          "name": "",
          "type": "uint256"
        }
      ],
      "payable": false,
      "stateMutability": "view",
      "type": "function"
    },
    {
      "constant": false,
      "inputs": [
        {
          "name": "_to",
          "type": "address"
        },
        {
          "name": "_amount",
          "type": "uint256"
        }
      ],
      "name": "moveEth",
      "outputs": [],
      "payable": false,
      "stateMutability": "nonpayable",
      "type": "function"
    },
    {
      "constant": true,
      "inputs": [
        {
          "name": "",
          "type": "uint256"
        },
        {
          "name": "value",
          "type": "uint256"
        }
      ],
      "name": "royaltyInfo",
      "outputs": [
        {
          "name": "receiver",
          "type": "address"
        },
        {
          "name": "royaltyAmount",
          "type": "uint256"
        }
      ],
      "payable": false,
      "stateMutability": "view",
      "type": "function"
    },
    {
      "constant": true,
      "inputs": [
        {
          "name": "owner",
          "type": "address"
        },
        {
          "name": "index",
          "type": "uint256"
        }
      ],
      "name": "tokenOfOwnerByIndex",
      "outputs": [
        {
          "name": "",
          "type": "uint256"
        }
      ],
      "payable": false,
      "stateMutability": "view",
      "type": "function"
    },
    {
      "constant": true,
      "inputs": [],
      "name": "metadata",
      "outputs": [
        {
          "name": "",
          "type": "address"
        }
      ],
      "payable": false,
      "stateMutability": "view",
      "type": "function"
    },
    {
      "constant": false,
      "inputs": [
        {
          "name": "recipient",
          "type": "address"
        },
        {
          "name": "tokenId",
          "type": "uint256"
        }
      ],
      "name": "mint",
      "outputs": [],
      "payable": false,
      "stateMutability": "nonpayable",
      "type": "function"
    },
    {
      "constant": false,
      "inputs": [
        {
          "name": "from",
          "type": "address"
        },
        {
          "name": "to",
          "type": "address"
        },
        {
          "name": "tokenId",
          "type": "uint256"
        }
      ],
      "name": "safeTransferFrom",
      "outputs": [],
      "payable": false,
      "stateMutability": "nonpayable",
      "type": "function"
    },
    {
      "constant": false,
      "inputs": [
        {
          "name": "tokenId",
          "type": "uint256"
        }
      ],
      "name": "burn",
      "outputs": [],
      "payable": false,
      "stateMutability": "nonpayable",
      "type": "function"
    },
    {
      "constant": true,
      "inputs": [
        {
          "name": "index",
          "type": "uint256"
        }
      ],
      "name": "tokenByIndex",
      "outputs": [
        {
          "name": "",
          "type": "uint256"
        }
      ],
      "payable": false,
      "stateMutability": "view",
      "type": "function"
    },
    {
      "constant": true,
      "inputs": [
        {
          "name": "tokenId",
          "type": "uint256"
        }
      ],
      "name": "ownerOf",
      "outputs": [
        {
          "name": "",
          "type": "address"
        }
      ],
      "payable": false,
      "stateMutability": "view",
      "type": "function"
    },
    {
      "constant": false,
      "inputs": [
        {
          "name": "_admin",
          "type": "address"
        }
      ],
      "name": "addAdmin",
      "outputs": [],
      "payable": false,
      "stateMutability": "nonpayable",
      "type": "function"
    },
    {
      "constant": true,
      "inputs": [
        {
          "name": "owner",
          "type": "address"
        }
      ],
      "name": "balanceOf",
      "outputs": [
        {
          "name": "",
          "type": "uint256"
        }
      ],
      "payable": false,
      "stateMutability": "view",
      "type": "function"
    },
    {
      "constant": false,
      "inputs": [],
      "name": "renounceOwnership",
      "outputs": [],
      "payable": false,
      "stateMutability": "nonpayable",
      "type": "function"
    },
    {
      "constant": true,
      "inputs": [],
      "name": "owner",
      "outputs": [
        {
          "name": "",
          "type": "address"
        }
      ],
      "payable": false,
      "stateMutability": "view",
      "type": "function"
    },
    {
      "constant": true,
      "inputs": [],
      "name": "isOwner",
      "outputs": [
        {
          "name": "",
          "type": "bool"
        }
      ],
      "payable": false,
      "stateMutability": "view",
      "type": "function"
    },
    {
      "constant": true,
      "inputs": [],
      "name": "symbol",
      "outputs": [
        {
          "name": "",
          "type": "string"
        }
      ],
      "payable": false,
      "stateMutability": "view",
      "type": "function"
    },
    {
      "constant": false,
      "inputs": [
        {
          "name": "to",
          "type": "address"
        },
        {
          "name": "approved",
          "type": "bool"
        }
      ],
      "name": "setApprovalForAll",
      "outputs": [],
      "payable": false,
      "stateMutability": "nonpayable",
      "type": "function"
    },
    {
      "constant": false,
      "inputs": [
        {
          "name": "from",
          "type": "address"
        },
        {
          "name": "to",
          "type": "address"
        },
        {
          "name": "tokenId",
          "type": "uint256"
        },
        {
          "name": "_data",
          "type": "bytes"
        }
      ],
      "name": "safeTransferFrom",
      "outputs": [],
      "payable": false,
      "stateMutability": "nonpayable",
      "type": "function"
    },
    {
      "constant": false,
      "inputs": [
        {
          "name": "_metadata",
          "type": "address"
        }
      ],
      "name": "updateMetadata",
      "outputs": [],
      "payable": false,
      "stateMutability": "nonpayable",
      "type": "function"
    },
    {
      "constant": true,
      "inputs": [
        {
          "name": "owner",
          "type": "address"
        },
        {
          "name": "operator",
          "type": "address"
        }
      ],
      "name": "isApprovedForAll",
      "outputs": [
        {
          "name": "",
          "type": "bool"
        }
      ],
      "payable": false,
      "stateMutability": "view",
      "type": "function"
    },
    {
      "constant": false,
      "inputs": [
        {
          "name": "newOwner",
          "type": "address"
        }
      ],
      "name": "transferOwnership",
      "outputs": [],
      "payable": false,
      "stateMutability": "nonpayable",
      "type": "function"
    },
    {
      "constant": true,
      "inputs": [],
      "name": "controller",
      "outputs": [
        {
          "name": "",
          "type": "address"
        }
      ],
      "payable": false,
      "stateMutability": "view",
      "type": "function"
    },
    {
      "inputs": [
        {
          "name": "_tombCouncil",
          "type": "address"
        },
        {
          "name": "_metadata",
          "type": "address"
        },
        {
          "name": "royaltyRecipient",
          "type": "address"
        }
      ],
      "payable": false,
      "stateMutability": "nonpayable",
      "type": "constructor"
    },
    {
      "anonymous": false,
      "inputs": [
        {
          "indexed": true,
          "name": "previousOwner",
          "type": "address"
        },
        {
          "indexed": true,
          "name": "newOwner",
          "type": "address"
        }
      ],
      "name": "OwnershipTransferred",
      "type": "event"
    },
    {
      "anonymous": false,
      "inputs": [
        {
          "indexed": true,
          "name": "from",
          "type": "address"
        },
        {
          "indexed": true,
          "name": "to",
          "type": "address"
        },
        {
          "indexed": true,
          "name": "tokenId",
          "type": "uint256"
        }
      ],
      "name": "Transfer",
      "type": "event"
    },
    {
      "anonymous": false,
      "inputs": [
        {
          "indexed": true,
          "name": "owner",
          "type": "address"
        },
        {
          "indexed": true,
          "name": "approved",
          "type": "address"
        },
        {
          "indexed": true,
          "name": "tokenId",
          "type": "uint256"
        }
      ],
      "name": "Approval",
      "type": "event"
    },
    {
      "anonymous": false,
      "inputs": [
        {
          "indexed": true,
          "name": "owner",
          "type": "address"
        },
        {
          "indexed": true,
          "name": "operator",
          "type": "address"
        },
        {
          "indexed": false,
          "name": "approved",
          "type": "bool"
        }
      ],
      "name": "ApprovalForAll",
      "type": "event"
    },
    {
      "constant": false,
      "inputs": [],
      "name": "init",
      "outputs": [],
      "payable": false,
      "stateMutability": "nonpayable",
      "type": "function"
    },
    {
      "constant": false,
      "inputs": [
        {
          "name": "from",
          "type": "address"
        },
        {
          "name": "to",
          "type": "address"
        },
        {
          "name": "tokenId",
          "type": "uint256"
        }
      ],
      "name": "transferFrom",
      "outputs": [],
      "payable": false,
      "stateMutability": "nonpayable",
      "type": "function"
    },
    {
      "constant": true,
      "inputs": [
        {
          "name": "_tokenId",
          "type": "uint256"
        }
      ],
      "name": "tokenURI",
      "outputs": [
        {
          "name": "_infoUrl",
          "type": "string"
        }
      ],
      "payable": false,
      "stateMutability": "view",
      "type": "function"
    },
    {
      "constant": false,
      "inputs": [
        {
          "name": "recipient",
          "type": "address"
        },
        {
          "name": "value",
          "type": "uint256"
        }
      ],
      "name": "setRoyalties",
      "outputs": [],
      "payable": false,
      "stateMutability": "nonpayable",
      "type": "function"
    }
  ],
  "bytecode": "0x60806040523480156200001157600080fd5b5060405160608062002fac833981018060405260608110156200003357600080fd5b50805160208083015160409384015184518086018652600c81527f486f75736520534841444f570000000000000000000000000000000000000000818501528551808701909652600386527f5348440000000000000000000000000000000000000000000000000000000000938601939093529293909291908382828181620000e57f01ffc9a700000000000000000000000000000000000000000000000000000000640100000000620002c0810204565b620001197f80ac58cd00000000000000000000000000000000000000000000000000000000640100000000620002c0810204565b6200014d7f780e9d6300000000000000000000000000000000000000000000000000000000640100000000620002c0810204565b81516200016290600990602085019062000499565b5080516200017890600a90602084019062000499565b50620001ad7f5b5e139f00000000000000000000000000000000000000000000000000000000640100000000620002c0810204565b5050600c8054600160a060020a031916331790819055604051600160a060020a03919091169250600091507f8be0079c531659141344cd1fd0a4f28419497f9722a3daafe3b4186f6b6457e0908290a3600e805461010060a860020a031916610100600160a060020a0384160217905562000238600d336401000000006200032d810262001ee11704565b5050600e805460ff8082166001011660ff1990911617905550620002857f2a55205a00000000000000000000000000000000000000000000000000000000640100000000620002c0810204565b60118054600160a060020a031916600160a060020a038516179055620002b7816103e864010000000062000388810204565b5050506200053e565b7fffffffff000000000000000000000000000000000000000000000000000000008082161415620002f057600080fd5b7fffffffff00000000000000000000000000000000000000000000000000000000166000908152602081905260409020805460ff19166001179055565b600160a060020a03811615156200034357600080fd5b62000358828264010000000062000461810204565b156200036357600080fd5b600160a060020a0316600090815260209190915260409020805460ff19166001179055565b612710811115620003fa57604080517f08c379a000000000000000000000000000000000000000000000000000000000815260206004820152601a60248201527f45524332393831526f79616c746965733a20546f6f2068696768000000000000604482015290519081900360640190fd5b60408051808201909152600160a060020a0390921680835262ffffff9091166020909201829052601080547401000000000000000000000000000000000000000090930260a060020a62ffffff0219600160a060020a031990941690921792909216179055565b6000600160a060020a03821615156200047957600080fd5b50600160a060020a03166000908152602091909152604090205460ff1690565b828054600181600116156101000203166002900490600052602060002090601f016020900481019282601f10620004dc57805160ff19168380011785556200050c565b828001600101855582156200050c579182015b828111156200050c578251825591602001919060010190620004ef565b506200051a9291506200051e565b5090565b6200053b91905b808211156200051a576000815560010162000525565b90565b612a5e806200054e6000396000f3fe6080604052600436106101a05763ffffffff7c010000000000000000000000000000000000000000000000000000000060003504166301ffc9a781146101a5578063048e62ca1461020557806306cb5b661461025557806306fdde0314610297578063081812fc14610321578063095ea7b3146103745780631785f53c146103ba57806318160ddd146103fa5780631cc1472d1461042157806323b872dd146104675780632a55205a146104b75780632f745c5914610517578063392f37e91461055d57806340c10f191461057257806342842e0e146105b857806342966c68146106085780634f6ccce7146106325780636352211e1461065c578063704802751461068657806370a08231146106c6578063715018a6146107065780638c7ea24b1461071b5780638da5cb5b146107615780638f32d59b1461077657806395d89b411461078b578063a22cb465146107a0578063b88d4fde146107e8578063c5e2a7db146108c8578063c87b56dd14610908578063e1c7392a14610932578063e985e9c514610947578063f2fde38b1461098f578063f77c4791146109cf575b600080fd5b3480156101b157600080fd5b506101f1600480360360208110156101c857600080fd5b50357fffffffff00000000000000000000000000000000000000000000000000000000166109e4565b604080519115158252519081900360200190f35b34801561021157600080fd5b506101f16004803603606081101561022857600080fd5b5073ffffffffffffffffffffffffffffffffffffffff813581169160208101359160409091013516610a1b565b34801561026157600080fd5b506102956004803603602081101561027857600080fd5b503573ffffffffffffffffffffffffffffffffffffffff16610c5e565b005b3480156102a357600080fd5b506102ac610d6b565b6040805160208082528351818301528351919283929083019185019080838360005b838110156102e65781810151838201526020016102ce565b50505050905090810190601f1680156103135780820380516001836020036101000a031916815260200191505b509250505060405180910390f35b34801561032d57600080fd5b5061034b6004803603602081101561034457600080fd5b5035610e20565b6040805173ffffffffffffffffffffffffffffffffffffffff9092168252519081900360200190f35b34801561038057600080fd5b506102956004803603604081101561039757600080fd5b5073ffffffffffffffffffffffffffffffffffffffff8135169060200135610e5f565b3480156103c657600080fd5b50610295600480360360208110156103dd57600080fd5b503573ffffffffffffffffffffffffffffffffffffffff16610f47565b34801561040657600080fd5b5061040f611038565b60408051918252519081900360200190f35b34801561042d57600080fd5b506102956004803603604081101561044457600080fd5b5073ffffffffffffffffffffffffffffffffffffffff813516906020013561103e565b34801561047357600080fd5b506102956004803603606081101561048a57600080fd5b5073ffffffffffffffffffffffffffffffffffffffff81358116916020810135909116906040013561115a565b3480156104c357600080fd5b506104e7600480360360408110156104da57600080fd5b5080359060200135611294565b6040805173ffffffffffffffffffffffffffffffffffffffff909316835260208301919091528051918290030190f35b34801561052357600080fd5b5061040f6004803603604081101561053a57600080fd5b5073ffffffffffffffffffffffffffffffffffffffff8135169060200135611300565b34801561056957600080fd5b5061034b61135a565b34801561057e57600080fd5b506102956004803603604081101561059557600080fd5b5073ffffffffffffffffffffffffffffffffffffffff813516906020013561137b565b3480156105c457600080fd5b50610295600480360360608110156105db57600080fd5b5073ffffffffffffffffffffffffffffffffffffffff81358116916020810135909116906040013561144f565b34801561061457600080fd5b506102956004803603602081101561062b57600080fd5b503561146b565b34801561063e57600080fd5b5061040f6004803603602081101561065557600080fd5b5035611546565b34801561066857600080fd5b5061034b6004803603602081101561067f57600080fd5b503561157b565b34801561069257600080fd5b50610295600480360360208110156106a957600080fd5b503573ffffffffffffffffffffffffffffffffffffffff166115b2565b3480156106d257600080fd5b5061040f600480360360208110156106e957600080fd5b503573ffffffffffffffffffffffffffffffffffffffff1661160d565b34801561071257600080fd5b5061029561165a565b34801561072757600080fd5b506102956004803603604081101561073e57600080fd5b5073ffffffffffffffffffffffffffffffffffffffff81351690602001356116dc565b34801561076d57600080fd5b5061034b6117ac565b34801561078257600080fd5b506101f16117c8565b34801561079757600080fd5b506102ac6117e6565b3480156107ac57600080fd5b50610295600480360360408110156107c357600080fd5b5073ffffffffffffffffffffffffffffffffffffffff81351690602001351515611865565b3480156107f457600080fd5b506102956004803603608081101561080b57600080fd5b73ffffffffffffffffffffffffffffffffffffffff82358116926020810135909116916040820135919081019060808101606082013564010000000081111561085357600080fd5b82018360208201111561086557600080fd5b8035906020019184600183028401116401000000008311171561088757600080fd5b91908080601f016020809104026020016040519081016040528093929190818152602001838380828437600092019190915250929550611921945050505050565b3480156108d457600080fd5b50610295600480360360208110156108eb57600080fd5b503573ffffffffffffffffffffffffffffffffffffffff16611949565b34801561091457600080fd5b506102ac6004803603602081101561092b57600080fd5b5035611a5b565b34801561093e57600080fd5b50610295611b7e565b34801561095357600080fd5b506101f16004803603604081101561096a57600080fd5b5073ffffffffffffffffffffffffffffffffffffffff81358116916020013516611c3a565b34801561099b57600080fd5b50610295600480360360208110156109b257600080fd5b503573ffffffffffffffffffffffffffffffffffffffff16611c75565b3480156109db57600080fd5b5061034b611c91565b7fffffffff000000000000000000000000000000000000000000000000000000001660009081526020819052604090205460ff1690565b6000610a2e600d3363ffffffff611cad16565b80610a505750600f5473ffffffffffffffffffffffffffffffffffffffff1633145b1515610ae357604080517f08c379a000000000000000000000000000000000000000000000000000000000815260206004820152602660248201527f444f45535f4e4f545f484156455f41444d494e5f4f525f434f4e54524f4c4c4560448201527f525f524f4c450000000000000000000000000000000000000000000000000000606482015290519081900360840190fd5b604080517f70a08231000000000000000000000000000000000000000000000000000000008152306004820152905173ffffffffffffffffffffffffffffffffffffffff8416916370a08231916024808301926020929190829003018186803b158015610b4f57600080fd5b505afa158015610b63573d6000803e3d6000fd5b505050506040513d6020811015610b7957600080fd5b5051831115610b8757600080fd5b8173ffffffffffffffffffffffffffffffffffffffff1663a9059cbb85856040518363ffffffff167c0100000000000000000000000000000000000000000000000000000000028152600401808373ffffffffffffffffffffffffffffffffffffffff1673ffffffffffffffffffffffffffffffffffffffff16815260200182815260200192505050602060405180830381600087803b158015610c2a57600080fd5b505af1158015610c3e573d6000803e3d6000fd5b505050506040513d6020811015610c5457600080fd5b5051949350505050565b610c6f600d3363ffffffff611cad16565b80610c915750600f5473ffffffffffffffffffffffffffffffffffffffff1633145b1515610d2457604080517f08c379a000000000000000000000000000000000000000000000000000000000815260206004820152602660248201527f444f45535f4e4f545f484156455f41444d494e5f4f525f434f4e54524f4c4c4560448201527f525f524f4c450000000000000000000000000000000000000000000000000000606482015290519081900360840190fd5b600f80547fffffffffffffffffffffffff00000000000000000000000000000000000000001673ffffffffffffffffffffffffffffffffffffffff92909216919091179055565b60098054604080516020601f60027fffffffffffffffffffffffffffffffffffffffffffffffffffffffffffffffff610100600188161502019095169490940493840181900481028201810190925282815260609390929091830182828015610e155780601f10610dea57610100808354040283529160200191610e15565b820191906000526020600020905b815481529060010190602001808311610df857829003601f168201915b505050505090505b90565b6000610e2b82611cfe565b1515610e3657600080fd5b5060009081526002602052604090205473ffffffffffffffffffffffffffffffffffffffff1690565b6000610e6a8261157b565b905073ffffffffffffffffffffffffffffffffffffffff8381169082161415610e9257600080fd5b3373ffffffffffffffffffffffffffffffffffffffff82161480610ebb5750610ebb8133611c3a565b1515610ec657600080fd5b60008281526002602052604080822080547fffffffffffffffffffffffff00000000000000000000000000000000000000001673ffffffffffffffffffffffffffffffffffffffff87811691821790925591518593918516917f8c5be1e5ebec7d5bd14f71427d1e84f3dd0314c0f7b2291e5b200ac8c7c3b92591a4505050565b610f4f6117c8565b1515610f5a57600080fd5b600e54600160ff90911611610fd057604080517f08c379a000000000000000000000000000000000000000000000000000000000815260206004820152601660248201527f43414e545f52454d4f56455f4c4153545f41444d494e00000000000000000000604482015290519081900360640190fd5b610fe1600d8263ffffffff611d2816565b50600e80547fffffffffffffffffffffffffffffffffffffffffffffffffffffffffffffff00811660ff9182167fffffffffffffffffffffffffffffffffffffffffffffffffffffffffffffffff01909116179055565b60075490565b61104f600d3363ffffffff611cad16565b806110715750600f5473ffffffffffffffffffffffffffffffffffffffff1633145b151561110457604080517f08c379a000000000000000000000000000000000000000000000000000000000815260206004820152602660248201527f444f45535f4e4f545f484156455f41444d494e5f4f525f434f4e54524f4c4c4560448201527f525f524f4c450000000000000000000000000000000000000000000000000000606482015290519081900360840190fd5b303181111561111257600080fd5b60405173ffffffffffffffffffffffffffffffffffffffff83169082156108fc029083906000818181858888f19350505050158015611155573d6000803e3d6000fd5b505050565b6111643382611dac565b151561116f57600080fd5b600f54604080517f2b87978200000000000000000000000000000000000000000000000000000000815273ffffffffffffffffffffffffffffffffffffffff868116600483015285811660248301526044820185905291519190921691632b879782916064808301926020929190829003018186803b1580156111f157600080fd5b505afa158015611205573d6000803e3d6000fd5b505050506040513d602081101561121b57600080fd5b50511561128957604080517f08c379a000000000000000000000000000000000000000000000000000000000815260206004820152601060248201527f534841444f57206973206c6f636b656400000000000000000000000000000000604482015290519081900360640190fd5b611155838383611e3f565b60008061129f612999565b506040805180820190915260105473ffffffffffffffffffffffffffffffffffffffff81168083527401000000000000000000000000000000000000000090910462ffffff1660208301819052909350612710908502049150509250929050565b600061130b8361160d565b821061131657600080fd5b73ffffffffffffffffffffffffffffffffffffffff8316600090815260056020526040902080548390811061134757fe5b9060005260206000200154905092915050565b600e54610100900473ffffffffffffffffffffffffffffffffffffffff1681565b61138c600d3363ffffffff611cad16565b806113ae5750600f5473ffffffffffffffffffffffffffffffffffffffff1633145b151561144157604080517f08c379a000000000000000000000000000000000000000000000000000000000815260206004820152602660248201527f444f45535f4e4f545f484156455f41444d494e5f4f525f434f4e54524f4c4c4560448201527f525f524f4c450000000000000000000000000000000000000000000000000000606482015290519081900360840190fd5b61144b8282611e5e565b5050565b6111558383836020604051908101604052806000815250611921565b61147c600d3363ffffffff611cad16565b8061149e5750600f5473ffffffffffffffffffffffffffffffffffffffff1633145b151561153157604080517f08c379a000000000000000000000000000000000000000000000000000000000815260206004820152602660248201527f444f45535f4e4f545f484156455f41444d494e5f4f525f434f4e54524f4c4c4560448201527f525f524f4c450000000000000000000000000000000000000000000000000000606482015290519081900360840190fd5b61154361153d8261157b565b82611e7b565b50565b6000611550611038565b821061155b57600080fd5b600780548390811061156957fe5b90600052602060002001549050919050565b60008181526001602052604081205473ffffffffffffffffffffffffffffffffffffffff168015156115ac57600080fd5b92915050565b6115ba6117c8565b15156115c557600080fd5b6115d6600d8263ffffffff611ee116565b50600e805460ff808216600101167fffffffffffffffffffffffffffffffffffffffffffffffffffffffffffffff00909116179055565b600073ffffffffffffffffffffffffffffffffffffffff8216151561163157600080fd5b5073ffffffffffffffffffffffffffffffffffffffff1660009081526003602052604090205490565b6116626117c8565b151561166d57600080fd5b600c5460405160009173ffffffffffffffffffffffffffffffffffffffff16907f8be0079c531659141344cd1fd0a4f28419497f9722a3daafe3b4186f6b6457e0908390a3600c80547fffffffffffffffffffffffff0000000000000000000000000000000000000000169055565b6116ed600d3363ffffffff611cad16565b8061170f5750600f5473ffffffffffffffffffffffffffffffffffffffff1633145b15156117a257604080517f08c379a000000000000000000000000000000000000000000000000000000000815260206004820152602660248201527f444f45535f4e4f545f484156455f41444d494e5f4f525f434f4e54524f4c4c4560448201527f525f524f4c450000000000000000000000000000000000000000000000000000606482015290519081900360840190fd5b61144b8282611f67565b600c5473ffffffffffffffffffffffffffffffffffffffff1690565b600c5473ffffffffffffffffffffffffffffffffffffffff16331490565b600a8054604080516020601f60027fffffffffffffffffffffffffffffffffffffffffffffffffffffffffffffffff610100600188161502019095169490940493840181900481028201810190925282815260609390929091830182828015610e155780601f10610dea57610100808354040283529160200191610e15565b73ffffffffffffffffffffffffffffffffffffffff821633141561188857600080fd5b33600081815260046020908152604080832073ffffffffffffffffffffffffffffffffffffffff87168085529083529281902080547fffffffffffffffffffffffffffffffffffffffffffffffffffffffffffffff0016861515908117909155815190815290519293927f17307eab39ab6107e8899845ad3d59bd9653f200f220920489ca2b5937696c31929181900390910190a35050565b61192c84848461115a565b6119388484848461207a565b151561194357600080fd5b50505050565b61195a600d3363ffffffff611cad16565b8061197c5750600f5473ffffffffffffffffffffffffffffffffffffffff1633145b1515611a0f57604080517f08c379a000000000000000000000000000000000000000000000000000000000815260206004820152602660248201527f444f45535f4e4f545f484156455f41444d494e5f4f525f434f4e54524f4c4c4560448201527f525f524f4c450000000000000000000000000000000000000000000000000000606482015290519081900360840190fd5b600e805473ffffffffffffffffffffffffffffffffffffffff909216610100027fffffffffffffffffffffff0000000000000000000000000000000000000000ff909216919091179055565b600e54604080517fc87b56dd000000000000000000000000000000000000000000000000000000008152600481018490529051606092610100900473ffffffffffffffffffffffffffffffffffffffff169163c87b56dd916024808301926000929190829003018186803b158015611ad257600080fd5b505afa158015611ae6573d6000803e3d6000fd5b505050506040513d6000823e601f3d9081017fffffffffffffffffffffffffffffffffffffffffffffffffffffffffffffffe01682016040526020811015611b2d57600080fd5b810190808051640100000000811115611b4557600080fd5b82016020810184811115611b5857600080fd5b8151640100000000811182820187101715611b7257600080fd5b50909695505050505050565b60115473ffffffffffffffffffffffffffffffffffffffff163314611c0457604080517f08c379a000000000000000000000000000000000000000000000000000000000815260206004820152601960248201527f4f6e6c7920746f6d62436f756e63696c2063616e20696e697400000000000000604482015290519081900360640190fd5b60015b6024811161154357601154611c329073ffffffffffffffffffffffffffffffffffffffff1682611e5e565b600101611c07565b73ffffffffffffffffffffffffffffffffffffffff918216600090815260046020908152604080832093909416825291909152205460ff1690565b611c7d6117c8565b1515611c8857600080fd5b61154381612213565b600f5473ffffffffffffffffffffffffffffffffffffffff1681565b600073ffffffffffffffffffffffffffffffffffffffff82161515611cd157600080fd5b5073ffffffffffffffffffffffffffffffffffffffff166000908152602091909152604090205460ff1690565b60009081526001602052604090205473ffffffffffffffffffffffffffffffffffffffff16151590565b73ffffffffffffffffffffffffffffffffffffffff81161515611d4a57600080fd5b611d548282611cad565b1515611d5f57600080fd5b73ffffffffffffffffffffffffffffffffffffffff1660009081526020919091526040902080547fffffffffffffffffffffffffffffffffffffffffffffffffffffffffffffff00169055565b600080611db88361157b565b90508073ffffffffffffffffffffffffffffffffffffffff168473ffffffffffffffffffffffffffffffffffffffff161480611e2757508373ffffffffffffffffffffffffffffffffffffffff16611e0f84610e20565b73ffffffffffffffffffffffffffffffffffffffff16145b80611e375750611e378185611c3a565b949350505050565b611e4a8383836122c3565b611e548382612438565b611155828261258e565b611e6882826125d9565b611e72828261258e565b61144b816126cc565b611e858282612710565b6000818152600b602052604090205460027fffffffffffffffffffffffffffffffffffffffffffffffffffffffffffffffff61010060018416150201909116041561144b576000818152600b6020526040812061144b916129b0565b73ffffffffffffffffffffffffffffffffffffffff81161515611f0357600080fd5b611f0d8282611cad565b15611f1757600080fd5b73ffffffffffffffffffffffffffffffffffffffff1660009081526020919091526040902080547fffffffffffffffffffffffffffffffffffffffffffffffffffffffffffffff00166001179055565b612710811115611fd857604080517f08c379a000000000000000000000000000000000000000000000000000000000815260206004820152601a60248201527f45524332393831526f79616c746965733a20546f6f2068696768000000000000604482015290519081900360640190fd5b6040805180820190915273ffffffffffffffffffffffffffffffffffffffff90921680835262ffffff909116602090920182905260108054740100000000000000000000000000000000000000009093027fffffffffffffffffff000000ffffffffffffffffffffffffffffffffffffffff7fffffffffffffffffffffffff000000000000000000000000000000000000000090941690921792909216179055565b600061209b8473ffffffffffffffffffffffffffffffffffffffff1661273c565b15156120a957506001611e37565b6040517f150b7a02000000000000000000000000000000000000000000000000000000008152336004820181815273ffffffffffffffffffffffffffffffffffffffff888116602485015260448401879052608060648501908152865160848601528651600095928a169463150b7a029490938c938b938b939260a4019060208501908083838e5b83811015612149578181015183820152602001612131565b50505050905090810190601f1680156121765780820380516001836020036101000a031916815260200191505b5095505050505050602060405180830381600087803b15801561219857600080fd5b505af11580156121ac573d6000803e3d6000fd5b505050506040513d60208110156121c257600080fd5b50517fffffffff00000000000000000000000000000000000000000000000000000000167f150b7a020000000000000000000000000000000000000000000000000000000014915050949350505050565b73ffffffffffffffffffffffffffffffffffffffff8116151561223557600080fd5b600c5460405173ffffffffffffffffffffffffffffffffffffffff8084169216907f8be0079c531659141344cd1fd0a4f28419497f9722a3daafe3b4186f6b6457e090600090a3600c80547fffffffffffffffffffffffff00000000000000000000000000000000000000001673ffffffffffffffffffffffffffffffffffffffff92909216919091179055565b8273ffffffffffffffffffffffffffffffffffffffff166122e38261157b565b73ffffffffffffffffffffffffffffffffffffffff161461230357600080fd5b73ffffffffffffffffffffffffffffffffffffffff8216151561232557600080fd5b61232e81612744565b73ffffffffffffffffffffffffffffffffffffffff831660009081526003602052604090205461236590600163ffffffff6127a416565b73ffffffffffffffffffffffffffffffffffffffff80851660009081526003602052604080822093909355908416815220546123a890600163ffffffff6127b916565b73ffffffffffffffffffffffffffffffffffffffff8084166000818152600360209081526040808320959095558582526001905283812080547fffffffffffffffffffffffff000000000000000000000000000000000000000016831790559251849391928716917fddf252ad1be2c89b69c2b068fc378daa952ba7f163c4a11628f55a4df523b3ef91a4505050565b73ffffffffffffffffffffffffffffffffffffffff821660009081526005602052604081205461246f90600163ffffffff6127a416565b6000838152600660205260409020549091508082146125335773ffffffffffffffffffffffffffffffffffffffff841660009081526005602052604081208054849081106124b957fe5b9060005260206000200154905080600560008773ffffffffffffffffffffffffffffffffffffffff1673ffffffffffffffffffffffffffffffffffffffff1681526020019081526020016000208381548110151561251357fe5b600091825260208083209091019290925591825260069052604090208190555b73ffffffffffffffffffffffffffffffffffffffff84166000908152600560205260409020805490612587907fffffffffffffffffffffffffffffffffffffffffffffffffffffffffffffffff83016129f4565b5050505050565b73ffffffffffffffffffffffffffffffffffffffff90911660009081526005602081815260408084208054868652600684529185208290559282526001810183559183529091200155565b73ffffffffffffffffffffffffffffffffffffffff821615156125fb57600080fd5b61260481611cfe565b1561260e57600080fd5b600081815260016020818152604080842080547fffffffffffffffffffffffff00000000000000000000000000000000000000001673ffffffffffffffffffffffffffffffffffffffff88169081179091558452600390915290912054612674916127b9565b73ffffffffffffffffffffffffffffffffffffffff83166000818152600360205260408082209390935591518392907fddf252ad1be2c89b69c2b068fc378daa952ba7f163c4a11628f55a4df523b3ef908290a45050565b600780546000838152600860205260408120829055600182018355919091527fa66cc928b5edb82af9bd49922954155ab7b0942694bea4ce44661d9a8736c6880155565b61271a82826127d2565b6127248282612438565b60008181526006602052604081205561144b816128dd565b6000903b1190565b60008181526002602052604090205473ffffffffffffffffffffffffffffffffffffffff161561154357600090815260026020526040902080547fffffffffffffffffffffffff0000000000000000000000000000000000000000169055565b6000828211156127b357600080fd5b50900390565b6000828201838110156127cb57600080fd5b9392505050565b8173ffffffffffffffffffffffffffffffffffffffff166127f28261157b565b73ffffffffffffffffffffffffffffffffffffffff161461281257600080fd5b61281b81612744565b73ffffffffffffffffffffffffffffffffffffffff821660009081526003602052604090205461285290600163ffffffff6127a416565b73ffffffffffffffffffffffffffffffffffffffff83166000818152600360209081526040808320949094558482526001905282812080547fffffffffffffffffffffffff00000000000000000000000000000000000000001690559151839291907fddf252ad1be2c89b69c2b068fc378daa952ba7f163c4a11628f55a4df523b3ef908390a45050565b6007546000906128f490600163ffffffff6127a416565b6000838152600860205260408120546007805493945090928490811061291657fe5b906000526020600020015490508060078381548110151561293357fe5b60009182526020808320909101929092558281526008909152604090208290556007805490612984907fffffffffffffffffffffffffffffffffffffffffffffffffffffffffffffffff83016129f4565b50505060009182525060086020526040812055565b604080518082019091526000808252602082015290565b50805460018160011615610100020316600290046000825580601f106129d65750611543565b601f0160209004906000526020600020908101906115439190612a14565b815481835581811115611155576000838152602090206111559181019083015b610e1d91905b80821115612a2e5760008155600101612a1a565b509056fea165627a7a72305820ba3131085ee1d28191f15f58d388b07d6a0d0b185f68b0c8fd26e853b5b04ed90029",
  "source": "pragma solidity ^0.5.0;\nimport \"./Folia.sol\";\nimport \"./IShadowController.sol\";\nimport \"./ERC2981ContractWideRoyalties.sol\";\nimport \"./MetadataUpdate.sol\";\n\n/*\n\n//    .^7??????????????????????????????????????????????????????????????????7!:       .~7????????????????????????????????:\n//     :#@@@@@@@@@@@@@@@@@@@@@@@@@@@@@@@@@@@@@@@@@@@@@@@@@@@@@@@@@@@@@@@@@@@@@@@@@Y   ^#@@@@@@@@@@@@@@@@@@@@@@@@@@@@@@@@@@@5\n//    ^@@@@@@#BBBBBBBBBBBBBBBBBBBBBBBBBBBBBBBBBBBBBBBBBBBBBBBBBBBBBBBBBBBBBBB&@@@@@B ~@@@@@@#BBBBBBBBBBBBBBBBBBBBBBBBBBBBB#7\n//    Y@@@@@#                                                                ~@@@@@@ P@@@@@G\n//    .&@@@@@@@@@@@@@@@@@@@@@@@@@@@@@@@@&G~ ~@@@@@@@@@@@@@@@@@@@@@@@@@@@@@@@@@@@@@@Y :@@@@@@@@@@@@@@@@@@@@@@@@@@@@@@@@@&P~\n//      J&@@@@@@@@@@@@@@@@@@@@@@@@@@@@@@@@@#.!B@@@@@@@@@@@@@@@@@@@@@@@@@@@@@@@@@@B~   .Y&@@@@@@@@@@@@@@@@@@@@@@@@@@@@@@@@@B\n//         ...........................B@@@@@5  .7#@@@@@@@#?^....................          ..........................:#@@@@@J\n//    ^5YYYJJJJJJJJJJJJJJJJJJJJJJJJJJY&@@@@@?     .J&@@@@@@&5JJJJJJJJJJJJJJJJJJJYYYYYYYYYYJJJJJJJJJJJJJJJJJJJJJJJJJJY@@@@@@!\n//    5@@@@@@@@@@@@@@@@@@@@@@@@@@@@@@@@@@@@?         :5&@@@@@@@@@@@@@@@@@@@@@@@@@@@@@@@@@@@@@@@@@@@@@@@@@@@@@@@@@@@@@@@@@@7\n//    !GGGGGGGGGGGGGGGGGGGGGGGGGGGGGGGGPY~              ^JPGGGGGGGGGGGGGGGGGGGGGGGGGGGGGGGGGGGGGGGGGGGGGGGGGGGGGGGGGGGPJ^\n\n\n// _____________________________________________________ Tomb Series ______________________________________________________\n\n// _____________________________________________________ House SHADOW _____________________________________________________\n\n// _____________________________________________ All artwork by David Rudnick _____________________________________________\n\n// ________________________________________________ Deployed by Folia 2022 ________________________________________________\n\n*/\n\ncontract Shadow is Folia, ERC2981ContractWideRoyalties {\n    address tombCouncil;\n\n    constructor(address _tombCouncil, address _metadata, address royaltyRecipient) public Folia(\"House SHADOW\", \"SHD\", _metadata){\n        tombCouncil = _tombCouncil;\n        _setRoyalties(royaltyRecipient, 1_000); // 1,000 / 10,000 = 10%\n    }\n\n    function init() public {\n        require(msg.sender == tombCouncil, \"Only tombCouncil can init\");\n         for (uint256 i = 1; i <= 36; i++) {\n            _mint(tombCouncil, i);\n        }\n    }\n\n    function transferFrom(address from, address to, uint256 tokenId) public {\n        require(_isApprovedOrOwner(msg.sender, tokenId));\n        require(!IShadowController(controller).isLocked(from, to, tokenId), \"SHADOW is locked\");\n        _transferFrom(from, to, tokenId);\n    }\n\n    function tokenURI(uint _tokenId) external view returns (string memory _infoUrl) {\n        return MetadataUpdate(metadata).tokenURI(_tokenId);\n    }\n\n    /// @notice Allows to set the royalties on the contract\n    /// @dev This function in a real contract should be protected with a onlyOwner (or equivalent) modifier\n    /// @param recipient the royalties recipient\n    /// @param value royalties value (between 0 and 10000)\n    function setRoyalties(address recipient, uint256 value) public onlyAdminOrController {\n        _setRoyalties(recipient, value);\n    }\n}\n",
  "sourcePath": "/Users/billy/GitHub/folia-app/folia-contracts/contracts/Shadow.sol",
  "compiler": {
    "name": "solc",
    "version": "0.5.0+commit.1d4f565a.Emscripten.clang"
  },
  "schemaVersion": "3.4.3",
  "updatedAt": "2022-09-07T13:30:56.512Z",
  "networkType": "ethereum",
  "devdoc": {
    "methods": {
      "approve(address,uint256)": {
        "details": "Approves another address to transfer the given token ID The zero address indicates there is no approved address. There can only be one approved address per token at a given time. Can only be called by the token owner or an approved operator.",
        "params": {
          "to": "address to be approved for the given token ID",
          "tokenId": "uint256 ID of the token to be approved"
        }
      },
      "balanceOf(address)": {
        "details": "Gets the balance of the specified address",
        "params": {
          "owner": "address to query the balance of"
        },
        "return": "uint256 representing the amount owned by the passed address"
      },
      "getApproved(uint256)": {
        "details": "Gets the approved address for a token ID, or zero if no address set Reverts if the token ID does not exist.",
        "params": {
          "tokenId": "uint256 ID of the token to query the approval of"
        },
        "return": "address currently approved for the given token ID"
      },
      "isApprovedForAll(address,address)": {
        "details": "Tells whether an operator is approved by a given owner",
        "params": {
          "operator": "operator address which you want to query the approval of",
          "owner": "owner address which you want to query the approval of"
        },
        "return": "bool whether the given operator is approved by the given owner"
      },
      "isOwner()": {
        "return": "true if `msg.sender` is the owner of the contract."
      },
      "moveEth(address,uint256)": {
        "details": "Moves Eth to a certain address for use in the FoliaController",
        "params": {
          "_amount": "The amount of Eth to be transferred.",
          "_to": "The address to receive the Eth."
        }
      },
      "moveToken(address,uint256,address)": {
        "details": "Moves Token to a certain address for use in the FoliaController",
        "params": {
          "_amount": "The amount of Token to be transferred.",
          "_to": "The address to receive the Token.",
          "_token": "The address of the Token to be transferred."
        }
      },
      "name()": {
        "details": "Gets the token name",
        "return": "string representing the token name"
      },
      "owner()": {
        "return": "the address of the owner."
      },
      "ownerOf(uint256)": {
        "details": "Gets the owner of the specified token ID",
        "params": {
          "tokenId": "uint256 ID of the token to query the owner of"
        },
        "return": "owner address currently marked as the owner of the given token ID"
      },
      "renounceOwnership()": {
        "details": "Allows the current owner to relinquish control of the contract."
      },
      "safeTransferFrom(address,address,uint256)": {
        "details": "Safely transfers the ownership of a given token ID to another address If the target address is a contract, it must implement `onERC721Received`, which is called upon a safe transfer, and return the magic value `bytes4(keccak256(\"onERC721Received(address,address,uint256,bytes)\"))`; otherwise, the transfer is reverted.     * Requires the msg sender to be the owner, approved, or operator",
        "params": {
          "from": "current owner of the token",
          "to": "address to receive the ownership of the given token ID",
          "tokenId": "uint256 ID of the token to be transferred"
        }
      },
      "safeTransferFrom(address,address,uint256,bytes)": {
        "details": "Safely transfers the ownership of a given token ID to another address If the target address is a contract, it must implement `onERC721Received`, which is called upon a safe transfer, and return the magic value `bytes4(keccak256(\"onERC721Received(address,address,uint256,bytes)\"))`; otherwise, the transfer is reverted. Requires the msg sender to be the owner, approved, or operator",
        "params": {
          "_data": "bytes data to send along with a safe transfer check",
          "from": "current owner of the token",
          "to": "address to receive the ownership of the given token ID",
          "tokenId": "uint256 ID of the token to be transferred"
        }
      },
      "setApprovalForAll(address,bool)": {
        "details": "Sets or unsets the approval of a given operator An operator is allowed to transfer all tokens of the sender on their behalf",
        "params": {
          "approved": "representing the status of the approval to be set",
          "to": "operator address to set the approval"
        }
      },
      "setRoyalties(address,uint256)": {
        "details": "This function in a real contract should be protected with a onlyOwner (or equivalent) modifier",
        "params": {
          "recipient": "the royalties recipient",
          "value": "royalties value (between 0 and 10000)"
        }
      },
      "supportsInterface(bytes4)": {
        "details": "implement supportsInterface(bytes4) using a lookup table"
      },
      "symbol()": {
        "details": "Gets the token symbol",
        "return": "string representing the token symbol"
      },
      "tokenByIndex(uint256)": {
        "details": "Gets the token ID at a given index of all the tokens in this contract Reverts if the index is greater or equal to the total number of tokens",
        "params": {
          "index": "uint256 representing the index to be accessed of the tokens list"
        },
        "return": "uint256 token ID at the given index of the tokens list"
      },
      "tokenOfOwnerByIndex(address,uint256)": {
        "details": "Gets the token ID at a given index of the tokens list of the requested owner",
        "params": {
          "index": "uint256 representing the index to be accessed of the requested tokens list",
          "owner": "address owning the tokens list to be accessed"
        },
        "return": "uint256 token ID at the given index of the tokens list owned by the requested address"
      },
      "totalSupply()": {
        "details": "Gets the total amount of tokens stored by the contract",
        "return": "uint256 representing the total amount of tokens"
      },
      "transferOwnership(address)": {
        "details": "Allows the current owner to transfer control of the contract to a newOwner.",
        "params": {
          "newOwner": "The address to transfer ownership to."
        }
      }
    }
  },
  "userdoc": {
    "methods": {
      "renounceOwnership()": {
        "notice": "Renouncing to ownership will leave the contract without an owner. It will not be possible to call the functions with the `onlyOwner` modifier anymore."
      },
      "setRoyalties(address,uint256)": {
        "notice": "Allows to set the royalties on the contract"
      }
    }
  }
}