{
  "contractName": "Shadow",
  "abi": [
    {
      "constant": true,
      "inputs": [
        {
          "name": "interfaceId",
          "type": "bytes4"
        }
      ],
      "name": "supportsInterface",
      "outputs": [
        {
          "name": "",
          "type": "bool"
        }
      ],
      "payable": false,
      "stateMutability": "view",
      "type": "function"
    },
    {
      "constant": false,
      "inputs": [
        {
          "name": "_to",
          "type": "address"
        },
        {
          "name": "_amount",
          "type": "uint256"
        },
        {
          "name": "_token",
          "type": "address"
        }
      ],
      "name": "moveToken",
      "outputs": [
        {
          "name": "",
          "type": "bool"
        }
      ],
      "payable": false,
      "stateMutability": "nonpayable",
      "type": "function"
    },
    {
      "constant": false,
      "inputs": [
        {
          "name": "_controller",
          "type": "address"
        }
      ],
      "name": "updateController",
      "outputs": [],
      "payable": false,
      "stateMutability": "nonpayable",
      "type": "function"
    },
    {
      "constant": true,
      "inputs": [],
      "name": "name",
      "outputs": [
        {
          "name": "",
          "type": "string"
        }
      ],
      "payable": false,
      "stateMutability": "view",
      "type": "function"
    },
    {
      "constant": true,
      "inputs": [
        {
          "name": "tokenId",
          "type": "uint256"
        }
      ],
      "name": "getApproved",
      "outputs": [
        {
          "name": "",
          "type": "address"
        }
      ],
      "payable": false,
      "stateMutability": "view",
      "type": "function"
    },
    {
      "constant": false,
      "inputs": [
        {
          "name": "to",
          "type": "address"
        },
        {
          "name": "tokenId",
          "type": "uint256"
        }
      ],
      "name": "approve",
      "outputs": [],
      "payable": false,
      "stateMutability": "nonpayable",
      "type": "function"
    },
    {
      "constant": false,
      "inputs": [
        {
          "name": "_admin",
          "type": "address"
        }
      ],
      "name": "removeAdmin",
      "outputs": [],
      "payable": false,
      "stateMutability": "nonpayable",
      "type": "function"
    },
    {
      "constant": true,
      "inputs": [],
      "name": "totalSupply",
      "outputs": [
        {
          "name": "",
          "type": "uint256"
        }
      ],
      "payable": false,
      "stateMutability": "view",
      "type": "function"
    },
    {
      "constant": false,
      "inputs": [
        {
          "name": "_to",
          "type": "address"
        },
        {
          "name": "_amount",
          "type": "uint256"
        }
      ],
      "name": "moveEth",
      "outputs": [],
      "payable": false,
      "stateMutability": "nonpayable",
      "type": "function"
    },
    {
      "constant": true,
      "inputs": [
        {
          "name": "owner",
          "type": "address"
        },
        {
          "name": "index",
          "type": "uint256"
        }
      ],
      "name": "tokenOfOwnerByIndex",
      "outputs": [
        {
          "name": "",
          "type": "uint256"
        }
      ],
      "payable": false,
      "stateMutability": "view",
      "type": "function"
    },
    {
      "constant": true,
      "inputs": [],
      "name": "metadata",
      "outputs": [
        {
          "name": "",
          "type": "address"
        }
      ],
      "payable": false,
      "stateMutability": "view",
      "type": "function"
    },
    {
      "constant": false,
      "inputs": [
        {
          "name": "recipient",
          "type": "address"
        },
        {
          "name": "tokenId",
          "type": "uint256"
        }
      ],
      "name": "mint",
      "outputs": [],
      "payable": false,
      "stateMutability": "nonpayable",
      "type": "function"
    },
    {
      "constant": false,
      "inputs": [
        {
          "name": "from",
          "type": "address"
        },
        {
          "name": "to",
          "type": "address"
        },
        {
          "name": "tokenId",
          "type": "uint256"
        }
      ],
      "name": "safeTransferFrom",
      "outputs": [],
      "payable": false,
      "stateMutability": "nonpayable",
      "type": "function"
    },
    {
      "constant": false,
      "inputs": [
        {
          "name": "tokenId",
          "type": "uint256"
        }
      ],
      "name": "burn",
      "outputs": [],
      "payable": false,
      "stateMutability": "nonpayable",
      "type": "function"
    },
    {
      "constant": true,
      "inputs": [
        {
          "name": "index",
          "type": "uint256"
        }
      ],
      "name": "tokenByIndex",
      "outputs": [
        {
          "name": "",
          "type": "uint256"
        }
      ],
      "payable": false,
      "stateMutability": "view",
      "type": "function"
    },
    {
      "constant": true,
      "inputs": [
        {
          "name": "tokenId",
          "type": "uint256"
        }
      ],
      "name": "ownerOf",
      "outputs": [
        {
          "name": "",
          "type": "address"
        }
      ],
      "payable": false,
      "stateMutability": "view",
      "type": "function"
    },
    {
      "constant": false,
      "inputs": [
        {
          "name": "_admin",
          "type": "address"
        }
      ],
      "name": "addAdmin",
      "outputs": [],
      "payable": false,
      "stateMutability": "nonpayable",
      "type": "function"
    },
    {
      "constant": true,
      "inputs": [
        {
          "name": "owner",
          "type": "address"
        }
      ],
      "name": "balanceOf",
      "outputs": [
        {
          "name": "",
          "type": "uint256"
        }
      ],
      "payable": false,
      "stateMutability": "view",
      "type": "function"
    },
    {
      "constant": false,
      "inputs": [],
      "name": "renounceOwnership",
      "outputs": [],
      "payable": false,
      "stateMutability": "nonpayable",
      "type": "function"
    },
    {
      "constant": true,
      "inputs": [],
      "name": "owner",
      "outputs": [
        {
          "name": "",
          "type": "address"
        }
      ],
      "payable": false,
      "stateMutability": "view",
      "type": "function"
    },
    {
      "constant": true,
      "inputs": [],
      "name": "isOwner",
      "outputs": [
        {
          "name": "",
          "type": "bool"
        }
      ],
      "payable": false,
      "stateMutability": "view",
      "type": "function"
    },
    {
      "constant": true,
      "inputs": [],
      "name": "symbol",
      "outputs": [
        {
          "name": "",
          "type": "string"
        }
      ],
      "payable": false,
      "stateMutability": "view",
      "type": "function"
    },
    {
      "constant": false,
      "inputs": [
        {
          "name": "to",
          "type": "address"
        },
        {
          "name": "approved",
          "type": "bool"
        }
      ],
      "name": "setApprovalForAll",
      "outputs": [],
      "payable": false,
      "stateMutability": "nonpayable",
      "type": "function"
    },
    {
      "constant": false,
      "inputs": [
        {
          "name": "from",
          "type": "address"
        },
        {
          "name": "to",
          "type": "address"
        },
        {
          "name": "tokenId",
          "type": "uint256"
        },
        {
          "name": "_data",
          "type": "bytes"
        }
      ],
      "name": "safeTransferFrom",
      "outputs": [],
      "payable": false,
      "stateMutability": "nonpayable",
      "type": "function"
    },
    {
      "constant": false,
      "inputs": [
        {
          "name": "_metadata",
          "type": "address"
        }
      ],
      "name": "updateMetadata",
      "outputs": [],
      "payable": false,
      "stateMutability": "nonpayable",
      "type": "function"
    },
    {
      "constant": true,
      "inputs": [
        {
          "name": "owner",
          "type": "address"
        },
        {
          "name": "operator",
          "type": "address"
        }
      ],
      "name": "isApprovedForAll",
      "outputs": [
        {
          "name": "",
          "type": "bool"
        }
      ],
      "payable": false,
      "stateMutability": "view",
      "type": "function"
    },
    {
      "constant": false,
      "inputs": [
        {
          "name": "newOwner",
          "type": "address"
        }
      ],
      "name": "transferOwnership",
      "outputs": [],
      "payable": false,
      "stateMutability": "nonpayable",
      "type": "function"
    },
    {
      "constant": true,
      "inputs": [],
      "name": "controller",
      "outputs": [
        {
          "name": "",
          "type": "address"
        }
      ],
      "payable": false,
      "stateMutability": "view",
      "type": "function"
    },
    {
      "inputs": [
        {
          "name": "_tombCouncil",
          "type": "address"
        },
        {
          "name": "_metadata",
          "type": "address"
        }
      ],
      "payable": false,
      "stateMutability": "nonpayable",
      "type": "constructor"
    },
    {
      "anonymous": false,
      "inputs": [
        {
          "indexed": true,
          "name": "previousOwner",
          "type": "address"
        },
        {
          "indexed": true,
          "name": "newOwner",
          "type": "address"
        }
      ],
      "name": "OwnershipTransferred",
      "type": "event"
    },
    {
      "anonymous": false,
      "inputs": [
        {
          "indexed": true,
          "name": "from",
          "type": "address"
        },
        {
          "indexed": true,
          "name": "to",
          "type": "address"
        },
        {
          "indexed": true,
          "name": "tokenId",
          "type": "uint256"
        }
      ],
      "name": "Transfer",
      "type": "event"
    },
    {
      "anonymous": false,
      "inputs": [
        {
          "indexed": true,
          "name": "owner",
          "type": "address"
        },
        {
          "indexed": true,
          "name": "approved",
          "type": "address"
        },
        {
          "indexed": true,
          "name": "tokenId",
          "type": "uint256"
        }
      ],
      "name": "Approval",
      "type": "event"
    },
    {
      "anonymous": false,
      "inputs": [
        {
          "indexed": true,
          "name": "owner",
          "type": "address"
        },
        {
          "indexed": true,
          "name": "operator",
          "type": "address"
        },
        {
          "indexed": false,
          "name": "approved",
          "type": "bool"
        }
      ],
      "name": "ApprovalForAll",
      "type": "event"
    },
    {
      "constant": false,
      "inputs": [],
      "name": "init",
      "outputs": [],
      "payable": false,
      "stateMutability": "nonpayable",
      "type": "function"
    },
    {
      "constant": false,
      "inputs": [
        {
          "name": "from",
          "type": "address"
        },
        {
          "name": "to",
          "type": "address"
        },
        {
          "name": "tokenId",
          "type": "uint256"
        }
      ],
      "name": "transferFrom",
      "outputs": [],
      "payable": false,
      "stateMutability": "nonpayable",
      "type": "function"
    },
    {
      "constant": true,
      "inputs": [
        {
          "name": "_tokenId",
          "type": "uint256"
        }
      ],
      "name": "tokenURI",
      "outputs": [
        {
          "name": "_infoUrl",
          "type": "string"
        }
      ],
      "payable": false,
      "stateMutability": "view",
      "type": "function"
    }
  ],
  "bytecode": "0x60806040523480156200001157600080fd5b5060405160408062002b64833981018060405260408110156200003357600080fd5b508051602091820151604080518082018252600c81527f486f75736520534841444f570000000000000000000000000000000000000000818601528151808301909252600382527f534844000000000000000000000000000000000000000000000000000000000094820194909452919290918282828181620000df7f01ffc9a70000000000000000000000000000000000000000000000000000000064010000000062000273810204565b620001137f80ac58cd0000000000000000000000000000000000000000000000000000000064010000000062000273810204565b620001477f780e9d630000000000000000000000000000000000000000000000000000000064010000000062000273810204565b81516200015c90600990602085019062000373565b5080516200017290600a90602084019062000373565b50620001a77f5b5e139f0000000000000000000000000000000000000000000000000000000064010000000062000273810204565b5050600c8054600160a060020a031916331790819055604051600160a060020a03919091169250600091507f8be0079c531659141344cd1fd0a4f28419497f9722a3daafe3b4186f6b6457e0908290a3600e805461010060a860020a031916610100600160a060020a0384160217905562000232600d33640100000000620002e0810262001ce91704565b5050600e805460ff8082166001011660ff19909116179055505060108054600160a060020a03909216600160a060020a031990921691909117905562000418565b7fffffffff000000000000000000000000000000000000000000000000000000008082161415620002a357600080fd5b7fffffffff00000000000000000000000000000000000000000000000000000000166000908152602081905260409020805460ff19166001179055565b600160a060020a0381161515620002f657600080fd5b6200030b82826401000000006200033b810204565b156200031657600080fd5b600160a060020a0316600090815260209190915260409020805460ff19166001179055565b6000600160a060020a03821615156200035357600080fd5b50600160a060020a03166000908152602091909152604090205460ff1690565b828054600181600116156101000203166002900490600052602060002090601f016020900481019282601f10620003b657805160ff1916838001178555620003e6565b82800160010185558215620003e6579182015b82811115620003e6578251825591602001919060010190620003c9565b50620003f4929150620003f8565b5090565b6200041591905b80821115620003f45760008155600101620003ff565b90565b61273c80620004286000396000f3fe60806040526004361061018a5763ffffffff7c010000000000000000000000000000000000000000000000000000000060003504166301ffc9a7811461018f578063048e62ca146101ef57806306cb5b661461023f57806306fdde0314610281578063081812fc1461030b578063095ea7b31461035e5780631785f53c146103a457806318160ddd146103e45780631cc1472d1461040b57806323b872dd146104515780632f745c59146104a1578063392f37e9146104e757806340c10f19146104fc57806342842e0e1461054257806342966c68146105925780634f6ccce7146105bc5780636352211e146105e6578063704802751461061057806370a0823114610650578063715018a6146106905780638da5cb5b146106a55780638f32d59b146106ba57806395d89b41146106cf578063a22cb465146106e4578063b88d4fde1461072c578063c5e2a7db1461080c578063c87b56dd1461084c578063e1c7392a14610876578063e985e9c51461088b578063f2fde38b146108d3578063f77c479114610913575b600080fd5b34801561019b57600080fd5b506101db600480360360208110156101b257600080fd5b50357fffffffff0000000000000000000000000000000000000000000000000000000016610928565b604080519115158252519081900360200190f35b3480156101fb57600080fd5b506101db6004803603606081101561021257600080fd5b5073ffffffffffffffffffffffffffffffffffffffff81358116916020810135916040909101351661095f565b34801561024b57600080fd5b5061027f6004803603602081101561026257600080fd5b503573ffffffffffffffffffffffffffffffffffffffff16610ba2565b005b34801561028d57600080fd5b50610296610caf565b6040805160208082528351818301528351919283929083019185019080838360005b838110156102d05781810151838201526020016102b8565b50505050905090810190601f1680156102fd5780820380516001836020036101000a031916815260200191505b509250505060405180910390f35b34801561031757600080fd5b506103356004803603602081101561032e57600080fd5b5035610d64565b6040805173ffffffffffffffffffffffffffffffffffffffff9092168252519081900360200190f35b34801561036a57600080fd5b5061027f6004803603604081101561038157600080fd5b5073ffffffffffffffffffffffffffffffffffffffff8135169060200135610da3565b3480156103b057600080fd5b5061027f600480360360208110156103c757600080fd5b503573ffffffffffffffffffffffffffffffffffffffff16610e8b565b3480156103f057600080fd5b506103f9610f7c565b60408051918252519081900360200190f35b34801561041757600080fd5b5061027f6004803603604081101561042e57600080fd5b5073ffffffffffffffffffffffffffffffffffffffff8135169060200135610f82565b34801561045d57600080fd5b5061027f6004803603606081101561047457600080fd5b5073ffffffffffffffffffffffffffffffffffffffff81358116916020810135909116906040013561109e565b3480156104ad57600080fd5b506103f9600480360360408110156104c457600080fd5b5073ffffffffffffffffffffffffffffffffffffffff81351690602001356111d8565b3480156104f357600080fd5b50610335611232565b34801561050857600080fd5b5061027f6004803603604081101561051f57600080fd5b5073ffffffffffffffffffffffffffffffffffffffff8135169060200135611253565b34801561054e57600080fd5b5061027f6004803603606081101561056557600080fd5b5073ffffffffffffffffffffffffffffffffffffffff813581169160208101359091169060400135611327565b34801561059e57600080fd5b5061027f600480360360208110156105b557600080fd5b5035611343565b3480156105c857600080fd5b506103f9600480360360208110156105df57600080fd5b503561141e565b3480156105f257600080fd5b506103356004803603602081101561060957600080fd5b5035611453565b34801561061c57600080fd5b5061027f6004803603602081101561063357600080fd5b503573ffffffffffffffffffffffffffffffffffffffff1661148a565b34801561065c57600080fd5b506103f96004803603602081101561067357600080fd5b503573ffffffffffffffffffffffffffffffffffffffff166114e5565b34801561069c57600080fd5b5061027f611532565b3480156106b157600080fd5b506103356115b4565b3480156106c657600080fd5b506101db6115d0565b3480156106db57600080fd5b506102966115ee565b3480156106f057600080fd5b5061027f6004803603604081101561070757600080fd5b5073ffffffffffffffffffffffffffffffffffffffff8135169060200135151561166d565b34801561073857600080fd5b5061027f6004803603608081101561074f57600080fd5b73ffffffffffffffffffffffffffffffffffffffff82358116926020810135909116916040820135919081019060808101606082013564010000000081111561079757600080fd5b8201836020820111156107a957600080fd5b803590602001918460018302840111640100000000831117156107cb57600080fd5b91908080601f016020809104026020016040519081016040528093929190818152602001838380828437600092019190915250929550611729945050505050565b34801561081857600080fd5b5061027f6004803603602081101561082f57600080fd5b503573ffffffffffffffffffffffffffffffffffffffff16611751565b34801561085857600080fd5b506102966004803603602081101561086f57600080fd5b5035611863565b34801561088257600080fd5b5061027f611986565b34801561089757600080fd5b506101db600480360360408110156108ae57600080fd5b5073ffffffffffffffffffffffffffffffffffffffff81358116916020013516611a42565b3480156108df57600080fd5b5061027f600480360360208110156108f657600080fd5b503573ffffffffffffffffffffffffffffffffffffffff16611a7d565b34801561091f57600080fd5b50610335611a99565b7fffffffff000000000000000000000000000000000000000000000000000000001660009081526020819052604090205460ff1690565b6000610972600d3363ffffffff611ab516565b806109945750600f5473ffffffffffffffffffffffffffffffffffffffff1633145b1515610a2757604080517f08c379a000000000000000000000000000000000000000000000000000000000815260206004820152602660248201527f444f45535f4e4f545f484156455f41444d494e5f4f525f434f4e54524f4c4c4560448201527f525f524f4c450000000000000000000000000000000000000000000000000000606482015290519081900360840190fd5b604080517f70a08231000000000000000000000000000000000000000000000000000000008152306004820152905173ffffffffffffffffffffffffffffffffffffffff8416916370a08231916024808301926020929190829003018186803b158015610a9357600080fd5b505afa158015610aa7573d6000803e3d6000fd5b505050506040513d6020811015610abd57600080fd5b5051831115610acb57600080fd5b8173ffffffffffffffffffffffffffffffffffffffff1663a9059cbb85856040518363ffffffff167c0100000000000000000000000000000000000000000000000000000000028152600401808373ffffffffffffffffffffffffffffffffffffffff1673ffffffffffffffffffffffffffffffffffffffff16815260200182815260200192505050602060405180830381600087803b158015610b6e57600080fd5b505af1158015610b82573d6000803e3d6000fd5b505050506040513d6020811015610b9857600080fd5b5051949350505050565b610bb3600d3363ffffffff611ab516565b80610bd55750600f5473ffffffffffffffffffffffffffffffffffffffff1633145b1515610c6857604080517f08c379a000000000000000000000000000000000000000000000000000000000815260206004820152602660248201527f444f45535f4e4f545f484156455f41444d494e5f4f525f434f4e54524f4c4c4560448201527f525f524f4c450000000000000000000000000000000000000000000000000000606482015290519081900360840190fd5b600f80547fffffffffffffffffffffffff00000000000000000000000000000000000000001673ffffffffffffffffffffffffffffffffffffffff92909216919091179055565b60098054604080516020601f60027fffffffffffffffffffffffffffffffffffffffffffffffffffffffffffffffff610100600188161502019095169490940493840181900481028201810190925282815260609390929091830182828015610d595780601f10610d2e57610100808354040283529160200191610d59565b820191906000526020600020905b815481529060010190602001808311610d3c57829003601f168201915b505050505090505b90565b6000610d6f82611b06565b1515610d7a57600080fd5b5060009081526002602052604090205473ffffffffffffffffffffffffffffffffffffffff1690565b6000610dae82611453565b905073ffffffffffffffffffffffffffffffffffffffff8381169082161415610dd657600080fd5b3373ffffffffffffffffffffffffffffffffffffffff82161480610dff5750610dff8133611a42565b1515610e0a57600080fd5b60008281526002602052604080822080547fffffffffffffffffffffffff00000000000000000000000000000000000000001673ffffffffffffffffffffffffffffffffffffffff87811691821790925591518593918516917f8c5be1e5ebec7d5bd14f71427d1e84f3dd0314c0f7b2291e5b200ac8c7c3b92591a4505050565b610e936115d0565b1515610e9e57600080fd5b600e54600160ff90911611610f1457604080517f08c379a000000000000000000000000000000000000000000000000000000000815260206004820152601660248201527f43414e545f52454d4f56455f4c4153545f41444d494e00000000000000000000604482015290519081900360640190fd5b610f25600d8263ffffffff611b3016565b50600e80547fffffffffffffffffffffffffffffffffffffffffffffffffffffffffffffff00811660ff9182167fffffffffffffffffffffffffffffffffffffffffffffffffffffffffffffffff01909116179055565b60075490565b610f93600d3363ffffffff611ab516565b80610fb55750600f5473ffffffffffffffffffffffffffffffffffffffff1633145b151561104857604080517f08c379a000000000000000000000000000000000000000000000000000000000815260206004820152602660248201527f444f45535f4e4f545f484156455f41444d494e5f4f525f434f4e54524f4c4c4560448201527f525f524f4c450000000000000000000000000000000000000000000000000000606482015290519081900360840190fd5b303181111561105657600080fd5b60405173ffffffffffffffffffffffffffffffffffffffff83169082156108fc029083906000818181858888f19350505050158015611099573d6000803e3d6000fd5b505050565b6110a83382611bb4565b15156110b357600080fd5b600f54604080517f2b87978200000000000000000000000000000000000000000000000000000000815273ffffffffffffffffffffffffffffffffffffffff868116600483015285811660248301526044820185905291519190921691632b879782916064808301926020929190829003018186803b15801561113557600080fd5b505afa158015611149573d6000803e3d6000fd5b505050506040513d602081101561115f57600080fd5b5051156111cd57604080517f08c379a000000000000000000000000000000000000000000000000000000000815260206004820152601060248201527f534841444f57206973206c6f636b656400000000000000000000000000000000604482015290519081900360640190fd5b611099838383611c47565b60006111e3836114e5565b82106111ee57600080fd5b73ffffffffffffffffffffffffffffffffffffffff8316600090815260056020526040902080548390811061121f57fe5b9060005260206000200154905092915050565b600e54610100900473ffffffffffffffffffffffffffffffffffffffff1681565b611264600d3363ffffffff611ab516565b806112865750600f5473ffffffffffffffffffffffffffffffffffffffff1633145b151561131957604080517f08c379a000000000000000000000000000000000000000000000000000000000815260206004820152602660248201527f444f45535f4e4f545f484156455f41444d494e5f4f525f434f4e54524f4c4c4560448201527f525f524f4c450000000000000000000000000000000000000000000000000000606482015290519081900360840190fd5b6113238282611c66565b5050565b6110998383836020604051908101604052806000815250611729565b611354600d3363ffffffff611ab516565b806113765750600f5473ffffffffffffffffffffffffffffffffffffffff1633145b151561140957604080517f08c379a000000000000000000000000000000000000000000000000000000000815260206004820152602660248201527f444f45535f4e4f545f484156455f41444d494e5f4f525f434f4e54524f4c4c4560448201527f525f524f4c450000000000000000000000000000000000000000000000000000606482015290519081900360840190fd5b61141b61141582611453565b82611c83565b50565b6000611428610f7c565b821061143357600080fd5b600780548390811061144157fe5b90600052602060002001549050919050565b60008181526001602052604081205473ffffffffffffffffffffffffffffffffffffffff1680151561148457600080fd5b92915050565b6114926115d0565b151561149d57600080fd5b6114ae600d8263ffffffff611ce916565b50600e805460ff808216600101167fffffffffffffffffffffffffffffffffffffffffffffffffffffffffffffff00909116179055565b600073ffffffffffffffffffffffffffffffffffffffff8216151561150957600080fd5b5073ffffffffffffffffffffffffffffffffffffffff1660009081526003602052604090205490565b61153a6115d0565b151561154557600080fd5b600c5460405160009173ffffffffffffffffffffffffffffffffffffffff16907f8be0079c531659141344cd1fd0a4f28419497f9722a3daafe3b4186f6b6457e0908390a3600c80547fffffffffffffffffffffffff0000000000000000000000000000000000000000169055565b600c5473ffffffffffffffffffffffffffffffffffffffff1690565b600c5473ffffffffffffffffffffffffffffffffffffffff16331490565b600a8054604080516020601f60027fffffffffffffffffffffffffffffffffffffffffffffffffffffffffffffffff610100600188161502019095169490940493840181900481028201810190925282815260609390929091830182828015610d595780601f10610d2e57610100808354040283529160200191610d59565b73ffffffffffffffffffffffffffffffffffffffff821633141561169057600080fd5b33600081815260046020908152604080832073ffffffffffffffffffffffffffffffffffffffff87168085529083529281902080547fffffffffffffffffffffffffffffffffffffffffffffffffffffffffffffff0016861515908117909155815190815290519293927f17307eab39ab6107e8899845ad3d59bd9653f200f220920489ca2b5937696c31929181900390910190a35050565b61173484848461109e565b61174084848484611d6f565b151561174b57600080fd5b50505050565b611762600d3363ffffffff611ab516565b806117845750600f5473ffffffffffffffffffffffffffffffffffffffff1633145b151561181757604080517f08c379a000000000000000000000000000000000000000000000000000000000815260206004820152602660248201527f444f45535f4e4f545f484156455f41444d494e5f4f525f434f4e54524f4c4c4560448201527f525f524f4c450000000000000000000000000000000000000000000000000000606482015290519081900360840190fd5b600e805473ffffffffffffffffffffffffffffffffffffffff909216610100027fffffffffffffffffffffff0000000000000000000000000000000000000000ff909216919091179055565b600e54604080517fc87b56dd000000000000000000000000000000000000000000000000000000008152600481018490529051606092610100900473ffffffffffffffffffffffffffffffffffffffff169163c87b56dd916024808301926000929190829003018186803b1580156118da57600080fd5b505afa1580156118ee573d6000803e3d6000fd5b505050506040513d6000823e601f3d9081017fffffffffffffffffffffffffffffffffffffffffffffffffffffffffffffffe0168201604052602081101561193557600080fd5b81019080805164010000000081111561194d57600080fd5b8201602081018481111561196057600080fd5b815164010000000081118282018710171561197a57600080fd5b50909695505050505050565b60105473ffffffffffffffffffffffffffffffffffffffff163314611a0c57604080517f08c379a000000000000000000000000000000000000000000000000000000000815260206004820152601960248201527f4f6e6c7920746f6d62436f756e63696c2063616e20696e697400000000000000604482015290519081900360640190fd5b60015b6024811161141b57601054611a3a9073ffffffffffffffffffffffffffffffffffffffff1682611c66565b600101611a0f565b73ffffffffffffffffffffffffffffffffffffffff918216600090815260046020908152604080832093909416825291909152205460ff1690565b611a856115d0565b1515611a9057600080fd5b61141b81611f08565b600f5473ffffffffffffffffffffffffffffffffffffffff1681565b600073ffffffffffffffffffffffffffffffffffffffff82161515611ad957600080fd5b5073ffffffffffffffffffffffffffffffffffffffff166000908152602091909152604090205460ff1690565b60009081526001602052604090205473ffffffffffffffffffffffffffffffffffffffff16151590565b73ffffffffffffffffffffffffffffffffffffffff81161515611b5257600080fd5b611b5c8282611ab5565b1515611b6757600080fd5b73ffffffffffffffffffffffffffffffffffffffff1660009081526020919091526040902080547fffffffffffffffffffffffffffffffffffffffffffffffffffffffffffffff00169055565b600080611bc083611453565b90508073ffffffffffffffffffffffffffffffffffffffff168473ffffffffffffffffffffffffffffffffffffffff161480611c2f57508373ffffffffffffffffffffffffffffffffffffffff16611c1784610d64565b73ffffffffffffffffffffffffffffffffffffffff16145b80611c3f5750611c3f8185611a42565b949350505050565b611c52838383611fb8565b611c5c838261212d565b6110998282612283565b611c7082826122ce565b611c7a8282612283565b611323816123c1565b611c8d8282612405565b6000818152600b602052604090205460027fffffffffffffffffffffffffffffffffffffffffffffffffffffffffffffffff610100600184161502019091160415611323576000818152600b602052604081206113239161268e565b73ffffffffffffffffffffffffffffffffffffffff81161515611d0b57600080fd5b611d158282611ab5565b15611d1f57600080fd5b73ffffffffffffffffffffffffffffffffffffffff1660009081526020919091526040902080547fffffffffffffffffffffffffffffffffffffffffffffffffffffffffffffff00166001179055565b6000611d908473ffffffffffffffffffffffffffffffffffffffff16612431565b1515611d9e57506001611c3f565b6040517f150b7a02000000000000000000000000000000000000000000000000000000008152336004820181815273ffffffffffffffffffffffffffffffffffffffff888116602485015260448401879052608060648501908152865160848601528651600095928a169463150b7a029490938c938b938b939260a4019060208501908083838e5b83811015611e3e578181015183820152602001611e26565b50505050905090810190601f168015611e6b5780820380516001836020036101000a031916815260200191505b5095505050505050602060405180830381600087803b158015611e8d57600080fd5b505af1158015611ea1573d6000803e3d6000fd5b505050506040513d6020811015611eb757600080fd5b50517fffffffff00000000000000000000000000000000000000000000000000000000167f150b7a020000000000000000000000000000000000000000000000000000000014915050949350505050565b73ffffffffffffffffffffffffffffffffffffffff81161515611f2a57600080fd5b600c5460405173ffffffffffffffffffffffffffffffffffffffff8084169216907f8be0079c531659141344cd1fd0a4f28419497f9722a3daafe3b4186f6b6457e090600090a3600c80547fffffffffffffffffffffffff00000000000000000000000000000000000000001673ffffffffffffffffffffffffffffffffffffffff92909216919091179055565b8273ffffffffffffffffffffffffffffffffffffffff16611fd882611453565b73ffffffffffffffffffffffffffffffffffffffff1614611ff857600080fd5b73ffffffffffffffffffffffffffffffffffffffff8216151561201a57600080fd5b61202381612439565b73ffffffffffffffffffffffffffffffffffffffff831660009081526003602052604090205461205a90600163ffffffff61249916565b73ffffffffffffffffffffffffffffffffffffffff808516600090815260036020526040808220939093559084168152205461209d90600163ffffffff6124ae16565b73ffffffffffffffffffffffffffffffffffffffff8084166000818152600360209081526040808320959095558582526001905283812080547fffffffffffffffffffffffff000000000000000000000000000000000000000016831790559251849391928716917fddf252ad1be2c89b69c2b068fc378daa952ba7f163c4a11628f55a4df523b3ef91a4505050565b73ffffffffffffffffffffffffffffffffffffffff821660009081526005602052604081205461216490600163ffffffff61249916565b6000838152600660205260409020549091508082146122285773ffffffffffffffffffffffffffffffffffffffff841660009081526005602052604081208054849081106121ae57fe5b9060005260206000200154905080600560008773ffffffffffffffffffffffffffffffffffffffff1673ffffffffffffffffffffffffffffffffffffffff1681526020019081526020016000208381548110151561220857fe5b600091825260208083209091019290925591825260069052604090208190555b73ffffffffffffffffffffffffffffffffffffffff8416600090815260056020526040902080549061227c907fffffffffffffffffffffffffffffffffffffffffffffffffffffffffffffffff83016126d2565b5050505050565b73ffffffffffffffffffffffffffffffffffffffff90911660009081526005602081815260408084208054868652600684529185208290559282526001810183559183529091200155565b73ffffffffffffffffffffffffffffffffffffffff821615156122f057600080fd5b6122f981611b06565b1561230357600080fd5b600081815260016020818152604080842080547fffffffffffffffffffffffff00000000000000000000000000000000000000001673ffffffffffffffffffffffffffffffffffffffff88169081179091558452600390915290912054612369916124ae565b73ffffffffffffffffffffffffffffffffffffffff83166000818152600360205260408082209390935591518392907fddf252ad1be2c89b69c2b068fc378daa952ba7f163c4a11628f55a4df523b3ef908290a45050565b600780546000838152600860205260408120829055600182018355919091527fa66cc928b5edb82af9bd49922954155ab7b0942694bea4ce44661d9a8736c6880155565b61240f82826124c7565b612419828261212d565b600081815260066020526040812055611323816125d2565b6000903b1190565b60008181526002602052604090205473ffffffffffffffffffffffffffffffffffffffff161561141b57600090815260026020526040902080547fffffffffffffffffffffffff0000000000000000000000000000000000000000169055565b6000828211156124a857600080fd5b50900390565b6000828201838110156124c057600080fd5b9392505050565b8173ffffffffffffffffffffffffffffffffffffffff166124e782611453565b73ffffffffffffffffffffffffffffffffffffffff161461250757600080fd5b61251081612439565b73ffffffffffffffffffffffffffffffffffffffff821660009081526003602052604090205461254790600163ffffffff61249916565b73ffffffffffffffffffffffffffffffffffffffff83166000818152600360209081526040808320949094558482526001905282812080547fffffffffffffffffffffffff00000000000000000000000000000000000000001690559151839291907fddf252ad1be2c89b69c2b068fc378daa952ba7f163c4a11628f55a4df523b3ef908390a45050565b6007546000906125e990600163ffffffff61249916565b6000838152600860205260408120546007805493945090928490811061260b57fe5b906000526020600020015490508060078381548110151561262857fe5b60009182526020808320909101929092558281526008909152604090208290556007805490612679907fffffffffffffffffffffffffffffffffffffffffffffffffffffffffffffffff83016126d2565b50505060009182525060086020526040812055565b50805460018160011615610100020316600290046000825580601f106126b4575061141b565b601f01602090049060005260206000209081019061141b91906126f2565b815481835581811115611099576000838152602090206110999181019083015b610d6191905b8082111561270c57600081556001016126f8565b509056fea165627a7a7230582034e748ac2d9bf72eb5899e96fca2c1e8110b4e258bdfbbe958c564ca6c83378e0029",
  "source": "pragma solidity ^0.5.0;\nimport \"./Folia.sol\";\nimport \"./IShadowController.sol\";\nimport \"./MetadataUpdate.sol\";\n\n/*        \nBy David Rudnick\nProduced by Folia.app\n*/\n\ncontract Shadow is Folia {\n    address tombCouncil;\n\n    constructor(address _tombCouncil, address _metadata) public Folia(\"House SHADOW\", \"SHD\", _metadata){\n        tombCouncil = _tombCouncil;\n    }\n\n    function init() public {\n        require(msg.sender == tombCouncil, \"Only tombCouncil can init\");\n         for (uint256 i = 1; i <= 36; i++) {\n            _mint(tombCouncil, i);\n        }\n    }\n\n    function transferFrom(address from, address to, uint256 tokenId) public {\n        require(_isApprovedOrOwner(msg.sender, tokenId));\n        require(!IShadowController(controller).isLocked(from, to, tokenId), \"SHADOW is locked\");\n        _transferFrom(from, to, tokenId);\n    }\n\n    function tokenURI(uint _tokenId) external view returns (string memory _infoUrl) {\n        return MetadataUpdate(metadata).tokenURI(_tokenId);\n    }\n}\n",
  "sourcePath": "/Users/billy/GitHub/folia-app/folia-contracts/contracts/Shadow.sol",
  "compiler": {
    "name": "solc",
    "version": "0.5.0+commit.1d4f565a.Emscripten.clang"
  },
  "schemaVersion": "3.4.3",
  "updatedAt": "2022-09-06T17:31:07.247Z",
  "networkType": "ethereum",
  "devdoc": {
    "methods": {
      "approve(address,uint256)": {
        "details": "Approves another address to transfer the given token ID The zero address indicates there is no approved address. There can only be one approved address per token at a given time. Can only be called by the token owner or an approved operator.",
        "params": {
          "to": "address to be approved for the given token ID",
          "tokenId": "uint256 ID of the token to be approved"
        }
      },
      "balanceOf(address)": {
        "details": "Gets the balance of the specified address",
        "params": {
          "owner": "address to query the balance of"
        },
        "return": "uint256 representing the amount owned by the passed address"
      },
      "getApproved(uint256)": {
        "details": "Gets the approved address for a token ID, or zero if no address set Reverts if the token ID does not exist.",
        "params": {
          "tokenId": "uint256 ID of the token to query the approval of"
        },
        "return": "address currently approved for the given token ID"
      },
      "isApprovedForAll(address,address)": {
        "details": "Tells whether an operator is approved by a given owner",
        "params": {
          "operator": "operator address which you want to query the approval of",
          "owner": "owner address which you want to query the approval of"
        },
        "return": "bool whether the given operator is approved by the given owner"
      },
      "isOwner()": {
        "return": "true if `msg.sender` is the owner of the contract."
      },
      "moveEth(address,uint256)": {
        "details": "Moves Eth to a certain address for use in the FoliaController",
        "params": {
          "_amount": "The amount of Eth to be transferred.",
          "_to": "The address to receive the Eth."
        }
      },
      "moveToken(address,uint256,address)": {
        "details": "Moves Token to a certain address for use in the FoliaController",
        "params": {
          "_amount": "The amount of Token to be transferred.",
          "_to": "The address to receive the Token.",
          "_token": "The address of the Token to be transferred."
        }
      },
      "name()": {
        "details": "Gets the token name",
        "return": "string representing the token name"
      },
      "owner()": {
        "return": "the address of the owner."
      },
      "ownerOf(uint256)": {
        "details": "Gets the owner of the specified token ID",
        "params": {
          "tokenId": "uint256 ID of the token to query the owner of"
        },
        "return": "owner address currently marked as the owner of the given token ID"
      },
      "renounceOwnership()": {
        "details": "Allows the current owner to relinquish control of the contract."
      },
      "safeTransferFrom(address,address,uint256)": {
        "details": "Safely transfers the ownership of a given token ID to another address If the target address is a contract, it must implement `onERC721Received`, which is called upon a safe transfer, and return the magic value `bytes4(keccak256(\"onERC721Received(address,address,uint256,bytes)\"))`; otherwise, the transfer is reverted.     * Requires the msg sender to be the owner, approved, or operator",
        "params": {
          "from": "current owner of the token",
          "to": "address to receive the ownership of the given token ID",
          "tokenId": "uint256 ID of the token to be transferred"
        }
      },
      "safeTransferFrom(address,address,uint256,bytes)": {
        "details": "Safely transfers the ownership of a given token ID to another address If the target address is a contract, it must implement `onERC721Received`, which is called upon a safe transfer, and return the magic value `bytes4(keccak256(\"onERC721Received(address,address,uint256,bytes)\"))`; otherwise, the transfer is reverted. Requires the msg sender to be the owner, approved, or operator",
        "params": {
          "_data": "bytes data to send along with a safe transfer check",
          "from": "current owner of the token",
          "to": "address to receive the ownership of the given token ID",
          "tokenId": "uint256 ID of the token to be transferred"
        }
      },
      "setApprovalForAll(address,bool)": {
        "details": "Sets or unsets the approval of a given operator An operator is allowed to transfer all tokens of the sender on their behalf",
        "params": {
          "approved": "representing the status of the approval to be set",
          "to": "operator address to set the approval"
        }
      },
      "supportsInterface(bytes4)": {
        "details": "implement supportsInterface(bytes4) using a lookup table"
      },
      "symbol()": {
        "details": "Gets the token symbol",
        "return": "string representing the token symbol"
      },
      "tokenByIndex(uint256)": {
        "details": "Gets the token ID at a given index of all the tokens in this contract Reverts if the index is greater or equal to the total number of tokens",
        "params": {
          "index": "uint256 representing the index to be accessed of the tokens list"
        },
        "return": "uint256 token ID at the given index of the tokens list"
      },
      "tokenOfOwnerByIndex(address,uint256)": {
        "details": "Gets the token ID at a given index of the tokens list of the requested owner",
        "params": {
          "index": "uint256 representing the index to be accessed of the requested tokens list",
          "owner": "address owning the tokens list to be accessed"
        },
        "return": "uint256 token ID at the given index of the tokens list owned by the requested address"
      },
      "totalSupply()": {
        "details": "Gets the total amount of tokens stored by the contract",
        "return": "uint256 representing the total amount of tokens"
      },
      "transferOwnership(address)": {
        "details": "Allows the current owner to transfer control of the contract to a newOwner.",
        "params": {
          "newOwner": "The address to transfer ownership to."
        }
      }
    }
  },
  "userdoc": {
    "methods": {
      "renounceOwnership()": {
        "notice": "Renouncing to ownership will leave the contract without an owner. It will not be possible to call the functions with the `onlyOwner` modifier anymore."
      }
    }
  }
}