{
  "contractName": "ShieldController",
  "abi": [
    {
      "constant": true,
      "inputs": [],
      "name": "x2",
      "outputs": [
        {
          "name": "",
          "type": "address"
        }
      ],
      "payable": false,
      "stateMutability": "view",
      "type": "function"
    },
    {
      "constant": true,
      "inputs": [],
      "name": "paused",
      "outputs": [
        {
          "name": "",
          "type": "bool"
        }
      ],
      "payable": false,
      "stateMutability": "view",
      "type": "function"
    },
    {
      "constant": true,
      "inputs": [],
      "name": "shield",
      "outputs": [
        {
          "name": "",
          "type": "address"
        }
      ],
      "payable": false,
      "stateMutability": "view",
      "type": "function"
    },
    {
      "constant": false,
      "inputs": [],
      "name": "renounceOwnership",
      "outputs": [],
      "payable": false,
      "stateMutability": "nonpayable",
      "type": "function"
    },
    {
      "constant": true,
      "inputs": [
        {
          "name": "",
          "type": "uint256"
        }
      ],
      "name": "redeemed",
      "outputs": [
        {
          "name": "",
          "type": "bool"
        }
      ],
      "payable": false,
      "stateMutability": "view",
      "type": "function"
    },
    {
      "constant": true,
      "inputs": [],
      "name": "owner",
      "outputs": [
        {
          "name": "",
          "type": "address"
        }
      ],
      "payable": false,
      "stateMutability": "view",
      "type": "function"
    },
    {
      "constant": true,
      "inputs": [],
      "name": "isOwner",
      "outputs": [
        {
          "name": "",
          "type": "bool"
        }
      ],
      "payable": false,
      "stateMutability": "view",
      "type": "function"
    },
    {
      "constant": true,
      "inputs": [],
      "name": "exodus2",
      "outputs": [
        {
          "name": "",
          "type": "address"
        }
      ],
      "payable": false,
      "stateMutability": "view",
      "type": "function"
    },
    {
      "constant": false,
      "inputs": [
        {
          "name": "newOwner",
          "type": "address"
        }
      ],
      "name": "transferOwnership",
      "outputs": [],
      "payable": false,
      "stateMutability": "nonpayable",
      "type": "function"
    },
    {
      "inputs": [
        {
          "name": "_shield",
          "type": "address"
        },
        {
          "name": "_x2",
          "type": "address"
        },
        {
          "name": "_exodus2",
          "type": "address"
        }
      ],
      "payable": false,
      "stateMutability": "nonpayable",
      "type": "constructor"
    },
    {
      "anonymous": false,
      "inputs": [
        {
          "indexed": true,
          "name": "previousOwner",
          "type": "address"
        },
        {
          "indexed": true,
          "name": "newOwner",
          "type": "address"
        }
      ],
      "name": "OwnershipTransferred",
      "type": "event"
    },
    {
      "constant": false,
      "inputs": [
        {
          "name": "_paused",
          "type": "bool"
        }
      ],
      "name": "updatePaused",
      "outputs": [],
      "payable": false,
      "stateMutability": "nonpayable",
      "type": "function"
    },
    {
      "constant": false,
      "inputs": [
        {
          "name": "tokenId",
          "type": "uint256"
        }
      ],
      "name": "createShield",
      "outputs": [],
      "payable": false,
      "stateMutability": "nonpayable",
      "type": "function"
    }
  ],
  "bytecode": "0x608060405234801561001057600080fd5b506040516060806109d58339810180604052606081101561003057600080fd5b508051602082015160409283015160008054600160a060020a03191633178082559451939492939192600160a060020a0316917f8be0079c531659141344cd1fd0a4f28419497f9722a3daafe3b4186f6b6457e0908290a36001805560028054600160a060020a03948516600160a060020a0319918216179091556004805493851693821693909317909255600380549190931691161790556108fd806100d86000396000f3fe6080604052600436106100ae5763ffffffff7c010000000000000000000000000000000000000000000000000000000060003504166308cdc2a881146100b35780634ff13571146100e15780635c975abb1461011f57806370d39cff14610148578063715018a61461015d5780637ed0f1c1146101725780638da5cb5b1461019c5780638f32d59b146101b1578063bf95d338146101c6578063f2fde38b146101db578063fcdb8c191461021b575b600080fd5b3480156100bf57600080fd5b506100df600480360360208110156100d657600080fd5b50351515610245565b005b3480156100ed57600080fd5b506100f66102a2565b6040805173ffffffffffffffffffffffffffffffffffffffff9092168252519081900360200190f35b34801561012b57600080fd5b506101346102be565b604080519115158252519081900360200190f35b34801561015457600080fd5b506100f66102df565b34801561016957600080fd5b506100df6102fb565b34801561017e57600080fd5b506101346004803603602081101561019557600080fd5b503561037d565b3480156101a857600080fd5b506100f6610392565b3480156101bd57600080fd5b506101346103ae565b3480156101d257600080fd5b506100f66103cc565b3480156101e757600080fd5b506100df600480360360208110156101fe57600080fd5b503573ffffffffffffffffffffffffffffffffffffffff166103e8565b34801561022757600080fd5b506100df6004803603602081101561023e57600080fd5b5035610407565b61024d6103ae565b151561025857600080fd5b6004805491151574010000000000000000000000000000000000000000027fffffffffffffffffffffff00ffffffffffffffffffffffffffffffffffffffff909216919091179055565b60045473ffffffffffffffffffffffffffffffffffffffff1681565b60045474010000000000000000000000000000000000000000900460ff1681565b60025473ffffffffffffffffffffffffffffffffffffffff1681565b6103036103ae565b151561030e57600080fd5b6000805460405173ffffffffffffffffffffffffffffffffffffffff909116907f8be0079c531659141344cd1fd0a4f28419497f9722a3daafe3b4186f6b6457e0908390a3600080547fffffffffffffffffffffffff0000000000000000000000000000000000000000169055565b60056020526000908152604090205460ff1681565b60005473ffffffffffffffffffffffffffffffffffffffff1690565b60005473ffffffffffffffffffffffffffffffffffffffff16331490565b60035473ffffffffffffffffffffffffffffffffffffffff1681565b6103f06103ae565b15156103fb57600080fd5b61040481610822565b50565b60045474010000000000000000000000000000000000000000900460ff161561049157604080517f08c379a000000000000000000000000000000000000000000000000000000000815260206004820152601260248201527f4d757374206e6f74206265207061757365640000000000000000000000000000604482015290519081900360640190fd5b60008181526005602052604090205460ff161561050f57604080517f08c379a000000000000000000000000000000000000000000000000000000000815260206004820152601060248201527f416c72656164792072656465656d656400000000000000000000000000000000604482015290519081900360640190fd5b601281111561057f57604080517f08c379a000000000000000000000000000000000000000000000000000000000815260206004820152601060248201527f496e76616c696420746f6b656e20494400000000000000000000000000000000604482015290519081900360640190fd5b60048054604080517f6352211e00000000000000000000000000000000000000000000000000000000815292830184905251339273ffffffffffffffffffffffffffffffffffffffff90921691636352211e916024808301926020929190829003018186803b1580156105f157600080fd5b505afa158015610605573d6000803e3d6000fd5b505050506040513d602081101561061b57600080fd5b505173ffffffffffffffffffffffffffffffffffffffff161480156106f05750600354604080517f6352211e000000000000000000000000000000000000000000000000000000008152600481018490529051339273ffffffffffffffffffffffffffffffffffffffff1691636352211e916024808301926020929190829003018186803b1580156106ac57600080fd5b505afa1580156106c0573d6000803e3d6000fd5b505050506040513d60208110156106d657600080fd5b505173ffffffffffffffffffffffffffffffffffffffff16145b151561075d57604080517f08c379a000000000000000000000000000000000000000000000000000000000815260206004820152601760248201527f4e65656420746f206f776e20626f746820746f6b656e73000000000000000000604482015290519081900360640190fd5b60008181526005602052604080822080547fffffffffffffffffffffffffffffffffffffffffffffffffffffffffffffff0016600117905560025481517f40c10f1900000000000000000000000000000000000000000000000000000000815233600482015260248101859052915173ffffffffffffffffffffffffffffffffffffffff909116926340c10f19926044808201939182900301818387803b15801561080757600080fd5b505af115801561081b573d6000803e3d6000fd5b5050505050565b73ffffffffffffffffffffffffffffffffffffffff8116151561084457600080fd5b6000805460405173ffffffffffffffffffffffffffffffffffffffff808516939216917f8be0079c531659141344cd1fd0a4f28419497f9722a3daafe3b4186f6b6457e091a3600080547fffffffffffffffffffffffff00000000000000000000000000000000000000001673ffffffffffffffffffffffffffffffffffffffff9290921691909117905556fea165627a7a72305820b1ce8ad27bd1b7d0da28841439002de7c31ee46b3507192a339b38a373f6c6aa0029",
  "source": "pragma solidity ^0.5.0;\n/**\n * The Controller is an upgradeable endpoint for controlling Folia.sol\n */\n\nimport \"./Shield.sol\";\n// import \"./EXODUS2.sol\";\n// import \"./X2.sol\";\n\nimport \"./IERC721.sol\";\n\nimport \"./SafeMath.sol\";\nimport \"./Ownable.sol\";\nimport \"./ReentrancyGuard.sol\";\n\ncontract ShieldController is Ownable, ReentrancyGuard {\n\n    using SafeMath for uint256;\n    Shield public shield;\n    IERC721 public exodus2;\n    IERC721 public x2;\n    bool public paused;\n    mapping(uint256=>bool) public redeemed;\n\n    modifier notPaused() {\n        require(!paused, \"Must not be paused\");\n        _;\n    }\n\n    constructor(\n        Shield _shield,\n        IERC721 _x2,\n        IERC721 _exodus2\n    ) public {\n        shield = _shield;\n        x2 = _x2;\n        exodus2 = _exodus2;\n    }\n\n    function updatePaused(bool _paused) public onlyOwner {\n        paused = _paused;\n    }\n\n    function createShield(uint256 tokenId) public notPaused {\n        require(!redeemed[tokenId], \"Already redeemed\");\n        require(tokenId <= 18, \"Invalid token ID\");\n        require(x2.ownerOf(tokenId) == msg.sender && exodus2.ownerOf(tokenId) == msg.sender, \"Need to own both tokens\");\n        redeemed[tokenId] = true;\n        shield.mint(msg.sender, tokenId);\n    }\n}\n",
  "sourcePath": "/Users/billy/GitHub/folia-app/folia-contracts/contracts/ShieldController.sol",
  "compiler": {
    "name": "solc",
    "version": "0.5.0+commit.1d4f565a.Emscripten.clang"
  },
  "schemaVersion": "3.4.3",
  "updatedAt": "2022-09-06T17:31:02.822Z",
  "devdoc": {
    "methods": {
      "isOwner()": {
        "return": "true if `msg.sender` is the owner of the contract."
      },
      "owner()": {
        "return": "the address of the owner."
      },
      "renounceOwnership()": {
        "details": "Allows the current owner to relinquish control of the contract."
      },
      "transferOwnership(address)": {
        "details": "Allows the current owner to transfer control of the contract to a newOwner.",
        "params": {
          "newOwner": "The address to transfer ownership to."
        }
      }
    }
  },
  "userdoc": {
    "methods": {
      "renounceOwnership()": {
        "notice": "Renouncing to ownership will leave the contract without an owner. It will not be possible to call the functions with the `onlyOwner` modifier anymore."
      }
    }
  }
}