{
  "contractName": "ShieldMetadata",
  "abi": [
    {
      "constant": false,
      "inputs": [
        {
          "name": "_base",
          "type": "string"
        }
      ],
      "name": "updateBase",
      "outputs": [],
      "payable": false,
      "stateMutability": "nonpayable",
      "type": "function"
    },
    {
      "constant": true,
      "inputs": [],
      "name": "base",
      "outputs": [
        {
          "name": "",
          "type": "string"
        }
      ],
      "payable": false,
      "stateMutability": "view",
      "type": "function"
    },
    {
      "constant": true,
      "inputs": [
        {
          "name": "x",
          "type": "uint256"
        }
      ],
      "name": "toBytes",
      "outputs": [
        {
          "name": "b",
          "type": "bytes"
        }
      ],
      "payable": false,
      "stateMutability": "pure",
      "type": "function"
    },
    {
      "constant": true,
      "inputs": [
        {
          "name": "_tokenId",
          "type": "uint256"
        }
      ],
      "name": "tokenURI",
      "outputs": [
        {
          "name": "_infoUrl",
          "type": "string"
        }
      ],
      "payable": false,
      "stateMutability": "view",
      "type": "function"
    },
    {
      "constant": true,
      "inputs": [],
      "name": "deployer",
      "outputs": [
        {
          "name": "",
          "type": "address"
        }
      ],
      "payable": false,
      "stateMutability": "view",
      "type": "function"
    },
    {
      "inputs": [
        {
          "name": "_deployer",
          "type": "address"
        },
        {
          "name": "_base",
          "type": "string"
        }
      ],
      "payable": false,
      "stateMutability": "nonpayable",
      "type": "constructor"
    }
  ],
  "bytecode": "0x608060405234801561001057600080fd5b506040516109cc3803806109cc8339810180604052604081101561003357600080fd5b81516020830180519193928301929164010000000081111561005457600080fd5b8201602081018481111561006757600080fd5b815164010000000081118282018710171561008157600080fd5b505060018054600160a060020a031916600160a060020a03871617905580519093506100b692506000915060208401906100be565b505050610159565b828054600181600116156101000203166002900490600052602060002090601f016020900481019282601f106100ff57805160ff191683800117855561012c565b8280016001018555821561012c579182015b8281111561012c578251825591602001919060010190610111565b5061013892915061013c565b5090565b61015691905b808211156101385760008155600101610142565b90565b610864806101686000396000f3fe60806040526004361061006c5763ffffffff7c01000000000000000000000000000000000000000000000000000000006000350416630f77282a81146100715780635001f3b514610126578063775a8f5e146101b0578063c87b56dd146101da578063d5f3948814610204575b600080fd5b34801561007d57600080fd5b506101246004803603602081101561009457600080fd5b8101906020810181356401000000008111156100af57600080fd5b8201836020820111156100c157600080fd5b803590602001918460018302840111640100000000831117156100e357600080fd5b91908080601f016020809104026020016040519081016040528093929190818152602001838380828437600092019190915250929550610242945050505050565b005b34801561013257600080fd5b5061013b6102df565b6040805160208082528351818301528351919283929083019185019080838360005b8381101561017557818101518382015260200161015d565b50505050905090810190601f1680156101a25780820380516001836020036101000a031916815260200191505b509250505060405180910390f35b3480156101bc57600080fd5b5061013b600480360360208110156101d357600080fd5b503561038b565b3480156101e657600080fd5b5061013b600480360360208110156101fd57600080fd5b50356103b5565b34801561021057600080fd5b506102196104e2565b6040805173ffffffffffffffffffffffffffffffffffffffff9092168252519081900360200190f35b60015473ffffffffffffffffffffffffffffffffffffffff1633146102c857604080517f08c379a000000000000000000000000000000000000000000000000000000000815260206004820152601860248201527f6f6e6c79206465706c6f7965722063616e207570646174650000000000000000604482015290519081900360640190fd5b80516102db906000906020840190610786565b5050565b6000805460408051602060026001851615610100027fffffffffffffffffffffffffffffffffffffffffffffffffffffffffffffffff0190941693909304601f810184900484028201840190925281815292918301828280156103835780601f1061035857610100808354040283529160200191610383565b820191906000526020600020905b81548152906001019060200180831161036657829003601f168201915b505050505081565b60408051602080825281830190925260609160208201818038833950505060208101929092525090565b6060806103c1836104fe565b90506104d96104046040805190810160405280600581526020017f2e6a736f6e000000000000000000000000000000000000000000000000000000815250610673565b6104c86104d461041385610673565b60008054604080516020601f60027fffffffffffffffffffffffffffffffffffffffffffffffffffffffffffffffff61010060018816150201909516949094049384018190048102820181019092528281526104c893909290918301828280156104be5780601f10610493576101008083540402835291602001916104be565b820191906000526020600020905b8154815290600101906020018083116104a157829003601f168201915b5050505050610673565b9063ffffffff61069816565b610673565b9150505b919050565b60015473ffffffffffffffffffffffffffffffffffffffff1681565b6060811515610541575060408051808201909152600181527f300000000000000000000000000000000000000000000000000000000000000060208201526104dd565b8160005b811561055957600101600a82049150610545565b6060816040519080825280601f01601f191660200182016040528015610586576020820181803883390190505b5090507fffffffffffffffffffffffffffffffffffffffffffffffffffffffffffffffff82015b851561066a576030600a8706016105c38161038b565b8051601f9081106105d057fe5b016020015183517fffffffffffffffffffffffffffffffffffffffffffffffffffffffffffffffff8401937f010000000000000000000000000000000000000000000000000000000000000092839004909202918591811061062e57fe5b9060200101907effffffffffffffffffffffffffffffffffffffffffffffffffffffffffffff1916908160001a905350600a87049650506105ad565b50949350505050565b61067b610804565b506040805180820190915281518152602082810190820152919050565b60608082600001518460000151016040519080825280601f01601f1916602001820160405280156106d0576020820181803883390190505b50905060006020820190506106ee818660200151876000015161070c565b845160208501518551610704928401919061070c565b509392505050565b5b6020811061074a5781518352602092830192909101907fffffffffffffffffffffffffffffffffffffffffffffffffffffffffffffffe00161070d565b905182516020929092036101000a7fffffffffffffffffffffffffffffffffffffffffffffffffffffffffffffffff0180199091169116179052565b828054600181600116156101000203166002900490600052602060002090601f016020900481019282601f106107c757805160ff19168380011785556107f4565b828001600101855582156107f4579182015b828111156107f45782518255916020019190600101906107d9565b5061080092915061081b565b5090565b604080518082019091526000808252602082015290565b61083591905b808211156108005760008155600101610821565b9056fea165627a7a723058203afbedb1e58900cd3a7a4b16c48628d1d8c650a5ff173de9867b5362919bc0df0029",
  "source": "pragma solidity ^0.5.0;\n/**\n* Metadata contract is upgradeable and returns metadata about Token\n*/\n\nimport \"./MetadataUpdate.sol\";\n\ncontract ShieldMetadata is MetadataUpdate {\n    constructor(address _deployer, string memory _base) public {\n        deployer = _deployer;\n        base = _base;\n    }\n}\n",
  "sourcePath": "/Users/billy/GitHub/folia-app/folia-contracts/contracts/ShieldMetadata.sol",
  "compiler": {
    "name": "solc",
    "version": "0.5.0+commit.1d4f565a.Emscripten.clang"
  },
  "schemaVersion": "3.4.3",
  "updatedAt": "2022-09-07T13:02:25.623Z",
  "devdoc": {
    "methods": {}
  },
  "userdoc": {
    "methods": {}
  }
}