{
  "contractName": "ShieldChild",
  "abi": [
    {
      "constant": true,
      "inputs": [
        {
          "name": "interfaceId",
          "type": "bytes4"
        }
      ],
      "name": "supportsInterface",
      "outputs": [
        {
          "name": "",
          "type": "bool"
        }
      ],
      "payable": false,
      "stateMutability": "view",
      "type": "function"
    },
    {
      "constant": false,
      "inputs": [
        {
          "name": "_to",
          "type": "address"
        },
        {
          "name": "_amount",
          "type": "uint256"
        },
        {
          "name": "_token",
          "type": "address"
        }
      ],
      "name": "moveToken",
      "outputs": [
        {
          "name": "",
          "type": "bool"
        }
      ],
      "payable": false,
      "stateMutability": "nonpayable",
      "type": "function"
    },
    {
      "constant": false,
      "inputs": [
        {
          "name": "_controller",
          "type": "address"
        }
      ],
      "name": "updateController",
      "outputs": [],
      "payable": false,
      "stateMutability": "nonpayable",
      "type": "function"
    },
    {
      "constant": true,
      "inputs": [],
      "name": "name",
      "outputs": [
        {
          "name": "",
          "type": "string"
        }
      ],
      "payable": false,
      "stateMutability": "view",
      "type": "function"
    },
    {
      "constant": true,
      "inputs": [
        {
          "name": "tokenId",
          "type": "uint256"
        }
      ],
      "name": "getApproved",
      "outputs": [
        {
          "name": "",
          "type": "address"
        }
      ],
      "payable": false,
      "stateMutability": "view",
      "type": "function"
    },
    {
      "constant": false,
      "inputs": [
        {
          "name": "to",
          "type": "address"
        },
        {
          "name": "tokenId",
          "type": "uint256"
        }
      ],
      "name": "approve",
      "outputs": [],
      "payable": false,
      "stateMutability": "nonpayable",
      "type": "function"
    },
    {
      "constant": false,
      "inputs": [
        {
          "name": "_admin",
          "type": "address"
        }
      ],
      "name": "removeAdmin",
      "outputs": [],
      "payable": false,
      "stateMutability": "nonpayable",
      "type": "function"
    },
    {
      "constant": true,
      "inputs": [],
      "name": "totalSupply",
      "outputs": [
        {
          "name": "",
          "type": "uint256"
        }
      ],
      "payable": false,
      "stateMutability": "view",
      "type": "function"
    },
    {
      "constant": false,
      "inputs": [
        {
          "name": "_to",
          "type": "address"
        },
        {
          "name": "_amount",
          "type": "uint256"
        }
      ],
      "name": "moveEth",
      "outputs": [],
      "payable": false,
      "stateMutability": "nonpayable",
      "type": "function"
    },
    {
      "constant": false,
      "inputs": [
        {
          "name": "from",
          "type": "address"
        },
        {
          "name": "to",
          "type": "address"
        },
        {
          "name": "tokenId",
          "type": "uint256"
        }
      ],
      "name": "transferFrom",
      "outputs": [],
      "payable": false,
      "stateMutability": "nonpayable",
      "type": "function"
    },
    {
      "constant": true,
      "inputs": [
        {
          "name": "owner",
          "type": "address"
        },
        {
          "name": "index",
          "type": "uint256"
        }
      ],
      "name": "tokenOfOwnerByIndex",
      "outputs": [
        {
          "name": "",
          "type": "uint256"
        }
      ],
      "payable": false,
      "stateMutability": "view",
      "type": "function"
    },
    {
      "constant": true,
      "inputs": [],
      "name": "metadata",
      "outputs": [
        {
          "name": "",
          "type": "address"
        }
      ],
      "payable": false,
      "stateMutability": "view",
      "type": "function"
    },
    {
      "constant": false,
      "inputs": [
        {
          "name": "recipient",
          "type": "address"
        },
        {
          "name": "tokenId",
          "type": "uint256"
        }
      ],
      "name": "mint",
      "outputs": [],
      "payable": false,
      "stateMutability": "nonpayable",
      "type": "function"
    },
    {
      "constant": false,
      "inputs": [
        {
          "name": "from",
          "type": "address"
        },
        {
          "name": "to",
          "type": "address"
        },
        {
          "name": "tokenId",
          "type": "uint256"
        }
      ],
      "name": "safeTransferFrom",
      "outputs": [],
      "payable": false,
      "stateMutability": "nonpayable",
      "type": "function"
    },
    {
      "constant": false,
      "inputs": [
        {
          "name": "tokenId",
          "type": "uint256"
        }
      ],
      "name": "burn",
      "outputs": [],
      "payable": false,
      "stateMutability": "nonpayable",
      "type": "function"
    },
    {
      "constant": true,
      "inputs": [
        {
          "name": "index",
          "type": "uint256"
        }
      ],
      "name": "tokenByIndex",
      "outputs": [
        {
          "name": "",
          "type": "uint256"
        }
      ],
      "payable": false,
      "stateMutability": "view",
      "type": "function"
    },
    {
      "constant": true,
      "inputs": [],
      "name": "childChainManagerProxy",
      "outputs": [
        {
          "name": "",
          "type": "address"
        }
      ],
      "payable": false,
      "stateMutability": "view",
      "type": "function"
    },
    {
      "constant": true,
      "inputs": [
        {
          "name": "tokenId",
          "type": "uint256"
        }
      ],
      "name": "ownerOf",
      "outputs": [
        {
          "name": "",
          "type": "address"
        }
      ],
      "payable": false,
      "stateMutability": "view",
      "type": "function"
    },
    {
      "constant": false,
      "inputs": [
        {
          "name": "_admin",
          "type": "address"
        }
      ],
      "name": "addAdmin",
      "outputs": [],
      "payable": false,
      "stateMutability": "nonpayable",
      "type": "function"
    },
    {
      "constant": true,
      "inputs": [
        {
          "name": "owner",
          "type": "address"
        }
      ],
      "name": "balanceOf",
      "outputs": [
        {
          "name": "",
          "type": "uint256"
        }
      ],
      "payable": false,
      "stateMutability": "view",
      "type": "function"
    },
    {
      "constant": false,
      "inputs": [],
      "name": "renounceOwnership",
      "outputs": [],
      "payable": false,
      "stateMutability": "nonpayable",
      "type": "function"
    },
    {
      "constant": true,
      "inputs": [],
      "name": "owner",
      "outputs": [
        {
          "name": "",
          "type": "address"
        }
      ],
      "payable": false,
      "stateMutability": "view",
      "type": "function"
    },
    {
      "constant": true,
      "inputs": [],
      "name": "isOwner",
      "outputs": [
        {
          "name": "",
          "type": "bool"
        }
      ],
      "payable": false,
      "stateMutability": "view",
      "type": "function"
    },
    {
      "constant": true,
      "inputs": [],
      "name": "symbol",
      "outputs": [
        {
          "name": "",
          "type": "string"
        }
      ],
      "payable": false,
      "stateMutability": "view",
      "type": "function"
    },
    {
      "constant": false,
      "inputs": [
        {
          "name": "to",
          "type": "address"
        },
        {
          "name": "approved",
          "type": "bool"
        }
      ],
      "name": "setApprovalForAll",
      "outputs": [],
      "payable": false,
      "stateMutability": "nonpayable",
      "type": "function"
    },
    {
      "constant": false,
      "inputs": [
        {
          "name": "from",
          "type": "address"
        },
        {
          "name": "to",
          "type": "address"
        },
        {
          "name": "tokenId",
          "type": "uint256"
        },
        {
          "name": "_data",
          "type": "bytes"
        }
      ],
      "name": "safeTransferFrom",
      "outputs": [],
      "payable": false,
      "stateMutability": "nonpayable",
      "type": "function"
    },
    {
      "constant": false,
      "inputs": [
        {
          "name": "_metadata",
          "type": "address"
        }
      ],
      "name": "updateMetadata",
      "outputs": [],
      "payable": false,
      "stateMutability": "nonpayable",
      "type": "function"
    },
    {
      "constant": true,
      "inputs": [
        {
          "name": "owner",
          "type": "address"
        },
        {
          "name": "operator",
          "type": "address"
        }
      ],
      "name": "isApprovedForAll",
      "outputs": [
        {
          "name": "",
          "type": "bool"
        }
      ],
      "payable": false,
      "stateMutability": "view",
      "type": "function"
    },
    {
      "constant": false,
      "inputs": [
        {
          "name": "newOwner",
          "type": "address"
        }
      ],
      "name": "transferOwnership",
      "outputs": [],
      "payable": false,
      "stateMutability": "nonpayable",
      "type": "function"
    },
    {
      "constant": true,
      "inputs": [],
      "name": "controller",
      "outputs": [
        {
          "name": "",
          "type": "address"
        }
      ],
      "payable": false,
      "stateMutability": "view",
      "type": "function"
    },
    {
      "inputs": [
        {
          "name": "_metadata",
          "type": "address"
        },
        {
          "name": "_childChainManagerProxy",
          "type": "address"
        }
      ],
      "payable": false,
      "stateMutability": "nonpayable",
      "type": "constructor"
    },
    {
      "anonymous": false,
      "inputs": [
        {
          "indexed": true,
          "name": "previousOwner",
          "type": "address"
        },
        {
          "indexed": true,
          "name": "newOwner",
          "type": "address"
        }
      ],
      "name": "OwnershipTransferred",
      "type": "event"
    },
    {
      "anonymous": false,
      "inputs": [
        {
          "indexed": true,
          "name": "from",
          "type": "address"
        },
        {
          "indexed": true,
          "name": "to",
          "type": "address"
        },
        {
          "indexed": true,
          "name": "tokenId",
          "type": "uint256"
        }
      ],
      "name": "Transfer",
      "type": "event"
    },
    {
      "anonymous": false,
      "inputs": [
        {
          "indexed": true,
          "name": "owner",
          "type": "address"
        },
        {
          "indexed": true,
          "name": "approved",
          "type": "address"
        },
        {
          "indexed": true,
          "name": "tokenId",
          "type": "uint256"
        }
      ],
      "name": "Approval",
      "type": "event"
    },
    {
      "anonymous": false,
      "inputs": [
        {
          "indexed": true,
          "name": "owner",
          "type": "address"
        },
        {
          "indexed": true,
          "name": "operator",
          "type": "address"
        },
        {
          "indexed": false,
          "name": "approved",
          "type": "bool"
        }
      ],
      "name": "ApprovalForAll",
      "type": "event"
    },
    {
      "constant": false,
      "inputs": [
        {
          "name": "newChildChainManagerProxy",
          "type": "address"
        }
      ],
      "name": "updateChildChainManager",
      "outputs": [],
      "payable": false,
      "stateMutability": "nonpayable",
      "type": "function"
    },
    {
      "constant": false,
      "inputs": [
        {
          "name": "user",
          "type": "address"
        },
        {
          "name": "depositData",
          "type": "bytes"
        }
      ],
      "name": "deposit",
      "outputs": [],
      "payable": false,
      "stateMutability": "nonpayable",
      "type": "function"
    },
    {
      "constant": false,
      "inputs": [
        {
          "name": "tokenId",
          "type": "uint256"
        }
      ],
      "name": "withdraw",
      "outputs": [],
      "payable": false,
      "stateMutability": "nonpayable",
      "type": "function"
    },
    {
      "constant": true,
      "inputs": [
        {
          "name": "_tokenId",
          "type": "uint256"
        }
      ],
      "name": "tokenURI",
      "outputs": [
        {
          "name": "_infoUrl",
          "type": "string"
        }
      ],
      "payable": false,
      "stateMutability": "view",
      "type": "function"
    }
  ],
  "bytecode": "0x60806040523480156200001157600080fd5b5060405160408062002d0e833981018060405260408110156200003357600080fd5b508051602091820151604080518082018252600681527f536869656c640000000000000000000000000000000000000000000000000000818601528151808301909252600482527f53484c440000000000000000000000000000000000000000000000000000000094820194909452919290918382828181620000df7f01ffc9a70000000000000000000000000000000000000000000000000000000064010000000062000273810204565b620001137f80ac58cd0000000000000000000000000000000000000000000000000000000064010000000062000273810204565b620001477f780e9d630000000000000000000000000000000000000000000000000000000064010000000062000273810204565b81516200015c90600990602085019062000373565b5080516200017290600a90602084019062000373565b50620001a77f5b5e139f0000000000000000000000000000000000000000000000000000000064010000000062000273810204565b5050600c8054600160a060020a031916331790819055604051600160a060020a03919091169250600091507f8be0079c531659141344cd1fd0a4f28419497f9722a3daafe3b4186f6b6457e0908290a3600e805461010060a860020a031916610100600160a060020a0384160217905562000232600d33640100000000620002e0810262001e931704565b5050600e805460ff8082166001011660ff199091161790555060108054600160a060020a03909216600160a060020a03199092169190911790555062000418565b7fffffffff000000000000000000000000000000000000000000000000000000008082161415620002a357600080fd5b7fffffffff00000000000000000000000000000000000000000000000000000000166000908152602081905260409020805460ff19166001179055565b600160a060020a0381161515620002f657600080fd5b6200030b82826401000000006200033b810204565b156200031657600080fd5b600160a060020a0316600090815260209190915260409020805460ff19166001179055565b6000600160a060020a03821615156200035357600080fd5b50600160a060020a03166000908152602091909152604090205460ff1690565b828054600181600116156101000203166002900490600052602060002090601f016020900481019282601f10620003b657805160ff1916838001178555620003e6565b82800160010185558215620003e6579182015b82811115620003e6578251825591602001919060010190620003c9565b50620003f4929150620003f8565b5090565b6200041591905b80821115620003f45760008155600101620003ff565b90565b6128e680620004286000396000f3fe6080604052600436106101ab5763ffffffff7c010000000000000000000000000000000000000000000000000000000060003504166301ffc9a781146101b0578063048e62ca1461021057806306cb5b661461026057806306fdde03146102a2578063081812fc1461032c578063095ea7b31461037f5780631785f53c146103c557806318160ddd146104055780631cc1472d1461042c57806323b872dd146104725780632e1a7d4d146104c25780632f745c59146104ec578063392f37e91461053257806340c10f191461054757806342842e0e1461058d57806342966c68146105dd578063445a6797146106075780634f6ccce71461064757806362f629e7146106715780636352211e1461068657806370480275146106b057806370a08231146106f0578063715018a6146107305780638da5cb5b146107455780638f32d59b1461075a57806395d89b411461076f578063a22cb46514610784578063b88d4fde146107cc578063c5e2a7db146108ac578063c87b56dd146108ec578063cf2c52cb14610916578063e985e9c5146109b0578063f2fde38b146109f8578063f77c479114610a38575b600080fd5b3480156101bc57600080fd5b506101fc600480360360208110156101d357600080fd5b50357fffffffff0000000000000000000000000000000000000000000000000000000016610a4d565b604080519115158252519081900360200190f35b34801561021c57600080fd5b506101fc6004803603606081101561023357600080fd5b5073ffffffffffffffffffffffffffffffffffffffff813581169160208101359160409091013516610a84565b34801561026c57600080fd5b506102a06004803603602081101561028357600080fd5b503573ffffffffffffffffffffffffffffffffffffffff16610cc7565b005b3480156102ae57600080fd5b506102b7610dd4565b6040805160208082528351818301528351919283929083019185019080838360005b838110156102f15781810151838201526020016102d9565b50505050905090810190601f16801561031e5780820380516001836020036101000a031916815260200191505b509250505060405180910390f35b34801561033857600080fd5b506103566004803603602081101561034f57600080fd5b5035610e89565b6040805173ffffffffffffffffffffffffffffffffffffffff9092168252519081900360200190f35b34801561038b57600080fd5b506102a0600480360360408110156103a257600080fd5b5073ffffffffffffffffffffffffffffffffffffffff8135169060200135610ec8565b3480156103d157600080fd5b506102a0600480360360208110156103e857600080fd5b503573ffffffffffffffffffffffffffffffffffffffff16610fb0565b34801561041157600080fd5b5061041a6110a1565b60408051918252519081900360200190f35b34801561043857600080fd5b506102a06004803603604081101561044f57600080fd5b5073ffffffffffffffffffffffffffffffffffffffff81351690602001356110a7565b34801561047e57600080fd5b506102a06004803603606081101561049557600080fd5b5073ffffffffffffffffffffffffffffffffffffffff8135811691602081013590911690604001356111c3565b3480156104ce57600080fd5b506102a0600480360360208110156104e557600080fd5b50356111e3565b3480156104f857600080fd5b5061041a6004803603604081101561050f57600080fd5b5073ffffffffffffffffffffffffffffffffffffffff813516906020013561127b565b34801561053e57600080fd5b506103566112d5565b34801561055357600080fd5b506102a06004803603604081101561056a57600080fd5b5073ffffffffffffffffffffffffffffffffffffffff81351690602001356112f6565b34801561059957600080fd5b506102a0600480360360608110156105b057600080fd5b5073ffffffffffffffffffffffffffffffffffffffff8135811691602081013590911690604001356113ca565b3480156105e957600080fd5b506102a06004803603602081101561060057600080fd5b50356113e6565b34801561061357600080fd5b506102a06004803603602081101561062a57600080fd5b503573ffffffffffffffffffffffffffffffffffffffff166114be565b34801561065357600080fd5b5061041a6004803603602081101561066a57600080fd5b50356115c2565b34801561067d57600080fd5b506103566115f7565b34801561069257600080fd5b50610356600480360360208110156106a957600080fd5b5035611613565b3480156106bc57600080fd5b506102a0600480360360208110156106d357600080fd5b503573ffffffffffffffffffffffffffffffffffffffff1661164a565b3480156106fc57600080fd5b5061041a6004803603602081101561071357600080fd5b503573ffffffffffffffffffffffffffffffffffffffff166116a5565b34801561073c57600080fd5b506102a06116f2565b34801561075157600080fd5b50610356611774565b34801561076657600080fd5b506101fc611790565b34801561077b57600080fd5b506102b76117ae565b34801561079057600080fd5b506102a0600480360360408110156107a757600080fd5b5073ffffffffffffffffffffffffffffffffffffffff8135169060200135151561182d565b3480156107d857600080fd5b506102a0600480360360808110156107ef57600080fd5b73ffffffffffffffffffffffffffffffffffffffff82358116926020810135909116916040820135919081019060808101606082013564010000000081111561083757600080fd5b82018360208201111561084957600080fd5b8035906020019184600183028401116401000000008311171561086b57600080fd5b91908080601f0160208091040260200160405190810160405280939291908181526020018383808284376000920191909152509295506118e9945050505050565b3480156108b857600080fd5b506102a0600480360360208110156108cf57600080fd5b503573ffffffffffffffffffffffffffffffffffffffff16611911565b3480156108f857600080fd5b506102b76004803603602081101561090f57600080fd5b5035611a23565b34801561092257600080fd5b506102a06004803603604081101561093957600080fd5b73ffffffffffffffffffffffffffffffffffffffff823516919081019060408101602082013564010000000081111561097157600080fd5b82018360208201111561098357600080fd5b803590602001918460018302840111640100000000831117156109a557600080fd5b509092509050611b46565b3480156109bc57600080fd5b506101fc600480360360408110156109d357600080fd5b5073ffffffffffffffffffffffffffffffffffffffff81358116916020013516611bec565b348015610a0457600080fd5b506102a060048036036020811015610a1b57600080fd5b503573ffffffffffffffffffffffffffffffffffffffff16611c27565b348015610a4457600080fd5b50610356611c43565b7fffffffff000000000000000000000000000000000000000000000000000000001660009081526020819052604090205460ff1690565b6000610a97600d3363ffffffff611c5f16565b80610ab95750600f5473ffffffffffffffffffffffffffffffffffffffff1633145b1515610b4c57604080517f08c379a000000000000000000000000000000000000000000000000000000000815260206004820152602660248201527f444f45535f4e4f545f484156455f41444d494e5f4f525f434f4e54524f4c4c4560448201527f525f524f4c450000000000000000000000000000000000000000000000000000606482015290519081900360840190fd5b604080517f70a08231000000000000000000000000000000000000000000000000000000008152306004820152905173ffffffffffffffffffffffffffffffffffffffff8416916370a08231916024808301926020929190829003018186803b158015610bb857600080fd5b505afa158015610bcc573d6000803e3d6000fd5b505050506040513d6020811015610be257600080fd5b5051831115610bf057600080fd5b8173ffffffffffffffffffffffffffffffffffffffff1663a9059cbb85856040518363ffffffff167c0100000000000000000000000000000000000000000000000000000000028152600401808373ffffffffffffffffffffffffffffffffffffffff1673ffffffffffffffffffffffffffffffffffffffff16815260200182815260200192505050602060405180830381600087803b158015610c9357600080fd5b505af1158015610ca7573d6000803e3d6000fd5b505050506040513d6020811015610cbd57600080fd5b5051949350505050565b610cd8600d3363ffffffff611c5f16565b80610cfa5750600f5473ffffffffffffffffffffffffffffffffffffffff1633145b1515610d8d57604080517f08c379a000000000000000000000000000000000000000000000000000000000815260206004820152602660248201527f444f45535f4e4f545f484156455f41444d494e5f4f525f434f4e54524f4c4c4560448201527f525f524f4c450000000000000000000000000000000000000000000000000000606482015290519081900360840190fd5b600f80547fffffffffffffffffffffffff00000000000000000000000000000000000000001673ffffffffffffffffffffffffffffffffffffffff92909216919091179055565b60098054604080516020601f60027fffffffffffffffffffffffffffffffffffffffffffffffffffffffffffffffff610100600188161502019095169490940493840181900481028201810190925282815260609390929091830182828015610e7e5780601f10610e5357610100808354040283529160200191610e7e565b820191906000526020600020905b815481529060010190602001808311610e6157829003601f168201915b505050505090505b90565b6000610e9482611cb0565b1515610e9f57600080fd5b5060009081526002602052604090205473ffffffffffffffffffffffffffffffffffffffff1690565b6000610ed382611613565b905073ffffffffffffffffffffffffffffffffffffffff8381169082161415610efb57600080fd5b3373ffffffffffffffffffffffffffffffffffffffff82161480610f245750610f248133611bec565b1515610f2f57600080fd5b60008281526002602052604080822080547fffffffffffffffffffffffff00000000000000000000000000000000000000001673ffffffffffffffffffffffffffffffffffffffff87811691821790925591518593918516917f8c5be1e5ebec7d5bd14f71427d1e84f3dd0314c0f7b2291e5b200ac8c7c3b92591a4505050565b610fb8611790565b1515610fc357600080fd5b600e54600160ff9091161161103957604080517f08c379a000000000000000000000000000000000000000000000000000000000815260206004820152601660248201527f43414e545f52454d4f56455f4c4153545f41444d494e00000000000000000000604482015290519081900360640190fd5b61104a600d8263ffffffff611cda16565b50600e80547fffffffffffffffffffffffffffffffffffffffffffffffffffffffffffffff00811660ff9182167fffffffffffffffffffffffffffffffffffffffffffffffffffffffffffffffff01909116179055565b60075490565b6110b8600d3363ffffffff611c5f16565b806110da5750600f5473ffffffffffffffffffffffffffffffffffffffff1633145b151561116d57604080517f08c379a000000000000000000000000000000000000000000000000000000000815260206004820152602660248201527f444f45535f4e4f545f484156455f41444d494e5f4f525f434f4e54524f4c4c4560448201527f525f524f4c450000000000000000000000000000000000000000000000000000606482015290519081900360840190fd5b303181111561117b57600080fd5b60405173ffffffffffffffffffffffffffffffffffffffff83169082156108fc029083906000818181858888f193505050501580156111be573d6000803e3d6000fd5b505050565b6111cd3382611d5e565b15156111d857600080fd5b6111be838383611df1565b6111ec81611613565b73ffffffffffffffffffffffffffffffffffffffff16331461126f57604080517f08c379a000000000000000000000000000000000000000000000000000000000815260206004820181905260248201527f4368696c644552433732313a20494e56414c49445f544f4b454e5f4f574e4552604482015290519081900360640190fd5b611278816114ac565b50565b6000611286836116a5565b821061129157600080fd5b73ffffffffffffffffffffffffffffffffffffffff831660009081526005602052604090208054839081106112c257fe5b9060005260206000200154905092915050565b600e54610100900473ffffffffffffffffffffffffffffffffffffffff1681565b611307600d3363ffffffff611c5f16565b806113295750600f5473ffffffffffffffffffffffffffffffffffffffff1633145b15156113bc57604080517f08c379a000000000000000000000000000000000000000000000000000000000815260206004820152602660248201527f444f45535f4e4f545f484156455f41444d494e5f4f525f434f4e54524f4c4c4560448201527f525f524f4c450000000000000000000000000000000000000000000000000000606482015290519081900360840190fd5b6113c68282611e10565b5050565b6111be83838360206040519081016040528060008152506118e9565b6113f7600d3363ffffffff611c5f16565b806114195750600f5473ffffffffffffffffffffffffffffffffffffffff1633145b15156114ac57604080517f08c379a000000000000000000000000000000000000000000000000000000000815260206004820152602660248201527f444f45535f4e4f545f484156455f41444d494e5f4f525f434f4e54524f4c4c4560448201527f525f524f4c450000000000000000000000000000000000000000000000000000606482015290519081900360840190fd5b6112786114b882611613565b82611e2d565b6114c6611790565b15156114d157600080fd5b73ffffffffffffffffffffffffffffffffffffffff8116151561157b57604080517f08c379a000000000000000000000000000000000000000000000000000000000815260206004820152602260248201527f426164204368696c64436861696e4d616e6167657250726f787920616464726560448201527f7373000000000000000000000000000000000000000000000000000000000000606482015290519081900360840190fd5b601080547fffffffffffffffffffffffff00000000000000000000000000000000000000001673ffffffffffffffffffffffffffffffffffffffff92909216919091179055565b60006115cc6110a1565b82106115d757600080fd5b60078054839081106115e557fe5b90600052602060002001549050919050565b60105473ffffffffffffffffffffffffffffffffffffffff1681565b60008181526001602052604081205473ffffffffffffffffffffffffffffffffffffffff1680151561164457600080fd5b92915050565b611652611790565b151561165d57600080fd5b61166e600d8263ffffffff611e9316565b50600e805460ff808216600101167fffffffffffffffffffffffffffffffffffffffffffffffffffffffffffffff00909116179055565b600073ffffffffffffffffffffffffffffffffffffffff821615156116c957600080fd5b5073ffffffffffffffffffffffffffffffffffffffff1660009081526003602052604090205490565b6116fa611790565b151561170557600080fd5b600c5460405160009173ffffffffffffffffffffffffffffffffffffffff16907f8be0079c531659141344cd1fd0a4f28419497f9722a3daafe3b4186f6b6457e0908390a3600c80547fffffffffffffffffffffffff0000000000000000000000000000000000000000169055565b600c5473ffffffffffffffffffffffffffffffffffffffff1690565b600c5473ffffffffffffffffffffffffffffffffffffffff16331490565b600a8054604080516020601f60027fffffffffffffffffffffffffffffffffffffffffffffffffffffffffffffffff610100600188161502019095169490940493840181900481028201810190925282815260609390929091830182828015610e7e5780601f10610e5357610100808354040283529160200191610e7e565b73ffffffffffffffffffffffffffffffffffffffff821633141561185057600080fd5b33600081815260046020908152604080832073ffffffffffffffffffffffffffffffffffffffff87168085529083529281902080547fffffffffffffffffffffffffffffffffffffffffffffffffffffffffffffff0016861515908117909155815190815290519293927f17307eab39ab6107e8899845ad3d59bd9653f200f220920489ca2b5937696c31929181900390910190a35050565b6118f48484846111c3565b61190084848484611f19565b151561190b57600080fd5b50505050565b611922600d3363ffffffff611c5f16565b806119445750600f5473ffffffffffffffffffffffffffffffffffffffff1633145b15156119d757604080517f08c379a000000000000000000000000000000000000000000000000000000000815260206004820152602660248201527f444f45535f4e4f545f484156455f41444d494e5f4f525f434f4e54524f4c4c4560448201527f525f524f4c450000000000000000000000000000000000000000000000000000606482015290519081900360840190fd5b600e805473ffffffffffffffffffffffffffffffffffffffff909216610100027fffffffffffffffffffffff0000000000000000000000000000000000000000ff909216919091179055565b600e54604080517fc87b56dd000000000000000000000000000000000000000000000000000000008152600481018490529051606092610100900473ffffffffffffffffffffffffffffffffffffffff169163c87b56dd916024808301926000929190829003018186803b158015611a9a57600080fd5b505afa158015611aae573d6000803e3d6000fd5b505050506040513d6000823e601f3d9081017fffffffffffffffffffffffffffffffffffffffffffffffffffffffffffffffe01682016040526020811015611af557600080fd5b810190808051640100000000811115611b0d57600080fd5b82016020810184811115611b2057600080fd5b8151640100000000811182820187101715611b3a57600080fd5b50909695505050505050565b60105473ffffffffffffffffffffffffffffffffffffffff163314611bcc57604080517f08c379a000000000000000000000000000000000000000000000000000000000815260206004820152601d60248201527f596f75277265206e6f7420616c6c6f77656420746f206465706f736974000000604482015290519081900360640190fd5b600082826020811015611bde57600080fd5b5035905061190b8482611e10565b73ffffffffffffffffffffffffffffffffffffffff918216600090815260046020908152604080832093909416825291909152205460ff1690565b611c2f611790565b1515611c3a57600080fd5b611278816120b2565b600f5473ffffffffffffffffffffffffffffffffffffffff1681565b600073ffffffffffffffffffffffffffffffffffffffff82161515611c8357600080fd5b5073ffffffffffffffffffffffffffffffffffffffff166000908152602091909152604090205460ff1690565b60009081526001602052604090205473ffffffffffffffffffffffffffffffffffffffff16151590565b73ffffffffffffffffffffffffffffffffffffffff81161515611cfc57600080fd5b611d068282611c5f565b1515611d1157600080fd5b73ffffffffffffffffffffffffffffffffffffffff1660009081526020919091526040902080547fffffffffffffffffffffffffffffffffffffffffffffffffffffffffffffff00169055565b600080611d6a83611613565b90508073ffffffffffffffffffffffffffffffffffffffff168473ffffffffffffffffffffffffffffffffffffffff161480611dd957508373ffffffffffffffffffffffffffffffffffffffff16611dc184610e89565b73ffffffffffffffffffffffffffffffffffffffff16145b80611de95750611de98185611bec565b949350505050565b611dfc838383612162565b611e0683826122d7565b6111be828261242d565b611e1a8282612478565b611e24828261242d565b6113c68161256b565b611e3782826125af565b6000818152600b602052604090205460027fffffffffffffffffffffffffffffffffffffffffffffffffffffffffffffffff6101006001841615020190911604156113c6576000818152600b602052604081206113c691612838565b73ffffffffffffffffffffffffffffffffffffffff81161515611eb557600080fd5b611ebf8282611c5f565b15611ec957600080fd5b73ffffffffffffffffffffffffffffffffffffffff1660009081526020919091526040902080547fffffffffffffffffffffffffffffffffffffffffffffffffffffffffffffff00166001179055565b6000611f3a8473ffffffffffffffffffffffffffffffffffffffff166125db565b1515611f4857506001611de9565b6040517f150b7a02000000000000000000000000000000000000000000000000000000008152336004820181815273ffffffffffffffffffffffffffffffffffffffff888116602485015260448401879052608060648501908152865160848601528651600095928a169463150b7a029490938c938b938b939260a4019060208501908083838e5b83811015611fe8578181015183820152602001611fd0565b50505050905090810190601f1680156120155780820380516001836020036101000a031916815260200191505b5095505050505050602060405180830381600087803b15801561203757600080fd5b505af115801561204b573d6000803e3d6000fd5b505050506040513d602081101561206157600080fd5b50517fffffffff00000000000000000000000000000000000000000000000000000000167f150b7a020000000000000000000000000000000000000000000000000000000014915050949350505050565b73ffffffffffffffffffffffffffffffffffffffff811615156120d457600080fd5b600c5460405173ffffffffffffffffffffffffffffffffffffffff8084169216907f8be0079c531659141344cd1fd0a4f28419497f9722a3daafe3b4186f6b6457e090600090a3600c80547fffffffffffffffffffffffff00000000000000000000000000000000000000001673ffffffffffffffffffffffffffffffffffffffff92909216919091179055565b8273ffffffffffffffffffffffffffffffffffffffff1661218282611613565b73ffffffffffffffffffffffffffffffffffffffff16146121a257600080fd5b73ffffffffffffffffffffffffffffffffffffffff821615156121c457600080fd5b6121cd816125e3565b73ffffffffffffffffffffffffffffffffffffffff831660009081526003602052604090205461220490600163ffffffff61264316565b73ffffffffffffffffffffffffffffffffffffffff808516600090815260036020526040808220939093559084168152205461224790600163ffffffff61265816565b73ffffffffffffffffffffffffffffffffffffffff8084166000818152600360209081526040808320959095558582526001905283812080547fffffffffffffffffffffffff000000000000000000000000000000000000000016831790559251849391928716917fddf252ad1be2c89b69c2b068fc378daa952ba7f163c4a11628f55a4df523b3ef91a4505050565b73ffffffffffffffffffffffffffffffffffffffff821660009081526005602052604081205461230e90600163ffffffff61264316565b6000838152600660205260409020549091508082146123d25773ffffffffffffffffffffffffffffffffffffffff8416600090815260056020526040812080548490811061235857fe5b9060005260206000200154905080600560008773ffffffffffffffffffffffffffffffffffffffff1673ffffffffffffffffffffffffffffffffffffffff168152602001908152602001600020838154811015156123b257fe5b600091825260208083209091019290925591825260069052604090208190555b73ffffffffffffffffffffffffffffffffffffffff84166000908152600560205260409020805490612426907fffffffffffffffffffffffffffffffffffffffffffffffffffffffffffffffff830161287c565b5050505050565b73ffffffffffffffffffffffffffffffffffffffff90911660009081526005602081815260408084208054868652600684529185208290559282526001810183559183529091200155565b73ffffffffffffffffffffffffffffffffffffffff8216151561249a57600080fd5b6124a381611cb0565b156124ad57600080fd5b600081815260016020818152604080842080547fffffffffffffffffffffffff00000000000000000000000000000000000000001673ffffffffffffffffffffffffffffffffffffffff8816908117909155845260039091529091205461251391612658565b73ffffffffffffffffffffffffffffffffffffffff83166000818152600360205260408082209390935591518392907fddf252ad1be2c89b69c2b068fc378daa952ba7f163c4a11628f55a4df523b3ef908290a45050565b600780546000838152600860205260408120829055600182018355919091527fa66cc928b5edb82af9bd49922954155ab7b0942694bea4ce44661d9a8736c6880155565b6125b98282612671565b6125c382826122d7565b6000818152600660205260408120556113c68161277c565b6000903b1190565b60008181526002602052604090205473ffffffffffffffffffffffffffffffffffffffff161561127857600090815260026020526040902080547fffffffffffffffffffffffff0000000000000000000000000000000000000000169055565b60008282111561265257600080fd5b50900390565b60008282018381101561266a57600080fd5b9392505050565b8173ffffffffffffffffffffffffffffffffffffffff1661269182611613565b73ffffffffffffffffffffffffffffffffffffffff16146126b157600080fd5b6126ba816125e3565b73ffffffffffffffffffffffffffffffffffffffff82166000908152600360205260409020546126f190600163ffffffff61264316565b73ffffffffffffffffffffffffffffffffffffffff83166000818152600360209081526040808320949094558482526001905282812080547fffffffffffffffffffffffff00000000000000000000000000000000000000001690559151839291907fddf252ad1be2c89b69c2b068fc378daa952ba7f163c4a11628f55a4df523b3ef908390a45050565b60075460009061279390600163ffffffff61264316565b600083815260086020526040812054600780549394509092849081106127b557fe5b90600052602060002001549050806007838154811015156127d257fe5b60009182526020808320909101929092558281526008909152604090208290556007805490612823907fffffffffffffffffffffffffffffffffffffffffffffffffffffffffffffffff830161287c565b50505060009182525060086020526040812055565b50805460018160011615610100020316600290046000825580601f1061285e5750611278565b601f016020900490600052602060002090810190611278919061289c565b8154818355818111156111be576000838152602090206111be9181019083015b610e8691905b808211156128b657600081556001016128a2565b509056fea165627a7a72305820dabe8f91a61160368d5aef73b85763fa248a5cfd79b2518f87459d259860e8d20029",
  "source": "pragma solidity ^0.5.0;\nimport \"./Folia.sol\";\nimport \"./MetadataUpdate.sol\";\n/*        \nBy David Rudnick\nProduced by Folia.app\n*/\n\ncontract ShieldChild is Folia {\n    address public childChainManagerProxy;\n\n    constructor(address _metadata, address _childChainManagerProxy) public Folia(\"Shield\", \"SHLD\", _metadata){\n          childChainManagerProxy = _childChainManagerProxy;\n    }\n\n    // being proxified smart contract, most probably childChainManagerProxy contract's address\n    // is not going to change ever, but still, lets keep it \n    function updateChildChainManager(address newChildChainManagerProxy) external onlyOwner {\n        require(newChildChainManagerProxy != address(0), \"Bad ChildChainManagerProxy address\");\n\n        childChainManagerProxy = newChildChainManagerProxy;\n    }\n\n    function deposit(address user, bytes calldata depositData) external {\n        require(msg.sender == childChainManagerProxy, \"You're not allowed to deposit\");\n\n        uint256 tokenId = abi.decode(depositData, (uint256));\n        _mint(user, tokenId);\n    }\n\n    function withdraw(uint256 tokenId) external {\n        require(msg.sender == ownerOf(tokenId), \"ChildERC721: INVALID_TOKEN_OWNER\");\n        _burn(tokenId);\n    }\n\n    function tokenURI(uint _tokenId) external view returns (string memory _infoUrl) {\n        return MetadataUpdate(metadata).tokenURI(_tokenId);\n    }\n    \n}\n",
  "sourcePath": "/Users/billy/GitHub/folia-app/folia-contracts/contracts/ShieldChild.sol",
  "compiler": {
    "name": "solc",
    "version": "0.5.0+commit.1d4f565a.Emscripten.clang"
  },
  "schemaVersion": "3.4.3",
  "updatedAt": "2022-09-07T13:02:25.618Z",
  "devdoc": {
    "methods": {
      "approve(address,uint256)": {
        "details": "Approves another address to transfer the given token ID The zero address indicates there is no approved address. There can only be one approved address per token at a given time. Can only be called by the token owner or an approved operator.",
        "params": {
          "to": "address to be approved for the given token ID",
          "tokenId": "uint256 ID of the token to be approved"
        }
      },
      "balanceOf(address)": {
        "details": "Gets the balance of the specified address",
        "params": {
          "owner": "address to query the balance of"
        },
        "return": "uint256 representing the amount owned by the passed address"
      },
      "getApproved(uint256)": {
        "details": "Gets the approved address for a token ID, or zero if no address set Reverts if the token ID does not exist.",
        "params": {
          "tokenId": "uint256 ID of the token to query the approval of"
        },
        "return": "address currently approved for the given token ID"
      },
      "isApprovedForAll(address,address)": {
        "details": "Tells whether an operator is approved by a given owner",
        "params": {
          "operator": "operator address which you want to query the approval of",
          "owner": "owner address which you want to query the approval of"
        },
        "return": "bool whether the given operator is approved by the given owner"
      },
      "isOwner()": {
        "return": "true if `msg.sender` is the owner of the contract."
      },
      "moveEth(address,uint256)": {
        "details": "Moves Eth to a certain address for use in the FoliaController",
        "params": {
          "_amount": "The amount of Eth to be transferred.",
          "_to": "The address to receive the Eth."
        }
      },
      "moveToken(address,uint256,address)": {
        "details": "Moves Token to a certain address for use in the FoliaController",
        "params": {
          "_amount": "The amount of Token to be transferred.",
          "_to": "The address to receive the Token.",
          "_token": "The address of the Token to be transferred."
        }
      },
      "name()": {
        "details": "Gets the token name",
        "return": "string representing the token name"
      },
      "owner()": {
        "return": "the address of the owner."
      },
      "ownerOf(uint256)": {
        "details": "Gets the owner of the specified token ID",
        "params": {
          "tokenId": "uint256 ID of the token to query the owner of"
        },
        "return": "owner address currently marked as the owner of the given token ID"
      },
      "renounceOwnership()": {
        "details": "Allows the current owner to relinquish control of the contract."
      },
      "safeTransferFrom(address,address,uint256)": {
        "details": "Safely transfers the ownership of a given token ID to another address If the target address is a contract, it must implement `onERC721Received`, which is called upon a safe transfer, and return the magic value `bytes4(keccak256(\"onERC721Received(address,address,uint256,bytes)\"))`; otherwise, the transfer is reverted.     * Requires the msg sender to be the owner, approved, or operator",
        "params": {
          "from": "current owner of the token",
          "to": "address to receive the ownership of the given token ID",
          "tokenId": "uint256 ID of the token to be transferred"
        }
      },
      "safeTransferFrom(address,address,uint256,bytes)": {
        "details": "Safely transfers the ownership of a given token ID to another address If the target address is a contract, it must implement `onERC721Received`, which is called upon a safe transfer, and return the magic value `bytes4(keccak256(\"onERC721Received(address,address,uint256,bytes)\"))`; otherwise, the transfer is reverted. Requires the msg sender to be the owner, approved, or operator",
        "params": {
          "_data": "bytes data to send along with a safe transfer check",
          "from": "current owner of the token",
          "to": "address to receive the ownership of the given token ID",
          "tokenId": "uint256 ID of the token to be transferred"
        }
      },
      "setApprovalForAll(address,bool)": {
        "details": "Sets or unsets the approval of a given operator An operator is allowed to transfer all tokens of the sender on their behalf",
        "params": {
          "approved": "representing the status of the approval to be set",
          "to": "operator address to set the approval"
        }
      },
      "supportsInterface(bytes4)": {
        "details": "implement supportsInterface(bytes4) using a lookup table"
      },
      "symbol()": {
        "details": "Gets the token symbol",
        "return": "string representing the token symbol"
      },
      "tokenByIndex(uint256)": {
        "details": "Gets the token ID at a given index of all the tokens in this contract Reverts if the index is greater or equal to the total number of tokens",
        "params": {
          "index": "uint256 representing the index to be accessed of the tokens list"
        },
        "return": "uint256 token ID at the given index of the tokens list"
      },
      "tokenOfOwnerByIndex(address,uint256)": {
        "details": "Gets the token ID at a given index of the tokens list of the requested owner",
        "params": {
          "index": "uint256 representing the index to be accessed of the requested tokens list",
          "owner": "address owning the tokens list to be accessed"
        },
        "return": "uint256 token ID at the given index of the tokens list owned by the requested address"
      },
      "totalSupply()": {
        "details": "Gets the total amount of tokens stored by the contract",
        "return": "uint256 representing the total amount of tokens"
      },
      "transferFrom(address,address,uint256)": {
        "details": "Transfers the ownership of a given token ID to another address Usage of this method is discouraged, use `safeTransferFrom` whenever possible Requires the msg sender to be the owner, approved, or operator",
        "params": {
          "from": "current owner of the token",
          "to": "address to receive the ownership of the given token ID",
          "tokenId": "uint256 ID of the token to be transferred"
        }
      },
      "transferOwnership(address)": {
        "details": "Allows the current owner to transfer control of the contract to a newOwner.",
        "params": {
          "newOwner": "The address to transfer ownership to."
        }
      }
    }
  },
  "userdoc": {
    "methods": {
      "renounceOwnership()": {
        "notice": "Renouncing to ownership will leave the contract without an owner. It will not be possible to call the functions with the `onlyOwner` modifier anymore."
      }
    }
  }
}