{
  "contractName": "SimpleShadowController",
  "abi": [
    {
      "constant": true,
      "inputs": [],
      "name": "paused",
      "outputs": [
        {
          "name": "",
          "type": "bool"
        }
      ],
      "payable": false,
      "stateMutability": "view",
      "type": "function"
    },
    {
      "constant": false,
      "inputs": [],
      "name": "renounceOwnership",
      "outputs": [],
      "payable": false,
      "stateMutability": "nonpayable",
      "type": "function"
    },
    {
      "constant": true,
      "inputs": [],
      "name": "owner",
      "outputs": [
        {
          "name": "",
          "type": "address"
        }
      ],
      "payable": false,
      "stateMutability": "view",
      "type": "function"
    },
    {
      "constant": true,
      "inputs": [],
      "name": "isOwner",
      "outputs": [
        {
          "name": "",
          "type": "bool"
        }
      ],
      "payable": false,
      "stateMutability": "view",
      "type": "function"
    },
    {
      "constant": false,
      "inputs": [
        {
          "name": "newOwner",
          "type": "address"
        }
      ],
      "name": "transferOwnership",
      "outputs": [],
      "payable": false,
      "stateMutability": "nonpayable",
      "type": "function"
    },
    {
      "inputs": [],
      "payable": false,
      "stateMutability": "nonpayable",
      "type": "constructor"
    },
    {
      "anonymous": false,
      "inputs": [
        {
          "indexed": true,
          "name": "previousOwner",
          "type": "address"
        },
        {
          "indexed": true,
          "name": "newOwner",
          "type": "address"
        }
      ],
      "name": "OwnershipTransferred",
      "type": "event"
    },
    {
      "constant": true,
      "inputs": [
        {
          "name": "from",
          "type": "address"
        },
        {
          "name": "to",
          "type": "address"
        },
        {
          "name": "tokenId",
          "type": "uint256"
        }
      ],
      "name": "isLocked",
      "outputs": [
        {
          "name": "",
          "type": "bool"
        }
      ],
      "payable": false,
      "stateMutability": "view",
      "type": "function"
    },
    {
      "constant": false,
      "inputs": [
        {
          "name": "_paused",
          "type": "bool"
        }
      ],
      "name": "updatePaused",
      "outputs": [],
      "payable": false,
      "stateMutability": "nonpayable",
      "type": "function"
    }
  ],
  "bytecode": "0x608060405234801561001057600080fd5b5060008054600160a060020a0319163317808255604051600160a060020a039190911691907f8be0079c531659141344cd1fd0a4f28419497f9722a3daafe3b4186f6b6457e0908290a361042f806100696000396000f3fe6080604052600436106100825763ffffffff7c010000000000000000000000000000000000000000000000000000000060003504166308cdc2a881146100875780632b879782146100b55780635c975abb14610119578063715018a61461012e5780638da5cb5b146101435780638f32d59b14610181578063f2fde38b14610196575b600080fd5b34801561009357600080fd5b506100b3600480360360208110156100aa57600080fd5b503515156101d6565b005b3480156100c157600080fd5b50610105600480360360608110156100d857600080fd5b5073ffffffffffffffffffffffffffffffffffffffff813581169160208101359091169060400135610233565b604080519115158252519081900360200190f35b34801561012557600080fd5b50610105610258565b34801561013a57600080fd5b506100b3610279565b34801561014f57600080fd5b506101586102fb565b6040805173ffffffffffffffffffffffffffffffffffffffff9092168252519081900360200190f35b34801561018d57600080fd5b50610105610317565b3480156101a257600080fd5b506100b3600480360360208110156101b957600080fd5b503573ffffffffffffffffffffffffffffffffffffffff16610335565b6101de610317565b15156101e957600080fd5b6000805491151574010000000000000000000000000000000000000000027fffffffffffffffffffffff00ffffffffffffffffffffffffffffffffffffffff909216919091179055565b505060005474010000000000000000000000000000000000000000900460ff16919050565b60005474010000000000000000000000000000000000000000900460ff1681565b610281610317565b151561028c57600080fd5b6000805460405173ffffffffffffffffffffffffffffffffffffffff909116907f8be0079c531659141344cd1fd0a4f28419497f9722a3daafe3b4186f6b6457e0908390a3600080547fffffffffffffffffffffffff0000000000000000000000000000000000000000169055565b60005473ffffffffffffffffffffffffffffffffffffffff1690565b60005473ffffffffffffffffffffffffffffffffffffffff16331490565b61033d610317565b151561034857600080fd5b61035181610354565b50565b73ffffffffffffffffffffffffffffffffffffffff8116151561037657600080fd5b6000805460405173ffffffffffffffffffffffffffffffffffffffff808516939216917f8be0079c531659141344cd1fd0a4f28419497f9722a3daafe3b4186f6b6457e091a3600080547fffffffffffffffffffffffff00000000000000000000000000000000000000001673ffffffffffffffffffffffffffffffffffffffff9290921691909117905556fea165627a7a72305820bc30c63bf3e18c99f283e3eaa4f07f76ddd445fc521d4cffed0c4e0d21e76ef00029",
  "source": "pragma solidity ^0.5.0;\n/**\n * The Controller is an upgradeable endpoint for controlling Folia.sol\n */\n\nimport \"./IShadowController.sol\";\nimport \"./Ownable.sol\";\n\ncontract SimpleShadowController is IShadowController, Ownable {\n\n    bool public paused;\n\n    constructor() public {}\n\n    // this function will be replaced by LUX ERC20 logic eventually\n    function isLocked(address from, address to, uint256 tokenId) external view returns (bool) {\n        return paused;\n    }\n\n    function updatePaused(bool _paused) public onlyOwner {\n        paused = _paused;\n    }\n}\n",
  "sourcePath": "/Users/billy/GitHub/folia-app/folia-contracts/contracts/SimpleShadowController.sol",
  "compiler": {
    "name": "solc",
    "version": "0.5.0+commit.1d4f565a.Emscripten.clang"
  },
  "schemaVersion": "3.4.3",
  "updatedAt": "2022-09-07T13:30:56.517Z",
  "networkType": "ethereum",
  "devdoc": {
    "methods": {
      "isOwner()": {
        "return": "true if `msg.sender` is the owner of the contract."
      },
      "owner()": {
        "return": "the address of the owner."
      },
      "renounceOwnership()": {
        "details": "Allows the current owner to relinquish control of the contract."
      },
      "transferOwnership(address)": {
        "details": "Allows the current owner to transfer control of the contract to a newOwner.",
        "params": {
          "newOwner": "The address to transfer ownership to."
        }
      }
    }
  },
  "userdoc": {
    "methods": {
      "renounceOwnership()": {
        "notice": "Renouncing to ownership will leave the contract without an owner. It will not be possible to call the functions with the `onlyOwner` modifier anymore."
      }
    }
  }
}