{
  "contractName": "TestToken",
  "abi": [
    {
      "constant": true,
      "inputs": [
        {
          "name": "interfaceId",
          "type": "bytes4"
        }
      ],
      "name": "supportsInterface",
      "outputs": [
        {
          "name": "",
          "type": "bool"
        }
      ],
      "payable": false,
      "stateMutability": "view",
      "type": "function"
    },
    {
      "constant": true,
      "inputs": [],
      "name": "name",
      "outputs": [
        {
          "name": "",
          "type": "string"
        }
      ],
      "payable": false,
      "stateMutability": "view",
      "type": "function"
    },
    {
      "constant": true,
      "inputs": [
        {
          "name": "tokenId",
          "type": "uint256"
        }
      ],
      "name": "getApproved",
      "outputs": [
        {
          "name": "",
          "type": "address"
        }
      ],
      "payable": false,
      "stateMutability": "view",
      "type": "function"
    },
    {
      "constant": false,
      "inputs": [
        {
          "name": "to",
          "type": "address"
        },
        {
          "name": "tokenId",
          "type": "uint256"
        }
      ],
      "name": "approve",
      "outputs": [],
      "payable": false,
      "stateMutability": "nonpayable",
      "type": "function"
    },
    {
      "constant": true,
      "inputs": [],
      "name": "totalSupply",
      "outputs": [
        {
          "name": "",
          "type": "uint256"
        }
      ],
      "payable": false,
      "stateMutability": "view",
      "type": "function"
    },
    {
      "constant": false,
      "inputs": [
        {
          "name": "from",
          "type": "address"
        },
        {
          "name": "to",
          "type": "address"
        },
        {
          "name": "tokenId",
          "type": "uint256"
        }
      ],
      "name": "transferFrom",
      "outputs": [],
      "payable": false,
      "stateMutability": "nonpayable",
      "type": "function"
    },
    {
      "constant": true,
      "inputs": [
        {
          "name": "owner",
          "type": "address"
        },
        {
          "name": "index",
          "type": "uint256"
        }
      ],
      "name": "tokenOfOwnerByIndex",
      "outputs": [
        {
          "name": "",
          "type": "uint256"
        }
      ],
      "payable": false,
      "stateMutability": "view",
      "type": "function"
    },
    {
      "constant": false,
      "inputs": [
        {
          "name": "from",
          "type": "address"
        },
        {
          "name": "to",
          "type": "address"
        },
        {
          "name": "tokenId",
          "type": "uint256"
        }
      ],
      "name": "safeTransferFrom",
      "outputs": [],
      "payable": false,
      "stateMutability": "nonpayable",
      "type": "function"
    },
    {
      "constant": true,
      "inputs": [
        {
          "name": "index",
          "type": "uint256"
        }
      ],
      "name": "tokenByIndex",
      "outputs": [
        {
          "name": "",
          "type": "uint256"
        }
      ],
      "payable": false,
      "stateMutability": "view",
      "type": "function"
    },
    {
      "constant": true,
      "inputs": [
        {
          "name": "tokenId",
          "type": "uint256"
        }
      ],
      "name": "ownerOf",
      "outputs": [
        {
          "name": "",
          "type": "address"
        }
      ],
      "payable": false,
      "stateMutability": "view",
      "type": "function"
    },
    {
      "constant": true,
      "inputs": [
        {
          "name": "owner",
          "type": "address"
        }
      ],
      "name": "balanceOf",
      "outputs": [
        {
          "name": "",
          "type": "uint256"
        }
      ],
      "payable": false,
      "stateMutability": "view",
      "type": "function"
    },
    {
      "constant": true,
      "inputs": [],
      "name": "symbol",
      "outputs": [
        {
          "name": "",
          "type": "string"
        }
      ],
      "payable": false,
      "stateMutability": "view",
      "type": "function"
    },
    {
      "constant": false,
      "inputs": [
        {
          "name": "to",
          "type": "address"
        },
        {
          "name": "approved",
          "type": "bool"
        }
      ],
      "name": "setApprovalForAll",
      "outputs": [],
      "payable": false,
      "stateMutability": "nonpayable",
      "type": "function"
    },
    {
      "constant": false,
      "inputs": [
        {
          "name": "from",
          "type": "address"
        },
        {
          "name": "to",
          "type": "address"
        },
        {
          "name": "tokenId",
          "type": "uint256"
        },
        {
          "name": "_data",
          "type": "bytes"
        }
      ],
      "name": "safeTransferFrom",
      "outputs": [],
      "payable": false,
      "stateMutability": "nonpayable",
      "type": "function"
    },
    {
      "constant": true,
      "inputs": [
        {
          "name": "tokenId",
          "type": "uint256"
        }
      ],
      "name": "tokenURI",
      "outputs": [
        {
          "name": "",
          "type": "string"
        }
      ],
      "payable": false,
      "stateMutability": "view",
      "type": "function"
    },
    {
      "constant": true,
      "inputs": [
        {
          "name": "owner",
          "type": "address"
        },
        {
          "name": "operator",
          "type": "address"
        }
      ],
      "name": "isApprovedForAll",
      "outputs": [
        {
          "name": "",
          "type": "bool"
        }
      ],
      "payable": false,
      "stateMutability": "view",
      "type": "function"
    },
    {
      "anonymous": false,
      "inputs": [
        {
          "indexed": true,
          "name": "from",
          "type": "address"
        },
        {
          "indexed": true,
          "name": "to",
          "type": "address"
        },
        {
          "indexed": true,
          "name": "tokenId",
          "type": "uint256"
        }
      ],
      "name": "Transfer",
      "type": "event"
    },
    {
      "anonymous": false,
      "inputs": [
        {
          "indexed": true,
          "name": "owner",
          "type": "address"
        },
        {
          "indexed": true,
          "name": "approved",
          "type": "address"
        },
        {
          "indexed": true,
          "name": "tokenId",
          "type": "uint256"
        }
      ],
      "name": "Approval",
      "type": "event"
    },
    {
      "anonymous": false,
      "inputs": [
        {
          "indexed": true,
          "name": "owner",
          "type": "address"
        },
        {
          "indexed": true,
          "name": "operator",
          "type": "address"
        },
        {
          "indexed": false,
          "name": "approved",
          "type": "bool"
        }
      ],
      "name": "ApprovalForAll",
      "type": "event"
    },
    {
      "constant": false,
      "inputs": [
        {
          "name": "recipient",
          "type": "address"
        },
        {
          "name": "tokenId",
          "type": "uint256"
        }
      ],
      "name": "mint",
      "outputs": [],
      "payable": false,
      "stateMutability": "nonpayable",
      "type": "function"
    }
  ],
  "bytecode": "0x600560809081527f746f6b656e00000000000000000000000000000000000000000000000000000060a052610100604052600660c09081527f73796d626f6c000000000000000000000000000000000000000000000000000060e0528181620000917f01ffc9a70000000000000000000000000000000000000000000000000000000064010000000062000163810204565b620000c57f80ac58cd0000000000000000000000000000000000000000000000000000000064010000000062000163810204565b620000f97f780e9d630000000000000000000000000000000000000000000000000000000064010000000062000163810204565b81516200010e906009906020850190620001d0565b5080516200012490600a906020840190620001d0565b50620001597f5b5e139f0000000000000000000000000000000000000000000000000000000064010000000062000163810204565b5050505062000275565b7fffffffff0000000000000000000000000000000000000000000000000000000080821614156200019357600080fd5b7fffffffff00000000000000000000000000000000000000000000000000000000166000908152602081905260409020805460ff19166001179055565b828054600181600116156101000203166002900490600052602060002090601f016020900481019282601f106200021357805160ff191683800117855562000243565b8280016001018555821562000243579182015b828111156200024357825182559160200191906001019062000226565b506200025192915062000255565b5090565b6200027291905b808211156200025157600081556001016200025c565b90565b6113dc80620002856000396000f3fe6080604052600436106100f05763ffffffff7c010000000000000000000000000000000000000000000000000000000060003504166301ffc9a781146100f557806306fdde0314610155578063081812fc146101df578063095ea7b31461023257806318160ddd1461027a57806323b872dd146102a15780632f745c59146102f157806340c10f191461033757806342842e0e1461037d5780634f6ccce7146103cd5780636352211e146103f757806370a082311461042157806395d89b4114610461578063a22cb46514610476578063b88d4fde146104be578063c87b56dd1461059e578063e985e9c5146105c8575b600080fd5b34801561010157600080fd5b506101416004803603602081101561011857600080fd5b50357fffffffff0000000000000000000000000000000000000000000000000000000016610610565b604080519115158252519081900360200190f35b34801561016157600080fd5b5061016a610647565b6040805160208082528351818301528351919283929083019185019080838360005b838110156101a457818101518382015260200161018c565b50505050905090810190601f1680156101d15780820380516001836020036101000a031916815260200191505b509250505060405180910390f35b3480156101eb57600080fd5b506102096004803603602081101561020257600080fd5b50356106fc565b6040805173ffffffffffffffffffffffffffffffffffffffff9092168252519081900360200190f35b34801561023e57600080fd5b506102786004803603604081101561025557600080fd5b5073ffffffffffffffffffffffffffffffffffffffff813516906020013561073b565b005b34801561028657600080fd5b5061028f610823565b60408051918252519081900360200190f35b3480156102ad57600080fd5b50610278600480360360608110156102c457600080fd5b5073ffffffffffffffffffffffffffffffffffffffff813581169160208101359091169060400135610829565b3480156102fd57600080fd5b5061028f6004803603604081101561031457600080fd5b5073ffffffffffffffffffffffffffffffffffffffff813516906020013561084e565b34801561034357600080fd5b506102786004803603604081101561035a57600080fd5b5073ffffffffffffffffffffffffffffffffffffffff81351690602001356108a8565b34801561038957600080fd5b50610278600480360360608110156103a057600080fd5b5073ffffffffffffffffffffffffffffffffffffffff8135811691602081013590911690604001356108b6565b3480156103d957600080fd5b5061028f600480360360208110156103f057600080fd5b50356108d2565b34801561040357600080fd5b506102096004803603602081101561041a57600080fd5b5035610907565b34801561042d57600080fd5b5061028f6004803603602081101561044457600080fd5b503573ffffffffffffffffffffffffffffffffffffffff1661093e565b34801561046d57600080fd5b5061016a61098b565b34801561048257600080fd5b506102786004803603604081101561049957600080fd5b5073ffffffffffffffffffffffffffffffffffffffff81351690602001351515610a0a565b3480156104ca57600080fd5b50610278600480360360808110156104e157600080fd5b73ffffffffffffffffffffffffffffffffffffffff82358116926020810135909116916040820135919081019060808101606082013564010000000081111561052957600080fd5b82018360208201111561053b57600080fd5b8035906020019184600183028401116401000000008311171561055d57600080fd5b91908080601f016020809104026020016040519081016040528093929190818152602001838380828437600092019190915250929550610ac6945050505050565b3480156105aa57600080fd5b5061016a600480360360208110156105c157600080fd5b5035610aee565b3480156105d457600080fd5b50610141600480360360408110156105eb57600080fd5b5073ffffffffffffffffffffffffffffffffffffffff81358116916020013516610bc1565b7fffffffff000000000000000000000000000000000000000000000000000000001660009081526020819052604090205460ff1690565b60098054604080516020601f60027fffffffffffffffffffffffffffffffffffffffffffffffffffffffffffffffff6101006001881615020190951694909404938401819004810282018101909252828152606093909290918301828280156106f15780601f106106c6576101008083540402835291602001916106f1565b820191906000526020600020905b8154815290600101906020018083116106d457829003601f168201915b505050505090505b90565b600061070782610bfc565b151561071257600080fd5b5060009081526002602052604090205473ffffffffffffffffffffffffffffffffffffffff1690565b600061074682610907565b905073ffffffffffffffffffffffffffffffffffffffff838116908216141561076e57600080fd5b3373ffffffffffffffffffffffffffffffffffffffff8216148061079757506107978133610bc1565b15156107a257600080fd5b60008281526002602052604080822080547fffffffffffffffffffffffff00000000000000000000000000000000000000001673ffffffffffffffffffffffffffffffffffffffff87811691821790925591518593918516917f8c5be1e5ebec7d5bd14f71427d1e84f3dd0314c0f7b2291e5b200ac8c7c3b92591a4505050565b60075490565b6108333382610c26565b151561083e57600080fd5b610849838383610cb9565b505050565b60006108598361093e565b821061086457600080fd5b73ffffffffffffffffffffffffffffffffffffffff8316600090815260056020526040902080548390811061089557fe5b9060005260206000200154905092915050565b6108b28282610cd8565b5050565b6108498383836020604051908101604052806000815250610ac6565b60006108dc610823565b82106108e757600080fd5b60078054839081106108f557fe5b90600052602060002001549050919050565b60008181526001602052604081205473ffffffffffffffffffffffffffffffffffffffff1680151561093857600080fd5b92915050565b600073ffffffffffffffffffffffffffffffffffffffff8216151561096257600080fd5b5073ffffffffffffffffffffffffffffffffffffffff1660009081526003602052604090205490565b600a8054604080516020601f60027fffffffffffffffffffffffffffffffffffffffffffffffffffffffffffffffff6101006001881615020190951694909404938401819004810282018101909252828152606093909290918301828280156106f15780601f106106c6576101008083540402835291602001916106f1565b73ffffffffffffffffffffffffffffffffffffffff8216331415610a2d57600080fd5b33600081815260046020908152604080832073ffffffffffffffffffffffffffffffffffffffff87168085529083529281902080547fffffffffffffffffffffffffffffffffffffffffffffffffffffffffffffff0016861515908117909155815190815290519293927f17307eab39ab6107e8899845ad3d59bd9653f200f220920489ca2b5937696c31929181900390910190a35050565b610ad1848484610829565b610add84848484610cf5565b1515610ae857600080fd5b50505050565b6060610af982610bfc565b1515610b0457600080fd5b6000828152600b602090815260409182902080548351601f60027fffffffffffffffffffffffffffffffffffffffffffffffffffffffffffffffff61010060018616150201909316929092049182018490048402810184019094528084529091830182828015610bb55780601f10610b8a57610100808354040283529160200191610bb5565b820191906000526020600020905b815481529060010190602001808311610b9857829003601f168201915b50505050509050919050565b73ffffffffffffffffffffffffffffffffffffffff918216600090815260046020908152604080832093909416825291909152205460ff1690565b60009081526001602052604090205473ffffffffffffffffffffffffffffffffffffffff16151590565b600080610c3283610907565b90508073ffffffffffffffffffffffffffffffffffffffff168473ffffffffffffffffffffffffffffffffffffffff161480610ca157508373ffffffffffffffffffffffffffffffffffffffff16610c89846106fc565b73ffffffffffffffffffffffffffffffffffffffff16145b80610cb15750610cb18185610bc1565b949350505050565b610cc4838383610e8e565b610cce8382611003565b6108498282611159565b610ce282826111a4565b610cec8282611159565b6108b281611297565b6000610d168473ffffffffffffffffffffffffffffffffffffffff166112db565b1515610d2457506001610cb1565b6040517f150b7a02000000000000000000000000000000000000000000000000000000008152336004820181815273ffffffffffffffffffffffffffffffffffffffff888116602485015260448401879052608060648501908152865160848601528651600095928a169463150b7a029490938c938b938b939260a4019060208501908083838e5b83811015610dc4578181015183820152602001610dac565b50505050905090810190601f168015610df15780820380516001836020036101000a031916815260200191505b5095505050505050602060405180830381600087803b158015610e1357600080fd5b505af1158015610e27573d6000803e3d6000fd5b505050506040513d6020811015610e3d57600080fd5b50517fffffffff00000000000000000000000000000000000000000000000000000000167f150b7a020000000000000000000000000000000000000000000000000000000014915050949350505050565b8273ffffffffffffffffffffffffffffffffffffffff16610eae82610907565b73ffffffffffffffffffffffffffffffffffffffff1614610ece57600080fd5b73ffffffffffffffffffffffffffffffffffffffff82161515610ef057600080fd5b610ef9816112e3565b73ffffffffffffffffffffffffffffffffffffffff8316600090815260036020526040902054610f3090600163ffffffff61134516565b73ffffffffffffffffffffffffffffffffffffffff8085166000908152600360205260408082209390935590841681522054610f7390600163ffffffff61135a16565b73ffffffffffffffffffffffffffffffffffffffff8084166000818152600360209081526040808320959095558582526001905283812080547fffffffffffffffffffffffff000000000000000000000000000000000000000016831790559251849391928716917fddf252ad1be2c89b69c2b068fc378daa952ba7f163c4a11628f55a4df523b3ef91a4505050565b73ffffffffffffffffffffffffffffffffffffffff821660009081526005602052604081205461103a90600163ffffffff61134516565b6000838152600660205260409020549091508082146110fe5773ffffffffffffffffffffffffffffffffffffffff8416600090815260056020526040812080548490811061108457fe5b9060005260206000200154905080600560008773ffffffffffffffffffffffffffffffffffffffff1673ffffffffffffffffffffffffffffffffffffffff168152602001908152602001600020838154811015156110de57fe5b600091825260208083209091019290925591825260069052604090208190555b73ffffffffffffffffffffffffffffffffffffffff84166000908152600560205260409020805490611152907fffffffffffffffffffffffffffffffffffffffffffffffffffffffffffffffff8301611373565b5050505050565b73ffffffffffffffffffffffffffffffffffffffff90911660009081526005602081815260408084208054868652600684529185208290559282526001810183559183529091200155565b73ffffffffffffffffffffffffffffffffffffffff821615156111c657600080fd5b6111cf81610bfc565b156111d957600080fd5b600081815260016020818152604080842080547fffffffffffffffffffffffff00000000000000000000000000000000000000001673ffffffffffffffffffffffffffffffffffffffff8816908117909155845260039091529091205461123f9161135a565b73ffffffffffffffffffffffffffffffffffffffff83166000818152600360205260408082209390935591518392907fddf252ad1be2c89b69c2b068fc378daa952ba7f163c4a11628f55a4df523b3ef908290a45050565b600780546000838152600860205260408120829055600182018355919091527fa66cc928b5edb82af9bd49922954155ab7b0942694bea4ce44661d9a8736c6880155565b6000903b1190565b60008181526002602052604090205473ffffffffffffffffffffffffffffffffffffffff161561134257600081815260026020526040902080547fffffffffffffffffffffffff00000000000000000000000000000000000000001690555b50565b60008282111561135457600080fd5b50900390565b60008282018381101561136c57600080fd5b9392505050565b815481835581811115610849576000838152602090206108499181019083016106f991905b808211156113ac5760008155600101611398565b509056fea165627a7a72305820e6ddd95248e43e164b8244e7328efa213b4be2d7d8acd78b97eb3e2953317d850029",
  "source": "pragma solidity ^0.5.0;\n\nimport \"./ERC721Full.sol\";\n\ncontract TestToken is ERC721Full(\"token\", \"symbol\") {\n    function mint(address recipient, uint256 tokenId) external {\n        _mint(recipient, tokenId);\n    }\n}",
  "sourcePath": "/Users/billy/GitHub/folia-app/folia-contracts/contracts/TestToken.sol",
  "compiler": {
    "name": "solc",
    "version": "0.5.0+commit.1d4f565a.Emscripten.clang"
  },
  "schemaVersion": "3.4.3",
  "updatedAt": "2022-09-06T12:49:38.913Z",
  "devdoc": {
    "methods": {
      "approve(address,uint256)": {
        "details": "Approves another address to transfer the given token ID The zero address indicates there is no approved address. There can only be one approved address per token at a given time. Can only be called by the token owner or an approved operator.",
        "params": {
          "to": "address to be approved for the given token ID",
          "tokenId": "uint256 ID of the token to be approved"
        }
      },
      "balanceOf(address)": {
        "details": "Gets the balance of the specified address",
        "params": {
          "owner": "address to query the balance of"
        },
        "return": "uint256 representing the amount owned by the passed address"
      },
      "getApproved(uint256)": {
        "details": "Gets the approved address for a token ID, or zero if no address set Reverts if the token ID does not exist.",
        "params": {
          "tokenId": "uint256 ID of the token to query the approval of"
        },
        "return": "address currently approved for the given token ID"
      },
      "isApprovedForAll(address,address)": {
        "details": "Tells whether an operator is approved by a given owner",
        "params": {
          "operator": "operator address which you want to query the approval of",
          "owner": "owner address which you want to query the approval of"
        },
        "return": "bool whether the given operator is approved by the given owner"
      },
      "name()": {
        "details": "Gets the token name",
        "return": "string representing the token name"
      },
      "ownerOf(uint256)": {
        "details": "Gets the owner of the specified token ID",
        "params": {
          "tokenId": "uint256 ID of the token to query the owner of"
        },
        "return": "owner address currently marked as the owner of the given token ID"
      },
      "safeTransferFrom(address,address,uint256)": {
        "details": "Safely transfers the ownership of a given token ID to another address If the target address is a contract, it must implement `onERC721Received`, which is called upon a safe transfer, and return the magic value `bytes4(keccak256(\"onERC721Received(address,address,uint256,bytes)\"))`; otherwise, the transfer is reverted.     * Requires the msg sender to be the owner, approved, or operator",
        "params": {
          "from": "current owner of the token",
          "to": "address to receive the ownership of the given token ID",
          "tokenId": "uint256 ID of the token to be transferred"
        }
      },
      "safeTransferFrom(address,address,uint256,bytes)": {
        "details": "Safely transfers the ownership of a given token ID to another address If the target address is a contract, it must implement `onERC721Received`, which is called upon a safe transfer, and return the magic value `bytes4(keccak256(\"onERC721Received(address,address,uint256,bytes)\"))`; otherwise, the transfer is reverted. Requires the msg sender to be the owner, approved, or operator",
        "params": {
          "_data": "bytes data to send along with a safe transfer check",
          "from": "current owner of the token",
          "to": "address to receive the ownership of the given token ID",
          "tokenId": "uint256 ID of the token to be transferred"
        }
      },
      "setApprovalForAll(address,bool)": {
        "details": "Sets or unsets the approval of a given operator An operator is allowed to transfer all tokens of the sender on their behalf",
        "params": {
          "approved": "representing the status of the approval to be set",
          "to": "operator address to set the approval"
        }
      },
      "supportsInterface(bytes4)": {
        "details": "implement supportsInterface(bytes4) using a lookup table"
      },
      "symbol()": {
        "details": "Gets the token symbol",
        "return": "string representing the token symbol"
      },
      "tokenByIndex(uint256)": {
        "details": "Gets the token ID at a given index of all the tokens in this contract Reverts if the index is greater or equal to the total number of tokens",
        "params": {
          "index": "uint256 representing the index to be accessed of the tokens list"
        },
        "return": "uint256 token ID at the given index of the tokens list"
      },
      "tokenOfOwnerByIndex(address,uint256)": {
        "details": "Gets the token ID at a given index of the tokens list of the requested owner",
        "params": {
          "index": "uint256 representing the index to be accessed of the requested tokens list",
          "owner": "address owning the tokens list to be accessed"
        },
        "return": "uint256 token ID at the given index of the tokens list owned by the requested address"
      },
      "tokenURI(uint256)": {
        "details": "Returns an URI for a given token ID Throws if the token ID does not exist. May return an empty string.",
        "params": {
          "tokenId": "uint256 ID of the token to query"
        }
      },
      "totalSupply()": {
        "details": "Gets the total amount of tokens stored by the contract",
        "return": "uint256 representing the total amount of tokens"
      },
      "transferFrom(address,address,uint256)": {
        "details": "Transfers the ownership of a given token ID to another address Usage of this method is discouraged, use `safeTransferFrom` whenever possible Requires the msg sender to be the owner, approved, or operator",
        "params": {
          "from": "current owner of the token",
          "to": "address to receive the ownership of the given token ID",
          "tokenId": "uint256 ID of the token to be transferred"
        }
      }
    }
  },
  "userdoc": {
    "methods": {}
  }
}