{
  "contractName": "X2Controller",
  "abi": [
    {
      "constant": true,
      "inputs": [],
      "name": "x2",
      "outputs": [
        {
          "name": "",
          "type": "address"
        }
      ],
      "payable": false,
      "stateMutability": "view",
      "type": "function"
    },
    {
      "constant": true,
      "inputs": [],
      "name": "paused",
      "outputs": [
        {
          "name": "",
          "type": "bool"
        }
      ],
      "payable": false,
      "stateMutability": "view",
      "type": "function"
    },
    {
      "constant": false,
      "inputs": [],
      "name": "renounceOwnership",
      "outputs": [],
      "payable": false,
      "stateMutability": "nonpayable",
      "type": "function"
    },
    {
      "constant": true,
      "inputs": [],
      "name": "owner",
      "outputs": [
        {
          "name": "",
          "type": "address"
        }
      ],
      "payable": false,
      "stateMutability": "view",
      "type": "function"
    },
    {
      "constant": true,
      "inputs": [],
      "name": "isOwner",
      "outputs": [
        {
          "name": "",
          "type": "bool"
        }
      ],
      "payable": false,
      "stateMutability": "view",
      "type": "function"
    },
    {
      "constant": false,
      "inputs": [
        {
          "name": "newOwner",
          "type": "address"
        }
      ],
      "name": "transferOwnership",
      "outputs": [],
      "payable": false,
      "stateMutability": "nonpayable",
      "type": "function"
    },
    {
      "inputs": [
        {
          "name": "_x2",
          "type": "address"
        }
      ],
      "payable": false,
      "stateMutability": "nonpayable",
      "type": "constructor"
    },
    {
      "anonymous": false,
      "inputs": [
        {
          "indexed": true,
          "name": "previousOwner",
          "type": "address"
        },
        {
          "indexed": true,
          "name": "newOwner",
          "type": "address"
        }
      ],
      "name": "OwnershipTransferred",
      "type": "event"
    },
    {
      "constant": false,
      "inputs": [
        {
          "name": "_paused",
          "type": "bool"
        }
      ],
      "name": "updatePaused",
      "outputs": [],
      "payable": false,
      "stateMutability": "nonpayable",
      "type": "function"
    }
  ],
  "bytecode": "0x608060405234801561001057600080fd5b506040516020806104998339810180604052602081101561003057600080fd5b505160008054600160a060020a0319163317808255604051600160a060020a039190911691907f8be0079c531659141344cd1fd0a4f28419497f9722a3daafe3b4186f6b6457e0908290a36001805560028054600160a060020a031916600160a060020a03929092169190911790556103eb806100ae6000396000f3fe6080604052600436106100825763ffffffff7c010000000000000000000000000000000000000000000000000000000060003504166308cdc2a881146100875780634ff13571146100b55780635c975abb146100f3578063715018a61461011c5780638da5cb5b146101315780638f32d59b14610146578063f2fde38b1461015b575b600080fd5b34801561009357600080fd5b506100b3600480360360208110156100aa57600080fd5b5035151561019b565b005b3480156100c157600080fd5b506100ca6101f8565b6040805173ffffffffffffffffffffffffffffffffffffffff9092168252519081900360200190f35b3480156100ff57600080fd5b50610108610214565b604080519115158252519081900360200190f35b34801561012857600080fd5b506100b3610235565b34801561013d57600080fd5b506100ca6102b7565b34801561015257600080fd5b506101086102d3565b34801561016757600080fd5b506100b36004803603602081101561017e57600080fd5b503573ffffffffffffffffffffffffffffffffffffffff166102f1565b6101a36102d3565b15156101ae57600080fd5b6002805491151574010000000000000000000000000000000000000000027fffffffffffffffffffffff00ffffffffffffffffffffffffffffffffffffffff909216919091179055565b60025473ffffffffffffffffffffffffffffffffffffffff1681565b60025474010000000000000000000000000000000000000000900460ff1681565b61023d6102d3565b151561024857600080fd5b6000805460405173ffffffffffffffffffffffffffffffffffffffff909116907f8be0079c531659141344cd1fd0a4f28419497f9722a3daafe3b4186f6b6457e0908390a3600080547fffffffffffffffffffffffff0000000000000000000000000000000000000000169055565b60005473ffffffffffffffffffffffffffffffffffffffff1690565b60005473ffffffffffffffffffffffffffffffffffffffff16331490565b6102f96102d3565b151561030457600080fd5b61030d81610310565b50565b73ffffffffffffffffffffffffffffffffffffffff8116151561033257600080fd5b6000805460405173ffffffffffffffffffffffffffffffffffffffff808516939216917f8be0079c531659141344cd1fd0a4f28419497f9722a3daafe3b4186f6b6457e091a3600080547fffffffffffffffffffffffff00000000000000000000000000000000000000001673ffffffffffffffffffffffffffffffffffffffff9290921691909117905556fea165627a7a72305820bf88c207234c99445ed9267f7d514ad1c63a2f22dd1835dfc6204fa697eaa5560029",
  "source": "pragma solidity ^0.5.0;\n/**\n * The Controller is an upgradeable endpoint for controlling Folia.sol\n */\n\nimport \"./X2.sol\";\nimport \"./SafeMath.sol\";\nimport \"./Ownable.sol\";\nimport \"./ReentrancyGuard.sol\";\nimport \"./IERC721.sol\";\nimport \"./IERC165.sol\";\n\ncontract X2Controller is Ownable, ReentrancyGuard {\n\n    // using SafeMath for uint256;\n    X2 public x2;\n    bool public paused;\n\n    modifier notPaused() {\n        require(!paused, \"Must not be paused\");\n        _;\n    }\n\n    constructor(\n        X2 _x2\n    ) public {\n        x2 = _x2;\n    }\n\n    function updatePaused(bool _paused) public onlyOwner {\n        paused = _paused;\n    }\n}\n",
  "sourcePath": "/Users/billy/GitHub/folia-app/folia-contracts/contracts/X2Controller.sol",
  "compiler": {
    "name": "solc",
    "version": "0.5.0+commit.1d4f565a.Emscripten.clang"
  },
  "schemaVersion": "3.4.3",
  "updatedAt": "2022-09-06T12:49:38.918Z",
  "devdoc": {
    "methods": {
      "isOwner()": {
        "return": "true if `msg.sender` is the owner of the contract."
      },
      "owner()": {
        "return": "the address of the owner."
      },
      "renounceOwnership()": {
        "details": "Allows the current owner to relinquish control of the contract."
      },
      "transferOwnership(address)": {
        "details": "Allows the current owner to transfer control of the contract to a newOwner.",
        "params": {
          "newOwner": "The address to transfer ownership to."
        }
      }
    }
  },
  "userdoc": {
    "methods": {
      "renounceOwnership()": {
        "notice": "Renouncing to ownership will leave the contract without an owner. It will not be possible to call the functions with the `onlyOwner` modifier anymore."
      }
    }
  }
}